:020000040800F2
:1000000000000220A51D0008151C00081D1C00088A
:10001000251C00082D1C0008351C000800000000ED
:100020000000000000000000000000003D1C00086F
:100030004B1C000800000000591C0008671C000849
:10004000F51D0008F51D0008F51D0008F51D000848
:10005000F51D0008F51D0008F51D0008F51D000838
:10006000F51D0008F51D0008F51D0008751C0008A9
:10007000891C0008F51D0008F51D0008F51D000885
:10008000F51D0008F51D00089D1C0008000000007B
:10009000000000000000000000000000F51D000846
:1000A000F51D0008F51D0008B11C0008F51D00082D
:1000B000F51D0008C51C0008F51D0008D91C000826
:1000C000ED1C0008F51D0008F51D0008F51D0008D1
:1000D000F51D0008F51D0008F51D000800000000D2
:1000E000F51D0008F51D0008F51D000800000000C2
:1000F000000000000000000000000000F51D0008E6
:1001000000000000F51D0008F51D0008F51D0008A1
:1001100000000000000000000000000000000000DF
:10012000F51D0008F51D0008F51D0008F51D000867
:10013000F51D0008000000000000000000000000A5
:10014000000000000000000000000000011D000889
:10015000F51D0008F51D0008F51D0008F51D000837
:10016000F51D0008F51D000800000000000000005B
:10017000000000000000000000000000000000007F
:1001800000000000F51D0008000000000000000055
:08019000F51D0008F51D000833
:1001A00010B5054C237833B9044B13B10448AFF3B1
:1001B00000800123237010BD5801002000000000C2
:1001C00008D4000808B5034B1BB103490348AFF33B
:1001D000008008BD000000005C01002008D4000879
:1001E00001F0FF01102A2BDB10F0070F08D010F8E8
:1001F000013B013A8B422DD010F0070F42B3F6D1EC
:10020000F0B441EA012141EA014122F007047FF004
:1002100000070023F0E80256083C85EA010586EA5B
:10022000010685FA47F5A3FA87F586FA47F6A5FA97
:1002300087F68EB9EED1F0BC01F0FF0102F00702A3
:1002400032B110F8013B013A83EA010313B1F8D14E
:100250000020704701387047002D06BF354603382F
:10026000073815F0010F07D1013015F4807F02BF68
:10027000013015F4C03F0130F0BC0138704700BFB9
:1002800053B94AB9002908BF00281CBF4FF0FF31FD
:100290004FF0FF3000F088B9ADF1080C6DE904CEE5
:1002A00000F006F8DDF804E0DDE9022304B0704751
:1002B0002DE9F047089D8E4604468846002B4AD11A
:1002C0008A42174662D9B2FA82F64EB1C6F12003CD
:1002D00001FA06F820FA03F3B74043EA0808B440ED
:1002E0004FEA174E1FFA87FCB8FBFEF1230C0EFBFA
:1002F000118843EA084301FB0CF29A4209D9FB1822
:1003000001F1FF3080F0EA809A4240F2E780023942
:100310003B449A1AA3B2B2FBFEF00EFB102243EA52
:10032000024300FB0CFC9C4509D9FB1800F1FF328D
:1003300080F0D6809C4540F2D3803B44023840EAAE
:100340000140A3EB0C0300211DB1F3400022C5E9DD
:100350000032BDE8F0878B4205D90DB1C5E9000137
:1003600000210846F5E7B3FA83F1002946D1734529
:1003700002D3824200F20581841A6EEB030201204F
:100380009046002DE5D0C5E90048E2E7002A00F0DC
:100390009080B2FA82F6002E40F0A4808A1A030CF4
:1003A0004FEA174E80B2BCB20121B2FBFEFC0EFB3D
:1003B0001C2243EA024304FB0CF29A4207D9FB18C1
:1003C0000CF1FF3802D29A4200F2E080C4469B1A38
:1003D000B3FBFEF20EFB123340EA034302FB04F4CC
:1003E0009C4207D9FB1802F1FF3002D29C4200F276
:1003F000CA8002461B1B42EA0C40A5E7C1F1200659
:100400008B4022FA06F71F430EFA01F420FA06F396
:100410002EFA06FE4FEA1749234300FA01F81FFAA5
:1004200087FCBEFBF9F01C0C09FB10EE44EA0E44FD
:1004300000FB0CFEA64502FA01F209D93C1900F1B5
:10044000FF3A80F09C80A64540F2998002383C44F7
:10045000A4EB0E041FFA83FEB4FBF9F309FB13446B
:100460004EEA044403FB0CFCA44508D93C1903F1F3
:10047000FF3E80F08280A4457FD9023B3C4443EAA2
:100480000040A4EB0C04A0FB02EC64457346E1467B
:1004900062D35FD05DB1B8EB030264EB090404FAE8
:1004A00006F622FA01F31E43CC40C5E900640021A0
:1004B0004FE7B1FBF2FC010C41EA0E4180B240EA89
:1004C00001423B4638463C46B846BE462026B1FB74
:1004D000F7F1A2EB080241EA0C4166E7014618E792
:1004E00010462CE7C6F120022EFA02F3B740B140C5
:1004F00020FA02F24FEA174E0A43B3FBFEF8BCB2F1
:100500000EFB1833110C41EA034108FB04F9B0401B
:1005100089454FEA104380B23ED9791808F1FF3C73
:1005200001D289451FD8A1EB0901B1FBFEF909FBF6
:1005300004F80EFB191192B242EA0142424529D257
:10054000BA1809F1FF31C4D24245C2D2A9F1020161
:100550003A44BEE7F0459DD2BEEB02036CEB070CBC
:100560000138E14696E7A7EB09094944A8F1020CD6
:10057000B1FBFEF909FB04F8DBE773467FE7504661
:1005800066E70846FDE63B44023A33E7ACF1020C6D
:100590003B441CE749469CE7A1EB0901C446B1FB7B
:1005A000FEF909FB04F8C4E7704700BF80B582B0CC
:1005B00000AF78600B46FB70FB7818460CF07CFAB5
:1005C00003461A467B689A60FB7818460CF074FA6A
:1005D00003461A467B68DA60034A7B68136000BFF3
:1005E0000837BD4680BD00BF7C01002090B48CB0B0
:1005F00000AF78600B46FB70002387F82F30002394
:1006000087F82E30002387F82D3097F82F305A1CAA
:1006100087F82F2030333B44552203F8242C97F8D9
:100620002F305A1C87F82F2030333B444E2203F8DA
:10063000242C97F82F305A1C87F82F2030333B4456
:10064000452203F8242C97F82F305A1C87F82F20C6
:1006500030333B44522203F8242C97F82F305A1C95
:1006600087F82F2030333B44FA7803F8242C97F88E
:100670002F305A1C87F82F2030333B443A2203F89E
:10068000242C002387F82D3012E097F82D307A685B
:100690001A4497F82F30591C87F82F1012783033EE
:1006A0003B4403F8242C97F82D30013387F82D3084
:1006B00097F82D20FB78013B9A42E6DB002387F870
:1006C0002E30002387F82D3022E097F82D3030337C
:1006D0003B4413F8242C97F82E30534087F82E30E3
:1006E00097F82D10194B1B68D868184B1B685A795E
:1006F000541CE4B25C711346034401F130023A44E5
:1007000012F8242C1A7097F82D30013387F82D3009
:1007100097F82D2097F82F309A42D6D30B4B1B68B1
:10072000D9680A4B1B685A79501CC0B258711346DD
:100730000B4497F82E201A70044B1B6897F82F2053
:100740001A7400BF3037BD4690BC70477C01002052
:1007500080B584B000AF78607B68DB78FB73E2E043
:10076000764B1B78062B00F2D78001A252F823F0BB
:100770008D070008B5070008E90700081D080008F4
:100780005108000879080008BB0800087B689A68CF
:100790007B681B79591CC8B27968087113441B78AF
:1007A000552B40F0BD80654B01221A707B680022FA
:1007B0009A70B5E07B689A687B681B79591CC8B24F
:1007C0007968087113441B784E2B03D15B4B0222CE
:1007D0001A70A8E07B681B79013BDAB27B681A715A
:1007E000564B00221A709EE07B689A687B681B79E2
:1007F000591CC8B27968087113441B78452B03D182
:100800004E4B03221A708EE07B681B79013BDAB2F3
:100810007B681A71494B00221A7084E07B689A68E1
:100820007B681B79591CC8B27968087113441B781E
:10083000522B03D1414B04221A7074E07B681B7960
:10084000013BDAB27B681A713C4B00221A706AE0F5
:100850007B681A797B685A707B689A687B681B7919
:10086000591CC8B27968087113441A78344B1A704D
:10087000324B05221A7056E07B689A687B681B79B8
:10088000591CC8B27968087113441B783A2B0AD1F5
:100890002A4B06221A702A4B1B7883F03603DAB2F1
:1008A0007B689A703FE07B681B79013BDAB27B681A
:1008B0001A71224B00221A7035E0214B1B78012B54
:1008C0000FD97B689A687B681B79591CC8B2796814
:1008D000087113441A787B689B785340DAB27B68BE
:1008E0009A70174B1B78013BDAB2154B1A70144BF8
:1008F0001B78002B16D1114B00221A707B689A7856
:100900007B689B68796809790B441B789A4209D106
:10091000786800F017F805E0084B00221A7002E032
:1009200000BF00E000BF7B681B79FA7B9A427FF42E
:1009300017AF00BF00BF1037BD4680BD7801002053
:100940008001002080B588B000AF78600023BB77BD
:100950000023FB777B689A687B685B7802331344DB
:100960001B78F22B1FD0F22B46DCF12B10D0F12B91
:1009700042DC002B20D0F02B3ED1BB7F5A1CBA7733
:1009800020333B44F02203F8182C0223FB773EE08F
:10099000BB7F5A1CBA7720333B44F12203F8182C52
:1009A0000223FB7733E0BB7F5A1CBA7720333B44EA
:1009B000F22203F8182C2AE0BB7F5A1CBA772033A6
:1009C0003B44002203F8182C7B689A687B685B78AC
:1009D000033313441A78134B1A707B689A687B6848
:1009E0005B78043313441A780E4B5A700D4BB3F9ED
:1009F00000200D4B1A800AE0BB7F5A1CBA772033C7
:100A00003B44FF2203F8182C0223FB7700BFFA7F38
:100A100007F1080311461846FFF7E8FD00BF20372D
:100A2000BD4680BD740100200000002080B485B068
:100A300000AF78600B467B800023FB8116E0FB89CA
:100A40007A681A440F4B1B689B680E490968C9787D
:100A5000C9B20B4412781A700A4B1B68DA78D2B20A
:100A60000132D2B2DA70FB890133FB81FA897B88CB
:100A70009A42E4D300BF00BF1437BD465DF8047B43
:100A8000704700BF7C01002080B483B000AF786065
:100A90000B467B807B6802229A707B6800221A805A
:100AA0007B687A889A8000BF0C37BD465DF8047B6E
:100AB0007047000080B588B000AF78600023FB77F6
:100AC0000023FB770CE0FA7FFB7F0B4931F81330F2
:100AD00007F10C0009490CF0A5F8FB7F0133FB7707
:100AE000FB7F072BEFD94FF40051054802F015FCAE
:100AF00000BF2037BD4680BD8403002020D40008FD
:100B00000008024080B582B000AF78607B681B6847
:100B1000044A934201D100F015F800BF0837BD46E2
:100B200080BD00BF0048014080B582B000AF786052
:100B30007B685B6C782B01D100F088FE00BF083722
:100B4000BD4680BD80B500AF0E4B1A780E4BA3FB9F
:100B50000213D9080B469B000B445B00D31ADBB28F
:100B6000002B07D14FF40051084802F0D6FB054B8B
:100B700000221A70034B1B780133DAB2014B1A7052
:100B800000BF80BDA6030020CDCCCCCC0008024025
:100B900080B582B002AF01F02FF900F06BF800F0E1
:100BA0001FFA00F0F5F90BF009FA00F04BF900F02C
:100BB000CBF900F0C7F800F017F9244806F05EFF03
:100BC000234806F05BFF0421204807F013F80021BA
:100BD0001E4807F00FF81F491F4800F021FE00F0E3
:100BE00079FB1E480BF03EFB1D4B00221A700021C2
:100BF0001C48FFF7DBFC154B1B68DB6A9BB21946F0
:100C00001948FFF741FF114B1B68DB6A9BB219467D
:100C10001648FFF739FF01230193402300938023F7
:100C2000134A0021002000F0EDFA00F01BFE0D48F1
:100C300000F062FA00F000FC012300931423642208
:100C40000521052000F0D4FC00BFF0E7E002002001
:100C500028030020C51100088D1100082D0A000886
:100C6000940300207003002098030020A0030020BC
:100C700078D4000880B594B000AF07F1200330228B
:100C8000002118460BF0F0FF07F10C0300221A6058
:100C90005A609A60DA601A610023BB60274B1B6CB4
:100CA000264A43F080531364244B1B6C03F080539B
:100CB000BB60BB6800237B60214B1B68204A43F468
:100CC000404313601E4B1B6803F440437B607B680A
:100CD00001233B624FF480337B620223BB634FF4FA
:100CE0008003FB6319233B64C0237B640223BB6442
:100CF0000423FB6407F12003184606F02BFA034691
:100D0000002B01D000F078FA0F23FB6002233B6137
:100D100000237B614FF48053BB610023FB6107F12B
:100D20000C030321184606F08DFC0346002B01D06E
:100D300000F062FA00BF5037BD4680BD0038024067
:100D40000070004080B584B000AF3B4600221A60BE
:100D50005A609A60DA60214B214A1A601F4B4FF4A7
:100D600080325A601D4B00229A601C4B00221A618F
:100D70001A4B00221A76194B002283F82020174BB9
:100D80000022DA62154B174A9A62144B0022DA608D
:100D9000124B0122DA61114B002283F830200F4BF5
:100DA00001225A610D4801F0BDF80346002B01D025
:100DB00000F022FA01233B6001237B600023BB602B
:100DC0003B461946054801F015FA0346002B01D0B1
:100DD00000F012FA00BF1037BD4680BD840100202C
:100DE000002001400100000F80B500AF124B134AF4
:100DF0001A60114B124A5A600F4B00229A600E4B38
:100E00000022DA600C4B4FF480421A610A4B002238
:100E10005A61094B00229A61074B0022DA61064BA6
:100E200000221A62044802F093FA0346002B01D014
:100E300000F0E2F900BF80BDCC010020005400406A
:100E4000801A060080B58EB000AF07F1280300229B
:100E50001A605A609A60DA6007F1200300221A6073
:100E60005A603B1D00221A605A609A60DA601A616B
:100E70005A619A61324B334A1A60314B0F225A60E1
:100E80002F4B00229A602E4B4EF65F22DA602C4BDD
:100E900000221A612A4B00229A61294806F09EFD21
:100EA0000346002B01D000F0A7F94FF48053BB623A
:100EB00007F128031946224807F0FEF80346002BE5
:100EC00001D000F099F91E4806F03AFE0346002BC7
:100ED00001D000F091F900233B6200237B6207F10F
:100EE00020031946164807F0A9FC0346002B01D041
:100EF00000F082F960237B600023BB600023FB606D
:100F000000237B613B1D002219460D4807F012F8B3
:100F10000346002B01D000F06FF93B1D0422194657
:100F2000074807F007F80346002B01D000F064F9EA
:100F3000034800F035FE00BF3837BD4680BD00BF16
:100F4000E00200200004004080B500AF0E4B0F4AC5
:100F50001A600D4B5F225A600B4B00229A600A4BBD
:100F600042F20F72DA60084B00221A61064B00222F
:100F70009A61054806F032FD0346002B01D000F0CF
:100F80003BF900BF80BD00BF28030020004801409E
:100F900080B582B000AF00237B60104B1B6B0F4A03
:100FA00043F4001313630D4B1B6B03F400137B60BE
:100FB0007B68002200210B2001F02FFC0B2001F0A8
:100FC00048FC002200210C2001F027FC0C2001F03D
:100FD00040FC00BF0837BD4680BD00BF003802405E
:100FE00080B58AB000AF07F1140300221A605A607E
:100FF0009A60DA601A6100233B613B4B1B6B3A4AF3
:1010000043F004031363384B1B6B03F004033B6191
:101010003B690023FB60344B1B6B334A43F0800376
:101020001363314B1B6B03F08003FB60FB680023F1
:10103000BB602D4B1B6B2C4A43F0010313632A4BFF
:101040001B6B03F00103BB60BB6800237B60264B76
:101050001B6B254A43F002031363234B1B6B03F006
:1010600002037B607B6800224FF400511F4802F0AE
:101070003BF900224FF406411D4802F035F90022E9
:1010800008211C4802F030F94FF400537B61012322
:10109000BB610023FB6100233B6207F11403194687
:1010A000124801F09DFF4FF406437B610123BB61B1
:1010B0000023FB6100233B6207F1140319460C482F
:1010C00001F08EFF08237B610123BB610023FB61DC
:1010D00000233B6207F114031946064801F080FF24
:1010E00000BF2837BD4680BD0038024000080240DE
:1010F000000002400004024080B582B000AF78607A
:101100007B681A797B68DB78DBB29A4207D0786813
:10111000FFF71EFB7B68DB78DAB27B681A717B68AD
:101120009A797B685B799A422BD07B685A797B6885
:101130009B799A4208D97B685A797B689B79D31A44
:10114000DAB27B681A7406E07B689B79C3F104030A
:10115000DAB27B681A747B68DB687A6892791A4421
:101160007B681B7C194610460BF044F80346002BA5
:1011700007D17B689A797B681B7C1344DAB27B6861
:101180009A7100BF0837BD4680BD000080B586B0AB
:1011900002AFBA601A460346FB810B46BB81134679
:1011A000FB80BA89F989FB880193BB68009301230E
:1011B000034802F025FB012318461037BD4680BDC9
:1011C000CC01002080B586B002AFB9607B600346D9
:1011D000FB811346BB81BA89F9897B68009313466A
:1011E000BA68044802F00EFA034618461037BD46A6
:1011F00080BD00BFCC01002080B400AF72B600BF3C
:1012000000BFFDE780B586B000AFBA601A4603465E
:10121000FB810B46BB811346FB80B7F906300733D1
:10122000002B00DA0733DB103B820023FB75002321
:10123000BB8244E000237B822FE07B8A03F007031C
:10124000002B03D0FB7D5B00FB7512E0B7F9143077
:10125000B7F9102003FB02F2B7F91230002B00DAC5
:101260000733DB101BB213441A46BB6813441B78C8
:10127000FB7597F91730002B09DAFA897B8A13443A
:101280009BB2B989BA8CD2B2184600F051F9B7F9BD
:1012900012309BB201339BB27B82B7F91220B7F9AF
:1012A00006309A42C9DBB7F914309BB201339BB2C6
:1012B000BB82B7F90C309BB201339BB2BB81B7F94B
:1012C0001420B7F920309A42B4DB00BF00BF1837B2
:1012D000BD4680BD80B500AFAE220021782000F071
:1012E00083FA20220021782000F07EFA10220021CB
:1012F000782000F079FAB0220021782000F074FA0A
:10130000C8220021782000F06FFA00220021782006
:1013100000F06AFA10220021782000F065FA4022DD
:101320000021782000F060FA81220021782000F06E
:101330005BFAFF220021782000F056FAA12200215A
:10134000782000F051FAA6220021782000F04CFA13
:10135000A8220021782000F047FA3F2200217820BF
:1013600000F042FAA4220021782000F03DFAD322B6
:101370000021782000F038FA00220021782000F0C7
:1013800033FAD5220021782000F02EFAF022002135
:10139000782000F029FAD9220021782000F024FAE0
:1013A00022220021782000F01FFADA220021782082
:1013B00000F01AFA12220021782000F015FADB2240
:1013C0000021782000F010FA20220021782000F07F
:1013D0000BFA8D220021782000F006FA1422002159
:1013E000782000F001FAAF220021782000F0FCF90B
:1013F0002E220021782000F0F7F90E4B00221A80EF
:101400000C4B00225A800B4B01225A71094B0022CF
:101410009A71084B0022DA71064B01225A74054B6F
:1014200001221A74002000F06BF800F005F800BFEC
:1014300080BD00BFB007002098B500AF2C4B5B7C8F
:10144000002B52D02A4B1B7C002B4ED0284BDB7933
:10145000002B1CD0012B37D1264B1C68244B9B79C9
:10146000DB01254A1A44802340217820A047034607
:10147000012B2DD11E4B9B790133DAB21C4B9A7193
:101480001B4B0022DA711A4B00225A7420E0184BD1
:101490009B79503BDAB2164B1A72154B00225A72E6
:1014A000134B10229A72134B1C680323134A00211A
:1014B0007820A0470346012B0CD10D4B0122DA7195
:1014C0000B4B00225A7405E0094B08229A7102E086
:1014D00000BF00E000BF064B9B79072B05D9044BEA
:1014E00000229A71024B00221A7400BF98BD00BFFF
:1014F000B0070020A8070020A8030020B80700209C
:1015000080B582B000AF0346FB71FB79002B01D19F
:10151000002300E0FF234FF48062194603480BF0DC
:10152000A3FB00BF0837BD4680BD00BFA803002055
:1015300080B483B000AF0346FB800B46BB801346EC
:10154000FB70FB887F2B48D8BB883F2B45D8264BA8
:101550001B79002B06D0FB78002B0CBF0123002346
:10156000DBB2FB70FB78012B1AD1FA88BB88DB0851
:1015700098B20346DB0113441C4AD35C5AB2BB88C1
:1015800003F00703012101FA03F35BB2134359B2DD
:10159000FA880346DB011344C9B2144AD1541DE052
:1015A000FA88BB88DB0898B20346DB0113440F4A74
:1015B000D35C5AB2BB8803F00703012101FA03F39D
:1015C0005BB2DB435BB2134059B2FA880346DB01DE
:1015D0001344C9B2054AD15400E000BF0C37BD46E0
:1015E0005DF8047B704700BFB0070020A80300200F
:1015F00090B587B000AF0446084611461A46234608
:10160000FB800346BB800B467B8013463B80FB88F8
:101610007F2B01D97F23FB807B887F2B01D97F2300
:101620007B80BB883F2B01D93F23BB803B883F2B6E
:1016300001D93F233B80FA887B889A4205D27A8879
:10164000FB88D31A9BB21BB204E0FA887B88D31ABA
:101650009BB21BB27B82BA883B889A4205D23A88F9
:10166000BB88D31A9BB21BB204E0BA883B88D31A5A
:101670009BB21BB23B82FA887B889A4201D201233B
:1016800001E04FF0FF33FB81BA883B889A4201D2D8
:10169000012301E04FF0FF33BB81B7F91220B7F906
:1016A00010309A4206DDB7F91230DA0F13445B109E
:1016B0001BB206E0B7F91030DA0F13445B105B423F
:1016C0001BB2FB82B7F91230002B29D13A88BB88B4
:1016D0009A4205D23B883B81BB883B803B89BB80DB
:1016E0007A88FB889A4205D27B883B81FB887B8085
:1016F0003B89FB80BB88BB820CE0B98A97F8282025
:10170000FB881846FFF714FFB7F914309BB201337A
:101710009BB2BB82B7F914203B889A42EDDD5FE0B3
:10172000B7F91030002B29D13A88BB889A4205D2EC
:101730003B883B81BB883B803B89BB807A88FB88A8
:101740009A4205D27B883B81FB887B803B89FB806A
:10175000FB88BB820CE0BB8A97F82820B988184622
:10176000FFF7E6FEB7F914309BB201339BB2BB82A0
:10177000B7F914207B889A42EDDD31E097F82820F4
:10178000B988FB881846FFF7D3FEFA887B889A420F
:1017900003D1BA883B889A4221D0FB8A7B81B7F972
:1017A0000A20B7F912305B429A4208DDFA8A3B8A76
:1017B000D31A9BB2FB82FA89FB881344FB80B7F9EA
:1017C0000A20B7F910309A42D8DAFA8A7B8A134491
:1017D0009BB2FB82BA89BB881344BB80CEE700BFB3
:1017E0001C37BD4690BD000090B585B000AF0346E4
:1017F000FB710B46BB7113467B71BB793B737B79E5
:101800007B73064B1C68FB7998B207F10C010A2325
:101810000222A04700BF1437BD4690BDAC07002090
:1018200080B483B000AF78603960064A7B6813608B
:10183000054A3B68136000BF0C37BD465DF8047B6A
:10184000704700BFA8070020AC07002080B400AF9D
:10185000034B01225A7400BFBD465DF8047B7047FC
:10186000B007002080B400AF034B01221A7400BF00
:10187000BD465DF8047B7047B007002080B483B09C
:1018800000AF00237B60104B5B6C0F4A43F4804336
:1018900053640D4B5B6C03F480437B607B680023D7
:1018A0003B60094B1B6C084A43F080531364064BA2
:1018B0001B6C03F080533B603B6800BF0C37BD4698
:1018C0005DF8047B704700BF0038024080B58AB0E5
:1018D00000AF786007F1140300221A605A609A6022
:1018E000DA601A617B681B68284A934249D1002359
:1018F0003B61274B5B6C264A43F480735364244B53
:101900005B6C03F480733B613B690023FB60204BFD
:101910001B6B1F4A43F0010313631D4B1B6B03F04A
:101920000103FB60FB680023BB60194B1B6B184A6B
:1019300043F002031363164B1B6B03F00203BB60FF
:10194000BB68FE237B610323BB610023FB6107F1BE
:10195000140319460F4801F043FB01237B61032365
:10196000BB610023FB6107F1140319460A4801F02B
:1019700037FB00220021122000F04FFF122000F060
:1019800068FF00BF2837BD4680BD00BF0020014072
:1019900000380240000002400004024080B58AB0D6
:1019A00000AF786007F1140300221A605A609A6051
:1019B000DA601A617B681B684F4A934240F0978057
:1019C00000233B614D4B1B6B4C4A43F002031363F6
:1019D0004A4B1B6B03F002033B613B69C0237B61F5
:1019E0001223BB610023FB6103233B6204237B6260
:1019F00007F114031946424801F0F2FA0023FB6094
:101A00003E4B1B6C3D4A43F4001313643B4B1B6C71
:101A100003F40013FB60FB683A4B3B4A1A60394BF6
:101A200000225A60374B40229A60364B0022DA601F
:101A3000344B4FF480621A61324B00225A61314BB1
:101A400000229A612F4B0022DA612E4B00221A628B
:101A50002C4B00225A622B4800F016FF0346002B45
:101A600001D0FFF7C9FB7B68264A5A63254A7B6889
:101A70009363264B264A1A60244B4FF000725A603B
:101A8000224B00229A60214B0022DA601F4B4FF458
:101A900080621A611D4B00225A611C4B00229A6120
:101AA0001A4B0022DA61194B00221A62174B0022EE
:101AB0005A62164800F0E8FE0346002B01D0FFF7FB
:101AC0009BFB7B68114A9A63104A7B6893630022F0
:101AD00000211F2000F0A1FE1F2000F0BAFE00220E
:101AE0000021202000F099FE202000F0B2FE00BF6F
:101AF0002837BD4680BD00BF00540040003802407A
:101B000000040240200200202860024080020020E1
:101B10001060024080B584B000AF78607B681B68BD
:101B20001C4A934216D10023FB601B4B1B6C1A4AC4
:101B300043F002031364184B1B6C03F00203FB60B9
:101B4000FB68002200211D2000F067FE1D2000F030
:101B500080FE1AE07B681B68104A934215D100236F
:101B6000BB600D4B5B6C0C4A43F4802353640A4BFF
:101B70005B6C03F48023BB60BB68002200211A2049
:101B800000F04BFE1A2000F064FE00BF1037BD4687
:101B900080BD00BF00040040003802400048014002
:101BA00080B588B000AF786007F10C0300221A609E
:101BB0005A609A60DA601A617B681B68124A934225
:101BC0001DD10023BB60114B1B6B104A43F0020375
:101BD00013630E4B1B6B03F00203BB60BB68302327
:101BE000FB6002233B6100237B610023BB61022376
:101BF000FB6107F10C031946054801F0F1F900BF3C
:101C00002037BD4680BD00BF0004004000380240C0
:101C10000004024080B400AF00BFFDE780B400AF15
:101C200000BFFDE780B400AF00BFFDE780B400AFA8
:101C300000BFFDE780B400AF00BFFDE780B400AF98
:101C400000BFBD465DF8047B704780B400AF00BFA5
:101C5000BD465DF8047B704780B400AF00BFBD4651
:101C60005DF8047B704780B500AF00F017F900BF46
:101C700080BD000080B500AF024800F02DFF00BF1E
:101C800080BD00BF8002002080B500AF024800F098
:101C900023FF00BF80BD00BF2002002080B500AF41
:101CA000024800F082F900BF80BD00BF840100201F
:101CB00080B500AF024806F04DF800BF80BD00BF00
:101CC0002803002080B500AF024806F043F800BFAB
:101CD00080BD00BFE002002080B500AF024801F0E7
:101CE000EDFE00BF80BD00BFCC01002080B500AF7D
:101CF000024802F054F800BF80BD00BFCC010020B4
:101D000080B500AF024804F017F900BF80BD00BFE6
:101D1000B010002080B586B000AF7860144A154B33
:101D2000D31A7B617B693B61134B1B68002B02D18B
:101D3000114B124A1A60104B1A687B6813443A69B7
:101D40009A4207D20AF0A8FF03460C221A604FF00D
:101D5000FF3309E0084B1B68FB60074B1A687B6880
:101D60001344054A1360FB6818461837BD4680BD0A
:101D70000000022000040000C40700200019002019
:101D800080B400AF064BD3F88830054A43F47003A3
:101D9000C2F8883000BFBD465DF8047B704700BFC5
:101DA00000ED00E0DFF834D0FFF7EAFF0C480D4902
:101DB0000D4A002302E0D458C4500433C4188C42A6
:101DC000F9D30A4A0A4C002301E013600432A2420C
:101DD000FBD30AF067FFFEF7DBFE7047000002202E
:101DE0000000002058010020DCD800085801002025
:101DF000FC180020FEE7000080B500AF0E4B1B680A
:101E00000D4A43F4007313600B4B1B680A4A43F4FA
:101E100080631360084B1B68074A43F480731360A8
:101E2000032000F0EFFC0F2000F008F8FFF726FD7C
:101E30000023184680BD00BF003C024080B582B040
:101E400000AF7860124B1A68124B1B7819464FF49A
:101E50007A73B3FBF1F3B2FBF3F3184600F007FD1E
:101E60000346002B01D001230EE07B680F2B0AD81C
:101E7000002279684FF0FF3000F0CFFC064A7B6803
:101E80001360002300E0012318460837BD4680BDDB
:101E9000040000200C0000200800002080B400AFE7
:101EA000064B1B781A46064B1B681344044A136002
:101EB00000BFBD465DF8047B704700BF0C000020EA
:101EC000C807002080B400AF034B1B681846BD460E
:101ED0005DF8047B704700BFC807002080B584B060
:101EE00000AF7860FFF7EEFFB8607B68FB60FB68CF
:101EF000B3F1FF3F05D00A4B1B781A46FB68134429
:101F0000FB6000BFFFF7DEFF0246BB68D31AFA682A
:101F10009A42F7D800BF00BF1037BD4680BD00BF52
:101F20000C00002080B584B000AF78600023FB7304
:101F30007B68002B01D1012333E07B681B6C002BF5
:101F400009D17868FFF7C2FC7B6800225A647B687D
:101F5000002283F83C207B681B6C03F01003002BED
:101F600018D17B681B6C23F4885323F0020343F0E1
:101F700002027B681A64786800F06EFA7B680022BF
:101F80005A647B681B6C23F0030343F001027B68F7
:101F90001A6401E00123FB737B68002283F83C2074
:101FA000FB7B18461037BD4680BD80B586B000AFBC
:101FB000786000237B6100233B617B681B681B68A2
:101FC000FB607B681B685B68BB60FB6803F0020317
:101FD0007B61BB6803F020033B617B69002B49D028
:101FE0003B69002B46D07B681B6C03F01003002B71
:101FF00005D17B681B6C43F400727B681A647B68B4
:102000001B689B6803F04053002B2BD17B681B7E21
:10201000002B27D17B681B68DB6A03F47003002B5D
:1020200006D07B681B689B6803F48063002B19D182
:102030007B681B685A687B681B6822F020025A6024
:102040007B681B6C23F480727B681A647B681B6C52
:1020500003F48053002B05D17B681B6C43F0010215
:102060007B681A647868FEF725FD7B681B686FF053
:1020700012021A60FB6803F004037B61BB6803F083
:1020800080033B617B69002B57D03B69002B54D008
:102090007B681B6C03F01003002B05D17B681B6C65
:1020A00043F400527B681A647B681B689B6803F4E6
:1020B0004013002B39D17B681B689B6B03F44013E2
:1020C000002B06D07B681B689B6803F48063002BA1
:1020D0002BD17B681B685B6803F48063002B24D1E1
:1020E0007B681B689B6803F04053002B1DD17B6805
:1020F0001B7E002B19D17B681B685A687B681B68A4
:1021000022F080025A607B681B6C23F480527B684B
:102110001A647B681B6C03F48073002B05D17B6809
:102120001B6C43F001027B681A64786800F090FA37
:102130007B681B686FF00C021A60FB6803F00103F8
:102140007B61BB6803F040033B617B69002B17D0C8
:102150003B69002B14D07B681B681B6803F00103EC
:10216000012B0DD17B681B6C43F480327B681A64B1
:10217000786800F02AF87B681B686FF001021A602B
:10218000FB6803F020037B61BB6803F080633B6165
:102190007B69002B15D03B69002B12D07B685B6CF0
:1021A00043F002027B685A647B681B686FF0200270
:1021B0001A60786800F013F87B681B686FF02002E3
:1021C0001A6000BF1837BD4680BD80B483B000AF31
:1021D000786000BF0C37BD465DF8047B704780B463
:1021E00083B000AF786000BF0C37BD465DF8047B5C
:1021F0007047000080B485B000AF7860396000237C
:10220000BB607B6893F83C30012B01D1022313E1C2
:102210007B68012283F83C203B681B68092B25D989
:102220007B681B68D9683B681B689BB21A461346DB
:102230005B0013441E3B072202FA03F3DA437B6878
:102240001B680A40DA607B681B68D9683B689A683B
:102250003B681B689BB2184603465B0003441E3B69
:102260009A407B681B680A43DA6022E07B681B683F
:1022700019693B681B689BB21A4613465B001344FE
:10228000072202FA03F3DA437B681B680A401A61EB
:102290007B681B6819693B689A683B681B689BB23E
:1022A000184603465B0003449A407B681B680A4358
:1022B0001A613B685B68062B24D87B681B68596BE6
:1022C0003B685A6813469B001344053B1F2202FAE1
:1022D00003F3DA437B681B680A405A637B681B6818
:1022E000596B3B681B689BB218463B685A6813469B
:1022F0009B001344053B00FA03F27B681B680A430A
:102300005A634CE03B685B680C2B24D87B681B68E5
:10231000196B3B685A6813469B001344233B1F22EA
:1023200002FA03F3DA437B681B680A401A637B688E
:102330001B68196B3B681B689BB218463B685A6860
:1023400013469B001344233B00FA03F27B681B688F
:102350000A431A6323E07B681B68D96A3B685A68A2
:1023600013469B001344413B1F2202FA03F3DA4356
:102370007B681B680A40DA627B681B68D96A3B6825
:102380001B689BB218463B685A6813469B0013446F
:10239000413B00FA03F27B681B680A43DA62294B6F
:1023A000FB607B681B68284A93420FD13B681B681F
:1023B000122B0BD1FB685B6823F40002FB685A60A8
:1023C000FB685B6843F48002FB685A607B681B68AB
:1023D0001D4A93422BD13B681B681C4A934203D091
:1023E0003B681B68112B22D1FB685B6823F48002D9
:1023F000FB685A60FB685B6843F40002FB685A6044
:102400003B681B68114A934211D1114B1B68114A5A
:10241000A2FB03239A0C13469B0013445B00BB6092
:1024200002E0BB68013BBB60BB68002BF9D17B6855
:10243000002283F83C20002318461437BD465DF87F
:10244000047B70470023014000200140120000106F
:102450000400002083DE1B4380B485B000AF7860A9
:10246000794BFB60FB685B6823F44032FB685A6081
:10247000FB685A687B685B681A43FB685A607B6834
:102480001B685A687B681B6822F480725A607B68FC
:102490001B6859687B681B691A027B681B680A43C2
:1024A0005A607B681B685A687B681B6822F0407220
:1024B0005A607B681B6859687B689A687B681B68F0
:1024C0000A435A607B681B689A687B681B6822F421
:1024D00000629A607B681B6899687B68DA687B6831
:1024E0001B680A439A607B689B6A584A934222D0D1
:1024F0007B681B689A687B681B6822F070629A6030
:102500007B681B6899687B689A6A7B681B680A43CA
:102510009A607B681B689A687B681B6822F040524F
:102520009A607B681B6899687B68DA6A7B681B68BD
:102530000A439A600FE07B681B689A687B681B6897
:1025400022F070629A607B681B689A687B681B68DF
:1025500022F040529A607B681B689A687B681B680F
:1025600022F002029A607B681B6899687B681B7E78
:102570005A007B681B680A439A607B6893F8203096
:10258000002B1BD07B681B685A687B681B6842F471
:1025900000625A607B681B685A687B681B6822F47B
:1025A00060425A607B681B6859687B685B6A013BC4
:1025B0005A037B681B680A435A6007E07B681B6804
:1025C0005A687B681B6822F400625A607B681B684B
:1025D000DA6A7B681B6822F47002DA627B681B6827
:1025E000D96A7B68DB69013B1A057B681B680A4373
:1025F000DA627B681B689A687B681B6822F4007249
:102600009A607B681B6899687B6893F830305A023F
:102610007B681B680A439A607B681B689A687B68C2
:102620001B6822F480629A607B681B6899687B68EB
:102630005B699A027B681B680A439A6000BF143783
:10264000BD465DF8047B7047002301400100000F88
:1026500080B483B000AF786000BF0C37BD465DF832
:10266000047B704780B485B000AF78607B6803F06E
:102670000703FB600C4BDB68BB60BA684FF6FF03D7
:102680001340BB60FB681A02BB68134343F0BF638F
:1026900043F40033BB60044ABB68D36000BF143707
:1026A000BD465DF8047B704700ED00E080B400AFEC
:1026B000044BDB681B0A03F007031846BD465DF8B0
:1026C000047B704700ED00E080B483B000AF0346A8
:1026D000FB7197F90730002B0BDBFB7903F01F022E
:1026E000074997F907305B09012000FA02F241F827
:1026F000232000BF0C37BD465DF8047B704700BF48
:1027000000E100E080B483B000AF03463960FB71A4
:1027100097F90730002B0ADB3B68DAB20C4997F9CE
:1027200007301201D2B20B4483F800230AE03B6861
:10273000DAB20849FB7903F00F03043B1201D2B26D
:102740000B441A7600BF0C37BD465DF8047B70471A
:1027500000E100E000ED00E080B489B000AFF86077
:10276000B9607A60FB6803F00703FB61FB69C3F1A2
:102770000703042B28BF0423BB61FB690433062B2A
:1027800002D9FB69033B00E000237B614FF0FF327D
:10279000BB6902FA03F3DA43BB681A407B699A40CB
:1027A0004FF0FF317B6901FA03F3D9437B680B409B
:1027B000134318462437BD465DF8047B704700007C
:1027C00080B582B000AF78607B68013BB3F1807F59
:1027D00001D301230FE00A4A7B68013B53600F21BC
:1027E0004FF0FF30FFF78EFF054B00229A60044B3D
:1027F00007221A60002318460837BD4680BD00BF77
:1028000010E000E080B582B000AF78607868FFF734
:1028100029FF00BF0837BD4680BD80B586B000AF38
:102820000346B9607A60FB7300237B61FFF73EFFCC
:1028300078617A68B9687869FFF78EFF024697F980
:102840000F3011461846FFF75DFF00BF1837BD4631
:1028500080BD80B582B000AF0346FB7197F90730A9
:102860001846FFF731FF00BF0837BD4680BD80B571
:1028700082B000AF78607868FFF7A2FF0346184681
:102880000837BD4680BD000080B586B000AF7860D7
:1028900000237B61FFF716FB38617B68002B01D1B9
:1028A000012399E07B68022283F835207B680022AF
:1028B00083F834207B681B681A687B681B6822F0E9
:1028C00001021A600FE0FFF7FDFA02463B69D31AD6
:1028D000052B08D97B6820225A657B68032283F880
:1028E0003520032378E07B681B681B6803F0010335
:1028F000002BE8D17B681B681B687B617A69384BC9
:1029000013407B617B685A687B689B681A437B68CD
:10291000DB681A437B681B691A437B685B691A434F
:102920007B689B691A437B68DB691A437B681B6A77
:1029300013437A6913437B617B685B6A042B07D17D
:102940007B68DA6A7B681B6B13437A6913437B618C
:102950007B681B687A691A607B681B685B697B61AE
:102960007B6923F007037B617B685B6A7A691343A9
:102970007B617B685B6A042B17D17B689B6A7A69F1
:1029800013437B617B68DB6A002B0ED0786800F014
:10299000ABFA0346002B08D07B6840225A657B685F
:1029A000012283F83520012316E07B681B687A69D1
:1029B0005A61786800F062FA0346FB607B68DB6D61
:1029C0003F229A40FB689A607B6800225A657B68C8
:1029D000012283F83520002318461837BD4680BDF4
:1029E0003F8010F080B586B000AFF860B9607A60C3
:1029F0003B600023FB75FB689B6D3B61FB6893F8B4
:102A00003430012B01D1022340E0FB68012283F81E
:102A10003420FB6893F83530DBB2012B2FD1FB68F3
:102A2000022283F83520FB6800225A653B687A68E9
:102A3000B968F86800F0F4F9FB68DB6D3F229A4052
:102A40003B699A60FB681B681A68FB681B6842F068
:102A500016021A60FB681B6C002B07D0FB681B6812
:102A60001A68FB681B6842F008021A60FB681B6862
:102A70001A68FB681B6842F001021A6005E0FB68F7
:102A8000002283F834200223FB75FB7D184618379B
:102A9000BD4680BD80B483B000AF78607B6893F89A
:102AA0003530DBB2022B04D07B6880225A650123CB
:102AB0000CE07B68052283F835207B681B681A6868
:102AC0007B681B6822F001021A60002318460C374D
:102AD000BD465DF8047B704780B586B000AF786076
:102AE0000023BB608E4B1B688E4AA2FB03239B0A0C
:102AF0007B617B689B6D3B613B691B68FB607B680E
:102B0000DB6D08229A40FB681340002B1AD07B68CB
:102B10001B681B6803F00403002B13D07B681B6841
:102B20001A687B681B6822F004021A607B68DB6D00
:102B300008229A403B699A607B685B6D43F0010212
:102B40007B685A657B68DB6D01229A40FB68134005
:102B5000002B12D07B681B685B6903F08003002B9D
:102B60000BD07B68DB6D01229A403B699A607B68E1
:102B70005B6D43F002027B685A657B68DB6D042263
:102B80009A40FB681340002B12D07B681B681B68BF
:102B900003F00203002B0BD07B68DB6D04229A400C
:102BA0003B699A607B685B6D43F004027B685A6501
:102BB0007B68DB6D10229A40FB681340002B43D0EA
:102BC0007B681B681B6803F00803002B3CD07B6804
:102BD000DB6D10229A403B699A607B681B681B681A
:102BE00003F48023002B18D07B681B681B6803F458
:102BF0000023002B08D17B681B6C002B24D07B6842
:102C00001B6C786898471FE07B689B6C002B1BD07F
:102C10007B689B6C7868984716E07B681B681B682C
:102C200003F48073002B07D17B681B681A687B68EC
:102C30001B6822F008021A607B681B6C002B03D013
:102C40007B681B6C786898477B68DB6D20229A4014
:102C5000FB681340002B00F08F807B681B681B68AB
:102C600003F01003002B00F087807B68DB6D2022CF
:102C70009A403B699A607B6893F83530DBB2052B4C
:102C800036D17B681B681A687B681B6822F01602C5
:102C90001A607B681B685A697B681B6822F0800297
:102CA0005A617B681B6C002B03D17B689B6C002BEB
:102CB00007D07B681B681A687B681B6822F00802D3
:102CC0001A607B68DB6D3F229A403B699A607B68A3
:102CD000012283F835207B68002283F834207B684A
:102CE0001B6D002B7ED07B681B6D7868984779E060
:102CF0007B681B681B6803F48023002B1DD07B6856
:102D00001B681B6803F40023002B0DD17B685B6CF0
:102D1000002B31D07B685B6C786898472CE000BF53
:102D200004000020B5814E1B7B68DB6B002B23D099
:102D30007B68DB6B786898471EE07B681B681B68C4
:102D400003F48073002B0FD17B681B681A687B68C3
:102D50001B6822F010021A607B68012283F835207C
:102D60007B68002283F834207B68DB6B002B03D068
:102D70007B68DB6B786898477B685B6D002B32D093
:102D80007B685B6D03F00103002B22D07B6805227A
:102D900083F835207B681B681A687B681B6822F003
:102DA00001021A60BB680133BB607A699A4207D39B
:102DB0007B681B681B6803F00103002BF2D100E065
:102DC00000BF7B68012283F835207B68002283F8EE
:102DD00034207B68DB6C002B05D07B68DB6C78686B
:102DE000984700E000BF1837BD4680BD80B483B06F
:102DF00000AF78607B6893F83530DBB218460C374B
:102E0000BD465DF8047B704780B483B000AF786046
:102E10007B685B6D18460C37BD465DF8047B7047D8
:102E200080B485B000AFF860B9607A603B60FB6841
:102E30001B681A68FB681B6822F480221A60FB6812
:102E40001B683A685A60FB689B68402B08D1FB6896
:102E50001B687A689A60FB681B68BA68DA6007E0EA
:102E6000FB681B68BA689A60FB681B687A68DA605E
:102E700000BF1437BD465DF8047B704780B485B051
:102E800000AF78607B681B68DBB2103B144AA2FB82
:102E900003231B09FB60134AFB6813441B781A4683
:102EA0007B68DA65FB68032B09D97B681B6823F410
:102EB0007F7323F003031A1D7B689A6507E07B6824
:102EC0001B6823F47F7323F003037A6893657B68A0
:102ED0009B6D18461437BD465DF8047B704700BFF4
:102EE000ABAAAAAA90D8000880B485B000AF7860D9
:102EF0000023FB737B689B6ABB607B689B69002B2C
:102F00001FD1BB68032B56D801A252F823F000BF93
:102F1000212F0008332F0008212F0008B72F0008A9
:102F20007B68DB6A03F08073002B46D00123FB73C0
:102F300043E07B68DB6AB3F1C07F40D10123FB73C0
:102F40003DE07B689B69B3F5005F21D1BB68032B33
:102F500037D801A252F823F0692F00086F2F00081C
:102F6000692F0008812F00080123FB7330E07B6884
:102F7000DB6A03F08073002B25D00123FB7322E072
:102F80007B68DB6AB3F1C07F1FD10123FB731CE0B8
:102F9000BB68022B03D9BB68032B03D018E00123C5
:102FA000FB7315E07B68DB6A03F08073002B0ED0A7
:102FB0000123FB730BE000BF0AE000BF08E000BF85
:102FC00006E000BF04E000BF02E000BF00E000BF79
:102FD000FB7B18461437BD465DF8047B704700BF85
:102FE00080B489B000AF7860396000237B61002332
:102FF0003B610023BB610023FB6159E10122FB69B6
:1030000002FA03F37B613B681B687A6913403B61FA
:103010003A697B699A4240F048813B685B6803F0FB
:103020000303012B05D03B685B6803F00303022B0D
:1030300030D17B689B68BB61FB695B00032202FAAD
:1030400003F3DB43BA691340BB613B68DA68FB6991
:103050005B0002FA03F3BA691343BB617B68BA6988
:103060009A607B685B68BB610122FB6902FA03F32B
:10307000DB43BA691340BB613B685B681B0903F023
:103080000102FB6902FA03F3BA691343BB617B686F
:10309000BA695A603B685B6803F00303032B17D0DF
:1030A0007B68DB68BB61FB695B00032202FA03F308
:1030B000DB43BA691340BB613B689A68FB695B00FC
:1030C00002FA03F3BA691343BB617B68BA69DA6039
:1030D0003B685B6803F00303022B23D1FB69DA082A
:1030E0007B68083253F82230BB61FB6903F00703A9
:1030F0009B000F2202FA03F3DB43BA691340BB6162
:103100003B681A69FB6903F007039B0002FA03F3AB
:10311000BA691343BB61FB69DA087B680832B96995
:1031200043F822107B681B68BB61FB695B000322CC
:1031300002FA03F3DB43BA691340BB613B685B6887
:1031400003F00302FB695B0002FA03F3BA6913435D
:10315000BB617B68BA691A603B685B6803F4403303
:10316000002B00F0A2800023FB60574B5B6C564A9B
:1031700043F480435364544B5B6C03F48043FB6023
:10318000FB68524AFB699B08023352F82330BB614B
:10319000FB6903F003039B000F2202FA03F3DB43F6
:1031A000BA691340BB617B68494A934219D07B6876
:1031B000484A934213D07B68474A93420DD07B68BC
:1031C000464A934207D07B68454A934201D1042383
:1031D00008E0072306E0032304E0022302E00123C2
:1031E00000E00023FA6902F0030292009340BA69FA
:1031F0001343BB613549FB699B080233BA6941F847
:103200002320384B9B68BB613B69DB43BA691340A1
:10321000BB613B685B6803F48013002B03D0BA6981
:103220003B691343BB612F4ABB6993602D4BDB683D
:10323000BB613B69DB43BA691340BB613B685B68B8
:1032400003F40013002B03D0BA693B691343BB613D
:10325000244ABB69D360234B5B68BB613B69DB439A
:10326000BA691340BB613B685B6803F40033002B11
:1032700003D0BA693B691343BB611A4ABB69536007
:10328000184B1B68BB613B69DB43BA691340BB61E8
:103290003B685B6803F48033002B03D0BA693B6959
:1032A0001343BB610F4ABB691360FB690133FB61C8
:1032B000FB690F2B7FF6A2AE00BF00BF2437BD46CF
:1032C0005DF8047B704700BF0038024000380140C1
:1032D000000002400004024000080240000C0240CE
:1032E00000100240003C014080B483B000AF786021
:1032F0000B467B8013467B707B78002B03D07A884B
:103300007B689A6103E07B881A047B689A6100BF3E
:103310000C37BD465DF8047B704780B485B000AFC4
:1033200078600B467B807B685B69FB607A88FB6812
:1033300013401A04FB68D9437B880B401A437B680F
:103340009A6100BF1437BD465DF8047B70470000EA
:1033500080B584B000AF78607B68002B01D1012379
:103360002BE17B6893F83D30DBB2002B06D17B6804
:10337000002283F83C207868FEF710FB7B6824224B
:1033800083F83D207B681B681A687B681B6822F005
:1033900001021A607B681B681A687B681B6842F42C
:1033A00000421A607B681B681A687B681B6822F4FD
:1033B00000421A6004F0FEFAF8607B685B68814A9C
:1033C000934207D8FB68804A934294BF01230023AD
:1033D000DBB206E0FB687D4A934294BF01230023E1
:1033E000DBB2002B01D00123E7E0FB68784AA2FBA7
:1033F00003239B0CBB607B681B685B6823F03F0169
:103400007B681B68BA680A435A607B681B681B6A42
:1034100023F03F017B685B686A4A934202D8BB682D
:10342000013309E0BB684FF4967202FB03F3694A6B
:10343000A2FB03239B0901337A6812680B431362D2
:103440007B681B68DB6923F44F4222F0FF027B6834
:103450005B685C498B4219D8FB68591E7B685B68C6
:103460005B00B1FBF3F3591C40F6FC730B40002BDF
:103470000AD0FB68591E7B685B685B00B1FBF3F305
:103480000133C3F30B0351E004234FE07B689B68D7
:10349000002B11D1FB68581E7B6859680B465B00F6
:1034A0000B44B0FBF3F30133C3F30B03002B0CBF4E
:1034B00001230023DBB212E0FB68581E7B685968C9
:1034C0000B469B000B4499000B44B0FBF3F3013314
:1034D000C3F30B03002B0CBF01230023DBB2002B33
:1034E00001D0012322E07B689B68002B0ED1FB6892
:1034F000581E7B6859680B465B000B44B0FBF3F326
:103500000133C3F30B0343F400430FE0FB68581E81
:103510007B6859680B469B000B4499000B44B0FB39
:10352000F3F30133C3F30B0343F4404379680968B1
:103530001343CB617B681B681B6823F0C0017B6869
:10354000DA697B681B6A1A437B681B680A431A6046
:103550007B681B689B6823F4034323F0FF037A68AE
:1035600011697A68D26811437A6812680B439360D4
:103570007B681B68DB6823F0FF017B685A697B6806
:103580009B691A437B681B680A43DA607B681B6887
:103590001A687B681B6842F001021A607B6800228F
:1035A0001A647B68202283F83D207B6800221A631E
:1035B0007B68002283F83E20002318461037BD4662
:1035C00080BD00BFA08601007F841E00FF083D0073
:1035D00083DE1B43D34D621080B483B000AF7860AC
:1035E0007B681B685B6903F08003802B03D17B68D9
:1035F0001B6800221A6100BF0C37BD465DF8047BD2
:103600007047000080B588B002AFF8607A601A4653
:103610000B467B8113463B81FEF754FC7861FB68C7
:1036200093F83D30DBB2202B40F0E0807B690093C3
:10363000192301227049F86802F014F90346002B9F
:1036400001D00223D3E0FB6893F83C30012B01D179
:103650000223CCE0FB68012283F83C20FB681B6856
:103660001B6803F00103012B07D0FB681B681A6875
:10367000FB681B6842F001021A60FB681B681A684D
:10368000FB681B6822F400621A60FB68212283F841
:103690003D20FB68102283F83E20FB6800221A645C
:1036A000FB687A685A62FB683A895A85FB685B8DC9
:1036B0009AB2FB681A85FB68504ADA6279897B699D
:1036C0003A6AF86801F0F2FD0346002B01D00123AD
:1036D0008DE000233B61FB681B685B693B61FB6815
:1036E0001B689B693B613B6966E07A69396AF868E7
:1036F00002F0D2F90346002B0DD0FB681B6C042BA3
:1037000007D1FB681B681A68FB681B6842F40072EB
:103710001A6001236BE0FB685B6A1A78FB681B6820
:103720001A61FB685B6A5A1CFB685A62FB685B8D16
:103730009BB2013B9AB2FB685A85FB681B8D013B2B
:103740009AB2FB681A85FB681B685B6903F0040387
:10375000042B1BD1FB681B8D002B17D0FB685B6A09
:103760001A78FB681B681A61FB685B6A5A1CFB6865
:103770005A62FB685B8D9BB2013B9AB2FB685A852B
:10378000FB681B8D013B9AB2FB681A857A69396A1E
:10379000F86802F0C9F90346002B0DD0FB681B6CDA
:1037A000042B07D1FB681B681A68FB681B6842F48E
:1037B00000721A6001231AE0FB681B8D002B94D164
:1037C000FB681B681A68FB681B6842F400721A6089
:1037D000FB68202283F83D20FB68002283F83E200E
:1037E000FB68002283F83C20002300E002231846F7
:1037F0001837BD4680BD00BF020010000000FFFF6B
:1038000080B58AB002AFF860084611461A460346F2
:103810007B810B463B811346FB8000237B61FEF7D7
:1038200051FBF861FB6893F83D30DBB2202B40F090
:1038300036819D4B1B68DB089C4AA2FB03231A0AB6
:1038400013469B0013449A0013447B617B69013B40
:103850007B617B69002B12D1FB6800221A63FB6835
:10386000202283F83D20FB68002283F83E20FB687D
:103870001B6C43F02002FB681A64022310E1FB6812
:103880001B689B6903F00203022BDFD0FB6893F8EF
:103890003C30012B01D1022302E1FB68012283F8B5
:1038A0003C20FB681B681B6803F00103012B07D059
:1038B000FB681B681A68FB681B6842F001021A600B
:1038C000FB681B681A68FB681B6822F400621A60B8
:1038D000FB68212283F83D20FB68402283F83E20CC
:1038E000FB6800221A64FB68BA6A5A62FB68BA8DE8
:1038F0005A85FB685B8D9AB2FB681A85FB686C4A37
:10390000DA627A89FB685A643A89FB689A64FA88B1
:10391000FB68DA64FB6800221A65FB681B8D002BCC
:1039200000F0A980FB685B6B002B2AD0FB685B6B07
:10393000604ADA63FB685B6B5F4ADA64FB685B6B67
:1039400000221A64FB685B6B00225A64FB685B6BA5
:1039500000229A64FB685B6B00221A65FB68586B57
:10396000FB685B6A1946FB681B6810331A46FB68E4
:103970001B8DFFF737F80346FB76FB7E002B66D1E5
:1039800013E0FB68202283F83D20FB68002283F8C7
:103990003E20FB681B6C43F08002FB681A64FB68E6
:1039A000002283F83C2001237AE0F8883A8979895B
:1039B000FB690193232300930346F86801F0F8FCA8
:1039C0000346002B22D0FB685B6B1846FFF762F8BA
:1039D0000346FB76FB685B6B0022DA63FB681B68BF
:1039E0001A68FB681B6822F480621A60FB68002278
:1039F0001A85FB6800225A85FB681B681A68FB68F9
:103A00001B6822F001021A60012349E000233B6198
:103A1000FB681B685B693B61FB681B689B693B61DA
:103A20003B69FB68002283F83C20FB681B685A68EE
:103A3000FB681B6842F480725A60FB681B685A6816
:103A4000FB681B6842F400625A60002328E0FB68B0
:103A5000202283F83D20FB68002283F83E20FB688B
:103A60001B6C43F01002FB681A64FB68002283F8A9
:103A70003C20012314E0FB68202283F83D20FB68F2
:103A8000002283F83E20FB681B6C43F04002FB6879
:103A90001A64FB68002283F83C20012300E0022323
:103AA00018462037BD4680BD0400002089B5F814B3
:103AB0000000FFFFDD5400089B56000880B588B069
:103AC00000AF78600023BB617B681B685B687B612B
:103AD0007B68DB6A3B617B6893F83E30FB737B68F5
:103AE00093F83D30BB73FB7B102B03D0FB7B402B4B
:103AF00040F0C1807B681B689B69BB617B681B6869
:103B00005B69FB61FB6903F00103002B0DD13B698D
:103B1000B3F52A0F03D03B69B3F12A4F01D101233A
:103B200000E00023012B00F03281FB6903F0010368
:103B3000002B0CD07B695B0A03F00103002B06D03D
:103B4000786802F09AF8786800F091FD92E0FB69DD
:103B5000DB0803F00103002B09D07B695B0A03F04B
:103B60000103002B03D0786800F007FE82E0FB69B8
:103B70005B0803F00103002B09D07B695B0A03F0AB
:103B80000103002B03D0786800F021FE72E0BB69CE
:103B90009B0803F00103002B3BD07B681B685B682C
:103BA00003F40063B3F5006F00F0F380FB69DB09F9
:103BB00003F00103002B0FD07B699B0A03F0010384
:103BC000002B09D0FB699B0803F00103002B03D1F4
:103BD000786800F0E9F94DE0FB699B0803F0010308
:103BE000002B00F0D6807B695B0A03F00103002BF9
:103BF00000F0CF80BB7B212B03D1786800F070FAF6
:103C0000C7E0FB7B402B40F0C480786800F0DEFA10
:103C1000BFE07B681B685B6803F40063B3F5006F6B
:103C200000F0B780FB699B0903F00103002B0FD064
:103C30007B699B0A03F00103002B09D0FB699B08F9
:103C400003F00103002B03D1786800F057FB11E06B
:103C5000FB699B0803F00103002B00F09A807B694D
:103C60005B0A03F00103002B00F09380786800F0FA
:103C70000DFC8EE08DE07B681B6C002B04D07B6814
:103C80001B685B69FB6107E07B681B689B69BB6124
:103C90007B681B685B69FB61FB695B0803F00103E0
:103CA000002B12D07B695B0A03F00103002B0CD0C0
:103CB0007B681B6C002B03D07B681B689B69BB6116
:103CC000B969786800F0D2FF66E0FB691B0903F070
:103CD0000103002B09D07B695B0A03F00103002B71
:103CE00003D0786801F00CF856E0BB7B212B02D0A2
:103CF000BB7B292B25D1FB69DB0903F00103002BDA
:103D00000FD07B699B0A03F00103002B09D0FB69EC
:103D10009B0803F00103002B03D1786800F0E8FE54
:103D200039E0FB699B0803F00103002B33D07B696A
:103D30005B0A03F00103002B2DD0786800F015FF1B
:103D400029E0FB699B0903F00103002B0FD07B697D
:103D50009B0A03F00103002B09D0FB699B0803F0C9
:103D60000103002B03D1786800F020FF14E0FB6909
:103D70009B0803F00103002B0ED07B695B0A03F064
:103D80000103002B08D0786800F04EFF04E000BF6C
:103D900002E000BF00E000BF2037BD4680BD80B517
:103DA0008AB000AF78607B681B685B693B627B68A8
:103DB0001B685B68FB6100237B627B6893F83E3085
:103DC000FB763B6A1B0A03F00103002B0ED0FB6954
:103DD0001B0A03F00103002B08D07B6A43F00103A8
:103DE0007B627B681B686FF480725A613B6A5B0A76
:103DF00003F00103002B0ED0FB691B0A03F0010343
:103E0000002B08D07B6A43F002037B627B681B684F
:103E10006FF400725A613B6A9B0A03F00103002BA6
:103E20003FD0FB691B0A03F00103002B39D0FB7E56
:103E3000BB767B685B8D9BB27B617B6893F83D3082
:103E4000FB747B681B6BFB60BB7E202B12D17B69F4
:103E5000002B0FD1FB7C212B08D0FB7C292B05D01C
:103E6000FB7C282B06D1FB68212B03D1786801F05D
:103E700077F816E07B681B686FF480625A617B6A92
:103E800043F004037B62FB7E102B02D0FB7E402BB1
:103E900007D17B681B681A687B681B6842F4007254
:103EA0001A603B6ADB0A03F00103002B0ED0FB69AA
:103EB0001B0A03F00103002B08D07B6A43F00803C0
:103EC0007B627B681B686FF400625A617B6A002B1F
:103ED00008D07B681A6C7B6A1A437B681A6478681E
:103EE00001F0B2F800BF2837BD4680BD80B483B072
:103EF00000AF786000BF0C37BD465DF8047B7047AB
:103F000080B483B000AF786000BF0C37BD465DF869
:103F1000047B704780B483B000AF786000BF0C377B
:103F2000BD465DF8047B704780B483B000AF786015
:103F300000BF0C37BD465DF8047B704780B483B08A
:103F400000AF78600B46FB7013463B8000BF0C3718
:103F5000BD465DF8047B704780B483B000AF7860E5
:103F600000BF0C37BD465DF8047B704780B483B05A
:103F700000AF786000BF0C37BD465DF8047B70472A
:103F800080B483B000AF786000BF0C37BD465DF8E9
:103F9000047B704780B483B000AF786000BF0C37FB
:103FA000BD465DF8047B704780B584B000AF786093
:103FB0007B6893F83D30FB737B6893F83E30BB73AE
:103FC0007B68DB6ABB607B681B8D002B50D1FB7B61
:103FD000212B4DD1BB68082B1DD0BB68202B1AD0DC
:103FE000BB6813F5803F16D07B681B685A687B68F6
:103FF0001B6822F4E0625A607B6811221A637B68B6
:10400000002283F83E207B68202283F83D207868D8
:10401000FFF76CFF60E07B681B685A687B681B6871
:1040200022F4E0625A607B681B681A687B681B6830
:1040300042F400721A607B6800221A637B682022B7
:1040400083F83D207B6893F83E30DBB2402B07D1EC
:104050007B68002283F83E207868FCF765FD3BE032
:104060007B68002283F83E207868FFF73FFF33E04B
:10407000FB7B212B05D0BB7B402B2DD1FB7B222B47
:104080002AD17B685B8D9BB2002B08D17B681B68B3
:104090005A687B681B6822F480625A601CE07B6867
:1040A00093F83E30DBB2402B03D1786800F08EF8F5
:1040B00012E07B685B6A1A787B681B681A617B6810
:1040C0005B6A5A1C7B685A627B685B8D9BB2013BC2
:1040D0009AB27B685A85FFE700BF1037BD4680BDA6
:1040E00080B584B000AF78607B68DB6AFB607B687A
:1040F00093F83D30DBB2212B64D17B685B8D9BB2A2
:10410000002B12D07B685B6A1A787B681B681A6187
:104110007B685B6A5A1C7B685A627B685B8D9BB2CA
:10412000013B9AB27B685A854CE0FB68082B1DD096
:10413000FB68202B1AD0FB6813F5803F16D07B68F4
:104140001B685A687B681B6822F4E0625A607B68CF
:1041500011221A637B68002283F83E207B682022AC
:1041600083F83D207868FFF7C1FE2BE07B681B6871
:104170005A687B681B6822F4E0625A607B681B689F
:104180001A687B681B6842F400721A607B68002220
:104190001A637B68202283F83D207B6893F83E30C9
:1041A000DBB2402B07D17B68002283F83E20786881
:1041B000FCF7BAFC06E07B68002283F83E207868B2
:1041C000FFF794FE00BF1037BD4680BD80B584B0B8
:1041D00000AF78607B6893F83D30FB737B681B6DA4
:1041E000002B1DD17B68DB6C012B0BD17B689B6C9A
:1041F000DAB27B681B681A617B681B6D9A1C7B684E
:104200001A6577E07B689B6C9BB21B12DAB27B6805
:104210001B681A617B681B6D5A1C7B681A6569E014
:104220007B681B6D012B0BD17B689B6CDAB27B68C2
:104230001B681A617B681B6D5A1C7B681A6559E004
:104240007B681B6D022B52D1FB7B222B0DD17B682F
:104250001B681A687B681B6842F480721A607B686E
:104260001B6D5A1C7B681A6544E07B685B8D9BB2B2
:10427000002B15D0FB7B212B12D17B685B6A1A784F
:104280007B681B681A617B685B6A5A1C7B685A6290
:104290007B685B8D9BB2013B9AB27B685A8529E0B3
:1042A0007B685B8D9BB2002B24D1FB7B212B21D122
:1042B0007B681B685A687B681B6822F4E0625A605E
:1042C0007B681B681A687B681B6842F400721A607E
:1042D0007B6800221A637B68202283F83D207B687C
:1042E000002283F83E207868FCF71EFC02E0786824
:1042F000FFF772F900BF1037BD4680BD80B584B0AE
:1043000000AF78607B6893F83D30DBB2222B40F041
:10431000B9807B68DB6AFB607B685B8D9BB2BB60AE
:10432000BB68032B21D97B681B681A697B685B6AB1
:10433000D2B21A707B685B6A5A1C7B685A627B68CF
:104340005B8D9BB2013B9AB27B685A857B685B8D23
:104350009BB2032B40F096807B681B685A687B6891
:104360001B6822F480625A608CE07B68DB6A022B57
:104370007FD0BB68012B02D0BB68002B79D1786855
:1043800001F01AFC0346002B4CD17B681B681A68AD
:104390007B681B6822F480621A607B681B685A681D
:1043A0007B681B6822F4E0625A607B681B681A69AC
:1043B0007B685B6AD2B21A707B685B6A5A1C7B6846
:1043C0005A627B685B8D9BB2013B9AB27B685A85CF
:1043D0007B68202283F83D207B6893F83E30DBB277
:1043E000402B0AD17B68002283F83E207B680022A4
:1043F0001A637868FFF7BAFD44E07B68002283F80F
:104400003E20FB68082B02D0FB68202B03D17B6881
:1044100000221A6302E07B6812221A637868FFF7B1
:104420006FFD2FE07B681B685A687B681B6822F46D
:10443000E0625A607B681B681A697B685B6AD2B26B
:104440001A707B685B6A5A1C7B685A627B685B8D5A
:104450009BB2013B9AB27B685A857B68202283F825
:104460003D207B68002283F83E207868FFF788FDB6
:1044700008E07B681B685A687B681B6822F48062CE
:104480005A60FFE700BF1037BD4680BD80B584B0DD
:1044900000AF78607B68DB6AFB607B685B8D9BB2FA
:1044A000042B1BD17B681B685A687B681B6822F44D
:1044B00080625A607B681B681A697B685B6AD2B24B
:1044C0001A707B685B6A5A1C7B685A627B685B8DDA
:1044D0009BB2013B9AB27B685A85C4E07B685B8DD6
:1044E0009BB2032B29D17B681B685A687B681B68C9
:1044F00022F480625A60FB68042B0AD0FB68022B0E
:1045000007D07B681B681A687B681B6822F480628E
:104510001A607B681B681A697B685B6AD2B21A7082
:104520007B685B6A5A1C7B685A627B685B8D9BB2B6
:10453000013B9AB27B685A8595E07B685B8D9BB2A4
:10454000022B7DD1FB68012B02D0FB68102B08D118
:104550007B681B681A687B681B6822F480621A609B
:1045600016E0FB68042B02D0FB68022B08D17B68A5
:104570001B681A687B681B6842F480621A6007E057
:104580007B681B681A687B681B6842F400721A60BB
:104590007B681B681A697B685B6AD2B21A707B6899
:1045A0005B6A5A1C7B685A627B685B8D9BB2013BDD
:1045B0009AB27B685A857B681B681A697B685B6A5C
:1045C000D2B21A707B685B6A5A1C7B685A627B683D
:1045D0005B8D9BB2013B9AB27B685A857B681B68F6
:1045E0005A687B681B6822F440725A607B682022FC
:1045F00083F83D207B6893F83E30DBB2402B0AD134
:104600007B68002283F83E207B6800221A6378686A
:10461000FFF7ACFC27E07B68002283F83E20FB68B4
:10462000082B02D0FB68202B03D17B6800221A6381
:1046300002E07B6812221A637868FFF761FC12E0DF
:104640007B681B681A697B685B6AD2B21A707B68E8
:104650005B6A5A1C7B685A627B685B8D9BB2013B2C
:104660009AB27B685A8500BF1037BD4680BD80B4C2
:1046700083B000AF78607B6893F83E30DBB2402BAC
:1046800017D17B681B6D002B09D17B685B6CDBB29B
:104690001A467B681B6802F0FE021A6167E07B68BD
:1046A0005B6CDBB243F00103DAB27B681B681A6112
:1046B0005DE07B681B69B3F5804F33D17B6893F86D
:1046C0003D30DBB2212B09D17B685B6CDBB21A4633
:1046D0007B681B6802F0FE021A6108E07B685B6C75
:1046E000DBB243F00103DAB27B681B681A617B68B6
:1046F0005B6B002B04D07B685B6BDB6B002B08D102
:104700007B689B6B002B32D07B689B6BDB6B002B39
:104710002DD07B681B685A687B681B6842F4006276
:104720005A6024E07B681B6D002B0ED17B685B6CAC
:104730009BB2DB11DBB203F00603DBB263F00F03C5
:10474000DAB27B681B681A6111E07B681B6D012B74
:104750000DD17B685B6C9BB2DB11DBB203F006030F
:10476000DBB263F00E03DAB27B681B681A6100BF2C
:104770000C37BD465DF8047B704780B483B000AF52
:1047800078607B685B6CDAB27B681B681A617B6857
:104790005B6B002B04D07B685B6BDB6B002B08D161
:1047A0007B689B6B002B0CD07B689B6BDB6B002BBF
:1047B00007D07B681B685A687B681B6842F40062FC
:1047C0005A6000BF0C37BD465DF8047B704780B46B
:1047D00091B000AF78607B6893F83E3087F83F3047
:1047E0007B68DB6ABB637B681B6B7B637B6893F8CE
:1047F0003D30DBB2222B40F069817B681B6D002BC2
:104800000FD197F83F30402B0BD100233B637B68DF
:104810001B685B693B637B681B689B693B633B6B05
:1048200060E17B681B6D002B1DD17B681B69B3F5B4
:10483000404F18D10023FB627B681B685B69FB62F9
:104840007B681B689B69FB62FB6A7B681B681A6854
:104850007B681B6842F480721A607B681B6D5A1C6F
:104860007B681A653EE17B685B8D9BB2002B13D1A0
:104870000023BB627B681B685B69BB627B681B684B
:104880009B69BB62BB6A7B681B681A687B681B6894
:1048900042F400721A6015E17B685B8D9BB2012BBC
:1048A00040F08A80BB6B13F5803F37D17B681B6873
:1048B0001A687B681B6822F480621A607B681B6838
:1048C0005B6803F40063B3F5006F13D17B681B686A
:1048D0001A687B681B6822F480621A6000237B627E
:1048E0007B681B685B697B627B681B689B697B627A
:1048F0007B6AE7E000233B627B681B685B693B6285
:104900007B681B689B693B623B6A7B681B681A6813
:104910007B681B6842F400721A60D3E0BB6B082B03
:104920002ED0BB6B202B2BD07B6B122B02D1BB6B01
:10493000012B25D1BB6B042B0ED0BB6B022B0BD0F4
:10494000BB6B102B08D07B681B681A687B681B68E0
:1049500022F480621A6007E07B681B681A687B6833
:104960001B6842F480621A600023FB617B681B684D
:104970005B69FB617B681B689B69FB61FB69A1E06C
:104980007B681B681A687B681B6822F480621A6067
:104990000023BB617B681B685B69BB617B681B682C
:1049A0009B69BB61BB697B681B681A687B681B6875
:1049B00042F400721A6085E07B685B8D9BB2022B2B
:1049C0004DD1BB6B042B16D0BB6B022B13D0BB6B32
:1049D000102B10D07B681B681A687B681B6822F458
:1049E00080621A607B681B681A687B681B6842F4E7
:1049F00000621A6007E07B681B681A687B681B68A6
:104A000042F480621A607B681B685B6803F4006391
:104A1000B3F5006F17D1BB6B13F5803F0BD0BB6BA9
:104A2000012B08D0BB6B082B05D0BB6B102B02D021
:104A3000BB6B202B07D17B681B685A687B681B689F
:104A400042F480525A6000237B617B681B685B697B
:104A50007B617B681B689B697B617B6932E07B685B
:104A60001B681A687B681B6842F480621A607B6866
:104A70001B685B6803F40063B3F5006F17D1BB6B71
:104A800013F5803F0BD0BB6B012B08D0BB6B082B01
:104A900005D0BB6B102B02D0BB6B202B07D17B68E2
:104AA0001B685A687B681B6842F480525A60002376
:104AB0003B617B681B685B693B617B681B689B692A
:104AC0003B613B697B6800221A650BE00023FB60B9
:104AD0007B681B685B69FB607B681B689B69FB608C
:104AE000FB68FFE700BF4437BD465DF8047B7047B5
:104AF00080B584B000AF78607B6893F83D30FB737D
:104B00007B685B8D9BB2002B2BD07B685B6A1A782D
:104B10007B681B681A617B685B6A5A1C7B685A62F7
:104B20007B685B8D9BB2013B9AB27B685A857B6840
:104B30005B8D9BB2002B14D1FB7B292B11D17B68A1
:104B40001B685A687B681B6822F480625A607B6825
:104B500021221A637B68282283F83D207868FFF7BA
:104B6000D9F900BF1037BD4680BD80B483B000AF17
:104B700078607B685B8D9BB2002B11D07B685B6A91
:104B80001A787B681B681A617B685B6A5A1C7B68B1
:104B90005A627B685B8D9BB2013B9AB27B685A85F7
:104BA00000BF0C37BD465DF8047B704780B584B00C
:104BB00000AF78607B6893F83D30FB737B685B8D5A
:104BC0009BB2002B2CD07B681B681A697B685B6AE0
:104BD000D2B21A707B685B6A5A1C7B685A627B6827
:104BE0005B8D9BB2013B9AB27B685A857B685B8D7B
:104BF0009BB2002B14D1FB7B2A2B11D17B681B6845
:104C00005A687B681B6822F480625A607B682222A3
:104C10001A637B68282283F83D207868FFF784F9BF
:104C200000BF1037BD4680BD80B483B000AF786050
:104C30007B685B8D9BB2002B12D07B681B681A6966
:104C40007B685B6AD2B21A707B685B6A5A1C7B68AD
:104C50005A627B685B8D9BB2013B9AB27B685A8536
:104C600000BF0C37BD465DF8047B704780B584B04B
:104C700000AF786039600023FB737B6893F83D30A8
:104C8000DBB203F02803282B27D17B681B685A6806
:104C90007B681B6822F480625A603B689B0803F0C3
:104CA0000103002B01D10123FB733B68DB0903F0F7
:104CB0000103002B03D17B68DB68BB8102E07B68CA
:104CC0009B69BB817B68002283F83C20BA89FB7B0F
:104CD00019467868FFF732F90EE00023BB607B6865
:104CE0001B685B69BB607B681B689B69BB60BB68BA
:104CF0007B68002283F83C2000BF1037BD4680BD92
:104D000080B584B000AF78607B6893F83D30FB736A
:104D10007B681B685A687B681B6822F4E0625A60F3
:104D20000023BB607B681B685B69BB607B681B689A
:104D30001A687B681B6842F001021A60BB687B68D6
:104D40001B681A687B681B6822F480621A607B68A3
:104D50001B685B6803F40063B3F5006F72D1FB7BE3
:104D6000222B02D0FB7B2A2B35D17B689B6B1B68E7
:104D70005B689AB27B685A857B685B8D9BB2002B1F
:104D800005D07B681B6C43F004027B681A647B6867
:104D90001B685A687B681B6822F400625A607B6853
:104DA0009B6B1846FEF722F80346012B49D07B681F
:104DB0009B6B694A1A657B689B6B1846FDF76AFE18
:104DC0000346002B3DD07B689B6B1B6D7A68926B12
:104DD0001046984735E07B685B6B1B685B689AB24E
:104DE0007B685A857B685B8D9BB2002B05D07B6806
:104DF0001B6C43F004027B681A647B681B685A686A
:104E00007B681B6822F400625A607B685B6B184603
:104E1000FDF7ECFF0346012B14D07B685B6B4E4A19
:104E20001A657B685B6B1846FDF734FE0346002B62
:104E300008D07B685B6B1B6D7A68526B1046984795
:104E400000E000BF7B685B8D9BB2002B3ED07B688F
:104E50001B685B6903F00403042B12D17B681B6899
:104E60001A697B685B6AD2B21A707B685B6A5A1CEB
:104E70007B685A627B685B8D9BB2013B9AB27B6810
:104E80005A857B681B685B6903F04003402B12D195
:104E90007B681B681A697B685B6AD2B21A707B6890
:104EA0005B6A5A1C7B685A627B685B8D9BB2013BD4
:104EB0009AB27B685A857B685B8D9BB2002B05D0CC
:104EC0007B681B6C43F004027B681A647B681B6C74
:104ED000002B03D0786800F0B7F839E0FB7B2A2B71
:104EE00009D17B6800221A637B68282283F83D2061
:104EF0007868FFF719F87B6893F83D30DBB2282B10
:104F000011D17B68154ADA627B6800221A637B68DC
:104F1000202283F83D207B68002283F83E207868B9
:104F2000FFF71AF814E07B681B6B222B02D0FB7B87
:104F3000222B0DD17B6800221A637B68202283F824
:104F40003D207B68002283F83E207868FEF7ECFF66
:104F500000BF1037BD4680BD155700080000FFFF99
:104F600080B584B000AF78607B6893F83D30FB7308
:104F70007B68DB6ABB60BB68082B02D0BB68202B58
:104F800029D1FB7B282B26D17B682E4ADA627B68ED
:104F90001B685A687B681B6822F4E0625A607B6871
:104FA0001B686FF480625A617B681B681A687B68B3
:104FB0001B6822F480621A607B6800221A637B6897
:104FC000202283F83D207B68002283F83E20786809
:104FD000FEF7C2FF31E0FB7B212B29D17B68194A08
:104FE000DA627B6821221A637B68202283F83D20E5
:104FF0007B68002283F83E207B681B685A687B68C8
:105000001B6822F4E0625A607B681B686FF4806260
:105010005A617B681B681A687B681B6822F480628F
:105020001A607868FEF7D8FA7868FEF773FF04E034
:105030007B681B686FF480625A6100BF1037BD4601
:1050400080BD00BF0000FFFF80B584B000AF786076
:105050007B6893F83D30FB737B6893F83E30BB73FD
:10506000BB7B102B02D0BB7B402B0AD1FB7B222BBE
:1050700007D17B681B681A687B681B6822F4006292
:105080001A60FB7B03F02803282B07D17B680022E2
:105090001A637B68282283F83D2015E07B681B6833
:1050A0005B6803F40063B3F5006F0AD0FB7B602BF1
:1050B00007D07B68202283F83D207B68002283F89C
:1050C0003E207B6800221A637B681B685B6803F4E0
:1050D0000063B3F5006F62D17B681B685A687B6818
:1050E0001B6822F400625A607B685B6B93F8353072
:1050F000DBB2012B20D07B685B6B6A4A1A657B6848
:105100005B6B1846FDF7C6FC0346002B00F0898058
:105110007B681B681A687B681B6822F001021A60B2
:105120007B68202283F83D207B685B6B1B6D7A686F
:10513000526B1046984774E07B689B6B594A1A651E
:105140007B689B6B1846FDF7A5FC0346002B68D0D7
:105150007B681B685B6903F04003402B0BD17B68C5
:105160001B681A697B685B6AD2B21A707B685B6ADB
:105170005A1C7B685A627B681B681A687B681B68CC
:1051800022F001021A607B68202283F83D207B68B0
:105190009B6B1B6D7A68926B1046984741E07B6869
:1051A00093F83D30DBB2602B25D17B68202283F859
:1051B0003D207B6800221A647B681B685B6903F0F2
:1051C0004003402B0BD17B681B681A697B685B6AC4
:1051D000D2B21A707B685B6A5A1C7B685A627B6821
:1051E0001B681A687B681B6822F001021A607868E5
:1051F000FEF7D0FE15E07B681B685B6903F0400397
:10520000402B0BD17B681B681A697B685B6AD2B242
:105210001A707B685B6A5A1C7B685A627868FEF772
:10522000AFFE7B681B6CBB60BB6803F00103002B07
:105230000ED1BB6803F00203002B09D1BB6803F059
:105240000403002B04D1BB6803F00803002B07D034
:105250007B681B685A687B681B6822F4E0625A60AE
:105260007B6893F83D30FB737B681B6C03F0040391
:10527000042B13D1FB7B282B10D17B680A4ADA62FE
:105280007B6800221A637B68202283F83D207B68BC
:10529000002283F83E207868FEF75EFE00BF1037DC
:1052A000BD4680BD155700080000FFFF80B588B0DF
:1052B00002AFF8607A603B600B467B81FB68DB6A7B
:1052C0007B617B69082B06D07B69012B03D07B694E
:1052D00013F5803F08D1FB681B681A68FB681B68E0
:1052E00042F480721A600BE0FB681B6B122B07D133
:1052F000FB681B681A68FB681B6842F480721A60BE
:105300003B6800937B6800224FF00111F86800F0C1
:10531000A9FA0346002B0DD0FB681B681B6803F439
:105320008073B3F5807F03D1FB684FF400721A6479
:10533000032335E0FB681B69B3F5804F08D17B89F7
:10534000DBB21A46FB681B6802F0FE021A611BE022
:105350007B89DB11DBB203F00603DBB263F00F03E2
:10536000DAB2FB681B681A613B687A680E49F86814
:1053700000F0F2FA0346002B01D0012310E07B89F4
:10538000DAB2FB681B681A613B687A680749F868FB
:1053900000F0E2FA0346002B01D0012300E00023D5
:1053A00018461837BD4680BD080001000200010004
:1053B00080B588B002AFF860084611461A46034629
:1053C0007B810B463B811346FB80FB681B681A6898
:1053D000FB681B6842F480721A607B6A00933B6A28
:1053E00000224FF00111F86800F03CFA0346002B50
:1053F0000DD0FB681B681B6803F48073B3F5807FD6
:1054000003D1FB684FF400721A6403235FE07B89C9
:10541000DBB21A46FB681B6802F0FE021A617B6A67
:105420003A6A2D49F86800F097FA0346002B01D03C
:1054300001234CE000237B61FB681B685B697B6197
:10544000FB681B689B697B617B697A6A396AF868CB
:1054500000F022FB0346002B0DD0FB681B6C042BD5
:1054600007D1FB681B681A68FB681B6842F400726E
:105470001A6001232BE0FB88012B05D13B89DAB2AE
:10548000FB681B681A6121E03B891B0A9BB2DAB2F8
:10549000FB681B681A617A6A396AF86800F0FCFADE
:1054A0000346002B0DD0FB681B6C042B07D1FB6857
:1054B0001B681A68FB681B6842F400721A600123BB
:1054C00005E03B89DAB2FB681B681A6100231846C5
:1054D0001837BD4680BD00BF0200010080B586B010
:1054E00000AF78607B689B6B7B617B6993F83D3094
:1054F000FB747B6993F83E30BB747B69DB6AFB60AD
:105500007B691B685A687B691B6822F440725A6089
:105510007B695B6B002B03D07B695B6B0022DA63DA
:105520007B699B6B002B03D07B699B6B0022DA634A
:10553000FB7C03F02103212B07D0FB7C03F022032B
:10554000222B31D1BB7C202B2ED17B691B685A6862
:105550007B691B6822F400625A607B6900225A85CD
:10556000FB7C292B0AD17B6921221A637B692822C3
:1055700083F83D207869FEF7CDFC0CE0FB7C2A2BFC
:1055800009D17B6922221A637B69282283F83D2096
:105590007869FEF7C9FC7B691B685A687B691B68E0
:1055A00042F440725A6074E07B6993F83E30DBB29B
:1055B000002B6ED07B695B8D9BB2012B07D17B6981
:1055C0001B681A687B691B6822F480621A607B6919
:1055D0001B685A687B691B6822F440725A60FB683A
:1055E00013F5803F09D0FB68082B06D0FB68B3F1A8
:1055F0002A4F02D0FB68202B07D17B691B681A68F1
:105600007B691B6842F400721A607B691B685A68E8
:105610007B691B6822F480525A607B691B685A6858
:105620007B691B6822F400625A607B6900225A85FC
:105630007B691B6C002B03D07869FEF7A1FC28E086
:105640007B69202283F83D207B6993F83E30DBB2F2
:10565000402B0AD17B69002283F83E207B6900221F
:105660001A637869FEF782FC13E07B69002283F8F5
:105670003E20FB68082B02D0FB68202B03D17B69FE
:1056800000221A6302E07B6912221A637869FEF72E
:1056900037FC00BF1837BD4680BD80B584B000AF71
:1056A00078607B689B6BFB60FB685B6B002B03D0B7
:1056B000FB685B6B0022DA63FB689B6B002B03D0FB
:1056C000FB689B6B0022DA637868FDF79DFB03465D
:1056D000022B1BD0FB681B681A68FB681B6822F44E
:1056E00080621A60FB6800225A85FB68202283F8DA
:1056F0003D20FB68002283F83E20FB681B6C43F0D2
:105700001002FB681A64F868FEF73AFC00BF103715
:10571000BD4680BD80B586B000AF78600023FB60D9
:105720007B689B6B7B617B6993F83D30FB744B4BD3
:105730001B68DB084A4AA2FB03231A0A13469B0094
:105740001344DA00D31AFB60FB68002B06D17B6997
:105750001B6C43F020027B691A640AE0FB68013B82
:10576000FB607B691B681B6803F40073B3F5007F63
:10577000EAD07B695B6B002B03D07B695B6B0022FB
:10578000DA637B699B6B002B03D07B699B6B0022E8
:10579000DA637B691B681A687B691B6822F4806284
:1057A0001A607B6900225A857B695B6B002B03D0F2
:1057B0007B695B6B00221A657B699B6B002B03D0B6
:1057C0007B699B6B00221A657B691B681A687B6981
:1057D0001B6822F001021A607B6993F83D30DBB24E
:1057E000602B0ED17B69202283F83D207B6900224B
:1057F00083F83E207B6900221A647869FEF7CAFBB1
:1058000027E0FB7C03F02803282B17D17B691B685A
:105810001A687B691B6842F001021A607B691B6889
:105820001A687B691B6842F480621A607B690022F7
:105830001A637B69282283F83D2007E07B692022D8
:1058400083F83D207B69002283F83E207869FEF7CB
:1058500097FB00BF1837BD4680BD00BF0400002085
:1058600089B5F81480B584B000AFF860B9603B60CA
:105870001346FB7148E03B68B3F1FF3F44D0FCF7AF
:1058800021FB0246BB69D31A3A689A4202D33B68AD
:10589000002B39D1BB681B0CDBB2012B0DD1FB688F
:1058A0001B685B69DA43BB6813409BB2002B0CBFDB
:1058B00001230023DBB21A460CE0FB681B689B69DE
:1058C000DA43BB6813409BB2002B0CBF01230023BB
:1058D000DBB21A46FB799A4216D1FB6800221A63A2
:1058E000FB68202283F83D20FB68002283F83E20DD
:1058F000FB681B6C43F02002FB681A64FB68002203
:1059000083F83C20012323E0BB681B0CDBB2012B96
:105910000DD1FB681B685B69DA43BB6813409BB21F
:10592000002B0CBF01230023DBB21A460CE0FB68FE
:105930001B689B69DA43BB6813409BB2002B0CBF0A
:1059400001230023DBB21A46FB799A4293D000234D
:1059500018461037BD4680BD80B584B000AFF860F2
:10596000B9607A603B6071E0FB681B685B6903F4B7
:105970008063B3F5806F23D1FB681B681A68FB68EE
:105980001B6842F400721A60FB681B686FF4806247
:105990005A61FB6800221A63FB68202283F83D20CD
:1059A000FB68002283F83E20FB681B6C43F0040276
:1059B000FB681A64FB68002283F83C20012367E03F
:1059C0007B68B3F1FF3F41D0FCF77CFA02463B68AD
:1059D000D31A7A689A4202D37B68002B36D1BB680F
:1059E0001B0CDBB2012B0CD1FB681B685B69DA4333
:1059F000BB6813409BB2002B14BF01230023DBB212
:105A00000BE0FB681B689B69DA43BB6813409BB2E1
:105A1000002B14BF01230023DBB2002B16D0FB6840
:105A200000221A63FB68202283F83D20FB680022D5
:105A300083F83E20FB681B6C43F02002FB681A646D
:105A4000FB68002283F83C20012321E0BB681B0C8B
:105A5000DBB2012B0CD1FB681B685B69DA43BB68C6
:105A600013409BB2002B14BF01230023DBB20BE0D9
:105A7000FB681B689B69DA43BB6813409BB2002B31
:105A800014BF01230023DBB2002B7FF46DAF002392
:105A900018461037BD4680BD80B584B000AFF860B1
:105AA000B9607A6034E0F86800F0B8F80346002B7B
:105AB00001D0012334E0BB68B3F1FF3F28D0FCF7ED
:105AC00001FA02467B68D31ABA689A4202D3BB68CD
:105AD000002B1DD1FB681B685B6903F08003802BE2
