:020000040800F2
:1000000000000220CD1B0008791A0008811A0008A0
:10001000891A0008911A0008991A000800000000C7
:10002000000000000000000000000000A11A00080D
:10003000AF1A000800000000BD1A0008CB1A000823
:100040001D1C00081D1C00081D1C00081D1C0008AC
:100050001D1C00081D1C00081D1C00081D1C00089C
:100060001D1C00081D1C00081D1C00081D1C00088C
:10007000D91A00081D1C00081D1C00081D1C0008C2
:100080001D1C00081D1C0008ED1A000800000000DF
:100090000000000000000000000000001D1C00081F
:1000A0001D1C00081D1C0008011B00081D1C000869
:1000B0001D1C0008151B00081D1C00081D1C000845
:1000C0001D1C00081D1C00081D1C00081D1C00082C
:1000D0001D1C00081D1C00081D1C0008000000005D
:1000E0001D1C00081D1C00081D1C0008000000004D
:1000F0000000000000000000000000001D1C0008BF
:10010000000000001D1C00081D1C00081D1C00082C
:1001100000000000000000000000000000000000DF
:100120001D1C00081D1C00081D1C00081D1C0008CB
:100130001D1C00080000000000000000000000007E
:10014000000000000000000000000000291B000863
:100150001D1C00081D1C00081D1C00081D1C00089B
:100160001D1C00081D1C000800000000000000000D
:10017000000000000000000000000000000000007F
:10018000000000001D1C000800000000000000002E
:080190001D1C00081D1C0008E5
:1001A00010B5054C237833B9044B13B10448AFF3B1
:1001B00000800123237010BD6001002000000000BA
:1001C00004B6000808B5034B1BB103490348AFF35D
:1001D000008008BD000000006401002004B6000893
:1001E00001F0FF01102A2BDB10F0070F08D010F8E8
:1001F000013B013A8B422DD010F0070F42B3F6D1EC
:10020000F0B441EA012141EA014122F007047FF004
:1002100000070023F0E80256083C85EA010586EA5B
:10022000010685FA47F5A3FA87F586FA47F6A5FA97
:1002300087F68EB9EED1F0BC01F0FF0102F00702A3
:1002400032B110F8013B013A83EA010313B1F8D14E
:100250000020704701387047002D06BF354603382F
:10026000073815F0010F07D1013015F4807F02BF68
:10027000013015F4C03F0130F0BC0138704700BFB9
:1002800053B94AB9002908BF00281CBF4FF0FF31FD
:100290004FF0FF3000F088B9ADF1080C6DE904CEE5
:1002A00000F006F8DDF804E0DDE9022304B0704751
:1002B0002DE9F047089D8E4604468846002B4AD11A
:1002C0008A42174662D9B2FA82F64EB1C6F12003CD
:1002D00001FA06F820FA03F3B74043EA0808B440ED
:1002E0004FEA174E1FFA87FCB8FBFEF1230C0EFBFA
:1002F000118843EA084301FB0CF29A4209D9FB1822
:1003000001F1FF3080F0EA809A4240F2E780023942
:100310003B449A1AA3B2B2FBFEF00EFB102243EA52
:10032000024300FB0CFC9C4509D9FB1800F1FF328D
:1003300080F0D6809C4540F2D3803B44023840EAAE
:100340000140A3EB0C0300211DB1F3400022C5E9DD
:100350000032BDE8F0878B4205D90DB1C5E9000137
:1003600000210846F5E7B3FA83F1002946D1734529
:1003700002D3824200F20581841A6EEB030201204F
:100380009046002DE5D0C5E90048E2E7002A00F0DC
:100390009080B2FA82F6002E40F0A4808A1A030CF4
:1003A0004FEA174E80B2BCB20121B2FBFEFC0EFB3D
:1003B0001C2243EA024304FB0CF29A4207D9FB18C1
:1003C0000CF1FF3802D29A4200F2E080C4469B1A38
:1003D000B3FBFEF20EFB123340EA034302FB04F4CC
:1003E0009C4207D9FB1802F1FF3002D29C4200F276
:1003F000CA8002461B1B42EA0C40A5E7C1F1200659
:100400008B4022FA06F71F430EFA01F420FA06F396
:100410002EFA06FE4FEA1749234300FA01F81FFAA5
:1004200087FCBEFBF9F01C0C09FB10EE44EA0E44FD
:1004300000FB0CFEA64502FA01F209D93C1900F1B5
:10044000FF3A80F09C80A64540F2998002383C44F7
:10045000A4EB0E041FFA83FEB4FBF9F309FB13446B
:100460004EEA044403FB0CFCA44508D93C1903F1F3
:10047000FF3E80F08280A4457FD9023B3C4443EAA2
:100480000040A4EB0C04A0FB02EC64457346E1467B
:1004900062D35FD05DB1B8EB030264EB090404FAE8
:1004A00006F622FA01F31E43CC40C5E900640021A0
:1004B0004FE7B1FBF2FC010C41EA0E4180B240EA89
:1004C00001423B4638463C46B846BE462026B1FB74
:1004D000F7F1A2EB080241EA0C4166E7014618E792
:1004E00010462CE7C6F120022EFA02F3B740B140C5
:1004F00020FA02F24FEA174E0A43B3FBFEF8BCB2F1
:100500000EFB1833110C41EA034108FB04F9B0401B
:1005100089454FEA104380B23ED9791808F1FF3C73
:1005200001D289451FD8A1EB0901B1FBFEF909FBF6
:1005300004F80EFB191192B242EA0142424529D257
:10054000BA1809F1FF31C4D24245C2D2A9F1020161
:100550003A44BEE7F0459DD2BEEB02036CEB070CBC
:100560000138E14696E7A7EB09094944A8F1020CD6
:10057000B1FBFEF909FB04F8DBE773467FE7504661
:1005800066E70846FDE63B44023A33E7ACF1020C6D
:100590003B441CE749469CE7A1EB0901C446B1FB7B
:1005A000FEF909FB04F8C4E7704700BF80B582B0CC
:1005B00000AF78600B46FB70FB7818460AF07AFBB8
:1005C00003461A467B689A60FB7818460AF072FB6D
:1005D00003461A467B68DA60034A7B68136000BFF3
:1005E0000837BD4680BD00BF8401002090B48CB0A8
:1005F00000AF78600B46FB70002387F82F30002394
:1006000087F82E30002387F82D3097F82F305A1CAA
:1006100087F82F2030333B44552203F8242C97F8D9
:100620002F305A1C87F82F2030333B444E2203F8DA
:10063000242C97F82F305A1C87F82F2030333B4456
:10064000452203F8242C97F82F305A1C87F82F20C6
:1006500030333B44522203F8242C97F82F305A1C95
:1006600087F82F2030333B44FA7803F8242C97F88E
:100670002F305A1C87F82F2030333B443A2203F89E
:10068000242C002387F82D3012E097F82D307A685B
:100690001A4497F82F30591C87F82F1012783033EE
:1006A0003B4403F8242C97F82D30013387F82D3084
:1006B00097F82D20FB78013B9A42E6DB002387F870
:1006C0002E30002387F82D3022E097F82D3030337C
:1006D0003B4413F8242C97F82E30534087F82E30E3
:1006E00097F82D10194B1B68D868184B1B685A795E
:1006F000541CE4B25C711346034401F130023A44E5
:1007000012F8242C1A7097F82D30013387F82D3009
:1007100097F82D2097F82F309A42D6D30B4B1B68B1
:10072000D9680A4B1B685A79501CC0B258711346DD
:100730000B4497F82E201A70044B1B6897F82F2053
:100740001A7400BF3037BD4690BC7047840100204A
:1007500080B584B000AF78607B68DB78FB73E2E043
:10076000764B1B78062B00F2D78001A252F823F0BB
:100770008D070008B5070008E90700081D080008F4
:100780005108000879080008BB0800087B689A68CF
:100790007B681B79591CC8B27968087113441B78AF
:1007A000552B40F0BD80654B01221A707B680022FA
:1007B0009A70B5E07B689A687B681B79591CC8B24F
:1007C0007968087113441B784E2B03D15B4B0222CE
:1007D0001A70A8E07B681B79013BDAB27B681A715A
:1007E000564B00221A709EE07B689A687B681B79E2
:1007F000591CC8B27968087113441B78452B03D182
:100800004E4B03221A708EE07B681B79013BDAB2F3
:100810007B681A71494B00221A7084E07B689A68E1
:100820007B681B79591CC8B27968087113441B781E
:10083000522B03D1414B04221A7074E07B681B7960
:10084000013BDAB27B681A713C4B00221A706AE0F5
:100850007B681A797B685A707B689A687B681B7919
:10086000591CC8B27968087113441A78344B1A704D
:10087000324B05221A7056E07B689A687B681B79B8
:10088000591CC8B27968087113441B783A2B0AD1F5
:100890002A4B06221A702A4B1B7883F03603DAB2F1
:1008A0007B689A703FE07B681B79013BDAB27B681A
:1008B0001A71224B00221A7035E0214B1B78012B54
:1008C0000FD97B689A687B681B79591CC8B2796814
:1008D000087113441A787B689B785340DAB27B68BE
:1008E0009A70174B1B78013BDAB2154B1A70144BF8
:1008F0001B78002B16D1114B00221A707B689A7856
:100900007B689B68796809790B441B789A4209D106
:10091000786800F017F805E0084B00221A7002E032
:1009200000BF00E000BF7B681B79FA7B9A427FF42E
:1009300017AF00BF00BF1037BD4680BD800100204B
:100940008801002080B588B000AF78600023BB77B5
:100950000023FB777B689A687B685B7802331344DB
:100960001B78F22B1FD0F22B46DCF12B10D0F12B91
:1009700042DC002B20D0F02B3ED1BB7F5A1CBA7733
:1009800020333B44F02203F8182C0223FB773EE08F
:10099000BB7F5A1CBA7720333B44F12203F8182C52
:1009A0000223FB7733E0BB7F5A1CBA7720333B44EA
:1009B000F22203F8182C2AE0BB7F5A1CBA772033A6
:1009C0003B44002203F8182C7B689A687B685B78AC
:1009D000033313441A78134B1A707B689A687B6848
:1009E0005B78043313441A780E4B5A700D4BB3F9ED
:1009F00000200D4B1A800AE0BB7F5A1CBA772033C7
:100A00003B44FF2203F8182C0223FB7700BFFA7F38
:100A100007F1080311461846FFF7E8FD00BF20372D
:100A2000BD4680BD7C0100200000002080B485B060
:100A300000AF78600B467B800023FB8116E0FB89CA
:100A40007A681A440F4B1B689B680E490968C9787D
:100A5000C9B20B4412781A700A4B1B68DA78D2B20A
:100A60000132D2B2DA70FB890133FB81FA897B88CB
:100A70009A42E4D300BF00BF1437BD465DF8047B43
:100A8000704700BF8401002080B483B000AF78605D
:100A90000B467B807B6802229A707B6800221A805A
:100AA0007B687A889A8000BF0C37BD465DF8047B6E
:100AB0007047000080B588B000AF78600023FB77F6
:100AC0000023FB770CE0FA7FFB7F0B4931F81330F2
:100AD00007F10C0009490AF0A3F9FB7F0133FB770A
:100AE000FB7F072BEFD94FF40051054802F067FA5E
:100AF00000BF2037BD4680BD2C0300201CB6000877
:100B00000008024080B582B000AF78607B681B6847
:100B1000044A934201D100F007F800BF0837BD46F0
:100B200080BD00BF0048014080B500AF194B1B7865
:100B300023F07F03DBB2002B0ED141F28833012278
:100B40007821154802F092FD0346002B04D1114A8A
:100B5000137843F080031370104B1A78104BA3FBEB
:100B60000213D9080B469B000B445B00D31ADBB27F
:100B7000002B07D14FF400510A4802F020FA074B2E
:100B800000221A70054B1B780133DAB2034B1A703E
:100B900000BF80BD3C030020D40100204E03002094
:100BA000CDCCCCCC0008024080B500AF01F038F8C5
:100BB00000F07AF800F026FA00F004FA09F0FCFAE6
:100BC00000F05AF900F0DAF900F0D6F800F026F952
:100BD000294805F051F8294805F04EF80421264827
:100BE00005F006F90021244805F002F924492548BA
:100BF00000F0A4FD0A2001F085F800F011FB64204C
:100C000001F080F8204809F02BFC204B00221A70DC
:100C100000211F48FFF7CAFC174B1B68DB6A9BB219
:100C200019461C48FFF730FF134B1B68DB6A9BB269
:100C300019461948FFF728FF154800F06FFA00F031
:100C4000F4FC14210A2000F037FC01221349144857
:100C500000F0C6FC28210F2000F02EFC01220F49D5
:100C6000104800F0BDFC00F081FB42F2107001F072
:100C700049F800BFE0E700BF88020020D002002052
:100C8000E5110008B11100082D0A00083C030020FE
:100C90001803002040030020480300200400002027
:100CA0002CB6000834B6000880B594B000AF07F148
:100CB00020033022002118460AF0D4F807F10C0373
:100CC00000221A605A609A60DA601A610023BB60E1
:100CD000274B1B6C264A43F080531364244B1B6C38
:100CE00003F08053BB60BB6800237B60214B1B6813
:100CF000204A43F4404313601E4B1B6803F44043F7
:100D00007B607B6801233B624FF480337B6202236C
:100D1000BB634FF48003FB6319233B64C0237B64F4
:100D20000223BB640423FB6407F12003184604F08C
:100D30000FFB0346002B01D000F06CFA0F23FB6081
:100D400002233B6100237B614FF48053BB6100238E
:100D5000FB6107F10C030321184604F071FD034603
:100D6000002B01D000F056FA00BF5037BD4680BDC1
:100D7000003802400070004080B584B000AF3B46B0
:100D800000221A605A609A60DA60214B214A1A6088
:100D90001F4B4FF480325A601D4B00229A601C4B4F
:100DA00000221A611A4B00221A76194B002283F88E
:100DB0002020174B0022DA62154B174A9A62144B17
:100DC0000022DA60124B0122DA61114B002283F813
:100DD00030200F4B01225A610D4800F0B7FF034647
:100DE000002B01D000F016FA01233B6001237B6049
:100DF0000023BB603B461946054801F00FF9034646
:100E0000002B01D000F006FA00BF1037BD4680BDB0
:100E10008C010020002001400100000F80B500AFD0
:100E2000124B134A1A60114B124A5A600F4B0022A0
:100E30009A600E4B0022DA600C4B4FF480421A612C
:100E40000A4B00225A61094B00229A61074B00228B
:100E5000DA61064B00221A62044802F0CBF803461E
:100E6000002B01D000F0D6F900BF80BDD4010020D6
:100E700000540040801A060080B58EB000AF07F124
:100E8000280300221A605A609A60DA6007F1200392
:100E900000221A605A603B1D00221A605A609A6054
:100EA000DA601A615A619A61324B334A1A60314BE7
:100EB0000F225A602F4B00229A602E4B4EF65F2273
:100EC000DA602C4B00221A612A4B00229A612948D1
:100ED00004F082FE0346002B01D000F09BF94FF492
:100EE0008053BB6207F128031946224805F0E2F956
:100EF0000346002B01D000F08DF91E4804F01EFFC0
:100F00000346002B01D000F085F900233B6200234B
:100F10007B6207F120031946164805F08DFD034654
:100F2000002B01D000F076F960237B600023BB60CA
:100F30000023FB6000237B613B1D002219460D4806
:100F400005F0F6F80346002B01D000F063F93B1DD5
:100F500004221946074805F0EBF80346002B01D0A0
:100F600000F058F9034800F04DFD00BF3837BD468A
:100F700080BD00BF880200200004004080B500AFA3
:100F80000E4B0F4A1A600D4B5F225A600B4B00222A
:100F90009A600A4B42F20F72DA60084B00221A6123
:100FA000064B00229A61054804F016FE0346002B0A
:100FB00001D000F02FF900BF80BD00BFD00200209B
:100FC0000048014080B582B000AF00237B600C4B2D
:100FD0001B6B0B4A43F400131363094B1B6B03F4A5
:100FE00000137B607B68002200210C2001F029FBAC
:100FF0000C2001F042FB00BF0837BD4680BD00BF9A
:101000000038024080B58AB000AF07F11403002217
:101010001A605A609A60DA601A6100233B613B4BA8
:101020001B6B3A4A43F004031363384B1B6B03F00A
:1010300004033B613B690023FB60344B1B6B334A69
:1010400043F080031363314B1B6B03F08003FB60A1
:10105000FB680023BB602D4B1B6B2C4A43F0010344
:1010600013632A4B1B6B03F00103BB60BB680023B7
:101070007B60264B1B6B254A43F002031363234B13
:101080001B6B03F002037B607B6800224FF400516E
:101090001F4801F07BFF00224FF406411D4801F07C
:1010A00075FF002208211C4801F070FF4FF4005327
:1010B0007B610123BB610023FB6100233B6207F1DD
:1010C00014031946124801F0DDFD4FF406437B611D
:1010D0000123BB610023FB6100233B6207F1140382
:1010E00019460C4801F0CEFD08237B610123BB614A
:1010F0000023FB6100233B6207F1140319460648F5
:1011000001F0C0FD00BF2837BD4680BD0038024059
:1011100000080240000002400004024080B582B096
:1011200000AF78607B681A797B68DB78DBB29A4223
:1011300007D07868FFF70CFB7B68DB78DAB27B6856
:101140001A717B689A797B685B799A422BD07B68AD
:101150005A797B689B799A4208D97B685A797B686F
:101160009B79D31ADAB27B681A7406E07B689B79A4
:10117000C3F10403DAB27B681A747B68DB687A68AF
:1011800092791A447B681B7C1946104609F030F9A5
:101190000346002B07D17B689A797B681B7C13443C
:1011A000DAB27B689A7100BF0837BD4680BD000087
:1011B00080B586B004AF03463960FB801346BB8020
:1011C000F9880A230293BB8801933B6800930123AB
:1011D0004022034802F050F900BF0837BD4680BDE9
:1011E000D401002080B586B002AFB9607B600346B1
:1011F000FB811346BB81BA89F9897B68009313464A
:10120000BA68034802F03AF800BF1037BD4680BD07
:10121000D401002080B400AF72B600BF00BFFDE76C
:1012200080B500AFAE220021782000F06BFA2022BA
:101230000021782000F066FA10220021782000F0CA
:1012400061FAB0220021782000F05CFAC822002167
:10125000782000F057FA00220021782000F052FA9E
:1012600010220021782000F04DFA40220021782041
:1012700000F048FA81220021782000F043FAFF2292
:101280000021782000F03EFAA1220021782000F011
:1012900039FAA6220021782000F034FAA822002191
:1012A000782000F02FFA3F220021782000F02AFA5F
:1012B000A4220021782000F025FAD32200217820F2
:1012C00000F020FA00220021782000F01BFAD5223D
:1012D0000021782000F016FAF0220021782000F09A
:1012E00011FAD9220021782000F00CFA22220021E4
:1012F000782000F007FADA220021782000F002FAC4
:1013000012220021782000F0FDF9DB220021782054
:1013100000F0F8F920220021782000F0F3F98D2266
:101320000021782000F0EEF914220021782000F04E
:10133000E9F9AF220021782000F0E4F92E22002103
:10134000782000F0DFF9002000F03EF800F00EF801
:10135000054B00221A80044B00225A80024B0122C6
:101360005A7100BF80BD00BF5807002080B582B011
:1013700000AF0023FB711DE0FB79503BDBB21A4646
:101380000021782000F0BEF900220021782000F032
:10139000B9F910220021782000F0B4F9FB79DB01C3
:1013A000084A1A4480234021782000F047F9FB794D
:1013B0000133FB71FB79072BDED900BF00BF083773
:1013C000BD4680BD5003002080B582B000AF03460B
:1013D000FB71FB79002B01D1002300E0FF234FF4C8
:1013E00080621946034809F03DFD00BF0837BD463D
:1013F00080BD00BF5003002080B483B000AF03461F
:10140000FB800B46BB801346FB70FB887F2B48D8C4
:10141000BB883F2B45D8264B1B79002B06D0FB7889
:10142000002B0CBF01230023DBB2FB70FB78012BE8
:101430001AD1FA88BB88DB0898B20346DB01134453
:101440001C4AD35C5AB2BB8803F00703012101FA9E
:1014500003F35BB2134359B2FA880346DB0113442A
:10146000C9B2144AD1541DE0FA88BB88DB0898B28F
:101470000346DB0113440F4AD35C5AB2BB8803F026
:101480000703012101FA03F35BB2DB435BB21340B4
:1014900059B2FA880346DB011344C9B2054AD15454
:1014A00000E000BF0C37BD465DF8047B704700BF0D
:1014B000580700205003002080B483B000AF0346DB
:1014C0000A46FB801346BB80054AFB881380044A0A
:1014D000BB88538000BF0C37BD465DF8047B704766
:1014E0005807002080B586B000AF03463960FB7115
:1014F0001346BB71394B1B881A463B681B78134453
:101500007F2B07DC354B5B881A463B685B781344BE
:101510003F2B01DD00235DE000237B614BE03B6856
:101520005A68FB79203B3968497801FB03F3194677
:101530007B690B445B0013441B88FB6000233B6109
:1015400030E0FA683B6902FA03F303F40043002B2E
:1015500010D0224B1A883B699BB2134498B21F4BA0
:101560005A887B699BB213449BB2BA791946FFF73C
:1015700043FF14E0194B1A883B699BB2134498B29D
:10158000164B5A887B699BB2134499B2BB79002BE6
:101590000CBF01230023DBB21A46FFF72DFF3B6986
:1015A00001333B613B681B781A463B699342C8D3C1
:1015B0007B6901337B613B685B781A467B699342A8
:1015C000ADD3064B1B883A68127813449AB2034B8A
:1015D0001A80FB7918461837BD4680BD5807002091
:1015E00080B584B000AFF860B9601346FB7112E0BB
:1015F000FB681B78FA79B9681846FFF773FF034652
:101600001A46FB681B789A4202D0FB681B7808E0F8
:10161000FB680133FB60FB681B78002BE8D1FB689B
:101620001B7818461037BD4680BD80B500AF00203E
:10163000FFF7CAFEFFF79AFE00BF80BD90B5C5B0A8
:1016400000AF0446084607F58871A1F588710A6065
:10165000194607F58873A3F2091322461A7007F595
:101660008873A3F5857302461A7007F58873A3F58E
:1016700086730A461A8007F58873A3F5827307F507
:101680008872A2F5857212781A70002387F80F31DC
:1016900015E097F80F3107F58872A2F58872126885
:1016A0001A4497F80F310133117807F58872A2F5C3
:1016B0008272D15497F80F31013387F80F3197F8C0
:1016C0000F319BB207F58872A2F5867212889A4292
:1016D000DFD80B4B1B6807F58872A2F2091212784B
:1016E00090B207F58872A2F586721288013292B222
:1016F00007F10C01984700BF07F58A77BD4690BDFA
:101700005007002090B585B000AF0346FB710B4633
:10171000BB7113467B71BB793B737B797B73064B43
:101720001C68FB7998B207F10C010A230222A0473A
:1017300000BF1437BD4690BD5407002080B483B06D
:1017400000AF78603960064A7B681360054A3B68E1
:10175000136000BF0C37BD465DF8047B704700BFC7
:10176000500700205407002080B483B000AF00234E
:101770007B60104B5B6C0F4A43F4804353640D4B0A
:101780005B6C03F480437B607B6800233B60094B08
:101790001B6C084A43F080531364064B1B6C03F028
:1017A00080533B603B6800BF0C37BD465DF8047B4F
:1017B000704700BF0038024080B58AB000AF786043
:1017C00007F1140300221A605A609A60DA601A6105
:1017D0007B681B68284A934249D100233B61274B11
:1017E0005B6C264A43F480735364244B5B6C03F4B4
:1017F00080733B613B690023FB60204B1B6B1F4ADE
:1018000043F0010313631D4B1B6B03F00103FB60EB
:10181000FB680023BB60194B1B6B184A43F00203A3
:101820001363164B1B6B03F00203BB60BB68FE2304
:101830007B610323BB610023FB6107F1140319469D
:101840000F4801F01FFA01237B610323BB610023D2
:10185000FB6107F1140319460A4801F013FA00224C
:101860000021122000F0EDFE122000F006FF00BF64
:101870002837BD4680BD00BF00200140003802402F
:10188000000002400004024080B58AB000AF7860DA
:1018900007F1140300221A605A609A60DA601A6134
:1018A0007B681B682F4A934258D100233B612E4B23
:1018B0001B6B2D4A43F0020313632B4B1B6B03F08E
:1018C00002033B613B69C0237B611223BB610023A0
:1018D000FB6103233B6204237B6207F11403194677
:1018E000224801F0CFF90023FB601F4B1B6C1E4AFE
:1018F00043F4001313641C4B1B6C03F40013FB60D4
:10190000FB681B4B1B4A1A60194B00225A60184B8C
:1019100040229A60164B0022DA60154B4FF4806229
:101920001A61134B00225A61114B00229A61104B2D
:101930000022DA610E4B00221A620D4B00225A621D
:101940000B4800F0B5FE0346002B01D0FFF762FC08
:101950007B68074A5A63064A7B68936300BF28374F
:10196000BD4680BD005400400038024000040240E3
:10197000280200202860024080B584B000AF786063
:101980007B681B681C4A934216D10023FB601B4BEB
:101990001B6C1A4A43F002031364184B1B6C03F0D0
:1019A0000203FB60FB68002200211D2000F049FEBD
:1019B0001D2000F062FE1AE07B681B68104A93420B
:1019C00015D10023BB600D4B5B6C0C4A43F48023A4
:1019D00053640A4B5B6C03F48023BB60BB6800223A
:1019E00000211A2000F02DFE1A2000F046FE00BF54
:1019F0001037BD4680BD00BF0004004000380240E3
:101A00000048014080B588B000AF786007F10C0352
:101A100000221A605A609A60DA601A617B681B685B
:101A2000124A93421DD10023BB60114B1B6B104A1D
:101A300043F0020313630E4B1B6B03F00203BB6006
:101A4000BB683023FB6002233B6100237B610023E2
:101A5000BB610223FB6107F10C031946054801F045
:101A600011F900BF2037BD4680BD00BF0004004013
:101A7000003802400004024080B400AF00BFFDE720
:101A800080B400AF00BFFDE780B400AF00BFFDE74A
:101A900080B400AF00BFFDE780B400AF00BFFDE73A
:101AA00080B400AF00BFBD465DF8047B704780B4D2
:101AB00000AF00BFBD465DF8047B704780B400AF47
:101AC00000BFBD465DF8047B704780B500AF00F0F5
:101AD000F9F800BF80BD000080B500AF024800F0FB
:101AE00095FE00BF80BD00BF2802002080B500AF7A
:101AF000024800F06EF900BF80BD00BF8C010020DD
:101B000080B500AF024804F023FA00BF80BD00BFDB
:101B1000D002002080B500AF024804F019FA00BFDF
:101B200080BD00BF8802002080B500AF024802F0EF
:101B300000FB00BF80BD00BF4C10002080B586B008
:101B400000AF7860144A154BD31A7B617B693B6107
:101B5000134B1B68002B02D1114B124A1A60104B19
:101B60001A687B6813443A699A4207D209F092F9DD
:101B700003460C221A604FF0FF3309E0084B1B6844
:101B8000FB60074B1A687B681344054A1360FB68C7
:101B900018461837BD4680BD000002200004000032
:101BA000600700209818002080B400AF064BD3F8DF
:101BB0008830054A43F47003C2F8883000BFBD4640
:101BC0005DF8047B704700BF00ED00E0DFF834D023
:101BD000FFF7EAFF0C480D490D4A002302E0D458F4
:101BE000C4500433C4188C42F9D30A4A0A4C002367
:101BF00001E013600432A242FBD309F051F9FEF771
:101C0000D3FF704700000220000000206001002088
:101C100040C400086001002098180020FEE7000082
:101C200080B500AF0E4B1B680D4A43F40073136080
:101C30000B4B1B680A4A43F480631360084B1B6814
:101C4000074A43F480731360032000F0EFFC0F2079
:101C500000F008F8FFF788FD0023184680BD00BF9C
:101C6000003C024080B582B000AF7860124B1A6829
:101C7000124B1B7819464FF47A73B3FBF1F3B2FBA6
:101C8000F3F3184600F007FD0346002B01D00123B3
:101C90000EE07B680F2B0AD8002279684FF0FF30E6
:101CA00000F0CFFC064A7B681360002300E00123AC
:101CB00018460837BD4680BD0C00002014000020E7
:101CC0001000002080B400AF064B1B781A46064B6C
:101CD0001B681344044A136000BFBD465DF8047BD3
:101CE000704700BF140000206407002080B400AFDC
:101CF000034B1B681846BD465DF8047B704700BF68
:101D00006407002080B584B000AF7860FFF7EEFF75
:101D1000B8607B68FB60FB68B3F1FF3F05D00A4BFE
:101D20001B781A46FB681344FB6000BFFFF7DEFF19
:101D30000246BB68D31AFA689A42F7D800BF00BFC0
:101D40001037BD4680BD00BF1400002080B584B0B0
:101D500000AF78600023FB737B68002B01D1012367
:101D600033E07B681B6C002B09D17868FFF724FDFA
:101D70007B6800225A647B68002283F83C207B68E1
:101D80001B6C03F01003002B18D17B681B6C23F431
:101D9000885323F0020343F002027B681A647868D8
:101DA00000F06EFA7B6800225A647B681B6C23F09B
:101DB000030343F001027B681A6401E00123FB7313
:101DC0007B68002283F83C20FB7B18461037BD4619
:101DD00080BD80B586B000AF786000237B610023B2
:101DE0003B617B681B681B68FB607B681B685B68EA
:101DF000BB60FB6803F002037B61BB6803F0200358
:101E00003B617B69002B49D03B69002B46D07B6846
:101E10001B6C03F01003002B05D17B681B6C43F493
:101E200000727B681A647B681B689B6803F04053F0
:101E3000002B2BD17B681B7E002B27D17B681B6876
:101E4000DB6A03F47003002B06D07B681B689B6879
:101E500003F48063002B19D17B681B685A687B6888
:101E60001B6822F020025A607B681B6C23F480728E
:101E70007B681A647B681B6C03F48053002B05D1CC
:101E80007B681B6C43F001027B681A647868FEF77C
:101E900011FE7B681B686FF012021A60FB6803F08A
:101EA00004037B61BB6803F080033B617B69002B0B
:101EB00057D03B69002B54D07B681B6C03F0100398
:101EC000002B05D17B681B6C43F400527B681A64BD
:101ED0007B681B689B6803F44013002B39D17B6837
:101EE0001B689B6B03F44013002B06D07B681B68B8
:101EF0009B6803F48063002B2BD17B681B685B68B5
:101F000003F48063002B24D17B681B689B6803F07B
:101F10004053002B1DD17B681B7E002B19D17B68A1
:101F20001B685A687B681B6822F080025A607B68D5
:101F30001B6C23F480527B681A647B681B6C03F46F
:101F40008073002B05D17B681B6C43F001027B681A
:101F50001A64786800F090FA7B681B686FF00C02D6
:101F60001A60FB6803F001037B61BB6803F0400368
:101F70003B617B69002B17D03B69002B14D07B6839
:101F80001B681B6803F00103012B0DD17B681B6CE0
:101F900043F480327B681A64786800F02AF87B6822
:101FA0001B686FF001021A60FB6803F020037B617D
:101FB000BB6803F080633B617B69002B15D03B69F4
:101FC000002B12D07B685B6C43F002027B685A6482
:101FD0007B681B686FF020021A60786800F013F8C5
:101FE0007B681B686FF020021A6000BF1837BD467F
:101FF00080BD80B483B000AF786000BF0C37BD46B1
:102000005DF8047B704780B483B000AF786000BF98
:102010000C37BD465DF8047B7047000080B485B086
:1020200000AF786039600023BB607B6893F83C3078
:10203000012B01D1022313E17B68012283F83C20AC
:102040003B681B68092B25D97B681B68D9683B68EE
:102050001B689BB21A4613465B0013441E3B0722C3
:1020600002FA03F3DA437B681B680A40DA607B6894
:102070001B68D9683B689A683B681B689BB2184626
:1020800003465B0003441E3B9A407B681B680A437F
:10209000DA6022E07B681B6819693B681B689BB2A9
:1020A0001A4613465B001344072202FA03F3DA438D
:1020B0007B681B680A401A617B681B6819693B686A
:1020C0009A683B681B689BB2184603465B00034452
:1020D0009A407B681B680A431A613B685B68062B61
:1020E00024D87B681B68596B3B685A6813469B0071
:1020F0001344053B1F2202FA03F3DA437B681B6893
:102100000A405A637B681B68596B3B681B689BB22B
:1021100018463B685A6813469B001344053B00FA77
:1021200003F27B681B680A435A634CE03B685B68B8
:102130000C2B24D87B681B68196B3B685A681346C4
:102140009B001344233B1F2202FA03F3DA437B680C
:102150001B680A401A637B681B68196B3B681B6825
:102160009BB218463B685A6813469B001344233BB6
:1021700000FA03F27B681B680A431A6323E07B685A
:102180001B68D96A3B685A6813469B001344413B5D
:102190001F2202FA03F3DA437B681B680A40DA6203
:1021A0007B681B68D96A3B681B689BB218463B6812
:1021B0005A6813469B001344413B00FA03F27B68C4
:1021C0001B680A43DA62294BFB607B681B68284A5C
:1021D00093420FD13B681B68122B0BD1FB685B68E5
:1021E00023F40002FB685A60FB685B6843F48002DA
:1021F000FB685A607B681B681D4A93422BD13B6881
:102200001B681C4A934203D03B681B68112B22D1E8
:10221000FB685B6823F48002FB685A60FB685B68BC
:1022200043F40002FB685A603B681B68114A934202
:1022300011D1114B1B68114AA2FB03239A0C1346C0
:102240009B0013445B00BB6002E0BB68013BBB60CA
:10225000BB68002BF9D17B68002283F83C20002367
:1022600018461437BD465DF8047B704700230140D3
:1022700000200140120000100C00002083DE1B43F0
:1022800080B485B000AF7860794BFB60FB685B6819
:1022900023F44032FB685A60FB685A687B685B68CD
:1022A0001A43FB685A607B681B685A687B681B6826
:1022B00022F480725A607B681B6859687B681B69CE
:1022C0001A027B681B680A435A607B681B685A685D
:1022D0007B681B6822F040725A607B681B685968F3
:1022E0007B689A687B681B680A435A607B681B6836
:1022F0009A687B681B6822F400629A607B681B689E
:1023000099687B68DA687B681B680A439A607B6817
:102310009B6A584A934222D07B681B689A687B6804
:102320001B6822F070629A607B681B6899687B6802
:102330009A6A7B681B680A439A607B681B689A6884
:102340007B681B6822F040529A607B681B68996822
:102350007B68DA6A7B681B680A439A600FE07B68D7
:102360001B689A687B681B6822F070629A607B68C1
:102370001B689A687B681B6822F040529A607B68F1
:102380001B689A687B681B6822F002029A607B686F
:102390001B6899687B681B7E5A007B681B680A4330
:1023A0009A607B6893F82030002B1BD07B681B68F9
:1023B0005A687B681B6842F400625A607B681B683D
:1023C0005A687B681B6822F460425A607B681B680D
:1023D00059687B685B6A013B5A037B681B680A4348
:1023E0005A6007E07B681B685A687B681B6822F4A8
:1023F00000625A607B681B68DA6A7B681B6822F49B
:102400007002DA627B681B68D96A7B68DB69013B12
:102410001A057B681B680A43DA627B681B689A6846
:102420007B681B6822F400729A607B681B6899685D
:102430007B6893F830305A027B681B680A439A60C5
:102440007B681B689A687B681B6822F480629A60CC
:102450007B681B6899687B685B699A027B681B686C
:102460000A439A6000BF1437BD465DF8047B70478D
:10247000002301400100000F80B483B000AF7860FA
:1024800000BF0C37BD465DF8047B704780B485B053
:1024900000AF78607B6803F00703FB600C4BDB68E0
:1024A000BB60BA684FF6FF031340BB60FB681A02BB
:1024B000BB68134343F0BF6343F40033BB60044A7B
:1024C000BB68D36000BF1437BD465DF8047B70471E
:1024D00000ED00E080B400AF044BDB681B0A03F0A2
:1024E00007031846BD465DF8047B704700ED00E029
:1024F00080B483B000AF0346FB7197F90730002B1F
:102500000BDBFB7903F01F02074997F907305B09E2
:10251000012000FA02F241F8232000BF0C37BD462B
:102520005DF8047B704700BF00E100E080B483B039
:1025300000AF03463960FB7197F90730002B0ADBC7
:102540003B68DAB20C4997F907301201D2B20B445A
:1025500083F800230AE03B68DAB20849FB7903F00C
:102560000F03043B1201D2B20B441A7600BF0C37A2
:10257000BD465DF8047B704700E100E000ED00E03F
:1025800080B489B000AFF860B9607A60FB6803F08E
:102590000703FB61FB69C3F10703042B28BF042376
:1025A000BB61FB690433062B02D9FB69033B00E0E6
:1025B00000237B614FF0FF32BB6902FA03F3DA4379
:1025C000BB681A407B699A404FF0FF317B6901FA82
:1025D00003F3D9437B680B40134318462437BD46A9
:1025E0005DF8047B7047000080B582B000AF786072
:1025F0007B68013BB3F1807F01D301230FE00A4ADE
:102600007B68013B53600F214FF0FF30FFF78EFFD7
:10261000054B00229A60044B07221A6000231846DB
:102620000837BD4680BD00BF10E000E080B582B035
:1026300000AF78607868FFF729FF00BF0837BD4614
:1026400080BD80B586B000AF0346B9607A60FB7389
:1026500000237B61FFF73EFF78617A68B96878698B
:10266000FFF78EFF024697F90F3011461846FFF725
:102670005DFF00BF1837BD4680BD80B582B000AF9A
:102680000346FB7197F907301846FFF731FF00BF8B
:102690000837BD4680BD80B582B000AF78607868ED
:1026A000FFF7A2FF034618460837BD4680BD00006D
:1026B00080B586B000AF786000237B61FFF716FB22
:1026C00038617B68002B01D1012399E07B680222ED
:1026D00083F835207B68002283F834207B681B68F0
:1026E0001A687B681B6822F001021A600FE0FFF78E
:1026F000FDFA02463B69D31A052B08D97B682022D4
:102700005A657B68032283F83520032378E07B68D1
:102710001B681B6803F00103002BE8D17B681B6872
:102720001B687B617A69384B13407B617B685A6810
:102730007B689B681A437B68DB681A437B681B696C
:102740001A437B685B691A437B689B691A437B6801
:10275000DB691A437B681B6A13437A6913437B6105
:102760007B685B6A042B07D17B68DA6A7B681B6B2A
:1027700013437A6913437B617B681B687A691A602B
:102780007B681B685B697B617B6923F007037B6166
:102790007B685B6A7A6913437B617B685B6A042BA5
:1027A00017D17B689B6A7A6913437B617B68DB6A1C
:1027B000002B0ED0786800F0E9F90346002B08D012
:1027C0007B6840225A657B68012283F8352001230B
:1027D00016E07B681B687A695A61786800F0A0F996
:1027E0000346FB607B68DB6D3F229A40FB689A6082
:1027F0007B6800225A657B68012283F8352000231C
:1028000018461837BD4680BD3F8010F080B586B0B1
:1028100000AF78600023BB608E4B1B688E4AA2FB22
:1028200003239B0A7B617B689B6D3B613B691B6853
:10283000FB607B68DB6D08229A40FB681340002B2D
:102840001AD07B681B681B6803F00403002B13D0AD
:102850007B681B681A687B681B6822F004021A6098
:102860007B68DB6D08229A403B699A607B685B6DF0
:1028700043F001027B685A657B68DB6D01229A4058
:10288000FB681340002B12D07B681B685B6903F068
:102890008003002B0BD07B68DB6D01229A403B69E3
:1028A0009A607B685B6D43F002027B685A657B68C7
:1028B000DB6D04229A40FB681340002B12D07B682A
:1028C0001B681B6803F00203002B0BD07B68DB6DD9
:1028D00004229A403B699A607B685B6D43F0040276
:1028E0007B685A657B68DB6D10229A40FB68134059
:1028F000002B43D07B681B681B6803F00803002B88
:102900003CD07B68DB6D10229A403B699A607B6803
:102910001B681B6803F48023002B18D07B681B689E
:102920001B6803F40023002B08D17B681B6C002B71
:1029300024D07B681B6C786898471FE07B689B6C91
:10294000002B1BD07B689B6C7868984716E07B68EF
:102950001B681B6803F48073002B07D17B681B681E
:102960001A687B681B6822F008021A607B681B6C7F
:10297000002B03D07B681B6C786898477B68DB6D05
:1029800020229A40FB681340002B00F08F807B6868
:102990001B681B6803F01003002B00F087807B6826
:1029A000DB6D20229A403B699A607B6893F8353052
:1029B000DBB2052B36D17B681B681A687B681B6805
:1029C00022F016021A607B681B685A697B681B68D4
:1029D00022F080025A617B681B6C002B03D17B685C
:1029E0009B6C002B07D07B681B681A687B681B6890
:1029F00022F008021A607B68DB6D3F229A403B6937
:102A00009A607B68012283F835207B68002283F876
:102A100034207B681B6D002B7ED07B681B6D786833
:102A2000984779E07B681B681B6803F48023002BC0
:102A30001DD07B681B681B6803F40023002B0DD19D
:102A40007B685B6C002B31D07B685B6C7868984747
:102A50002CE000BF0C000020B5814E1B7B68DB6BB7
:102A6000002B23D07B68DB6B786898471EE07B687F
:102A70001B681B6803F48073002B0FD17B681B68F5
:102A80001A687B681B6822F010021A607B680122BA
:102A900083F835207B68002283F834207B68DB6B69
:102AA000002B03D07B68DB6B786898477B685B6D95
:102AB000002B32D07B685B6D03F00103002B22D02A
:102AC0007B68052283F835207B681B681A687B6861
:102AD0001B6822F001021A60BB680133BB607A698F
:102AE0009A4207D37B681B681B6803F00103002B25
:102AF000F2D100E000BF7B68012283F835207B68BB
:102B0000002283F834207B68DB6C002B05D07B68C7
:102B1000DB6C7868984700E000BF1837BD4680BD81
:102B200080B485B000AF78607B681B68DBB2103B77
:102B3000144AA2FB03231B09FB60134AFB681344DE
:102B40001B781A467B68DA65FB68032B09D97B681A
:102B50001B6823F47F7323F003031A1D7B689A65B7
:102B600007E07B681B6823F47F7323F003037A6814
:102B700093657B689B6D18461437BD465DF8047BF2
:102B8000704700BFABAAAAAAF4C3000880B485B0FE
:102B900000AF78600023FB737B689B6ABB607B6837
:102BA0009B69002B1FD1BB68032B56D801A252F89A
:102BB00023F000BFC52B0008D72B0008C52B000849
:102BC0005B2C00087B68DB6A03F08073002B46D027
:102BD0000123FB7343E07B68DB6AB3F1C07F40D124
:102BE0000123FB733DE07B689B69B3F5005F21D156
:102BF000BB68032B37D801A252F823F00D2C000834
:102C0000132C00080D2C0008252C00080123FB7351
:102C100030E07B68DB6A03F08073002B25D0012352
:102C2000FB7322E07B68DB6AB3F1C07F1FD1012315
:102C3000FB731CE0BB68022B03D9BB68032B03D0DA
:102C400018E00123FB7315E07B68DB6A03F08073F7
:102C5000002B0ED00123FB730BE000BF0AE000BF86
:102C600008E000BF06E000BF04E000BF02E000BFD4
:102C700000E000BFFB7B18461437BD465DF8047BBF
:102C8000704700BF80B489B000AF7860396000231E
:102C90007B6100233B610023BB610023FB6159E1A1
:102CA0000122FB6902FA03F37B613B681B687A69C6
:102CB00013403B613A697B699A4240F048813B6826
:102CC0005B6803F00303012B05D03B685B6803F0EE
:102CD0000303022B30D17B689B68BB61FB695B00FF
:102CE000032202FA03F3DB43BA691340BB613B687A
:102CF000DA68FB695B0002FA03F3BA691343BB614C
:102D00007B68BA699A607B685B68BB610122FB697A
:102D100002FA03F3DB43BA691340BB613B685B68AB
:102D20001B0903F00102FB6902FA03F3BA691343BA
:102D3000BB617B68BA695A603B685B6803F0030358
:102D4000032B17D07B68DB68BB61FB695B00032248
:102D500002FA03F3DB43BA691340BB613B689A682C
:102D6000FB695B0002FA03F3BA691343BB617B683A
:102D7000BA69DA603B685B6803F00303022B23D176
:102D8000FB69DA087B68083253F82230BB61FB69C3
:102D900003F007039B000F2202FA03F3DB43BA6937
:102DA0001340BB613B681A69FB6903F007039B0092
:102DB00002FA03F3BA691343BB61FB69DA087B6863
:102DC0000832B96943F822107B681B68BB61FB6954
:102DD0005B00032202FA03F3DB43BA691340BB61D1
:102DE0003B685B6803F00302FB695B0002FA03F3D4
:102DF000BA691343BB617B68BA691A603B685B6858
:102E000003F44033002B00F0A2800023FB60574BFB
:102E10005B6C564A43F480435364544B5B6C03F43D
:102E20008043FB60FB68524AFB699B08023352F8FF
:102E30002330BB61FB6903F003039B000F2202FAFE
:102E400003F3DB43BA691340BB617B68494A934291
:102E500019D07B68484A934213D07B68474A934213
:102E60000DD07B68464A934207D07B68454A93421F
:102E700001D1042308E0072306E0032304E0022332
:102E800002E0012300E00023FA6902F0030292004D
:102E90009340BA691343BB613549FB699B08023310
:102EA000BA6941F82320384B9B68BB613B69DB431F
:102EB000BA691340BB613B685B6803F48013002B65
:102EC00003D0BA693B691343BB612F4ABB69936066
:102ED0002D4BDB68BB613B69DB43BA691340BB61C7
:102EE0003B685B6803F40013002B03D0BA693B69AD
:102EF0001343BB61244ABB69D360234B5B68BB614E
:102F00003B69DB43BA691340BB613B685B6803F410
:102F10000033002B03D0BA693B691343BB611A4AE3
:102F2000BB695360184B1B68BB613B69DB43BA69E3
:102F30001340BB613B685B6803F48033002B03D014
:102F4000BA693B691343BB610F4ABB691360FB69F4
:102F50000133FB61FB690F2B7FF6A2AE00BF00BF00
:102F60002437BD465DF8047B704700BF003802403F
:102F70000038014000000240000402400008024006
:102F8000000C024000100240003C014080B483B0BD
:102F900000AF78600B467B8013467B707B78002BFC
:102FA00003D07A887B689A6103E07B881A047B6887
:102FB0009A6100BF0C37BD465DF8047B704780B452
:102FC00085B000AF78600B467B807B685B69FB60F7
:102FD0007A88FB6813401A04FB68D9437B880B404E
:102FE0001A437B689A6100BF1437BD465DF8047BC5
:102FF0007047000080B584B000AF78607B68002B1C
:1030000001D101232BE17B6893F83D30DBB2002B2B
:1030100006D17B68002283F83C207868FEF734FCF8
:103020007B68242283F83D207B681B681A687B68D4
:103030001B6822F001021A607B681B681A687B68B3
:103040001B6842F400421A607B681B681A687B6840
:103050001B6822F400421A6002F0AAFDF8607B6847
:103060005B68814A934207D8FB68804A934294BFC9
:1030700001230023DBB206E0FB687D4A934294BF44
:1030800001230023DBB2002B01D00123E7E0FB6822
:10309000784AA2FB03239B0CBB607B681B685B68C0
:1030A00023F03F017B681B68BA680A435A607B685B
:1030B0001B681B6A23F03F017B685B686A4A934286
:1030C00002D8BB68013309E0BB684FF4967202FB7B
:1030D00003F3694AA2FB03239B0901337A68126850
:1030E0000B4313627B681B68DB6923F44F4222F0B9
:1030F000FF027B685B685C498B4219D8FB68591EEC
:103100007B685B685B00B1FBF3F3591C40F6FC7312
:103110000B40002B0AD0FB68591E7B685B685B0084
:10312000B1FBF3F30133C3F30B0351E004234FE08E
:103130007B689B68002B11D1FB68581E7B6859681F
:103140000B465B000B44B0FBF3F30133C3F30B03FB
:10315000002B0CBF01230023DBB212E0FB68581EDA
:103160007B6859680B469B000B4499000B44B0FBED
:10317000F3F30133C3F30B03002B0CBF0123002334
:10318000DBB2002B01D0012322E07B689B68002B7F
:103190000ED1FB68581E7B6859680B465B000B44D8
:1031A000B0FBF3F30133C3F30B0343F400430FE02D
:1031B000FB68581E7B6859680B469B000B449900BE
:1031C0000B44B0FBF3F30133C3F30B0343F440436D
:1031D000796809681343CB617B681B681B6823F01F
:1031E000C0017B68DA697B681B6A1A437B681B68CD
:1031F0000A431A607B681B689B6823F4034323F02F
:10320000FF037A6811697A68D26811437A68126894
:103210000B4393607B681B68DB6823F0FF017B68CE
:103220005A697B689B691A437B681B680A43DA60AA
:103230007B681B681A687B681B6842F001021A6091
:103240007B6800221A647B68202283F83D207B681B
:1032500000221A637B68002283F83E200023184670
:103260001037BD4680BD00BFA08601007F841E00D0
:10327000FF083D0083DE1B43D34D621080B588B04C
:1032800002AFF8607A601A460B467B8113463B8199
:10329000FEF72CFD7861FB6893F83D30DBB2202B04
:1032A00040F0E0807B690093192301227049F8689F
:1032B00000F022FC0346002B01D00223D3E0FB6880
:1032C00093F83C30012B01D10223CCE0FB680122B2
:1032D00083F83C20FB681B681B6803F00103012B8B
:1032E00007D0FB681B681A68FB681B6842F0010284
:1032F0001A60FB681B681A68FB681B6822F400628E
:103300001A60FB68212283F83D20FB68102283F8B5
:103310003E20FB6800221A64FB687A685A62FB68E8
:103320003A895A85FB685B8D9AB2FB681A85FB68FF
:10333000504ADA6279897B693A6AF86800F0C4FA1F
:103340000346002B01D001238DE000233B61FB6885
:103350001B685B693B61FB681B689B693B613B6960
:1033600066E07A69396AF86800F0E0FC0346002BF1
:103370000DD0FB681B6C042B07D1FB681B681A6817
:10338000FB681B6842F400721A6001236BE0FB6863
:103390005B6A1A78FB681B681A61FB685B6A5A1CD7
:1033A000FB685A62FB685B8D9BB2013B9AB2FB687B
:1033B0005A85FB681B8D013B9AB2FB681A85FB6836
:1033C0001B685B6903F00403042B1BD1FB681B8D96
:1033D000002B17D0FB685B6A1A78FB681B681A61C0
:1033E000FB685B6A5A1CFB685A62FB685B8D9BB288
:1033F000013B9AB2FB685A85FB681B8D013B9AB270
:10340000FB681A857A69396AF86800F0D7FC0346C8
:10341000002B0DD0FB681B6C042B07D1FB681B68CD
:103420001A68FB681B6842F400721A6001231AE0F4
:10343000FB681B8D002B94D1FB681B681A68FB6826
:103440001B6842F400721A60FB68202283F83D205A
:10345000FB68002283F83E20FB68002283F83C20B2
:10346000002300E0022318461837BD4680BD00BF88
:10347000020010000000FFFF80B588B002AFF860C6
:10348000084611461A4603467B810B463B8113468C
:10349000FB80FEF72BFC7861FB6893F83D30DBB2D4
:1034A000202B40F0D9807B690093192301226D49BC
:1034B000F86800F021FB0346002B01D00223CCE08A
:1034C000FB6893F83C30012B01D10223C5E0FB6877
:1034D000012283F83C20FB681B681B6803F0010392
:1034E000012B07D0FB681B681A68FB681B6842F059
:1034F00001021A60FB681B681A68FB681B6822F4EB
:1035000000621A60FB68212283F83D20FB6840229C
:1035100083F83E20FB6800221A64FB683A6A5A620C
:10352000FB68BA8C5A85FB685B8D9AB2FB681A857A
:10353000FB684D4ADA62F8883A8979897B69019398
:10354000BB6A00930346F86800F040FA0346002B7C
:1035500052D0012381E07A69B96AF86800F0E6FB8D
:103560000346002B0DD0FB681B6C042B07D1FB68B6
:103570001B681A68FB681B6842F400721A6001231A
:103580006BE0FB685B6A1A78FB681B681A61FB6872
:103590005B6A5A1CFB685A62FB681B8D013B9AB23E
:1035A000FB681A85FB685B8D9BB2013B9AB2FB6896
:1035B0005A85FB681B685B6903F00403042B1BD16D
:1035C000FB681B8D002B17D0FB685B6A1A78FB68C1
:1035D0001B681A61FB685B6A5A1CFB685A62FB68CD
:1035E0001B8D013B9AB2FB681A85FB685B8D9BB211
:1035F000013B9AB2FB685A85FB681B8D002BAAD150
:103600007A69B96AF86800F0D9FB0346002B0DD03F
:10361000FB681B6C042B07D1FB681B681A68FB68EE
:103620001B6842F400721A60012316E0FB681B68F5
:103630001A68FB681B6842F400721A60FB6820225B
:1036400083F83D20FB68002283F83E20FB680022BF
:1036500083F83C20002300E0022318461837BD46BB
:1036600080BD00BF020010000000FFFF80B58AB0DF
:1036700002AFF8607A603B600B467B81FEF736FB59
:10368000F8610023BB61FB6893F83D30DBB2202B6F
:1036900040F01181FB690093192301228849F868E1
:1036A00000F02AFA0346002B01D0022304E1FB6854
:1036B00093F83C30012B01D10223FDE0FB6801228D
:1036C00083F83C20FB681B681B6803F00103012B97
:1036D00007D0FB681B681A68FB681B6842F0010290
:1036E0001A60FB681B681A68FB681B6822F400629A
:1036F0001A60FB68242283F83D20FB6800221A64CC
:10370000FB68704ADA62FB681B681A68FB681B6812
:1037100042F480721A60FB6900933B6800224FF00C
:103720000111F86800F0E8F90346002B0DD0FB68A2
:103730001B681B6803F48073B3F5807F03D1FB68BB
:103740004FF400721A640323B6E07B89DBB21A4699
:10375000FB681B6802F0FE021A61FEF7C7FAF86107
:10376000FB681B685B6903F00203022B0CBF01239B
:103770000023DBB2FB75FB681B685B6903F48063A5
:10378000B3F5806F0CBF01230023DBB2BB7525E0CE
:10379000FEF7ACFA0246FB69D31A3A689A4202D3A2
:1037A0003B68002B03D1FB68A02283F83D20FB6817
:1037B0001B685B6903F00203022B0CBF012300238B
:1037C000DBB2FB75FB681B685B6903F48063B3F5D0
:1037D000806F0CBF01230023DBB2BB75FB6893F83D
:1037E0003D30DBB2A02B05D0FB7D002B02D1BB7D91
:1037F000002BCDD0FB68202283F83D20FB681B689E
:103800005B6903F00203022B29D1FB681B681A686D
:10381000FB681B6842F400721A6000233B61FB687E
:103820001B685B693B61FB681B689B693B613B698B
:10383000FB690093192301222149F86800F05CF923
:103840000346002B01D0012336E0FB68202283F8D9
:103850003D20FB68002283F83C2000232CE0FB681D
:103860001B681A68FB681B6842F400721A60FB68E8
:103870001B686FF480625A61FB690093192301226F
:103880000F49F86800F038F90346002B01D00123F6
:1038900012E0BB690133BB61BA697B689A42FFF4ED
:1038A00032AFFB68202283F83D20FB68002283F8BA
:1038B0003C20012300E0022318462037BD4680BD8E
:1038C000020010000000FFFF80B588B002AFF86072
:1038D0007A603B600B467B81FB68DB6A7B617B69BE
:1038E000082B06D07B69012B03D07B6913F5803F41
:1038F00008D1FB681B681A68FB681B6842F4807279
:103900001A600BE0FB681B6B122B07D1FB681B686E
:103910001A68FB681B6842F480721A603B68009367
:103920007B6800224FF00111F86800F0E5F80346CB
:10393000002B0DD0FB681B681B6803F48073B3F584
:10394000807F03D1FB684FF400721A64032335E0D3
:10395000FB681B69B3F5804F08D17B89DBB21A463F
:10396000FB681B6802F0FE021A611BE07B89DB1119
:10397000DBB203F00603DBB263F00F03DAB2FB68DD
:103980001B681A613B687A680E49F86800F02EF9E6
:103990000346002B01D0012310E07B89DAB2FB68DB
:1039A0001B681A613B687A680749F86800F01EF9DD
:1039B0000346002B01D0012300E0002318461837EE
:1039C000BD4680BD080001000200010080B588B03E
:1039D00002AFF860084611461A4603467B810B4643
:1039E0003B811346FB80FB681B681A68FB681B68F9
:1039F00042F480721A607B6A00933B6A00224FF0A7
:103A00000111F86800F078F80346002B0DD0FB6830
:103A10001B681B6803F48073B3F5807F03D1FB68D8
:103A20004FF400721A6403235FE07B89DBB21A460D
:103A3000FB681B6802F0FE021A617B6A3A6A2D4934
:103A4000F86800F0D3F80346002B01D001234CE0C6
:103A500000237B61FB681B685B697B61FB681B68FB
:103A60009B697B617B697A6A396AF86800F05EF964
:103A70000346002B0DD0FB681B6C042B07D1FB68A1
:103A80001B681A68FB681B6842F400721A60012305
:103A90002BE0FB88012B05D13B89DAB2FB681B6860
:103AA0001A6121E03B891B0A9BB2DAB2FB681B68F2
:103AB0001A617A6A396AF86800F038F90346002B0F
:103AC0000DD0FB681B6C042B07D1FB681B681A68C0
:103AD000FB681B6842F400721A60012305E03B8911
:103AE000DAB2FB681B681A61002318461837BD4616
:103AF00080BD00BF0200010080B584B000AFF86057
:103B0000B9603B601346FB7148E03B68B3F1FF3F8F
:103B100044D0FEF7EBF80246BB69D31A3A689A42E2
:103B200002D33B68002B39D1BB681B0CDBB2012BE5
:103B30000DD1FB681B685B69DA43BB6813409BB21D
:103B4000002B0CBF01230023DBB21A460CE0FB68FC
:103B50001B689B69DA43BB6813409BB2002B0CBF08
:103B600001230023DBB21A46FB799A4216D1FB6887
:103B700000221A63FB68202283F83D20FB680022A4
:103B800083F83E20FB681B6C43F02002FB681A643C
:103B9000FB68002283F83C20012323E0BB681B0C58
:103BA000DBB2012B0DD1FB681B685B69DA43BB6894
:103BB00013409BB2002B0CBF01230023DBB21A463B
:103BC0000CE0FB681B689B69DA43BB6813409BB23F
:103BD000002B0CBF01230023DBB21A46FB799A426B
:103BE00093D0002318461037BD4680BD80B584B001
:103BF00000AFF860B9607A603B6071E0FB681B68F9
:103C00005B6903F48063B3F5806F23D1FB681B68A5
:103C10001A68FB681B6842F400721A60FB681B6834
:103C20006FF480625A61FB6800221A63FB682022ED
:103C300083F83D20FB68002283F83E20FB681B6C64
:103C400043F00402FB681A64FB68002283F83C20FE
:103C5000012367E07B68B3F1FF3F41D0FEF746F8F0
:103C600002463B68D31A7A689A4202D37B68002BDB
:103C700036D1BB681B0CDBB2012B0CD1FB681B6877
:103C80005B69DA43BB6813409BB2002B14BF01236E
:103C90000023DBB20BE0FB681B689B69DA43BB685F
:103CA00013409BB2002B14BF01230023DBB2002B77
:103CB00016D0FB6800221A63FB68202283F83D209F
:103CC000FB68002283F83E20FB681B6C43F0200257
:103CD000FB681A64FB68002283F83C20012321E082
:103CE000BB681B0CDBB2012B0CD1FB681B685B694A
:103CF000DA43BB6813409BB2002B14BF012300239F
:103D0000DBB20BE0FB681B689B69DA43BB681340BE
:103D10009BB2002B14BF01230023DBB2002B7FF4E6
:103D20006DAF002318461037BD4680BD80B584B006
:103D300000AFF860B9607A6034E0F86800F086F8A7
:103D40000346002B01D0012334E0BB68B3F1FF3FF1
:103D500028D0FDF7CBFF02467B68D31ABA689A4297
:103D600002D3BB68002B1DD1FB681B685B6903F0A5
:103D70008003802B16D0FB6800221A63FB68202288
:103D800083F83D20FB68002283F83E20FB681B6C13
:103D900043F02002FB681A64FB68002283F83C2091
:103DA000012307E0FB681B685B6903F08003802B3D
:103DB000C3D1002318461037BD4680BD80B584B0FE
:103DC00000AFF860B9607A6034E0F86800F03EF85F
:103DD0000346002B01D0012334E0BB68B3F1FF3F61
:103DE00028D0FDF783FF02467B68D31ABA689A424F
:103DF00002D3BB68002B1DD1FB681B685B6903F015
:103E00000403042B16D0FB6800221A63FB682022EF
:103E100083F83D20FB68002283F83E20FB681B6C82
:103E200043F02002FB681A64FB68002283F83C2000
:103E3000012307E0FB681B685B6903F00403042BA4
:103E4000C3D1002318461037BD4680BD80B483B06F
:103E500000AF78607B681B685B6903F48063B3F52F
:103E6000806F1BD17B681B686FF480625A617B682E
:103E700000221A637B68202283F83D207B680022A1
:103E800083F83E207B681B6C43F004027B681A6455
:103E90007B68002283F83C20012300E000231846C1
:103EA0000C37BD465DF8047B704780B586B002AF25
:103EB00078607B68002B01D1012301E17B681B68DE
:103EC000BB607B6893F89534DBB2002B06D17B682E
:103ED000002283F89424786806F0E2FB7B680322D2
:103EE00083F89524BB68B3F1A04F02D17B68002210
:103EF0009A717B681B68184602F037FF7B68186868
:103F00007B681A7C8DF8002004330ECB02F016FE7D
:103F10000346002B05D07B68022283F895240123F9
:103F2000CEE07B681B680021184602F02FFF034695
:103F3000002B05D07B68022283F895240123BFE083
:103F40000023FB734AE0FA7B79681346DB001344D5
:103F50009B000B44153301221A70FA7B79681346D3
:103F6000DB0013449B000B441433FA7B1A70FA7B7A
:103F7000FB7B98B279681346DB0013449B000B442B
:103F80002E3302461A80FA7B79681346DB0013440D
:103F90009B000B44183300221A70FA7B7968134691
:103FA000DB0013449B000B441C3300221A60FA7B95
:103FB00079681346DB0013449B000B442033002236
:103FC0001A60FA7B79681346DB0013449B000B44AC
:103FD000243300221A60FB7B0133FB737B681B795F
:103FE000FA7B9A42AFD30023FB7344E0FA7B7968F3
:103FF0001346DB0013449B000B4403F255230022BD
:104000001A70FA7B79681346DB0013449B000B445B
:1040100003F51573FA7B1A70FA7B79681346DB0097
:1040200013449B000B4403F5167300221A70FA7BAD
:1040300079681346DB0013449B000B4403F51773A8
:1040400000221A60FA7B79681346DB0013449B0058
:104050000B4403F5187300221A60FA7B7968134643
:10406000DB0013449B000B4403F5197300221A6014
:10407000FB7B0133FB737B681B79FA7B9A42B5D3D8
:104080007B6818687B681A7C8DF8002004330ECB9F
:1040900002F0C8FE0346002B05D07B68022283F89D
:1040A000952401230CE07B6800225A747B6801226E
:1040B00083F895247B681B68184603F012FF0023E1
:1040C00018461037BD4680BD80B584B000AF78601B
:1040D0007B681B68FB607B6893F89434012B01D1EB
:1040E000022322E07B68012283F89424FB68DB68CA
:1040F00003F04003002B09D07B685B7B012B05D1CB
:10410000FB689B6B43F48032FB689A637B681B6897
:10411000184602F019FE7B681B68184603F0C0FEC3
:104120007B68002283F89424002318461037BD468C
:1041300080BD90B58DB000AF78607B681B683B6236
:104140003B6AFB617B681B68184603F07EFF0346F1
:10415000002B40F08C847B681B68184603F0E2FE5D
:104160000346002B00F08284FB6903F500639B6823
:104170001B0AC3F30D027B68C3F8D4247B681B6859
:10418000184603F0CFFE034603F00203022B07D1CB
:104190007B681B685A697B681B6802F002025A61DF
:1041A0007B681B68184603F0BDFE034603F010034E
:1041B000102B61D17B681B689A697B681B6822F0B1
:1041C00010029A613B6A1B6ABB61BB6903F00F0274
:1041D0001346DB0013449B0003F514737A68134401
:1041E00004337B61BB6903F4F013B3F5802F24D152
:1041F000BA6947F6F0731340002B35D07B69D96854
:10420000BB691B099BB2C3F30A039BB21A46386A07
:1042100003F0F4FC7B69DA68BB691B09C3F30A038A
:104220001A447B69DA607B695A69BB691B09C3F36D
:104230000A031A447B695A6116E0BB6903F4F01360
:10424000B3F5402F10D17B6803F29C430822194636
:10425000386A03F0D3FC7B695A69BB691B09C3F355
:104260000A031A447B695A617B681B689A697B68F8
:104270001B6842F010029A617B681B68184603F0C5
:1042800051FE034603F40023B3F5002F40F0A7804E
:1042900000237B627B681B68184603F056FEB862F9
:1042A00099E0BB6A03F00103002B00F08E807B686D
:1042B0001B687A6AD2B21146184603F07AFE38615A
:1042C0003B6903F00103002B0CD07B6A5A01FB69A8
:1042D000134403F530631A4601239360796A7868C2
:1042E00000F0A4FE3B6903F00803002B0CD07B6AAE
:1042F0005A01FB69134403F530631A46082393609F
:10430000796A786800F07AFF3B6903F01003002BAC
:1043100008D07B6A5A01FB69134403F530631A46DF
:10432000102393603B6903F00203002B30D03B6AFB
:104330005B6903F08003802B09D1FB6903F50063FF
:104340005B68FA6902F5006243F4806353607A6A3D
:104350001346DB0013449B0003F514737A6813447F
:1043600004337B617B69DB78012B08D17B690022F8
:10437000DA707B6ADBB21946786806F08DFA7B6AE0
:104380005A01FB69134403F530631A460223936014
:104390003B6903F02003002B08D07B6A5A01FB69BC
:1043A000134403F530631A46202393603B6903F4FA
:1043B0000053002B09D07B6A5A01FB69134403F5B3
:1043C00030631A464FF4005393607B6A01337B627B
:1043D000BB6A5B08BB62BB6A002B7FF462AF7B6881
:1043E0001B68184603F09EFD034603F48023B3F5D3
:1043F000802F40F0DB807B681B68184603F0BFFD10
:10440000B86200237B62CDE0BB6A03F00103002B9E
:1044100000F0C2807B681B687A6AD2B211461846E7
:1044200003F0E5FD38613B6903F00103002B57D031
:104430007B6A03F00F03012202FA03F3FB60FB69BE
:1044400003F500635A6BFB68DB43F96901F5006112
:1044500013404B637B6A5A01FB69134403F51063F5
:104460001A46012393607B689B79012B32D17968CE
:104470007A6A1346DB0013449B000B44203319680F
:1044800078687A6A1346DB0013449B0003441C33AC
:104490001B68194478687A6A1346DB0013449B0052
:1044A0000344203319607B6A002B13D179687A6A40
:1044B0001346DB0013449B000B4424331B68002B82
:1044C00008D17B6818687B6803F29C431A46012177
:1044D00003F0ECFD7B6ADBB21946786806F061F9FF
:1044E0003B6903F00803002B08D07B6A5A01FB6983
:1044F000134403F510631A46082393603B6903F0E5
:104500001003002B08D07B6A5A01FB69134403F5A2
:1045100010631A46102393603B6903F04003002B9D
:1045200008D07B6A5A01FB69134403F510631A46ED
:10453000402393603B6903F00203002B23D0796A88
:10454000386A02F0D3FD7A6A1346DB0013449B00FD
:1045500010337A68134404337B617B69DB78012B69
:1045600008D17B690022DA707B6ADBB21946786871
:1045700006F0A4F97B6A5A01FB69134403F5106342
:104580001A46022393603B6903F08003002B03D09B
:10459000796A786800F0BDFC7B6A01337B62BB6A94
:1045A0005B08BB62BB6A002B7FF42EAF7B681B6885
:1045B000184603F0B7FC034603F00043B3F1004F85
:1045C00022D1FB6903F500635B68FA6902F50062BA
:1045D00023F0010353607B6893F8CC34012B08D19E
:1045E0007B68002283F8CC240021786800F0A4FEC8
:1045F00002E0786806F042F97B681B685A697B68BC
:104600001B6802F000425A617B681B68184603F081
:1046100089FC034603F40063B3F5006F12D1FB6914
:1046200003F500639B6803F00103012B02D1786856
:1046300006F0FEF87B681B685A697B681B6802F409
:1046400000625A617B681B68184603F06BFC0346E6
:1046500003F48053B3F5805F40F0B780FB6903F546
:1046600000635B68FA6902F5006223F0010353609E
:104670007B681B681021184602F038FD0023FB629E
:1046800046E0FB6A5A01FB69134403F510631A46BE
:104690004FF67F339360FB6A5A01FB69134403F5BD
:1046A00010631B68FA6A5101FA690A4402F5106244
:1046B00023F400131360FB6A5A01FB69134403F5EA
:1046C00030631A464FF67F339360FB6A5A01FB69E9
:1046D000134403F530631B68FA6A5101FA690A440E
:1046E00002F5306223F400131360FB6A5A01FB6980
:1046F000134403F530631B68FA6A5101FA690A44EE
:1047000002F5306243F000631360FB6A0133FB6221
:104710007B681B791A46FB6A9342B2D3FB6903F5A7
:104720000063DB69FA6902F5006243F00113D361AB
:104730007B68DB7B002B16D0FB6903F50063D3F8A5
:104740008430FA6902F5006243F00B03C2F884304A
:10475000FB6903F500635B6CFA6902F5006243F0E4
:104760000B03536415E0FB6903F500635B69FA69A9
:1047700002F5006243F4005343F02B035361FB69DD
:1047800003F500631B69FA6902F5006243F00B034D
:104790001361FB6903F500631B68FA6902F50062A7
:1047A00023F4FE6313607B6818687B6899797B68E3
:1047B00003F29C431A4603F079FC7B681B685A6934
:1047C0007B681B6802F480525A617B681B6818463C
:1047D00003F0A8FB034603F40053B3F5005F23D1B5
:1047E0007B681B68184603F03EFC7B681B68184614
:1047F00002F0F5FC03461A467B68DA717B681C6898
:1048000001F0CAF901467B68DB791A46204602F0BE
:10481000F9F9786805F0EDFF7B681B685A697B68D9
:104820001B6802F400525A617B681B68184603F04B
:1048300079FB034603F00803082B0AD1786805F0DA
:10484000CAFF7B681B685A697B681B6802F0080214
:104850005A617B681B68184603F064FB034603F04B
:104860008003802B23D13B6A9B6923F080023B6A43
:104870009A6101237B6214E079687A6A1346DB004F
:1048800013449B000B4403F257231B78012B05D1E3
:104890007B6ADBB21946786800F00AFB7B6A013359
:1048A0007B627B681B791A467B6A9342E4D37B6800
:1048B0001B68184603F036FB034603F48013B3F578
:1048C000801F3CD101237B622BE07B6A5A01FB698C
:1048D000134403F510631B68BB6179687A6A134659
:1048E000DB0013449B000B4418331B78012B15D1BC
:1048F000BB69002B12DA79687A6A1346DB0013442D
:104900009B000B44173301221A707B6ADBB263F001
:104910007F03DBB21946786800F0CAFA7B6A01337C
:104920007B627B681B791A467B6A9342CDD37B6896
:104930001B685A697B681B6802F480125A617B68A5
:104940001B68184603F0EEFA034603F40013B3F5B0
:10495000001F56D101237B6245E07B6A5A01FB6947
:10496000134403F530631B68BB6179687A6A1346A8
:10497000DB0013449B000B4403F516731B78012BDB
:104980002ED1BB69002B2BDABB691A0C7B68D3F8DC
:10499000D434534003F00103002B21D179687A6AA3
:1049A0001346DB0013449B000B4403F25723012200
:1049B0001A703B6A9B6943F080023B6A9A613B6ACA
:1049C0005B6903F08003002B0AD1FB6903F50063E8
:1049D0005B68FA6902F5006243F40073536008E013
:1049E0007B6A01337B627B681B791A467B6A934240
:1049F000B3D37B681B685A697B681B6802F400129A
:104A00005A617B681B68184603F08CFA034603F072
:104A10008043B3F1804F0AD1786805F061FF7B686D
:104A20001B685A697B681B6802F080425A617B6888
:104A30001B68184603F076FA034603F00403042BC0
:104A400015D17B681B685B68BB61BB6903F004031D
:104A5000002B02D0786805F051FF7B681B6859680D
:104A60007B681B68BA690A435A6000E000BF3437AC
:104A7000BD4690BD80B582B000AF78600B46FB703C
:104A80007B6893F89434012B01D1022312E07B68F8
:104A9000012283F894247B68FA785A747B681B6837
:104AA000FA781146184603F0D5F97B68002283F89E
:104AB0009424002318460837BD4680BD80B584B0D5
:104AC00000AF7860084611461A460346FB700B4655
:104AD0003B801346BB700023FB7297F90330002B19
:104AE0000FDAFB7803F00F021346DB0013449B0040
:104AF00010337A6813440433FB60FB6801225A7058
:104B00000FE0FB7803F00F021346DB0013449B0019
:104B100003F514737A6813440433FB60FB680022C6
:104B20005A70FB7803F00F03DAB2FB681A703B8807
:104B3000C3F30A02FB689A60FB68BA781A71FB68D3
:104B40005B78002B04D0FB681B781A46FB685A83FD
:104B5000BB78022B02D1FB6800225A717B6893F864
:104B60009434012B01D102230EE07B68012283F8EB
:104B700094247B681B68F968184602F055FB7B6833
:104B8000002283F89424FB7A18461037BD4680BD76
:104B900080B584B000AF78600B46FB7097F90330A6
:104BA000002B0FDAFB7803F00F021346DB001344EF
:104BB0009B0010337A6813440433FB60FB680122C6
:104BC0005A700FE0FB7803F00F021346DB0013442A
:104BD0009B0003F514737A6813440433FB60FB688D
:104BE00000225A70FB7803F00F03DAB2FB681A70E8
:104BF0007B6893F89434012B01D102230EE07B688B
:104C0000012283F894247B681B68F968184602F037
:104C100093FB7B68002283F8942400231846103706
:104C2000BD4680BD80B586B000AFF8607A603B605D
:104C30000B46FB72FB7A03F00F021346DB001344B2
:104C40009B0003F51473FA68134404337B617B699A
:104C50007A68DA607B693A681A617B6900225A6176
:104C60007B6900225A70FB7A03F00F03DAB27B698A
:104C70001A70FB689B79012B02D17A687B69DA6133
:104C8000FB681868FB689B791A46796902F030FC6A
:104C9000002318461837BD4680BD80B483B000AFEE
:104CA00078600B46FB70FB7803F00F0279681346BF
:104CB000DB0013449B000B4403F51A731B68184672
:104CC0000C37BD465DF8047B704780B586B000AFF9
:104CD000F8607A603B600B46FB72FB7A03F00F02D0
:104CE0001346DB0013449B001033FA68134404336B
:104CF0007B617B697A68DA607B693A681A617B69F3
:104D000000225A617B6901225A70FB7A03F00F037B
:104D1000DAB27B691A70FB689B79012B02D17A6841
:104D20007B69DA61FB681868FB689B791A467969C8
:104D300002F0DEFB002318461837BD4680BD80B563
:104D400084B000AF78600B46FB70FB7803F00F0374
:104D50007A681279934201D901234FE097F9033021
:104D6000002B0FDAFB7803F00F021346DB0013442D
:104D70009B0010337A6813440433FB60FB68012204
:104D80005A700DE0FA781346DB0013449B0003F5DC
:104D900014737A6813440433FB60FB6800225A7072
:104DA000FB6801229A70FB7803F00F03DAB2FB680C
:104DB0001A707B6893F89434012B01D102231DE013
:104DC0007B68012283F894247B681B68F968184685
:104DD00002F06CFFFB7803F00F03002B09D17B6816
:104DE00018687B6899797B6803F29C431A4603F044
:104DF0005DF97B68002283F894240023184610375D
:104E0000BD4680BD80B584B000AF78600B46FB70B6
:104E1000FB7803F00F037A681279934201D90123DA
:104E200042E097F90330002B0FDAFB7803F00F0212
:104E30001346DB0013449B0010337A681344043399
:104E4000FB60FB6801225A700FE0FB7803F00F0251
:104E50001346DB0013449B0003F514737A68134474
:104E60000433FB60FB6800225A70FB6800229A70D2
:104E7000FB7803F00F03DAB2FB681A707B6893F8D3
:104E80009434012B01D102230EE07B68012283F8C8
:104E900094247B681B68F968184602F075FF7B68EC
:104EA000002283F89424002318461037BD4680BDA5
:104EB00080B584B000AF78600B46FB7097F9033083
:104EC000002B0CDAFB7803F00F021346DB001344CF
:104ED0009B0010337A6813440433FB600CE0FB78CA
:104EE00003F00F021346DB0013449B0003F5147319
:104EF0007A6813440433FB607B681B68F9681846C2
:104F000002F094FD0346FB72FB7A18461037BD464B
:104F100080BD80B58AB002AF786039607B681B685D
:104F20007B617B693B613A681346DB0013449B005D
:104F300010337A6813440433FB60FB685A69FB68DA
:104F40001B699A4201D901236BE0FB681A69FB686F
:104F50005B69D31AFB61FB689B68FA699A4202D9C4
:104F6000FB689B68FB61FB6903339B08BB612AE01C
:104F7000FB681A69FB685B69D31AFB61FB689B6875
:104F8000FA699A4202D9FB689B68FB61FB690333AB
:104F90009B08BB61FB68D9683B68DAB2FB6998B2D1
:104FA0007B689B7900930346786902F0E9FDFB6812
:104FB000DA68FB691A44FB68DA60FB685A69FB69C6
:104FC0001A44FB685A613B685A013B69134403F574
:104FD00010639B699BB2BA699A4209D8FB685A6907
:104FE000FB681B699A4203D2FB681B69002BBFD187
:104FF000FB681A69FB685B699A4211D83B6803F049
:105000000F03012202FA03F3BB603B6903F500635F
:105010005A6BBB68DB43396901F5006113404B6390
:10502000002318462037BD4680BD000080B588B0FB
:1050300000AF786039607B681B68FB61FB69BB610E
:10504000FB693C3304331B687B613B685A01BB69D5
:10505000134403F530639B683B617B689B79012BAC
:105060007BD13B6903F00803002B15D07B69614AB3
:10507000934240F2B9803B6903F40043002B00F0F7
:10508000B3803B685A01BB69134403F530631A4689
:105090004FF400439360A7E03B6903F02003002B2B
:1050A00009D03B685A01BB69134403F530631A46C3
:1050B0002023936098E03B6903F02803002B40F025
:1050C00093807B694B4A93420FD93B6903F40043B9
:1050D000002B0AD03B685A01BB69134403F53063C7
:1050E0001A464FF4004393607EE03A681346DB00B3
:1050F00013449B0003F514737A6813440433FB6074
:10510000FB681A6A3B685901BB690B4403F53063BD
:105110001B69C3F31203D21AFB685A613B68002B68
:1051200014D1FB681B69002B09D17B6818687B6868
:1051300003F29C431A46012102F0B8FF06E0FB6827
:10514000DA68FB685B691A44FB68DA603B68DBB2CB
:105150001946786805F00AFB46E07B69264A9342C7
:1051600024D13B6903F40043002B0AD03B685A0169
:10517000BB69134403F530631A464FF40043936050
:1051800032E03B6903F02003002B08D03B685A0152
:10519000BB69134403F530631A46202393603B68D0
:1051A000DBB21946786805F0E1FA1DE03B68002B98
:1051B00014D179683A681346DB0013449B000B4412
:1051C00003F519731B68002B08D17B6818687B688E
:1051D00003F29C431A46002102F068FF3B68DBB2F1
:1051E0001946786805F0C2FA002318462037BD46F4
:1051F00080BD00BF0A30544F0A31544F80B586B08D
:1052000000AF786039607B681B687B617B693B61BC
:105210007B693C3304331B68FB603B685A013B6984
:10522000134403F530639B68BB60FB68154A9342E7
:105230000ED9BB6803F40043002B09D03B685A0128
:105240003B69134403F530631A464FF400439360FF
:10525000786805F079FAFB680A4A93420CD97B68B2
:105260009B79012B08D17B6818687B6803F29C430B
:105270001A46012102F01AFF002318461837BD46CE
:1052800080BD00BF0A30544F80B485B000AF786055
:105290000B46FB7013463B807B681B685B6ABB60F8
:1052A000FB78002B07D13B8819047B681B68BA6820
:1052B0000A439A6228E07B681B689B6A1B0CBA68E9
:1052C0001344BB600023FB730DE07B681A68FB7B13
:1052D00040339B0013445B681B0CBA681344BB60EB
:1052E000FB7B0133FB73FA7BFB78013B9A42ECD3E7
:1052F0003B8818047B681968FB78013BBA68024355
:1053000040339B000B445A60002318461437BD46B7
:105310005DF8047B704780B483B000AF78600B46C3
:105320007B807B681B687A885A62002318460C379A
:10533000BD465DF8047B704780B483B000AF7860F1
:105340000B46FB7000BF0C37BD465DF8047B704711
:1053500080B586B000AF78607B68002B01D1012357
:1053600067E27B681B6803F00103002B75D0884B54
:105370009B6803F00C03042B0CD0854B9B6803F057
:105380000C03082B12D1824B5B6803F48003B3F546
:10539000800F0BD17E4B1B6803F40033002B5BD0D6
:1053A0007B685B68002B57D1012342E27B685B6816
:1053B000B3F5803F06D1764B1B68754A43F48033C2
:1053C00013601DE07B685B68B3F5A02F0CD1704BB8
:1053D0001B686F4A43F4802313606D4B1B686C4A53
:1053E00043F4803313600BE0694B1B68684A23F475
:1053F00080331360664B1B68654A23F48023136077
:105400007B685B68002B13D0FCF770FC386108E008
:10541000FCF76CFC02463B69D31A642B01D90323C9
:1054200007E25B4B1B6803F40033002BF0D014E061
:10543000FCF75CFC386108E0FCF758FC02463B696D
:10544000D31A642B01D90323F3E1514B1B6803F4F6
:105450000033002BF0D100E000BF7B681B6803F035
:105460000203002B63D04A4B9B6803F00C03002B14
:105470000BD0474B9B6803F00C03082B1CD1444B0B
:105480005B6803F48003002B16D1414B1B6803F0CB
:105490000203002B05D07B68DB68012B01D00123C0
:1054A000C7E13B4B1B6823F0F8027B681B69DB00FC
:1054B000374913430B603AE07B68DB68002B20D050
:1054C000344B01221A60FCF711FC386108E0FCF74C
:1054D0000DFC02463B69D31A022B01D90323A8E134
:1054E0002B4B1B6803F00203002BF0D0284B1B68EA
:1054F00023F0F8027B681B69DB00254913430B602E
:1055000015E0244B00221A60FCF7F0FB386108E03C
:10551000FCF7ECFB02463B69D31A022B01D90323AB
:1055200087E11B4B1B6803F00203002BF0D17B6863
:105530001B6803F00803002B36D07B685B69002BE7
:1055400016D0154B01221A60FCF7D0FB386108E039
:10555000FCF7CCFB02463B69D31A022B01D903238B
:1055600067E10B4B5B6F03F00203002BF0D01BE0F5
:10557000094B00221A60FCF7B9FB38610EE0FCF71A
:10558000B5FB02463B69D31A022B07D9032350E12E
:105590000038024000004742800E4742884B5B6F54
:1055A00003F00203002BEAD17B681B6803F00403BD
:1055B000002B00F097800023FB75814B1B6C03F0E0
:1055C0008053002B0FD10023BB607D4B1B6C7C4AAA
:1055D00043F0805313647A4B1B6C03F08053BB6021
:1055E000BB680123FB75774B1B6803F48073002BAA
:1055F00018D1744B1B68734A43F480731360FCF733
:1056000075FB386108E0FCF771FB02463B69D31A71
:10561000022B01D903230CE16A4B1B6803F480734E
:10562000002BF0D07B689B68012B06D1644B1B6F6D
:10563000634A43F0010313671CE07B689B68052BFA
:105640000CD15F4B1B6F5E4A43F0040313675C4B46
:105650001B6F5B4A43F0010313670BE0584B1B6F52
:10566000574A23F001031367554B1B6F544A23F02D
:10567000040313677B689B68002B15D0FCF736FB8F
:1056800038610AE0FCF732FB02463B69D31A41F26B
:105690008832934201D90323CBE0494B1B6F03F0BF
:1056A0000203002BEED014E0FCF720FB38610AE087
:1056B000FCF71CFB02463B69D31A41F28832934245
:1056C00001D90323B5E03E4B1B6F03F00203002B0F
:1056D000EED1FB7D012B05D1394B1B6C384A23F0F1
:1056E000805313647B689B69002B00F0A180344BCE
:1056F0009B6803F00C03082B5CD07B689B69022B32
:1057000041D1314B00221A60FCF7F0FA386108E011
:10571000FCF7ECFA02463B69D31A022B01D90323AA
:1057200087E0274B1B6803F00073002BF0D17B68E8
:10573000DA697B681B6A1A437B685B6A9B011A43C0
:105740007B689B6A5B08013B1B041A437B68DB6A2E
:105750001B061B4913434B601B4B01221A60FCF7CD
:10576000C5FA386108E0FCF7C1FA02463B69D31A72
:10577000022B01D903235CE0114B1B6803F000737B
:10578000002BF0D054E0104B00221A60FCF7AEFA68
:10579000386108E0FCF7AAFA02463B69D31A022BEB
:1057A00001D9032345E0064B1B6803F00073002B6F
:1057B000F0D13DE07B689B69012B07D1012338E0E4
:1057C0000038024000700040600047421B4B5B689D
:1057D000FB607B689B69012B28D0FB6803F4800287
:1057E0007B68DB699A4221D1FB6803F03F027B684A
:1057F0001B6A9A421AD1FA6847F6C07313407A6856
:10580000526A9201934211D1FB6803F440327B68E3
:105810009B6A5B08013B1B049A4207D1FB6803F0BB
:1058200070627B68DB6A1B069A4201D0012300E0AC
:10583000002318461837BD4680BD00BF003802401F
:1058400080B584B000AF786039607B68002B01D1EF
:105850000123CCE0684B1B6803F007033A689A42C7
:105860000CD9654B3A68D2B21A70634B1B6803F0CF
:1058700007033A689A4201D00123B8E07B681B68AD
:1058800003F00203002B20D07B681B6803F00403A5
:10589000002B05D0594B9B68584A43F4E053936062
:1058A0007B681B6803F00803002B05D0534B9B68F3
:1058B000524A43F460439360504B9B6823F0F002DC
:1058C0007B689B684D4913438B607B681B6803F0C2
:1058D0000103002B44D07B685B68012B07D1474B49
:1058E0001B6803F40033002B19D101237FE07B6890
:1058F0005B68022B03D07B685B68032B07D13F4BAF
:105900001B6803F00073002B09D101236FE03B4BB0
:105910001B6803F00203002B01D1012367E0374B22
:105920009B6823F003027B685B68344913438B60F8
:10593000FCF7DCF9F8600AE0FCF7D8F90246FB68EE
:10594000D31A41F28832934201D903234FE02B4B03
:105950009B6803F00C027B685B689B009A42EBD16A
:10596000254B1B6803F007033A689A420CD2224B7E
:105970003A68D2B21A70204B1B6803F007033A68EA
:105980009A4201D0012332E07B681B6803F00403D4
:10599000002B08D0194B9B6823F4E0527B68DB682E
:1059A000164913438B607B681B6803F00803002BC8
:1059B00009D0124B9B6823F460427B681B69DB00B3
:1059C0000E4913438B6000F021F802460B4B9B6895
:1059D0001B0903F00F030A49CB5C22FA03F3094ABF
:1059E0001360094B1B681846FCF73CF90023184666
:1059F0001037BD4680BD00BF003C02400038024069
:105A0000DCC300080C000020100000202DE9B04F7E
:105A100090B000AF00237B630023FB6300233B6354
:105A20000023BB63594B9B6803F00C03082B0DD07C
:105A3000082B00F2A180002B02D0042B03D09BE0A6
:105A4000534BBB639BE0534BBB6398E04F4B5B688E
:105A500003F03F037B634D4B5B6803F48003002B33
:105A600028D04A4B5B689B0900223B627A623B6A02
:105A7000C3F308000021474B03FB01F2002300FBA6
:105A800003F31344434AA0FB0212FA620A46BA62C5
:105A9000FA6A1344FB627B6B0022BB61FA61D7E9AF
:105AA0000623D7E90A01FAF7EBFB02460B46134639
:105AB000FB6353E0354B5B689B0900223B617A61D5
:105AC0003B69C3F3080A4FF0000B52465B464FF0A8
:105AD00000004FF00001590141EAD2615001024635
