:020000040800F2
:1000000000000220C5320008DD2F0008E52F00089F
:10001000ED2F0008F52F0008FD2F0008000000005C
:100020000000000000000000000000000530000893
:100030001330000800000000213000082F300008B5
:100040001533000815330008153300081533000870
:100050001533000815330008153300081533000860
:100060001533000815330008153300083D3000082B
:100070005130000815330008153300081533000807
:100080001533000815330008653000080000000033
:100090000000000000000000000000001533000810
:1000A000793000088D300008A130000815330008B1
:1000B00015330008B530000815330008C9300008B2
:1000C000DD3000081533000815330008153300082B
:1000D0001533000815330008153300080000000030
:1000E0001533000815330008153300080000000020
:1000F00000000000000000000000000015330008B0
:1001000000000000153300081533000815330008FF
:1001100000000000000000000000000000000000DF
:10012000153300081533000815330008153300088F
:10013000153300080000000000000000000000006F
:10014000000000000000000000000000F130000886
:10015000153300081533000815330008153300085F
:1001600015330008153300080000000000000000EF
:10017000000000000000000000000000000000007F
:100180000000000005310008000000000000000031
:080190001533000815330008C7
:1001A00010B5054C237833B9044B13B10448AFF3B1
:1001B00000800123237010BDD80200200000000041
:1001C0009435010808B5034B1BB103490348AFF34D
:1001D000008008BD00000000DC020020943501080A
:1001E00001F0FF01102A2BDB10F0070F08D010F8E8
:1001F000013B013A8B422DD010F0070F42B3F6D1EC
:10020000F0B441EA012141EA014122F007047FF004
:1002100000070023F0E80256083C85EA010586EA5B
:10022000010685FA47F5A3FA87F586FA47F6A5FA97
:1002300087F68EB9EED1F0BC01F0FF0102F00702A3
:1002400032B110F8013B013A83EA010313B1F8D14E
:100250000020704701387047002D06BF354603382F
:10026000073815F0010F07D1013015F4807F02BF68
:10027000013015F4C03F0130F0BC0138704700BFB9
:10028000034613F8012B002AFBD1181A01387047D6
:1002900081F0004102E000BF83F0004330B54FEA37
:1002A00041044FEA430594EA050F08BF90EA020FA4
:1002B0001FBF54EA000C55EA020C7FEA645C7FEA37
:1002C000655C00F0E2804FEA5454D4EB5555B8BF5A
:1002D0006D420CDD2C4480EA020281EA030382EACB
:1002E000000083EA010180EA020281EA0303362D5D
:1002F00088BF30BD11F0004F4FEA01314FF4801C30
:100300004CEA113102D0404261EB410113F0004F41
:100310004FEA03334CEA133302D0524263EB4303F8
:1003200094EA050F00F0A780A4F10104D5F1200E96
:100330000DDB02FA0EFC22FA05F2801841F10001F1
:1003400003FA0EF2801843FA05F359410EE0A5F1C5
:1003500020050EF1200E012A03FA0EFC28BF4CF0F6
:10036000020C43FA05F3C01851EBE37101F00045AC
:1003700007D54FF0000EDCF1000C7EEB00006EEBB9
:100380000101B1F5801F1BD3B1F5001F0CD3490843
:100390005FEA30004FEA3C0C04F101044FEA44529A
:1003A00012F5800F80F09A80BCF1004F08BF5FEA21
:1003B000500C50F1000041EB045141EA050130BD01
:1003C0005FEA4C0C404141EB0101013C28BFB1F513
:1003D000801FE9D291F0000F04BF01460020B1FA5E
:1003E00081F308BF2033A3F10B03B3F120020CDA31
:1003F0000C3208DD02F1140CC2F10C0201FA0CF00F
:1004000021FA02F10CE002F11402D8BFC2F1200C73
:1004100001FA02F120FA0CFCDCBF41EA0C01904029
:10042000E41AA2BF01EB0451294330BD6FEA040472
:100430001F3C1CDA0C340EDC04F11404C4F120025D
:1004400020FA04F001FA02F340EA030021FA04F36F
:1004500045EA030130BDC4F10C04C4F1200220FAC6
:1004600002F001FA04F340EA0300294630BD21FA04
:1004700004F0294630BD94F0000F83F4801306BFCA
:1004800081F480110134013D4EE77FEA645C18BFBE
:100490007FEA655C29D094EA050F08BF90EA020F55
:1004A00005D054EA000C04BF1946104630BD91EA4D
:1004B000030F1EBF0021002030BD5FEA545C05D150
:1004C0004000494128BF41F0004130BD14F580048F
:1004D0003CBF01F5801130BD01F0004545F0FE4103
:1004E00041F470014FF0000030BD7FEA645C1ABF38
:1004F000194610467FEA655C1CBF0B46024650EA6F
:10050000013406BF52EA033591EA030F41F400219A
:1005100030BD00BF90F0000F04BF0021704730B520
:100520004FF4806404F132044FF000054FF00001F5
:1005300050E700BF90F0000F04BF0021704730B5B6
:100540004FF4806404F1320410F0004548BF40428B
:100550004FF000013EE700BF42004FEAE2014FEAE0
:1005600031014FEA02701FBF12F07F4393F07F4FBB
:1005700081F06051704732F07F4208BF704793F0BE
:100580007F4F04BF41F40021704730B54FF46074D1
:1005900001F0004521F000411CE700BF50EA0102D4
:1005A00008BF704730B54FF000050AE050EA01027D
:1005B00008BF704730B511F0004502D5404261EBED
:1005C00041014FF4806404F132045FEA915C3FF42E
:1005D000D8AE4FF003025FEADC0C18BF03325FEACB
:1005E000DC0C18BF033202EBDC02C2F1200300FA7C
:1005F00003FC20FA02F001FA03FE40EA0E0021FAA1
:1006000002F11444BDE600BF70B54FF0FF0C4CF48E
:10061000E06C1CEA11541DBF1CEA135594EA0C0F40
:1006200095EA0C0F00F0DEF82C4481EA030621EA7B
:100630004C5123EA4C5350EA013518BF52EA0335B6
:1006400041F4801143F4801338D0A0FB02CE4FF068
:100650000005E1FB02E506F00042E0FB03E54FF098
:100660000006E1FB03569CF0000F18BF4EF0010E90
:10067000A4F1FF04B6F5007F64F5407404D25FEA8C
:100680004E0E6D4146EB060642EAC62141EA55513F
:100690004FEAC52040EA5E504FEACE2EB4F1FD0C81
:1006A00088BFBCF5E06F1ED8BEF1004F08BF5FEAFF
:1006B000500E50F1000041EB045170BD06F00046B1
:1006C00046EA010140EA020081EA0301B4EB5C045E
:1006D000C2BFD4EB0C0541EA045170BD41F4801156
:1006E0004FF0000E013C00F3AB8014F1360FDEBF7B
:1006F000002001F0004170BDC4F10004203C35DA57
:100700000C341BDC04F11404C4F1200500FA05F3D9
:1007100020FA04F001FA05F240EA020001F000427A
:1007200021F0004110EBD37021FA04F642EB0601F0
:100730005EEA430E08BF20EAD37070BDC4F10C041A
:10074000C4F1200500FA04F320FA05F001FA04F2DE
:1007500040EA020001F0004110EBD37041F10001CA
:100760005EEA430E08BF20EAD37070BDC4F12005D5
:1007700000FA05F24EEA020E20FA04F301FA05F23D
:1007800043EA020321FA04F001F0004121FA04F2E5
:1007900020EA020000EBD3705EEA430E08BF20EAB5
:1007A000D37070BD94F0000F0FD101F000464000EF
:1007B00041EB010111F4801F08BF013CF7D041EA71
:1007C000060195F0000F18BF704703F00046520075
:1007D00043EB030313F4801F08BF013DF7D043EA46
:1007E0000603704794EA0C0F0CEA135518BF95EAFC
:1007F0000C0F0CD050EA410618BF52EA4306D1D183
:1008000081EA030101F000414FF0000070BD50EAA1
:10081000410606BF1046194652EA430619D094EA2B
:100820000C0F02D150EA013613D195EA0C0F05D115
:1008300052EA03361CBF104619460AD181EA030169
:1008400001F0004141F0FE4141F470014FF0000021
:1008500070BD41F0FE4141F4780170BD70B54FF0BC
:10086000FF0C4CF4E06C1CEA11541DBF1CEA13553C
:1008700094EA0C0F95EA0C0F00F0A7F8A4EB05041E
:1008800081EA030E52EA03354FEA013100F0888015
:100890004FEA03334FF0805545EA131343EA1263DE
:1008A0004FEA022245EA111545EA10654FEA002693
:1008B0000EF000419D4208BF964244F1FD0404F54C
:1008C000407402D25B084FEA3202B61A65EB0305A8
:1008D0005B084FEA32024FF480104FF4002CB6EB65
:1008E000020E75EB030E22BFB61A754640EA0C00E5
:1008F0005B084FEA3202B6EB020E75EB030E22BF25
:10090000B61A754640EA5C005B084FEA3202B6EB65
:10091000020E75EB030E22BFB61A754640EA9C0024
:100920005B084FEA3202B6EB020E75EB030E22BFF4
:10093000B61A754640EADC0055EA060E18D04FEAB2
:10094000051545EA16754FEA06164FEAC30343EA52
:1009500052734FEAC2025FEA1C1CC0D111F4801F1F
:100960000BD141EA00014FF000004FF0004CB6E718
:1009700011F4801F04BF01430020B4F1FD0C88BFB7
:10098000BCF5E06F3FF6AFAEB5EB030C04BFB6EBC2
:10099000020C5FEA500C50F1000041EB045170BDB5
:1009A0000EF0004E4EEA113114EB5C04C2BFD4EBE2
:1009B0000C0541EA045170BD41F480114FF0000E66
:1009C000013C90E645EA060E8DE60CEA135594EAE2
:1009D0000C0F08BF95EA0C0F3FF43BAF94EA0C0FE5
:1009E0000AD150EA01347FF434AF95EA0C0F7FF45A
:1009F00025AF104619462CE795EA0C0F06D152EAAE
:100A000003353FF4FDAE1046194622E750EA410691
:100A100018BF52EA43067FF4C5AE50EA41047FF4A2
:100A20000DAF52EA43057FF4EBAE12E74FF0FF3C07
:100A300006E000BF4FF0010C02E000BF4FF0010CD8
:100A40004DF804CD4FEA410C7FEA6C5C4FEA430C51
:100A500018BF7FEA6C5C1BD001B050EA410C0CBFA0
:100A600052EA430C91EA030F02BF90EA020F002002
:100A7000704710F1000F91EA030F58BF994208BF69
:100A800090422CBFD8176FEAE37040F00100704726
:100A90004FEA410C7FEA6C5C02D150EA013C07D17D
:100AA0004FEA430C7FEA6C5CD6D152EA033CD3D0C8
:100AB0005DF8040B704700BF8446104662468C46C2
:100AC0001946634600E000BF01B5FFF7B7FF0028F5
:100AD00048BF10F1000F01BD4DF808EDFFF7F4FF1E
:100AE0000CBF012000205DF808FB00BF4DF808EDA9
:100AF000FFF7EAFF34BF012000205DF808FB00BFCC
:100B00004DF808EDFFF7E0FF94BF012000205DF8ED
:100B100008FB00BF4DF808EDFFF7CEFF94BF0120A2
:100B200000205DF808FB00BF4DF808EDFFF7C4FF9B
:100B300034BF012000205DF808FB00BF4FEA410CE4
:100B40007FEA6C5C02D150EA013C0AD14FEA430CC7
:100B50007FEA6C5C02D152EA033C02D14FF0000004
:100B600070474FF0010070474FEA410212F5001242
:100B700015D211D56FF47873B3EB625212D94FEAE4
:100B8000C12343F0004343EA505311F0004F23FACE
:100B900002F018BF404270474FF00000704750EA23
:100BA000013005D111F0004008BF6FF000407047E0
:100BB0004FF00000704700BF4A0011D212F500123A
:100BC00011D20DD56FF47873B3EB62520ED44FEAA5
:100BD000C12343F0004343EA505323FA02F0704725
:100BE0004FF00000704750EA013002D14FF0FF3063
:100BF00070474FF0000070474FEA4102B2F1E04306
:100C000024BFB3F5001CDCF1FE5C0DD901F0004CF3
:100C10004FEAC0024CEA5070B2F1004F40EB830043
:100C200008BF20F00100704711F0804F21D113F16F
:100C30003872BCBF01F00040704741F480114FEAA8
:100C40005252C2F11802C2F1200C10FA0CF320FA31
:100C500002F018BF40F001004FEAC1234FEAD3234E
:100C600003FA0CFC40EA0C0023FA02F34FEA4303B8
:100C7000CCE77FEA625307D150EA01331EBF4FF041
:100C8000FE4040F44000704701F0004040F0FE405C
:100C900040F40000704700BF53B94AB9002908BFAB
:100CA00000281CBF4FF0FF314FF0FF3000F0BEB9FD
:100CB000ADF1080C6DE904CE00F03CF8DDF804E07D
:100CC000DDE9022304B0704738B500220023044652
:100CD0000D46FFF70BFF28B920462946BDE83840EE
:100CE00000F00AB8204605F1004100F005F8404246
:100CF00061EB410138BD00BFD0B50C4B0022064668
:100D00000F46FFF781FCFFF757FF0446FFF702FC91
:100D1000074B0022FFF778FC02460B463046394667
:100D2000FFF7BAFAFFF748FF2146D0BD0000F03DBB
:100D30000000F0412DE9F047089D8E4604468846A4
:100D4000002B4AD18A42174662D9B2FA82F64EB1D6
:100D5000C6F1200301FA06F820FA03F3B74043EA8C
:100D60000808B4404FEA174E1FFA87FCB8FBFEF1A3
:100D7000230C0EFB118843EA084301FB0CF29A4254
:100D800009D9FB1801F1FF3080F0EA809A4240F265
:100D9000E78002393B449A1AA3B2B2FBFEF00EFB85
:100DA000102243EA024300FB0CFC9C4509D9FB18C6
:100DB00000F1FF3280F0D6809C4540F2D3803B4466
:100DC000023840EA0140A3EB0C0300211DB1F340BF
:100DD0000022C5E90032BDE8F0878B4205D90DB18C
:100DE000C5E9000100210846F5E7B3FA83F10029BF
:100DF00046D1734502D3824200F20581841A6EEB1C
:100E0000030201209046002DE5D0C5E90048E2E745
:100E1000002A00F09080B2FA82F6002E40F0A48002
:100E20008A1A030C4FEA174E80B2BCB20121B2FB02
:100E3000FEFC0EFB1C2243EA024304FB0CF29A4226
:100E400007D9FB180CF1FF3802D29A4200F2E08079
:100E5000C4469B1AB3FBFEF20EFB123340EA034377
:100E600002FB04F49C4207D9FB1802F1FF3002D2C6
:100E70009C4200F2CA8002461B1B42EA0C40A5E7D6
:100E8000C1F120068B4022FA06F71F430EFA01F447
:100E900020FA06F32EFA06FE4FEA1749234300FA1A
:100EA00001F81FFA87FCBEFBF9F01C0C09FB10EEE1
:100EB00044EA0E4400FB0CFEA64502FA01F209D9F1
:100EC0003C1900F1FF3A80F09C80A64540F29980E1
:100ED00002383C44A4EB0E041FFA83FEB4FBF9F382
:100EE00009FB13444EEA044403FB0CFCA44508D957
:100EF0003C1903F1FF3E80F08280A4457FD9023B7C
:100F00003C4443EA0040A4EB0C04A0FB02EC644523
:100F10007346E14662D35FD05DB1B8EB030264EB88
:100F2000090404FA06F622FA01F31E43CC40C5E98F
:100F3000006400214FE7B1FBF2FC010C41EA0E41D5
:100F400080B240EA01423B4638463C46B846BE467F
:100F50002026B1FBF7F1A2EB080241EA0C4166E75B
:100F6000014618E710462CE7C6F120022EFA02F3DC
:100F7000B740B14020FA02F24FEA174E0A43B3FBE2
:100F8000FEF8BCB20EFB1833110C41EA034108FB1A
:100F900004F9B04089454FEA104380B23ED9791830
:100FA00008F1FF3C01D289451FD8A1EB0901B1FB33
:100FB000FEF909FB04F80EFB191192B242EA014254
:100FC000424529D2BA1809F1FF31C4D24245C2D2F2
:100FD000A9F102013A44BEE7F0459DD2BEEB0203FF
:100FE0006CEB070C0138E14696E7A7EB0909494489
:100FF000A8F1020CB1FBFEF909FB04F8DBE773462C
:101000007FE7504666E70846FDE63B44023A33E791
:10101000ACF1020C3B441CE749469CE7A1EB0901FB
:10102000C446B1FBFEF909FB04F8C4E7704700BFF2
:1010300080B582B000AF78600B46FB70FB78184635
:101040000DF042FF03461A467B689A60FB7818460B
:101050000DF03AFF03461A467B68DA60034A7B6864
:10106000136000BF0837BD4680BD00BFFC020020F2
:1010700090B48CB000AF03463960FB711346BB716E
:10108000002387F82F30002387F82E30002387F8BD
:101090002D3097F82F305A1C87F82F2030333B44DF
:1010A000552203F8242C97F82F305A1C87F82F204C
:1010B00030333B444E2203F8242C97F82F305A1C2F
:1010C00087F82F2030333B44452203F8242C97F82F
:1010D0002F305A1C87F82F2030333B44522203F81C
:1010E000242C97F82F305A1C87F82F201946BB79EB
:1010F0000133DAB201F130033B4403F8242C97F8B2
:101100002F305A1C87F82F2030333B443A2203F803
:10111000242C97F82F305A1C87F82F2030333B446B
:10112000FA7903F8242C002387F82D3012E097F881
:101130002D303A681A4497F82F30591C87F82F1031
:10114000127830333B4403F8242C97F82D300133C8
:1011500087F82D3097F82D20BB79013B9A42E6DBCA
:10116000002387F82E30002387F82D3022E097F8EF
:101170002D3030333B4413F8242C97F82E30534055
:1011800087F82E3097F82D10194B1B68D868184B2C
:101190001B685A79541CE4B25C711346034401F194
:1011A00030023A4412F8242C1A7097F82D3001338B
:1011B00087F82D3097F82D2097F82F309A42D6D304
:1011C0000B4B1B68D9680A4B1B685A79501CC0B27C
:1011D000587113460B4497F82E201A70044B1B6865
:1011E00097F82F201A7400BF3037BD4690BC704767
:1011F000FC02002080B584B000AF78607B68DB78AB
:10120000FB73E2E0764B1B78062B00F2D78001A23D
:1012100052F823F031120008591200088D1200080C
:10122000C1120008F51200081D1300085F13000822
:101230007B689A687B681B79591CC8B27968087109
:1012400013441B78552B40F0BD80654B01221A706A
:101250007B6800229A70B5E07B689A687B681B798E
:10126000591CC8B27968087113441B784E2B03D1FE
:101270005B4B02221A70A8E07B681B79013BDAB253
:101280007B681A71564B00221A709EE07B689A6840
:101290007B681B79591CC8B27968087113441B78A4
:1012A000452B03D14E4B03221A708EE07B681B79CD
:1012B000013BDAB27B681A71494B00221A7084E054
:1012C0007B689A687B681B79591CC8B27968087179
:1012D00013441B78522B03D1414B04221A7074E043
:1012E0007B681B79013BDAB27B681A713C4B0022A8
:1012F0001A706AE07B681A797B685A707B689A6812
:101300007B681B79591CC8B27968087113441A7834
:10131000344B1A70324B05221A7056E07B689A687B
:101320007B681B79591CC8B27968087113441B7813
:101330003A2B0AD12A4B06221A702A4B1B7883F0CB
:101340003603DAB27B689A703FE07B681B79013B19
:10135000DAB27B681A71224B00221A7035E0214BF9
:101360001B78012B0FD97B689A687B681B79591C05
:10137000C8B27968087113441A787B689B78534027
:10138000DAB27B689A70174B1B78013BDAB2154BC7
:101390001A70144B1B78002B16D1114B00221A70B7
:1013A0007B689A787B689B68796809790B441B781D
:1013B0009A4209D1786800F017F805E0084B00223E
:1013C0001A7002E000BF00E000BF7B681B79FA7B67
:1013D0009A427FF417AF00BF00BF1037BD4680BDF3
:1013E000F80200200003002080B588B000AF7860CC
:1013F0000023BB770023FB777B689A687B685B7868
:10140000023313441B78F03B032B4AD801A252F855
:1014100023F000BF251400083B14000851140008F5
:1014200063140008BB7F5A1CBA7720333B44F02278
:1014300003F8182C0223FB773EE0BB7F5A1CBA77D7
:1014400020333B44F12203F8182C0223FB7733E0CE
:10145000BB7F5A1CBA7720333B44F22203F8182C86
:101460002AE0BB7F5A1CBA7720333B44F32203F8AF
:10147000182C7B689A687B685B78033313441A786E
:10148000144B1A707B689A687B685B78043313444A
:101490001A78104B5A700F4BB3F900200E4B1A807C
:1014A0000AE0BB7F5A1CBA7720333B44FF2203F883
:1014B000182C0223FB7700BF7B685B780233DBB21A
:1014C000FA7F07F108011846FFF7D2FD00BF203769
:1014D000BD4680BDF40200200000002080B485B02D
:1014E00000AF78600B467B800023FB8116E0FB8910
:1014F0007A681A440F4B1B689B680E490968C978C3
:10150000C9B20B4412781A700A4B1B68DA78D2B24F
:101510000132D2B2DA70FB890133FB81FA897B8810
:101520009A42E4D300BF00BF1437BD465DF8047B88
:10153000704700BFFC02002080B483B000AF786029
:101540000B467B807B6802229A707B6800221A809F
:101550007B687A889A8000BF0C37BD465DF8047BB3
:101560007047000080B588B000AF78600023FB773B
:101570000023FB7712E0FB7F0C4A32F813200C4B60
:101580001A80FA7FFB7F094931F8133007F10C000C
:1015900008490EF075FCFB7F0133FB77FB7F072BBF
:1015A000E9D900BF00BF2037BD4680BD94050020AB
:1015B00084060020B035010880B582B000AF7860A5
:1015C0007B681B68104A934204D1104A137843F099
:1015D000400313707B681B680D4A934206D10D4887
:1015E00000F0DEFD0B4B012283F834207B681B6882
:1015F000054A934204D108220749084802F076F8C8
:1016000000BF0837BD4680BD00480140A40500204A
:1016100000440140B8050020940500200403002088
:1016200080B582B000AF78607B685B6C782B01D1AD
:1016300001F0AEFA00BF0837BD4680BD80B582B06C
:1016400000AF78607B685B6CD02B5BD12F4B93F83D
:1016500026301BB21B021AB22C4B93F827301BB258
:1016600013431AB2294B1A87284B93F828301BB220
:101670001B021AB2254B93F829301BB213431AB23E
:10168000224B5A87214B93F82A301BB21B021AB205
:101690001E4B93F82B301BB213431AB21B4B9A8785
:1016A0001A4B93F82E301BB21B021AB2174B93F849
:1016B0002F301BB213431AB2144BDA87134B93F833
:1016C00030301BB21B021AB2104B93F831301BB2F0
:1016D00013431AB20D4BA3F840200C4B93F8323051
:1016E0001BB21B021AB2094B93F833301BB21343DF
:1016F0001AB2064BA3F84220044B012283F8C920FA
:1017000001F046FA00BF0837BD4680BDB80500208D
:1017100080B582B002AF344B1B7823F07F03DBB27D
:10172000002B5DD0012301934023009380232F4A97
:101730000021002000F042FF2D4BB3F90630002BB2
:1017400001DB2B2200E02D22294BB3F90630002BC0
:10175000B8BF5B429BB2274927480EF091FB14218A
:101760005A2001F021F900222449234801F0B0F960
:101770001F4BB3F90830002B01DB2B2200E02D2298
:101780001B4BB3F90830002BB8BF5B429BB21C491E
:1017900019480EF075FB23215A2001F005F90022AB
:1017A0001649154801F094F9114BB3F90A30002B92
:1017B00001D02B2200E02D220D4BB3F90A30002B73
:1017C000B8BF5B429BB20F490B480EF059FB322168
:1017D0005A2001F0E9F800220849074801F078F999
:1017E00000BFBD4680BD00BFA40500208C4101089C
:1017F000B8050020C035010888060020040000203C
:10180000C8350108D035010880B500AF1C4B1A78E7
:101810001C4BA3FB0213D9080B469B000B445B0037
:10182000D31ADBB2002B0DD14FF40051164803F050
:1018300084F90D221549F420FFF71AFCFFF768FF21
:1018400001F0B2F90E4B1B78FF2B10D1104B1B7817
:1018500023F07F03DBB2002B01D101F05EF90C4ACB
:10186000137843F080031370054B00221A70044B69
:101870001B780133DAB2024B1A7000BF80BD00BF83
:101880009C060020CDCCCCCC000802407406002081
:10189000A405002080B582B002AF01F03DFD00F04C
:1018A00091F800F0A3FA00F079FA0CF08FFD00F047
:1018B00071F900F04FFA00F0EDF800F03DF900F09A
:1018C00025FA00F0E9F9304808F0E0FA2F4808F06E
:1018D000DDFA2F4808F0DAFA04212B4808F092FBD1
:1018E0000021294808F08EFB2A492B4801F03AF9DB
:1018F0002A492B4800F04CFE2A49274800F032FEC6
:1019000000F0C4FE284800F0DFFB28480CF0B2FECF
:10191000274B00221A7000212648FFF789FB1A4B3B
:101920001B68DB6A9BB219462348FFF705FE164B7E
:101930001B68DB6A9BB219462048FFF7FDFD0123B7
:1019400001934023009380231D4A0021002000F0D2
:1019500035FE154800F042FC154B1B7803F04003A0
:10196000DBB2002B06D0FFF74FFF114A137823F0AC
:10197000400313700C4800F0D1FC0E4800F0C2FA8E
:1019800000F036FFE8E700BF6004002038050020C3
:10199000F0040020D11F0008991F0008052000084E
:1019A0007D20000845200008B8050020DD1400084F
:1019B000A405002080050020A8050020B005002017
:1019C0008C3D010880B594B000AF07F120033022B0
:1019D000002118460EF0B9FA07F10C0300221A6034
:1019E0005A609A60DA601A610023BB60274B1B6C57
:1019F000264A43F080531364244B1B6C03F080533E
:101A0000BB60BB6800237B60214B1B68204A43F40A
:101A1000404313601E4B1B6803F440437B607B68AC
:101A200001233B624FF480337B620223BB634FF49C
:101A30008003FB6319233B64C0237B640223BB64E4
:101A40000423FB6407F12003184607F08BFD0346CF
:101A5000002B01D000F032FB0F23FB6002233B611F
:101A600000237B614FF48053BB610023FB6107F1CE
:101A70000C030321184607F0EDFF0346002B01D0AD
:101A800000F01CFB00BF5037BD4680BD003802404F
:101A90000070004080B584B000AF3B4600221A6061
:101AA0005A609A60DA60214B214A1A601F4B4FF44A
:101AB00080325A601D4B00229A601C4B00221A6132
:101AC0001A4B00221A76194B002283F82020174B5C
:101AD0000022DA62154B174A9A62144B0022DA6030
:101AE000124B0122DA61114B002283F830200F4B98
:101AF00001225A610D4801F0A5FC0346002B01D0DC
:101B000000F0DCFA01233B6001237B600023BB6013
:101B10003B461946054801F0FBFE0346002B01D069
:101B200000F0CCFA00BF1037BD4680BD0403002092
:101B3000002001400100000F80B500AF124B134A96
:101B40001A60114B124A5A600F4B00229A600E4BDA
:101B50000022DA600C4B4FF480421A610A4B0022DB
:101B60005A61094B00229A61074B0022DA61064B49
:101B700000221A62044802F0FBFF0346002B01D04A
:101B800000F09CFA00BF80BD4C03002000540040D0
:101B9000801A060080B58EB000AF07F1280300223E
:101BA0001A605A609A60DA6007F1200300221A6016
:101BB0005A603B1D00221A605A609A60DA601A610E
:101BC0005A619A61324B334A1A60314B0F225A6084
:101BD0002F4B00229A602E4B4EF65F22DA602C4B80
:101BE00000221A612A4B00229A61294808F0FEF867
:101BF0000346002B01D000F061FA4FF48053BB6222
:101C000007F128031946224808F05EFC0346002B22
:101C100001D000F053FA1E4808F09AF90346002B51
:101C200001D000F04BFA00233B6200237B6207F1F6
:101C300020031946164809F009F80346002B01D085
:101C400000F03CFA60237B600023BB600023FB6054
:101C500000237B613B1D002219460D4808F072FBF2
:101C60000346002B01D000F029FA3B1D042219463F
:101C7000074808F067FB0346002B01D000F01EFA6E
:101C8000034801F071F900BF3837BD4680BD00BF81
:101C9000600400200004004080B584B000AF3B46E3
:101CA00000221A605A609A60DA60164B164A1A606F
:101CB000144B00225A60134B00229A60114B45F6D8
:101CC000BF52DA600F4B00221A610E4B00229A615C
:101CD0000C4808F08BF80346002B01D000F0EEF919
:101CE0004FF480533B603B461946064808F0ECFB36
:101CF0000346002B01D000F0E1F900BF1037BD46CC
:101D000080BD00BFA80400200040014080B500AFA6
:101D10000E4B0F4A1A600D4B2F225A600B4B0022BC
:101D20009A600A4B42F20F72DA60084B00221A6185
:101D3000064B00229A61054808F058F80346002B2C
:101D400001D000F0BBF900BF80BD00BFF00400204F
:101D50000044014080B500AF0E4B0F4A1A600D4B96
:101D60005F225A600B4B00229A600A4B42F20F72BC
:101D7000DA60084B00221A61064B00229A6105487E
:101D800008F034F80346002B01D000F097F900BFAB
:101D900080BD00BF380500200048014080B582B0FA
:101DA00000AF00237B60104B1B6B0F4A43F4001302
:101DB00013630D4B1B6B03F400137B607B680022E5
:101DC00000210B2002F039F90B2002F052F9002219
:101DD00000210C2002F031F90C2002F04AF900BF7A
:101DE0000837BD4680BD00BF0038024080B58AB0CC
:101DF00000AF07F1140300221A605A609A60DA609B
:101E00001A6100233B613B4B1B6B3A4A43F00403CE
:101E10001363384B1B6B03F004033B613B690023E6
:101E2000FB60344B1B6B334A43F080031363314B2D
:101E30001B6B03F08003FB60FB680023BB602D4B32
:101E40001B6B2C4A43F0010313632A4B1B6B03F0FB
:101E50000103BB60BB6800237B60264B1B6B254ADC
:101E600043F002031363234B1B6B03F002037B60FD
:101E70007B6800224FF400511F4802F045FE00220B
:101E80004FF406411D4802F03FFE002208211C4885
:101E900002F03AFE4FF400537B610123BB61002343
:101EA000FB6100233B6207F114031946124802F05C
:101EB000A7FC4FF406437B610123BB610023FB6158
:101EC00000233B6207F1140319460C4802F098FC0A
:101ED00008237B610123BB610023FB6100233B627C
:101EE00007F114031946064802F08AFC00BF2837A0
:101EF000BD4680BD0038024000080240000002409C
:101F00000004024080B582B000AF78607B681A7927
:101F10007B68DB78DBB29A4207D07868FFF76AF912
:101F20007B68DB78DAB27B681A717B689A797B68A8
:101F30005B799A422BD07B685A797B689B799A426D
:101F400008D97B685A797B689B79D31ADAB27B68A7
:101F50001A7406E07B689B79C3F10403DAB27B68EC
:101F60001A747B68DB687A6892791A447B681B7CF8
:101F7000194610460CF046FB0346002B07D17B6840
:101F80009A797B681B7C1344DAB27B689A7100BF34
:101F90000837BD4680BD000080B586B002AFBA608C
:101FA0001A460346FB810B46BB811346FB80BA8968
:101FB000F989FB880193BB6800930123034803F070
:101FC0005BFB012318461037BD4680BD4C03002043
:101FD00080B586B002AFB9607B600346FB811346D3
:101FE000BB81BA89F9897B6800931346BA680448B3
:101FF00002F018FF034618461037BD4680BD00BFEB
:102000004C03002080B586B004AF3B600346FB80E4
:102010000B467B7113463B717B799AB23B7998B240
:10202000F9887B6902933B8A01933B6800930346DE
:10203000034802F0F5FF034618460837BD4680BD49
:102040004C03002080B586B002AFBA601A46034642
:10205000FB810B46BB811346FB80BA89F989FB885B
:102060000193BB6800930123034803F063FC012341
:1020700018461037BD4680BD4C03002080B588B09F
:1020800004AF7B600346FB810B46BB8113467B811B
:102090007889BA89F9894FF47A7302933B8B01935B
:1020A0007B6800930346044803F0B4F80123184604
:1020B0001037BD4680BD00BF4C03002080B400AF88
:1020C00072B600BF00BFFDE790B587B002AF786081
:1020D0007B68012283F834202F4B1C6807F10F0323
:1020E0000122009201227521D020A047FB7B682BA2
:1020F0004CD10023BB73294B1C6807F10E034FF42E
:102100007A7201920122009201226B21D020A04715
:102110000723BB73214B1C6807F10E034FF47A723F
:1021200001920122009201221921D020A047002310
:10213000BB731A4B1C6807F10E034FF47A720192BD
:102140000122009201221C21D020A0470023BB7352
:10215000124B1C6807F10E034FF47A7201920122B0
:10216000009201221B21D020A0470323BB730B4BFD
:102170001C6807F10E034FF47A720192012200925B
:1021800001221A21D020A047002300E00123184695
:102190001437BD4690BD00BFA8060020AC06002045
:1021A00090B583B000AF78607B6893F83430002B33
:1021B0000DD0094B1C687B6803F126020E233B21DE
:1021C000D020A0477B68002283F8342000E000BFC5
:1021D0000C37BD4690BD00BFA006002090B58DB065
:1021E00002AF786007F10C0300221A605A609A600F
:1021F000DA601A615A610023FB8466E0464B1C6872
:102200007B6826330E22009201223B21D020A0477A
:10221000FB687A6892F8262012B2120211B27A682C
:1022200092F8272012B20A4312B21344FB603B69B2
:102230007A6892F8282012B2120211B27A6892F8E3
:10224000292012B20A4312B213443B617B697A68B7
:1022500092F82A2012B2120211B27A6892F82B2058
:1022600012B20A4312B213447B61BB697A6892F8D6
:102270002E2012B2120211B27A6892F82F2012B2F6
:102280000A4312B21344BB61FB697A6892F83020AA
:1022900012B2120211B27A6892F8312012B20A43D5
:1022A00012B21344FB613B6A7A6892F8322012B290
:1022B000120211B27A6892F8332012B20A4312B2B3
:1022C00013443B62FB8C0133FB84FB8CB3F5805FD2
:1022D00094D3FB681B131AB27B68DA833B691B1328
:1022E0001AB27B681A847B691B131AB27B685A8402
:1022F000BB691B131AB27B689A81FB691B131AB264
:102300007B68DA813B6A1B131AB27B681A8200BFB2
:102310002C37BD4690BD00BFA806002090B484B005
:1023200000AF78607B6893F8C930002B00F015810E
:102330007B68002283F8C9200023FB7357E0FB7BF6
:102340007A6810339B0013445A687B6893F8C8304E
:102350001C46F87B796823465B0023445B000344FA
:102360002C335B000B44B3F904301946FB7B521A43
:10237000796810339B000B445A60FB7B7A681033FA
:102380009B0013445A68F97B7B681C3133F9113088
:102390001946FB7B0A44796810339B000B445A6052
:1023A000FA7B7B6893F8C8301846F97B7B681C324F
:1023B00033F912407A6803465B0003445B000B4428
:1023C0002C335B00134422469A80FB7B7A681033DF
:1023D0009B0013445B68DA10FB7B11B27A685C33B4
:1023E0005B0013440A469A80FB7B0133FB73FB7B43
:1023F000052BA4D97B6893F8C8300133DAB27B6827
:1024000083F8C8207B6893F8C83003F00703DAB27A
:102410007B6883F8C8207B68B3F9BC309AB27B68CC
:10242000B3F91E309BB2D31A9BB21AB27B68A3F8E1
:10243000BC207B68B3F9BE309AB27B68B3F9203018
:102440009BB2D31A9BB21AB27B68A3F8BE207B68FA
:10245000B3F9C0309AB27B68B3F922309BB2D31A79
:102460009BB21AB27B68A3F8C0207B68B3F9C23074
:102470009AB27B68B3F90C309BB2D31A9BB21AB2F2
:102480007B68A3F8C2207B68B3F9C4309AB27B683A
:10249000B3F90E309BB2D31A9BB21AB27B68A3F881
:1024A000C4207B68B3F9C6309AB27B68B3F91030A8
:1024B0009BB2D31A9BB21AB27B68A3F8C6207B6882
:1024C000B3F9BC309AB27B68B3F91E309BB2D31A11
:1024D0009BB21AB27B681A837B68B3F9BE309AB29A
:1024E0007B68B3F920309BB2D31A9BB21AB27B68D7
:1024F0005A837B68B3F9C0309AB27B68B3F9223053
:102500009BB2D31A9BB21AB27B689A837B68B3F9E9
:10251000C2309AB27B68B3F90C309BB2D31A9BB22B
:102520001AB27B68DA807B68B3F9C4309AB27B68F0
:10253000B3F90E309BB2D31A9BB21AB27B681A81E0
:102540007B68B3F9C6309AB27B68B3F910309BB29E
:10255000D31A9BB21AB27B685A8100BF1037BD46AE
:1025600090BC704780B483B000AF78603960064A91
:102570007B681360054A3B68136000BF0C37BD469B
:102580005DF8047B704700BFA4060020A006002071
:1025900080B483B000AF78603960064A7B6813600E
:1025A000054A3B68136000BF0C37BD465DF8047BED
:1025B000704700BFA8060020AC06002080B586B09A
:1025C00000AFBA601A460346FB810B46BB81134637
:1025D000FB80B7F906300733002B00DA0733DB1036
:1025E0003B820023FB750023BB8244E000237B82F7
:1025F0002FE07B8A03F00703002B03D0FB7D5B00F9
:10260000FB7512E0B7F91430B7F9102003FB02F2A2
:10261000B7F91230002B00DA0733DB101BB213447A
:102620001A46BB6813441B78FB7597F91730002BCB
:1026300009DAFA897B8A13449BB2B989BA8CD2B27F
:10264000184600F051F9B7F912309BB201339BB232
:102650007B82B7F91220B7F906309A42C9DBB7F985
:1026600014309BB201339BB2BB82B7F90C309BB2E2
:1026700001339BB2BB81B7F91420B7F920309A42DD
:10268000B4DB00BF00BF1837BD4680BD80B500AFCA
:10269000AE220021782000F049FA20220021782083
:1026A00000F044FA10220021782000F03FFAB02216
:1026B0000021782000F03AFAC8220021782000F0AA
:1026C00035FA00220021782000F030FA1022002193
:1026D000782000F02BFA40220021782000F026FA22
:1026E00081220021782000F021FAFF2200217820A9
:1026F00000F01CFAA1220021782000F017FAA6228F
:102700000021782000F012FAA8220021782000F0A1
:102710000DFA3F220021782000F008FAA4220021BF
:10272000782000F003FAD3220021782000F0FEF98F
:1027300000220021782000F0F9F9D522002178202C
:1027400000F0F4F9F0220021782000F0EFF9D9220E
:102750000021782000F0EAF922220021782000F000
:10276000E5F9DA220021782000F0E0F912220021B8
:10277000782000F0DBF9DB220021782000F0D6F988
:1027800020220021782000F0D1F98D22002178202C
:1027900000F0CCF914220021782000F0C7F9AF2214
:1027A0000021782000F0C2F92E220021782000F0CC
:1027B000BDF90E4B00221A800C4B00225A800B4BA5
:1027C00001225A71094B00229A71084B0022DA71DA
:1027D000064B01221A74054B00225A74002000F0A7
:1027E0006BF800F005F800BF80BD00BFB80A0020FC
:1027F00098B500AF2C4B5B7C002B52D02A4B1B7C36
:10280000002B4ED0284BDB79002B1CD0012B37D16D
:10281000264B1C68244B9B79DB01254A1A448023F4
:1028200040217820A0470346012B2DD11E4B9B79D8
:102830000133DAB21C4B9A711B4B0022DA711A4B2E
:1028400000225A7420E0184B9B79503BDAB2164BA9
:102850001A72154B00225A72134B10229A72134BA4
:102860001C680323134A00217820A0470346012B4C
:102870000CD10D4B0122DA710B4B00225A7405E08A
:10288000094B08229A7102E000BF00E000BF064B2E
:102890009B79072B05D9044B00229A71024B002229
:1028A0001A7400BF98BD00BFB80A0020B00A00200B
:1028B000B0060020C00A002080B582B000AF0346F9
:1028C000FB71FB79002B01D1002300E0FF234FF4C3
:1028D0008062194603480DF038FB00BF0837BD463B
:1028E00080BD00BFB006002080B483B000AF0346B7
:1028F000FB800B46BB801346FB70FB887F2B48D8C0
:10290000BB883F2B45D8264B1B79002B06D0FB7884
:10291000002B0CBF01230023DBB2FB70FB78012BE3
:102920001AD1FA88BB88DB0898B20346DB0113444E
:102930001C4AD35C5AB2BB8803F00703012101FA99
:1029400003F35BB2134359B2FA880346DB01134425
:10295000C9B2144AD1541DE0FA88BB88DB0898B28A
:102960000346DB0113440F4AD35C5AB2BB8803F021
:102970000703012101FA03F35BB2DB435BB21340AF
:1029800059B2FA880346DB011344C9B2054AD1544F
:1029900000E000BF0C37BD465DF8047B704700BF08
:1029A000B80A0020B006002080B483B000AF034610
:1029B0000A46FB801346BB80054AFB881380044A05
:1029C000BB88538000BF0C37BD465DF8047B704761
:1029D000B80A002080B586B000AF03463960FB71AD
:1029E0001346BB71394B1B881A463B681B7813444E
:1029F0007F2B07DC354B5B881A463B685B781344BA
:102A00003F2B01DD00235DE000237B614BE03B6851
:102A10005A68FB79203B3968497801FB03F3194672
:102A20007B690B445B0013441B88FB6000233B6104
:102A300030E0FA683B6902FA03F303F40043002B29
:102A400010D0224B1A883B699BB2134498B21F4B9B
:102A50005A887B699BB213449BB2BA791946FFF737
:102A600043FF14E0194B1A883B699BB2134498B298
:102A7000164B5A887B699BB2134499B2BB79002BE1
:102A80000CBF01230023DBB21A46FFF72DFF3B6981
:102A900001333B613B681B781A463B699342C8D3BC
:102AA0007B6901337B613B685B781A467B699342A3
:102AB000ADD3064B1B883A68127813449AB2034B85
:102AC0001A80FB7918461837BD4680BDB80A002029
:102AD00080B584B000AFF860B9601346FB7112E0B6
:102AE000FB681B78FA79B9681846FFF773FF03464D
:102AF0001A46FB681B789A4202D0FB681B7808E0F4
:102B0000FB680133FB60FB681B78002BE8D1FB6896
:102B10001B7818461037BD4680BD80B500AF002039
:102B2000FFF7CAFEFFF764FE00BF80BD90B585B019
:102B300000AF0346FB710B46BB7113467B71BB793B
:102B40003B737B797B73064B1C68FB7998B207F16A
:102B50000C010A230222A04700BF1437BD4690BDD6
:102B6000B40A002080B483B000AF78603960064AB0
:102B70007B681360054A3B68136000BF0C37BD4695
:102B80005DF8047B704700BFB00A0020B40A002043
:102B900080B400AF034B01225A7400BFBD465DF8FC
:102BA000047B7047B80A002080B400AF034B0122B9
:102BB0001A7400BFBD465DF8047B7047B80A002058
:102BC00080B582B000AF00237B60134B5B6C124A70
:102BD00043F480435364104B5B6C03F480437B608D
:102BE0007B6800233B600C4B1B6C0B4A43F080530B
:102BF0001364094B1B6C03F080533B603B6800225D
:102C00000021512001F019FA512001F032FA00BFE1
:102C10000837BD4680BD00BF0038024080B58AB08D
:102C200000AF786007F1140300221A605A609A60BE
:102C3000DA601A617B681B68284A934249D10023F5
:102C40003B61274B5B6C264A43F480735364244BEF
:102C50005B6C03F480733B613B690023FB60204B9A
:102C60001B6B1F4A43F0010313631D4B1B6B03F0E7
:102C70000103FB60FB680023BB60194B1B6B184A08
:102C800043F002031363164B1B6B03F00203BB609C
:102C9000BB68FE237B610323BB610023FB6107F15B
:102CA000140319460F4801F0ABFD01237B61032398
:102CB000BB610023FB6107F1140319460A4801F0C8
:102CC0009FFD00220021122001F0B7F9122001F02F
:102CD000D0F900BF2837BD4680BD00BF00200140AD
:102CE00000380240000002400004024080B58AB073
:102CF00000AF786007F1140300221A605A609A60EE
:102D0000DA601A617B681B684F4A934240F09780F3
:102D100000233B614D4B1B6B4C4A43F00203136392
:102D20004A4B1B6B03F002033B613B69C0237B6191
:102D30001223BB610023FB6103233B6204237B62FC
:102D400007F114031946424801F05AFD0023FB60C5
:102D50003E4B1B6C3D4A43F4001313643B4B1B6C0E
:102D600003F40013FB60FB683A4B3B4A1A60394B93
:102D700000225A60374B40229A60364B0022DA60BC
:102D8000344B4FF480621A61324B00225A61314B4E
:102D900000229A612F4B0022DA612E4B00221A6228
:102DA0002C4B00225A622B4801F07EF90346002B7F
:102DB00001D0FFF783F97B68264A5A63254A7B686E
:102DC0009363264B264A1A60244B4FF000725A60D8
:102DD000224B00229A60214B0022DA601F4B4FF4F5
:102DE00080621A611D4B00225A611C4B00229A61BD
:102DF0001A4B0022DA61194B00221A62174B00228B
:102E00005A62164801F050F90346002B01D0FFF733
:102E100055F97B68114A9A63104A7B6893630022D4
:102E200000211F2001F009F91F2001F022F90022E2
:102E30000021202001F001F9202001F01AF900BF43
:102E40002837BD4680BD00BF005400400038024016
:102E500000040240A003002028600240000400207B
:102E60001060024080B586B000AF78607B681B6858
:102E7000384A934216D100237B61374B1B6C364A8C
:102E800043F002031364344B1B6C03F002037B61B9
:102E90007B69002200211D2001F0CFF81D2001F0E8
:102EA000E8F852E07B681B682C4A934216D1002355
:102EB0003B61294B5B6C284A43F480335364264BB7
:102EC0005B6C03F480333B613B69002200211820D6
:102ED00001F0B3F8182001F0CCF836E07B681B68ED
:102EE0001F4A934216D10023FB601B4B5B6C1A4AAE
:102EF00043F400335364184B5B6C03F40033FB6002
:102F0000FB6800220021192001F097F8192001F038
:102F1000B0F81AE07B681B68124A934215D100236F
:102F2000BB600D4B5B6C0C4A43F4802353640A4B2B
:102F30005B6C03F48023BB60BB68002200211A2075
:102F400001F07BF81A2001F094F800BF1837BD4655
:102F500080BD00BF00040040003802400040014036
:102F6000004401400048014080B588B000AF78605F
:102F700007F10C0300221A605A609A60DA601A6145
:102F80007B681B68124A93421DD10023BB60114B22
:102F90001B6B104A43F0020313630E4B1B6B03F0D1
:102FA0000203BB60BB683023FB6002233B6100234C
:102FB0007B610023BB610223FB6107F10C0319460F
:102FC000054801F01DFC00BF2037BD4680BD00BF95
:102FD00000040040003802400004024080B400AF0A
:102FE00000BFFDE780B400AF00BFFDE780B400AFD5
:102FF00000BFFDE780B400AF00BFFDE780B400AFC5
:1030000000BFFDE780B400AF00BFBD465DF8047BA4
:10301000704780B400AF00BFBD465DF8047B7047C9
:1030200080B400AF00BFBD465DF8047B704780B53B
:1030300000AF00F0C3F900BF80BD000080B500AF55
:10304000024801F059F900BF80BD00BF0004002014
:1030500080B500AF024801F04FF900BF80BD00BF4E
:10306000A003002080B500AF024800F02EFA00BF98
:1030700080BD00BF0403002080B500AF024807F008
:1030800071F800BF80BD00BFA804002080B500AF6C
:10309000024807F067F800BF80BD00BFF0040020C1
:1030A00080B500AF024807F05DF800BF80BD00BFEB
:1030B0003805002080B500AF024807F053F800BF84
:1030C00080BD00BF6004002080B500AF024802F060
:1030D000C1FD00BF80BD00BF4C03002080B500AF24
:1030E000024802F028FF00BF80BD00BF4C03002053
:1030F00080B500AF024805F026F900BF80BD00BFD3
:10310000B813002080B400AF00BFBD465DF8047B5B
:10311000704780B400AF01231846BD465DF8047BBC
:10312000704780B582B000AF786039600CF070FFF6
:10313000034616221A604FF0FF3318460837BD4683
:1031400080BD80B582B000AF78604FF0FF31786805
:10315000FFF7E7FF00BFFDE780B586B000AFF8607E
:10316000B9607A6000237B610AE0AFF3008001461A
:10317000BB685A1CBA60CAB21A707B6901337B61A2
:103180007A697B689A42F0DB7B6818461837BD463F
:1031900080BD80B586B000AFF860B9607A6000236A
:1031A0007B6109E0BB685A1CBA601B781846AFF314
:1031B00000807B6901337B617A697B689A42F1DB2D
:1031C0007B6818461837BD4680BD80B483B000AF19
:1031D00078604FF0FF3318460C37BD465DF8047B2E
:1031E000704780B483B000AF786039603B684FF4BB
:1031F00000525A60002318460C37BD465DF8047B28
:10320000704780B483B000AF7860012318460C3754
:10321000BD465DF8047B704780B485B000AFF860B0
:10322000B9607A60002318461437BD465DF8047B08
:103230007047000080B586B000AF7860144A154B27
:10324000D31A7B617B693B61134B1B68002B02D156
:10325000114B124A1A60104B1A687B6813443A6982
:103260009A4207D20CF0D4FE03460C221A604FF0AB
:10327000FF3309E0084B1B68FB60074B1A687B684B
:103280001344054A1360FB6818461837BD4680BDD5
:103290000000022000040000CC0A0020081C0020CE
:1032A00080B400AF064BD3F88830054A43F470036E
:1032B000C2F8883000BFBD465DF8047B704700BF90
:1032C00000ED00E0DFF834D0FFF7EAFF0C480D49CD
:1032D0000D4A002302E0D458C4500433C4188C4271
:1032E000F9D30A4A0A4C002301E013600432A242D7
:1032F000FBD30CF093FEFEF7CDFA704700000220DE
:1033000000000020D8020020E4490108D802002073
:10331000081C0020FEE7000080B500AF0E4B1B68C4
:103320000D4A43F4007313600B4B1B680A4A43F4C5
:1033300080631360084B1B68074A43F48073136073
:10334000032000F06FFE0F2000F008F8FFF738FCB4
:103350000023184680BD00BF003C024080B582B00B
:1033600000AF7860124B1A68124B1B7819464FF465
:103370007A73B3FBF1F3B2FBF3F3184600F087FE68
:103380000346002B01D001230EE07B680F2B0AD8E7
:10339000002279684FF0FF3000F04FFE064A7B684C
:1033A0001360002300E0012318460837BD4680BDA6
:1033B0000C000020140000201000002080B400AF9A
:1033C000064B1B781A46064B1B681344044A1360CD
:1033D00000BFBD465DF8047B704700BF14000020AD
:1033E000D00A002080B400AF034B1B681846BD46CE
:1033F0005DF8047B704700BFD00A002080B584B020
:1034000000AF7860FFF7EEFFB8607B68FB60FB6899
:10341000B3F1FF3F05D00A4B1B781A46FB681344F3
:10342000FB6000BFFFF7DEFF0246BB68D31AFA68F5
:103430009A42F7D800BF00BF1037BD4680BD00BF1D
:103440001400002080B584B000AF78600023FB73C7
:103450007B68002B01D1012333E07B681B6C002BC0
:1034600009D17868FFF7DAFB7B6800225A647B6831
:10347000002283F83C207B681B6C03F01003002BB8
:1034800018D17B681B6C23F4885323F0020343F0AC
:1034900002027B681A64786800F06CFB7B6800228B
:1034A0005A647B681B6C23F0030343F001027B68C2
:1034B0001A6401E00123FB737B68002283F83C203F
:1034C000FB7B18461037BD4680BD80B586B000AF87
:1034D000786000237B6100233B617B681B681B686D
:1034E000FB607B681B685B68BB60FB6803F00203E2
:1034F0007B61BB6803F020033B617B69002B49D0F3
:103500003B69002B46D07B681B6C03F01003002B3B
:1035100005D17B681B6C43F400727B681A647B687E
:103520001B689B6803F04053002B2BD17B681B7EEC
:10353000002B27D17B681B68DB6A03F47003002B28
:1035400006D07B681B689B6803F48063002B19D14D
:103550007B681B685A687B681B6822F020025A60EF
:103560007B681B6C23F480727B681A647B681B6C1D
:1035700003F48053002B05D17B681B6C43F00102E0
:103580007B681A647868FDF7EDFF7B681B686FF055
:1035900012021A60FB6803F004037B61BB6803F04E
:1035A00080033B617B69002B57D03B69002B54D0D3
:1035B0007B681B6C03F01003002B05D17B681B6C30
:1035C00043F400527B681A647B681B689B6803F4B1
:1035D0004013002B39D17B681B689B6B03F44013AD
:1035E000002B06D07B681B689B6803F48063002B6C
:1035F0002BD17B681B685B6803F48063002B24D1AC
:103600007B681B689B6803F04053002B1DD17B68CF
:103610001B7E002B19D17B681B685A687B681B686E
:1036200022F080025A607B681B6C23F480527B6816
:103630001A647B681B6C03F48073002B05D17B68D4
:103640001B6C43F001027B681A64786800F010FC80
:103650007B681B686FF00C021A60FB6803F00103C3
:103660007B61BB6803F040033B617B69002B17D093
:103670003B69002B14D07B681B681B6803F00103B7
:10368000012B0DD17B681B6C43F480327B681A647C
:10369000786800F029F97B681B686FF001021A60F6
:1036A000FB6803F020037B61BB6803F080633B6130
:1036B0007B69002B15D03B69002B12D07B685B6CBB
:1036C00043F002027B685A647B681B686FF020023B
:1036D0001A60786800F012F97B681B686FF02002AE
:1036E0001A6000BF1837BD4680BD000080B588B0A5
:1036F00000AFF860B9607A6000237B610023FB773C
:10370000FB6893F83C30012B01D10223D0E0FB6829
:10371000012283F83C20FB681B689B6803F00103CF
:10372000012B18D0FB681B689A68FB681B6842F085
:1037300001029A60604B1B68604AA2FB03239A0C4B
:1037400013465B0013447B6102E07B69013B7B61B4
:103750007B69002BF9D1FB681B689B6803F48073BD
:10376000B3F5807F07D1FB681B689A68FB681B680C
:1037700022F480729A60FB681B689B6803F0010367
:10378000012B40F08880FB681B6C23F4E06323F07E
:10379000010343F48072FB681A64FB681B685B6872
:1037A00003F48063002B07D0FB681B6C23F44053A9
:1037B00043F48052FB681A64FB681B6C03F480536B
:1037C000B3F5805F06D1FB685B6C23F00602FB68F3
:1037D0005A6402E0FB6800225A64FB68002283F806
:1037E0003C20374BBB61FB689B6B364ADA63FB6856
:1037F0009B6B354A1A64FB689B6B344ADA64FB683E
:103800001B686FF022021A60FB681B685A68FB682D
:103810001B6842F080625A60FB681B689A68FB680C
:103820001B6842F480729A60FB68986BFB681B68A7
:103830004C331946BA687B6800F0E4FC0346FB771A
:10384000BB695B6803F01F03002B0FD1FB681B688B
:103850009B6803F04053002B29D1FB681B689A68D2
:10386000FB681B6842F080429A6020E0FB681B689E
:10387000174A93421BD1FB681B689B6803F04053B7
:10388000002B14D1FB681B689A68FB681B6842F028
:1038900080429A600BE0FB681B6C43F01002FB68EF
:1038A0001A64FB685B6C43F00102FB685A64FB7F9F
:1038B00018462037BD4680BD0C00002083DE1B4328
:1038C000002301406D3D0008273E0008433E0008EC
:1038D0000020014080B483B000AF786000BF0C3797
:1038E000BD465DF8047B704780B483B000AF78605C
:1038F00000BF0C37BD465DF8047B704780B483B0D1
:1039000000AF786000BF0C37BD465DF8047B7047A0
:1039100080B485B000AF786039600023BB607B68FD
:1039200093F83C30012B01D1022313E17B68012283
:1039300083F83C203B681B68092B25D97B681B68F2
:10394000D9683B681B689BB21A4613465B00134458
:103950001E3B072202FA03F3DA437B681B680A4026
:10396000DA607B681B68D9683B689A683B681B68AB
:103970009BB2184603465B0003441E3B9A407B689B
:103980001B680A43DA6022E07B681B6819693B68A0
:103990001B689BB21A4613465B001344072202FAC7
:1039A00003F3DA437B681B680A401A617B681B6873
:1039B00019693B689A683B681B689BB218460346C6
:1039C0005B0003449A407B681B680A431A613B68AA
:1039D0005B68062B24D87B681B68596B3B685A6868
:1039E00013469B001344053B1F2202FA03F3DA43FC
:1039F0007B681B680A405A637B681B68596B3B688D
:103A00001B689BB218463B685A6813469B001344D8
:103A1000053B00FA03F27B681B680A435A634CE0DB
:103A20003B685B680C2B24D87B681B68196B3B6870
:103A30005A6813469B001344233B1F2202FA03F3E8
:103A4000DA437B681B680A401A637B681B68196B42
:103A50003B681B689BB218463B685A6813469B003C
:103A60001344233B00FA03F27B681B680A431A6382
:103A700023E07B681B68D96A3B685A6813469B0041
:103A80001344413B1F2202FA03F3DA437B681B68AD
:103A90000A40DA627B681B68D96A3B681B689BB284
:103AA00018463B685A6813469B001344413B00FA92
:103AB00003F27B681B680A43DA62294BFB607B6870
:103AC0001B68284A93420FD13B681B68122B0BD10D
:103AD000FB685B6823F40002FB685A60FB685B6864
:103AE00043F48002FB685A607B681B681D4A93425E
:103AF0002BD13B681B681C4A934203D03B681B6870
:103B0000112B22D1FB685B6823F48002FB685A60AA
:103B1000FB685B6843F40002FB685A603B681B6803
:103B2000114A934211D1114B1B68114AA2FB032386
:103B30009A0C13469B0013445B00BB6002E0BB6819
:103B4000013BBB60BB68002BF9D17B68002283F886
:103B50003C20002318461437BD465DF8047B7047AF
:103B60000023014000200140120000100C00002042
:103B700083DE1B4380B485B000AF7860794BFB6077
:103B8000FB685B6823F44032FB685A60FB685A6844
:103B90007B685B681A43FB685A607B681B685A68DD
:103BA0007B681B6822F480725A607B681B685968C6
:103BB0007B681B691A027B681B680A435A607B6832
:103BC0001B685A687B681B6822F040725A607B68E9
:103BD0001B6859687B689A687B681B680A435A604F
:103BE0007B681B689A687B681B6822F400629A6095
:103BF0007B681B6899687B68DA687B681B680A4386
:103C00009A607B689B6A584A934222D07B681B6803
:103C10009A687B681B6822F070629A607B681B68F8
:103C200099687B689A6A7B681B680A439A607B681C
:103C30001B689A687B681B6822F040529A607B6818
:103C40001B6899687B68DA6A7B681B680A439A601C
:103C50000FE07B681B689A687B681B6822F07062C3
:103C60009A607B681B689A687B681B6822F04052E8
:103C70009A607B681B689A687B681B6822F0020266
:103C80009A607B681B6899687B681B7E5A007B681A
:103C90001B680A439A607B6893F82030002B1BD086
:103CA0007B681B685A687B681B6842F400625A6034
:103CB0007B681B685A687B681B6822F460425A6004
:103CC0007B681B6859687B685B6A013B5A037B68A9
:103CD0001B680A435A6007E07B681B685A687B6868
:103CE0001B6822F400625A607B681B68DA6A7B6892
:103CF0001B6822F47002DA627B681B68D96A7B68F1
:103D0000DB69013B1A057B681B680A43DA627B6842
:103D10001B689A687B681B6822F400729A607B6853
:103D20001B6899687B6893F830305A027B681B687F
:103D30000A439A607B681B689A687B681B6822F458
:103D400080629A607B681B6899687B685B699A02ED
:103D50007B681B680A439A6000BF1437BD465DF854
:103D6000047B7047002301400100000F80B584B040
:103D700000AF78607B689B6BFB60FB681B6C03F09B
:103D80005003002B3CD1FB681B6C43F40072FB68B2
:103D90001A64FB681B689B6803F04053002B2BD10F
:103DA000FB681B7E002B27D1FB681B68DB6A03F4D2
:103DB0007003002B06D0FB681B689B6803F48063CC
:103DC000002B19D1FB681B685A68FB681B6822F03E
:103DD00020025A60FB681B6C23F48072FB681A6433
:103DE000FB681B6C03F48053002B05D1FB681B6C34
:103DF00043F00102FB681A64F868FDF7B3FB0EE0BC
:103E0000FB681B6C03F01003002B03D0F868FFF76E
:103E100075FD04E0FB689B6BDB6C7868984700BF1E
:103E20001037BD4680BD80B584B000AF78607B6838
:103E30009B6BFB60F868FFF74DFD00BF1037BD4678
:103E400080BD80B584B000AF78607B689B6BFB6001
:103E5000FB6840221A64FB685B6C43F00402FB6859
:103E60005A64F868FFF74AFD00BF1037BD4680BDB1
:103E700080B483B000AF786000BF0C37BD465DF8FA
:103E8000047B704780B485B000AF78607B6803F036
:103E90000703FB600C4BDB68BB60BA684FF6FF039F
:103EA0001340BB60FB681A02BB68134343F0BF6357
:103EB00043F40033BB60044ABB68D36000BF1437CF
:103EC000BD465DF8047B704700ED00E080B400AFB4
:103ED000044BDB681B0A03F007031846BD465DF878
:103EE000047B704700ED00E080B483B000AF034670
:103EF000FB7197F90730002B0BDBFB7903F01F02F6
:103F0000074997F907305B09012000FA02F241F8EE
:103F1000232000BF0C37BD465DF8047B704700BF0F
:103F200000E100E080B483B000AF03463960FB716C
:103F300097F90730002B0ADB3B68DAB20C4997F996
:103F400007301201D2B20B4483F800230AE03B6829
:103F5000DAB20849FB7903F00F03043B1201D2B235
:103F60000B441A7600BF0C37BD465DF8047B7047E2
:103F700000E100E000ED00E080B489B000AFF8603F
:103F8000B9607A60FB6803F00703FB61FB69C3F16A
:103F90000703042B28BF0423BB61FB690433062BF2
:103FA00002D9FB69033B00E000237B614FF0FF3245
:103FB000BB6902FA03F3DA43BB681A407B699A4093
:103FC0004FF0FF317B6901FA03F3D9437B680B4063
:103FD000134318462437BD465DF8047B7047000044
:103FE00080B582B000AF78607B68013BB3F1807F21
:103FF00001D301230FE00A4A7B68013B53600F2184
:104000004FF0FF30FFF78EFF054B00229A60044B04
:1040100007221A60002318460837BD4680BD00BF3E
:1040200010E000E080B582B000AF78607868FFF7FC
:1040300029FF00BF0837BD4680BD80B586B000AF00
:104040000346B9607A60FB7300237B61FFF73EFF94
:1040500078617A68B9687869FFF78EFF024697F948
:104060000F3011461846FFF75DFF00BF1837BD46F9
:1040700080BD80B582B000AF0346FB7197F9073071
:104080001846FFF731FF00BF0837BD4680BD80B539
:1040900082B000AF78607868FFF7A2FF0346184649
:1040A0000837BD4680BD000080B586B000AF78609F
:1040B00000237B61FFF796F938617B68002B01D103
:1040C000012399E07B68022283F835207B68002277
:1040D00083F834207B681B681A687B681B6822F0B1
:1040E00001021A600FE0FFF77DF902463B69D31A1F
:1040F000052B08D97B6820225A657B68032283F848
:104100003520032378E07B681B681B6803F00103FC
:10411000002BE8D17B681B681B687B617A69384B90
:1041200013407B617B685A687B689B681A437B6895
:10413000DB681A437B681B691A437B685B691A4317
:104140007B689B691A437B68DB691A437B681B6A3F
:1041500013437A6913437B617B685B6A042B07D145
:104160007B68DA6A7B681B6B13437A6913437B6154
:104170007B681B687A691A607B681B685B697B6176
:104180007B6923F007037B617B685B6A7A69134371
:104190007B617B685B6A042B17D17B689B6A7A69B9
:1041A00013437B617B68DB6A002B0ED0786800F0DC
:1041B000ABFA0346002B08D07B6840225A657B6827
:1041C000012283F83520012316E07B681B687A6999
:1041D0005A61786800F062FA0346FB607B68DB6D29
:1041E0003F229A40FB689A607B6800225A657B6890
:1041F000012283F83520002318461837BD4680BDBC
:104200003F8010F080B586B000AFF860B9607A608A
:104210003B600023FB75FB689B6D3B61FB6893F87B
:104220003430012B01D1022340E0FB68012283F8E6
:104230003420FB6893F83530DBB2012B2FD1FB68BB
:10424000022283F83520FB6800225A653B687A68B1
:10425000B968F86800F0F4F9FB68DB6D3F229A401A
:104260003B699A60FB681B681A68FB681B6842F030
:1042700016021A60FB681B6C002B07D0FB681B68DA
:104280001A68FB681B6842F008021A60FB681B682A
:104290001A68FB681B6842F001021A6005E0FB68BF
:1042A000002283F834200223FB75FB7D1846183763
:1042B000BD4680BD80B483B000AF78607B6893F862
:1042C0003530DBB2022B04D07B6880225A65012393
:1042D0000CE07B68052283F835207B681B681A6830
:1042E0007B681B6822F001021A60002318460C3715
:1042F000BD465DF8047B704780B586B000AF78603E
:104300000023BB608E4B1B688E4AA2FB03239B0AD3
:104310007B617B689B6D3B613B691B68FB607B68D5
:10432000DB6D08229A40FB681340002B1AD07B6893
:104330001B681B6803F00403002B13D07B681B6809
:104340001A687B681B6822F004021A607B68DB6DC8
:1043500008229A403B699A607B685B6D43F00102DA
:104360007B685A657B68DB6D01229A40FB681340CD
:10437000002B12D07B681B685B6903F08003002B65
:104380000BD07B68DB6D01229A403B699A607B68A9
:104390005B6D43F002027B685A657B68DB6D04222B
:1043A0009A40FB681340002B12D07B681B681B6887
:1043B00003F00203002B0BD07B68DB6D04229A40D4
:1043C0003B699A607B685B6D43F004027B685A65C9
:1043D0007B68DB6D10229A40FB681340002B43D0B2
:1043E0007B681B681B6803F00803002B3CD07B68CC
:1043F000DB6D10229A403B699A607B681B681B68E2
:1044000003F48023002B18D07B681B681B6803F41F
:104410000023002B08D17B681B6C002B24D07B6809
:104420001B6C786898471FE07B689B6C002B1BD047
:104430007B689B6C7868984716E07B681B681B68F4
:1044400003F48073002B07D17B681B681A687B68B4
:104450001B6822F008021A607B681B6C002B03D0DB
:104460007B681B6C786898477B68DB6D20229A40DC
:10447000FB681340002B00F08F807B681B681B6873
:1044800003F01003002B00F087807B68DB6D202297
:104490009A403B699A607B6893F83530DBB2052B14
:1044A00036D17B681B681A687B681B6822F016028D
:1044B0001A607B681B685A697B681B6822F080025F
:1044C0005A617B681B6C002B03D17B689B6C002BB3
:1044D00007D07B681B681A687B681B6822F008029B
:1044E0001A607B68DB6D3F229A403B699A607B686B
:1044F000012283F835207B68002283F834207B6812
:104500001B6D002B7ED07B681B6D7868984779E027
:104510007B681B681B6803F48023002B1DD07B681D
:104520001B681B6803F40023002B0DD17B685B6CB8
:10453000002B31D07B685B6C786898472CE000BF1B
:104540000C000020B5814E1B7B68DB6B002B23D059
:104550007B68DB6B786898471EE07B681B681B688C
:1045600003F48073002B0FD17B681B681A687B688B
:104570001B6822F010021A607B68012283F8352044
:104580007B68002283F834207B68DB6B002B03D030
:104590007B68DB6B786898477B685B6D002B32D05B
:1045A0007B685B6D03F00103002B22D07B68052242
:1045B00083F835207B681B681A687B681B6822F0CB
:1045C00001021A60BB680133BB607A699A4207D363
:1045D0007B681B681B6803F00103002BF2D100E02D
:1045E00000BF7B68012283F835207B68002283F8B6
:1045F00034207B68DB6C002B05D07B68DB6C786833
:10460000984700E000BF1837BD4680BD80B483B036
:1046100000AF78607B6893F83530DBB218460C3712
:10462000BD465DF8047B704780B483B000AF78600E
:104630007B685B6D18460C37BD465DF8047B7047A0
:1046400080B485B000AFF860B9607A603B60FB6809
:104650001B681A68FB681B6822F480221A60FB68DA
:104660001B683A685A60FB689B68402B08D1FB685E
:104670001B687A689A60FB681B68BA68DA6007E0B2
:10468000FB681B68BA689A60FB681B687A68DA6026
:1046900000BF1437BD465DF8047B704780B485B019
:1046A00000AF78607B681B68DBB2103B144AA2FB4A
:1046B00003231B09FB60134AFB6813441B781A464B
:1046C0007B68DA65FB68032B09D97B681B6823F4D8
:1046D0007F7323F003031A1D7B689A6507E07B68EC
:1046E0001B6823F47F7323F003037A6893657B6868
:1046F0009B6D18461437BD465DF8047B704700BFBC
:10470000ABAAAAAAA445010880B485B000AF78601E
:104710000023FB737B689B6ABB607B689B69002BF3
:104720001FD1BB68032B56D801A252F823F000BF5B
:10473000414700085347000841470008D747000891
:104740007B68DB6A03F08073002B46D00123FB7388
:1047500043E07B68DB6AB3F1C07F40D10123FB7388
:104760003DE07B689B69B3F5005F21D1BB68032BFB
:1047700037D801A252F823F0894700088F47000874
:1047800089470008A14700080123FB7330E07B68DC
:10479000DB6A03F08073002B25D00123FB7322E03A
:1047A0007B68DB6AB3F1C07F1FD10123FB731CE080
:1047B000BB68022B03D9BB68032B03D018E001238D
:1047C000FB7315E07B68DB6A03F08073002B0ED06F
:1047D0000123FB730BE000BF0AE000BF08E000BF4D
:1047E00006E000BF04E000BF02E000BF00E000BF41
:1047F000FB7B18461437BD465DF8047B704700BF4D
:1048000080B489B000AF7860396000237B610023F9
:104810003B610023BB610023FB6159E10122FB697D
:1048200002FA03F37B613B681B687A6913403B61C2
:104830003A697B699A4240F048813B685B6803F0C3
:104840000303012B05D03B685B6803F00303022BD5
:1048500030D17B689B68BB61FB695B00032202FA75
:1048600003F3DB43BA691340BB613B68DA68FB6959
:104870005B0002FA03F3BA691343BB617B68BA6950
:104880009A607B685B68BB610122FB6902FA03F3F3
:10489000DB43BA691340BB613B685B681B0903F0EB
:1048A0000102FB6902FA03F3BA691343BB617B6837
:1048B000BA695A603B685B6803F00303032B17D0A7
:1048C0007B68DB68BB61FB695B00032202FA03F3D0
:1048D000DB43BA691340BB613B689A68FB695B00C4
:1048E00002FA03F3BA691343BB617B68BA69DA6001
:1048F0003B685B6803F00303022B23D1FB69DA08F2
:104900007B68083253F82230BB61FB6903F0070370
:104910009B000F2202FA03F3DB43BA691340BB6129
:104920003B681A69FB6903F007039B0002FA03F373
:10493000BA691343BB61FB69DA087B680832B9695D
:1049400043F822107B681B68BB61FB695B00032294
:1049500002FA03F3DB43BA691340BB613B685B684F
:1049600003F00302FB695B0002FA03F3BA69134325
:10497000BB617B68BA691A603B685B6803F44033CB
:10498000002B00F0A2800023FB60574B5B6C564A63
:1049900043F480435364544B5B6C03F48043FB60EB
:1049A000FB68524AFB699B08023352F82330BB6113
:1049B000FB6903F003039B000F2202FA03F3DB43BE
:1049C000BA691340BB617B68494A934219D07B683E
:1049D000484A934213D07B68474A93420DD07B6884
:1049E000464A934207D07B68454A934201D104234B
:1049F00008E0072306E0032304E0022302E001238A
:104A000000E00023FA6902F0030292009340BA69C1
:104A10001343BB613549FB699B080233BA6941F80E
:104A20002320384B9B68BB613B69DB43BA69134069
:104A3000BB613B685B6803F48013002B03D0BA6949
:104A40003B691343BB612F4ABB6993602D4BDB6805
:104A5000BB613B69DB43BA691340BB613B685B6880
:104A600003F40013002B03D0BA693B691343BB6105
:104A7000244ABB69D360234B5B68BB613B69DB4362
:104A8000BA691340BB613B685B6803F40033002BD9
:104A900003D0BA693B691343BB611A4ABB695360CF
:104AA000184B1B68BB613B69DB43BA691340BB61B0
:104AB0003B685B6803F48033002B03D0BA693B6921
:104AC0001343BB610F4ABB691360FB690133FB6190
:104AD000FB690F2B7FF6A2AE00BF00BF2437BD4697
:104AE0005DF8047B704700BF003802400038014089
:104AF000000002400004024000080240000C024096
:104B000000100240003C014080B483B000AF7860E8
:104B10000B467B8013467B707B78002B03D07A8812
:104B20007B689A6103E07B881A047B689A6100BF06
:104B30000C37BD465DF8047B704780B485B000AF8C
:104B400078600B467B807B685B69FB607A88FB68DA
:104B500013401A04FB68D9437B880B401A437B68D7
:104B60009A6100BF1437BD465DF8047B70470000B2
:104B700080B584B000AF78607B68002B01D1012341
:104B80002BE17B6893F83D30DBB2002B06D17B68CC
:104B9000002283F83C207868FEF7A8F87B6824227E
:104BA00083F83D207B681B681A687B681B6822F0CD
:104BB00001021A607B681B681A687B681B6842F4F4
:104BC00000421A607B681B681A687B681B6822F4C5
:104BD00000421A6005F0F6F8F8607B685B68814A6D
:104BE000934207D8FB68804A934294BF0123002375
:104BF000DBB206E0FB687D4A934294BF01230023A9
:104C0000DBB2002B01D00123E7E0FB68784AA2FB6E
:104C100003239B0CBB607B681B685B6823F03F0130
:104C20007B681B68BA680A435A607B681B681B6A0A
:104C300023F03F017B685B686A4A934202D8BB68F5
:104C4000013309E0BB684FF4967202FB03F3694A33
:104C5000A2FB03239B0901337A6812680B4313629A
:104C60007B681B68DB6923F44F4222F0FF027B68FC
:104C70005B685C498B4219D8FB68591E7B685B688E
:104C80005B00B1FBF3F3591C40F6FC730B40002BA7
:104C90000AD0FB68591E7B685B685B00B1FBF3F3CD
:104CA0000133C3F30B0351E004234FE07B689B689F
:104CB000002B11D1FB68581E7B6859680B465B00BE
:104CC0000B44B0FBF3F30133C3F30B03002B0CBF16
:104CD00001230023DBB212E0FB68581E7B68596891
:104CE0000B469B000B4499000B44B0FBF3F30133DC
:104CF000C3F30B03002B0CBF01230023DBB2002BFB
:104D000001D0012322E07B689B68002B0ED1FB6859
:104D1000581E7B6859680B465B000B44B0FBF3F3ED
:104D20000133C3F30B0343F400430FE0FB68581E49
:104D30007B6859680B469B000B4499000B44B0FB01
:104D4000F3F30133C3F30B0343F440437968096879
:104D50001343CB617B681B681B6823F0C0017B6831
:104D6000DA697B681B6A1A437B681B680A431A600E
:104D70007B681B689B6823F4034323F0FF037A6876
:104D800011697A68D26811437A6812680B4393609C
:104D90007B681B68DB6823F0FF017B685A697B68CE
:104DA0009B691A437B681B680A43DA607B681B684F
:104DB0001A687B681B6842F001021A607B68002257
:104DC0001A647B68202283F83D207B6800221A63E6
:104DD0007B68002283F83E20002318461037BD462A
:104DE00080BD00BFA08601007F841E00FF083D003B
:104DF00083DE1B43D34D621080B483B000AF786074
:104E00007B681B685B6903F08003802B03D17B68A0
:104E10001B6800221A6100BF0C37BD465DF8047B99
:104E20007047000080B588B002AFF8607A601A461B
:104E30000B467B8113463B81FEF7D4FA7861FB6811
:104E400093F83D30DBB2202B40F0E0807B6900938B
:104E5000192301227049F86802F0AEFE0346002BC8
:104E600001D00223D3E0FB6893F83C30012B01D141
:104E70000223CCE0FB68012283F83C20FB681B681E
:104E80001B6803F00103012B07D0FB681B681A683D
:104E9000FB681B6842F001021A60FB681B681A6815
:104EA000FB681B6822F400621A60FB68212283F809
:104EB0003D20FB68102283F83E20FB6800221A6424
:104EC000FB687A685A62FB683A895A85FB685B8D91
:104ED0009AB2FB681A85FB68504ADA6279897B6965
:104EE0003A6AF86802F0A4FA0346002B01D00123C5
:104EF0008DE000233B61FB681B685B693B61FB68DD
:104F00001B689B693B613B6966E07A69396AF868AE
:104F100002F06CFF0346002B0DD0FB681B6C042BCA
:104F200007D1FB681B681A68FB681B6842F40072B3
:104F30001A6001236BE0FB685B6A1A78FB681B68E8
:104F40001A61FB685B6A5A1CFB685A62FB685B8DDE
:104F50009BB2013B9AB2FB685A85FB681B8D013BF3
:104F60009AB2FB681A85FB681B685B6903F004034F
:104F7000042B1BD1FB681B8D002B17D0FB685B6AD1
:104F80001A78FB681B681A61FB685B6A5A1CFB682D
:104F90005A62FB685B8D9BB2013B9AB2FB685A85F3
:104FA000FB681B8D013B9AB2FB681A857A69396AE6
:104FB000F86802F063FF0346002B0DD0FB681B6C02
:104FC000042B07D1FB681B681A68FB681B6842F456
:104FD00000721A6001231AE0FB681B8D002B94D12C
:104FE000FB681B681A68FB681B6842F400721A6051
:104FF000FB68202283F83D20FB68002283F83E20D6
:10500000FB68002283F83C20002300E002231846BE
:105010001837BD4680BD00BF020010000000FFFF32
:1050200080B588B002AFF860084611461A460346BC
:105030007B810B463B811346FB80FEF7D3F97861F9
:10504000FB6893F83D30DBB2202B40F0D9807B69C0
:105050000093192301226D49F86802F0ADFD034663
:10506000002B01D00223CCE0FB6893F83C30012BED
:1050700001D10223C5E0FB68012283F83C20FB68D4
:105080001B681B6803F00103012B07D0FB681B683A
:105090001A68FB681B6842F001021A60FB681B6813
:1050A0001A68FB681B6822F400621A60FB68212200
:1050B00083F83D20FB68402283F83E20FB680022F5
:1050C0001A64FB683A6A5A62FB68BA8C5A85FB68B4
:1050D0005B8D9AB2FB681A85FB684D4ADA62F888E4
:1050E0003A8979897B690193BB6A00930346F86822
:1050F00002F020FA0346002B52D0012381E07A69A6
:10510000B96AF86802F072FE0346002B0DD0FB6806
:105110001B6C042B07D1FB681B681A68FB681B68B3
:1051200042F400721A6001236BE0FB685B6A1A7834
:10513000FB681B681A61FB685B6A5A1CFB685A6251
:10514000FB681B8D013B9AB2FB681A85FB685B8D7F
:105150009BB2013B9AB2FB685A85FB681B685B698E
:1051600003F00403042B1BD1FB681B8D002B17D00D
:10517000FB685B6A1A78FB681B681A61FB685B6AEC
:105180005A1CFB685A62FB681B8D013B9AB2FB6894
:105190001A85FB685B8D9BB2013B9AB2FB685A850E
:1051A000FB681B8D002BAAD17A69B96AF86802F0F6
:1051B00065FE0346002B0DD0FB681B6C042B07D14A
:1051C000FB681B681A68FB681B6842F400721A606F
:1051D000012316E0FB681B681A68FB681B6842F431
:1051E00000721A60FB68202283F83D20FB680022D1
:1051F00083F83E20FB68002283F83C20002300E077
:10520000022318461837BD4680BD00BF02001000BB
:105210000000FFFF80B58CB002AFF8600846114671
:105220001A4603467B810B463B811346FB80FEF703
:10523000D9F87862FB6893F83D30DBB2202B40F060
:1052400014827B6A0093192301227B49F86802F0DB
:10525000B3FC0346002B01D0022307E2FB6893F85E
:105260003C30012B01D1022300E2FB68012283F8CC
:105270003C20FB681B681B6803F00103012B07D06F
:10528000FB681B681A68FB681B6842F001021A6021
:10529000FB681B681A68FB681B6822F400621A60CE
:1052A000FB68222283F83D20FB68402283F83E20E1
:1052B000FB6800221A64FB683A6B5A62FB68BA8E7C
:1052C0005A85FB685B8D9AB2FB681A85FB685B4A5E
:1052D000DA62F8883A8979897B6A0193BB6B00931B
:1052E0000346F86802F0BCF90346002B01D0012305
:1052F000BCE1FB681B8D002B13D100233B62FB68D4
:105300001B685B693B62FB681B689B693B623B6A8D
:10531000FB681B681A68FB681B6842F400721A601D
:1053200090E1FB681B8D012B1BD1FB681B681A6881
:10533000FB681B6822F480621A600023FB61FB6833
:105340001B685B69FB61FB681B689B69FB61FB6910
:10535000FB681B681A68FB681B6842F400721A60DD
:1053600070E1FB681B8D022B1BD1FB681B681A6860
:10537000FB681B6822F480621A60FB681B681A686D
:10538000FB681B6842F400621A600023BB61FB6883
:105390001B685B69BB61FB681B689B69BB61BB6980
:1053A00050E100237B61FB681B685B697B61FB68E4
:1053B0001B689B697B617B6944E1FB681B8D032B48
:1053C00000F2F180FB681B8D012B23D17A6AB96B47
:1053D000F86802F0CDFD0346002B01D0012345E122
:1053E000FB681B681A69FB685B6AD2B21A70FB68BB
:1053F0005B6A5A1CFB685A62FB681B8D013B9AB2C0
:10540000FB681A85FB685B8D9BB2013B9AB2FB6817
:105410005A8517E1FB681B8D022B4ED17B6A0093E6
:10542000BB6B00220649F86802F0C6FB0346002B5E
:1054300008D001231AE100BF020010000000FFFFA6
:1054400004000100FB681B681A68FB681B6842F4D3
:1054500000721A60FB681B681A69FB685B6AD2B24B
:105460001A70FB685B6A5A1CFB685A62FB681B8DEA
:10547000013B9AB2FB681A85FB685B8D9BB2013BCE
:105480009AB2FB685A85FB681B681A69FB685B6AFD
:10549000D2B21A70FB685B6A5A1CFB685A62FB68DE
:1054A0001B8D013B9AB2FB681A85FB685B8D9BB232
:1054B000013B9AB2FB685A85C4E07B6A0093BB6BE0
:1054C00000226C49F86802F077FB0346002B01D0FC
:1054D0000123CBE0FB681B681A68FB681B6822F499
:1054E00080621A60FB681B681A69FB685B6AD2B24B
:1054F0001A70FB685B6A5A1CFB685A62FB681B8D5A
:10550000013B9AB2FB681A85FB685B8D9BB2013B3D
:105510009AB2FB685A857B6A0093BB6B002255499F
:10552000F86802F049FB0346002B01D001239DE0FF
:10553000FB681B681A68FB681B6842F400721A60FB
:10554000FB681B681A69FB685B6AD2B21A70FB6859
:105550005B6A5A1CFB685A62FB681B8D013B9AB25E
:10556000FB681A85FB685B8D9BB2013B9AB2FB68B6
:105570005A85FB681B681A69FB685B6AD2B21A70AD
:10558000FB685B6A5A1CFB685A62FB681B8D013B17
:105590009AB2FB681A85FB685B8D9BB2013B9AB29D
:1055A000FB685A854EE07A6AB96BF86802F0E0FC55
:1055B0000346002B01D0012358E0FB681B681A69E1
:1055C000FB685B6AD2B21A70FB685B6A5A1CFB68A4
:1055D0005A62FB681B8D013B9AB2FB681A85FB6817
:1055E0005B8D9BB2013B9AB2FB685A85FB681B68D6
:1055F0005B6903F00403042B24D1FB681B8D032B90
:1056000007D1FB681B681A68FB681B6822F480627C
:105610001A60FB681B681A69FB685B6AD2B21A7071
:10562000FB685B6A5A1CFB685A62FB681B8D013B76
:105630009AB2FB681A85FB685B8D9BB2013B9AB2FC
:10564000FB685A85FB681B8D002B7FF4B6AEFB68A8
:10565000202283F83D20FB68002283F83E20FB686F
:10566000002283F83C20002300E00223184628375C
:10567000BD4680BD0400010080B58AB002AFF8606D
:10568000084611461A4603467B810B463B8113466A
:10569000FB8000237B61FDF7A5FEF861FB6893F8B2
:1056A0003D30DBB2202B40F036819D4B1B68DB0880
:1056B0009C4AA2FB03231A0A13469B0013449A0038
:1056C00013447B617B69013B7B617B69002B12D1B9
:1056D000FB6800221A63FB68202283F83D20FB68E8
:1056E000002283F83E20FB681B6C43F02002FB681D
:1056F0001A64022310E1FB681B689B6903F0020334
:10570000022BDFD0FB6893F83C30012B01D1022340
:1057100002E1FB68012283F83C20FB681B681B68E0
:1057200003F00103012B07D0FB681B681A68FB68B4
:105730001B6842F001021A60FB681B681A68FB686C
:105740001B6822F400621A60FB68212283F83D2066
:10575000FB68402283F83E20FB6800221A64FB6845
:10576000BA6A5A62FB68BA8D5A85FB685B8D9AB239
:10577000FB681A85FB686C4ADA627A89FB685A64AE
:105780003A89FB689A64FA88FB68DA64FB6800224D
:105790001A65FB681B8D002B00F0A980FB685B6B12
:1057A000002B2AD0FB685B6B604ADA63FB685B6B9B
:1057B0005F4ADA64FB685B6B00221A64FB685B6B10
:1057C00000225A64FB685B6B00229A64FB685B6B87
:1057D00000221A65FB68586BFB685B6A1946FB6818
:1057E0001B6810331A46FB681B8DFEF70BFD034642
:1057F000FB76FB7E002B66D113E0FB68202283F84A
:105800003D20FB68002283F83E20FB681B6C43F0C0
:105810008002FB681A64FB68002283F83C200123A5
:105820007AE0F8883A897989FB6901932323009308
:105830000346F86801F07EFE0346002B22D0FB6889
:105840005B6B1846FEF736FD0346FB76FB685B6B29
:105850000022DA63FB681B681A68FB681B6822F485
:1058600080621A60FB6800221A85FB6800225A8554
:10587000FB681B681A68FB681B6822F001021A604B
:10588000012349E000233B61FB681B685B693B61C6
:10589000FB681B689B693B613B69FB68002283F8DE
:1058A0003C20FB681B685A68FB681B6842F48072E6
:1058B0005A60FB681B685A68FB681B6842F4006208
:1058C0005A60002328E0FB68202283F83D20FB6813
:1058D000002283F83E20FB681B6C43F01002FB683B
:1058E0001A64FB68002283F83C20012314E0FB6863
:1058F000202283F83D20FB68002283F83E20FB68CD
:105900001B6C43F04002FB681A64FB68002283F8BA
:105910003C20012300E0022318462037BD4680BD0D
:105920000C00002089B5F8140000FFFF3178000852
:10593000EF79000880B58CB002AFF86008461146D8
:105940001A4603467B810B463B811346FB80FDF7DD
:1059500049FD78620023FB61FB6893F83D30DBB2C0
:10596000202B40F07281934B1B68DB08924AA2FB0C
:1059700003231A0A13469B0013449A001344FB6145
:10598000FB69013BFB61FB69002B12D1FB68002224
:105990001A63FB68202283F83D20FB68002283F80D
:1059A0003E20FB681B6C43F02002FB681A64022354
:1059B0004CE1FB681B689B6903F00203022BDFD0FC
:1059C000FB6893F83C30012B01D102233EE1FB68D8
:1059D000012283F83C20FB681B681B6803F001036D
:1059E000012B07D0FB681B681A68FB681B6842F034
:1059F00001021A60FB681B681A68FB681B6822F4C6
:105A000000621A60FB68222283F83D20FB68402276
:105A100083F83E20FB6800221A64FB683A6B5A62E6
:105A2000FB68BA8E5A85FB685B8D9AB2FB681A8553
:105A3000FB68624ADA627A89FB685A643A89FB68D1
:105A40009A64FA88FB68DA64FB6800221A65FB68CE
:105A50001B8D002B00F0CC80FB689B6B002B2DD0A6
:105A6000FB689B6B564ADA63FB689B6B554ADA64AA
:105A7000FB689B6B00221A64FB689B6B00225A64D4
:105A8000FB689B6B00229A64FB689B6B00221A6583
:105A9000FB68986BFB681B6810331946FB685B6AF0
:105AA0001A46FB681B8DFEF7ADFB034687F82330D3
:105AB00097F82330002B40F0878013E0FB6820220A
:105AC00083F83D20FB68002283F83E20FB681B6CB6
:105AD00043F08002FB681A64FB68002283F83C20D4
