:020000040800F2
:1000000000000220F9260008FD230008052400084E
:100010000D240008152400081D240008000000001D
:10002000000000000000000000000000252400087F
:100030003324000800000000412400084F24000879
:1000400049270008492700084927000849270008D0
:1000500049270008492700084927000849270008C0
:100060004927000849270008492700085D2400089F
:10007000712400084927000849270008492700087B
:1000800049270008492700088524000800000000CF
:1000900000000000000000000000000049270008E8
:1000A00099240008AD240008C1240008492700084D
:1000B00049270008D524000849270008E92400083A
:1000C000FD2400084927000849270008492700089F
:1000D00049270008492700084927000800000000B8
:1000E00049270008492700084927000800000000A8
:1000F0000000000000000000000000004927000888
:100100000000000049270008492700084927000887
:1001100000000000000000000000000000000000DF
:100120001125000849270008492700084927000829
:100130004927000800000000000000000000000047
:10014000000000000000000000000000252500085D
:1001500049270008492700084927000849270008BF
:10016000492700084927000800000000000000009F
:10017000000000000000000000000000000000007F
:100180000000000039250008000000000000000009
:08019000492700084927000877
:1001A00010B5054C237833B9044B13B10448AFF3B1
:1001B00000800123237010BDCC020020000000004D
:1001C0000C11010808B5034B1BB103490348AFF3F9
:1001D000008008BD00000000D00200200C110108C2
:1001E00001F0FF01102A2BDB10F0070F08D010F8E8
:1001F000013B013A8B422DD010F0070F42B3F6D1EC
:10020000F0B441EA012141EA014122F007047FF004
:1002100000070023F0E80256083C85EA010586EA5B
:10022000010685FA47F5A3FA87F586FA47F6A5FA97
:1002300087F68EB9EED1F0BC01F0FF0102F00702A3
:1002400032B110F8013B013A83EA010313B1F8D14E
:100250000020704701387047002D06BF354603382F
:10026000073815F0010F07D1013015F4807F02BF68
:10027000013015F4C03F0130F0BC0138704700BFB9
:10028000034613F8012B002AFBD1181A01387047D6
:1002900081F0004102E000BF83F0004330B54FEA37
:1002A00041044FEA430594EA050F08BF90EA020FA4
:1002B0001FBF54EA000C55EA020C7FEA645C7FEA37
:1002C000655C00F0E2804FEA5454D4EB5555B8BF5A
:1002D0006D420CDD2C4480EA020281EA030382EACB
:1002E000000083EA010180EA020281EA0303362D5D
:1002F00088BF30BD11F0004F4FEA01314FF4801C30
:100300004CEA113102D0404261EB410113F0004F41
:100310004FEA03334CEA133302D0524263EB4303F8
:1003200094EA050F00F0A780A4F10104D5F1200E96
:100330000DDB02FA0EFC22FA05F2801841F10001F1
:1003400003FA0EF2801843FA05F359410EE0A5F1C5
:1003500020050EF1200E012A03FA0EFC28BF4CF0F6
:10036000020C43FA05F3C01851EBE37101F00045AC
:1003700007D54FF0000EDCF1000C7EEB00006EEBB9
:100380000101B1F5801F1BD3B1F5001F0CD3490843
:100390005FEA30004FEA3C0C04F101044FEA44529A
:1003A00012F5800F80F09A80BCF1004F08BF5FEA21
:1003B000500C50F1000041EB045141EA050130BD01
:1003C0005FEA4C0C404141EB0101013C28BFB1F513
:1003D000801FE9D291F0000F04BF01460020B1FA5E
:1003E00081F308BF2033A3F10B03B3F120020CDA31
:1003F0000C3208DD02F1140CC2F10C0201FA0CF00F
:1004000021FA02F10CE002F11402D8BFC2F1200C73
:1004100001FA02F120FA0CFCDCBF41EA0C01904029
:10042000E41AA2BF01EB0451294330BD6FEA040472
:100430001F3C1CDA0C340EDC04F11404C4F120025D
:1004400020FA04F001FA02F340EA030021FA04F36F
:1004500045EA030130BDC4F10C04C4F1200220FAC6
:1004600002F001FA04F340EA0300294630BD21FA04
:1004700004F0294630BD94F0000F83F4801306BFCA
:1004800081F480110134013D4EE77FEA645C18BFBE
:100490007FEA655C29D094EA050F08BF90EA020F55
:1004A00005D054EA000C04BF1946104630BD91EA4D
:1004B000030F1EBF0021002030BD5FEA545C05D150
:1004C0004000494128BF41F0004130BD14F580048F
:1004D0003CBF01F5801130BD01F0004545F0FE4103
:1004E00041F470014FF0000030BD7FEA645C1ABF38
:1004F000194610467FEA655C1CBF0B46024650EA6F
:10050000013406BF52EA033591EA030F41F400219A
:1005100030BD00BF90F0000F04BF0021704730B520
:100520004FF4806404F132044FF000054FF00001F5
:1005300050E700BF90F0000F04BF0021704730B5B6
:100540004FF4806404F1320410F0004548BF40428B
:100550004FF000013EE700BF42004FEAE2014FEAE0
:1005600031014FEA02701FBF12F07F4393F07F4FBB
:1005700081F06051704732F07F4208BF704793F0BE
:100580007F4F04BF41F40021704730B54FF46074D1
:1005900001F0004521F000411CE700BF50EA0102D4
:1005A00008BF704730B54FF000050AE050EA01027D
:1005B00008BF704730B511F0004502D5404261EBED
:1005C00041014FF4806404F132045FEA915C3FF42E
:1005D000D8AE4FF003025FEADC0C18BF03325FEACB
:1005E000DC0C18BF033202EBDC02C2F1200300FA7C
:1005F00003FC20FA02F001FA03FE40EA0E0021FAA1
:1006000002F11444BDE600BF70B54FF0FF0C4CF48E
:10061000E06C1CEA11541DBF1CEA135594EA0C0F40
:1006200095EA0C0F00F0DEF82C4481EA030621EA7B
:100630004C5123EA4C5350EA013518BF52EA0335B6
:1006400041F4801143F4801338D0A0FB02CE4FF068
:100650000005E1FB02E506F00042E0FB03E54FF098
:100660000006E1FB03569CF0000F18BF4EF0010E90
:10067000A4F1FF04B6F5007F64F5407404D25FEA8C
:100680004E0E6D4146EB060642EAC62141EA55513F
:100690004FEAC52040EA5E504FEACE2EB4F1FD0C81
:1006A00088BFBCF5E06F1ED8BEF1004F08BF5FEAFF
:1006B000500E50F1000041EB045170BD06F00046B1
:1006C00046EA010140EA020081EA0301B4EB5C045E
:1006D000C2BFD4EB0C0541EA045170BD41F4801156
:1006E0004FF0000E013C00F3AB8014F1360FDEBF7B
:1006F000002001F0004170BDC4F10004203C35DA57
:100700000C341BDC04F11404C4F1200500FA05F3D9
:1007100020FA04F001FA05F240EA020001F000427A
:1007200021F0004110EBD37021FA04F642EB0601F0
:100730005EEA430E08BF20EAD37070BDC4F10C041A
:10074000C4F1200500FA04F320FA05F001FA04F2DE
:1007500040EA020001F0004110EBD37041F10001CA
:100760005EEA430E08BF20EAD37070BDC4F12005D5
:1007700000FA05F24EEA020E20FA04F301FA05F23D
:1007800043EA020321FA04F001F0004121FA04F2E5
:1007900020EA020000EBD3705EEA430E08BF20EAB5
:1007A000D37070BD94F0000F0FD101F000464000EF
:1007B00041EB010111F4801F08BF013CF7D041EA71
:1007C000060195F0000F18BF704703F00046520075
:1007D00043EB030313F4801F08BF013DF7D043EA46
:1007E0000603704794EA0C0F0CEA135518BF95EAFC
:1007F0000C0F0CD050EA410618BF52EA4306D1D183
:1008000081EA030101F000414FF0000070BD50EAA1
:10081000410606BF1046194652EA430619D094EA2B
:100820000C0F02D150EA013613D195EA0C0F05D115
:1008300052EA03361CBF104619460AD181EA030169
:1008400001F0004141F0FE4141F470014FF0000021
:1008500070BD41F0FE4141F4780170BD70B54FF0BC
:10086000FF0C4CF4E06C1CEA11541DBF1CEA13553C
:1008700094EA0C0F95EA0C0F00F0A7F8A4EB05041E
:1008800081EA030E52EA03354FEA013100F0888015
:100890004FEA03334FF0805545EA131343EA1263DE
:1008A0004FEA022245EA111545EA10654FEA002693
:1008B0000EF000419D4208BF964244F1FD0404F54C
:1008C000407402D25B084FEA3202B61A65EB0305A8
:1008D0005B084FEA32024FF480104FF4002CB6EB65
:1008E000020E75EB030E22BFB61A754640EA0C00E5
:1008F0005B084FEA3202B6EB020E75EB030E22BF25
:10090000B61A754640EA5C005B084FEA3202B6EB65
:10091000020E75EB030E22BFB61A754640EA9C0024
:100920005B084FEA3202B6EB020E75EB030E22BFF4
:10093000B61A754640EADC0055EA060E18D04FEAB2
:10094000051545EA16754FEA06164FEAC30343EA52
:1009500052734FEAC2025FEA1C1CC0D111F4801F1F
:100960000BD141EA00014FF000004FF0004CB6E718
:1009700011F4801F04BF01430020B4F1FD0C88BFB7
:10098000BCF5E06F3FF6AFAEB5EB030C04BFB6EBC2
:10099000020C5FEA500C50F1000041EB045170BDB5
:1009A0000EF0004E4EEA113114EB5C04C2BFD4EBE2
:1009B0000C0541EA045170BD41F480114FF0000E66
:1009C000013C90E645EA060E8DE60CEA135594EAE2
:1009D0000C0F08BF95EA0C0F3FF43BAF94EA0C0FE5
:1009E0000AD150EA01347FF434AF95EA0C0F7FF45A
:1009F00025AF104619462CE795EA0C0F06D152EAAE
:100A000003353FF4FDAE1046194622E750EA410691
:100A100018BF52EA43067FF4C5AE50EA41047FF4A2
:100A20000DAF52EA43057FF4EBAE12E74FF0FF3C07
:100A300006E000BF4FF0010C02E000BF4FF0010CD8
:100A40004DF804CD4FEA410C7FEA6C5C4FEA430C51
:100A500018BF7FEA6C5C1BD001B050EA410C0CBFA0
:100A600052EA430C91EA030F02BF90EA020F002002
:100A7000704710F1000F91EA030F58BF994208BF69
:100A800090422CBFD8176FEAE37040F00100704726
:100A90004FEA410C7FEA6C5C02D150EA013C07D17D
:100AA0004FEA430C7FEA6C5CD6D152EA033CD3D0C8
:100AB0005DF8040B704700BF8446104662468C46C2
:100AC0001946634600E000BF01B5FFF7B7FF0028F5
:100AD00048BF10F1000F01BD4DF808EDFFF7F4FF1E
:100AE0000CBF012000205DF808FB00BF4DF808EDA9
:100AF000FFF7EAFF34BF012000205DF808FB00BFCC
:100B00004DF808EDFFF7E0FF94BF012000205DF8ED
:100B100008FB00BF4DF808EDFFF7CEFF94BF0120A2
:100B200000205DF808FB00BF4DF808EDFFF7C4FF9B
:100B300034BF012000205DF808FB00BF4FEA410CE4
:100B40007FEA6C5C02D150EA013C0AD14FEA430CC7
:100B50007FEA6C5C02D152EA033C02D14FF0000004
:100B600070474FF0010070474FEA410212F5001242
:100B700015D211D56FF47873B3EB625212D94FEAE4
:100B8000C12343F0004343EA505311F0004F23FACE
:100B900002F018BF404270474FF00000704750EA23
:100BA000013005D111F0004008BF6FF000407047E0
:100BB0004FF00000704700BF4A0011D212F500123A
:100BC00011D20DD56FF47873B3EB62520ED44FEAA5
:100BD000C12343F0004343EA505323FA02F0704725
:100BE0004FF00000704750EA013002D14FF0FF3063
:100BF00070474FF0000070474FEA4102B2F1E04306
:100C000024BFB3F5001CDCF1FE5C0DD901F0004CF3
:100C10004FEAC0024CEA5070B2F1004F40EB830043
:100C200008BF20F00100704711F0804F21D113F16F
:100C30003872BCBF01F00040704741F480114FEAA8
:100C40005252C2F11802C2F1200C10FA0CF320FA31
:100C500002F018BF40F001004FEAC1234FEAD3234E
:100C600003FA0CFC40EA0C0023FA02F34FEA4303B8
:100C7000CCE77FEA625307D150EA01331EBF4FF041
:100C8000FE4040F44000704701F0004040F0FE405C
:100C900040F40000704700BF53B94AB9002908BFAB
:100CA00000281CBF4FF0FF314FF0FF3000F0BEB9FD
:100CB000ADF1080C6DE904CE00F03CF8DDF804E07D
:100CC000DDE9022304B0704738B500220023044652
:100CD0000D46FFF70BFF28B920462946BDE83840EE
:100CE00000F00AB8204605F1004100F005F8404246
:100CF00061EB410138BD00BFD0B50C4B0022064668
:100D00000F46FFF781FCFFF757FF0446FFF702FC91
:100D1000074B0022FFF778FC02460B463046394667
:100D2000FFF7BAFAFFF748FF2146D0BD0000F03DBB
:100D30000000F0412DE9F047089D8E4604468846A4
:100D4000002B4AD18A42174662D9B2FA82F64EB1D6
:100D5000C6F1200301FA06F820FA03F3B74043EA8C
:100D60000808B4404FEA174E1FFA87FCB8FBFEF1A3
:100D7000230C0EFB118843EA084301FB0CF29A4254
:100D800009D9FB1801F1FF3080F0EA809A4240F265
:100D9000E78002393B449A1AA3B2B2FBFEF00EFB85
:100DA000102243EA024300FB0CFC9C4509D9FB18C6
:100DB00000F1FF3280F0D6809C4540F2D3803B4466
:100DC000023840EA0140A3EB0C0300211DB1F340BF
:100DD0000022C5E90032BDE8F0878B4205D90DB18C
:100DE000C5E9000100210846F5E7B3FA83F10029BF
:100DF00046D1734502D3824200F20581841A6EEB1C
:100E0000030201209046002DE5D0C5E90048E2E745
:100E1000002A00F09080B2FA82F6002E40F0A48002
:100E20008A1A030C4FEA174E80B2BCB20121B2FB02
:100E3000FEFC0EFB1C2243EA024304FB0CF29A4226
:100E400007D9FB180CF1FF3802D29A4200F2E08079
:100E5000C4469B1AB3FBFEF20EFB123340EA034377
:100E600002FB04F49C4207D9FB1802F1FF3002D2C6
:100E70009C4200F2CA8002461B1B42EA0C40A5E7D6
:100E8000C1F120068B4022FA06F71F430EFA01F447
:100E900020FA06F32EFA06FE4FEA1749234300FA1A
:100EA00001F81FFA87FCBEFBF9F01C0C09FB10EEE1
:100EB00044EA0E4400FB0CFEA64502FA01F209D9F1
:100EC0003C1900F1FF3A80F09C80A64540F29980E1
:100ED00002383C44A4EB0E041FFA83FEB4FBF9F382
:100EE00009FB13444EEA044403FB0CFCA44508D957
:100EF0003C1903F1FF3E80F08280A4457FD9023B7C
:100F00003C4443EA0040A4EB0C04A0FB02EC644523
:100F10007346E14662D35FD05DB1B8EB030264EB88
:100F2000090404FA06F622FA01F31E43CC40C5E98F
:100F3000006400214FE7B1FBF2FC010C41EA0E41D5
:100F400080B240EA01423B4638463C46B846BE467F
:100F50002026B1FBF7F1A2EB080241EA0C4166E75B
:100F6000014618E710462CE7C6F120022EFA02F3DC
:100F7000B740B14020FA02F24FEA174E0A43B3FBE2
:100F8000FEF8BCB20EFB1833110C41EA034108FB1A
:100F900004F9B04089454FEA104380B23ED9791830
:100FA00008F1FF3C01D289451FD8A1EB0901B1FB33
:100FB000FEF909FB04F80EFB191192B242EA014254
:100FC000424529D2BA1809F1FF31C4D24245C2D2F2
:100FD000A9F102013A44BEE7F0459DD2BEEB0203FF
:100FE0006CEB070C0138E14696E7A7EB0909494489
:100FF000A8F1020CB1FBFEF909FB04F8DBE773462C
:101000007FE7504666E70846FDE63B44023A33E791
:10101000ACF1020C3B441CE749469CE7A1EB0901FB
:10102000C446B1FBFEF909FB04F8C4E7704700BFF2
:1010300090B484B000AF78607B6893F84030012BA7
:1010400058D17B68002283F840200023FB7341E0E5
:10105000FA7B7B68083253F82230294A127811460D
:10106000FA7B2848C9000A4430F812201146FA7B5E
:10107000591A7B68083243F82210FA7B7B680832E1
:1010800053F82230F97B7A6832F811201146FA7B46
:1010900019447B68083243F82210F97B184B1B78FF
:1010A0001C46FB7B7A6832F811001649E2001344B3
:1010B000024621F81320FA7B7B68083253F822306D
:1010C000DB08FA7B99B27B68083223F81210FB7BAD
:1010D0000133FB73FB7B072BBAD9094B1B78013318
:1010E000DAB2074B1A70064B1B78072B02D9044B58
:1010F00000221A7000BF1037BD4690BC704700BF79
:10110000E8020020EC02002080B582B000AF7860D9
:101110000B46FB70FB7818460BF08EFC03461A4614
:101120007B689A60FB7818460BF086FC03461A46EB
:101130007B68DA60034A7B68136000BF0837BD46EE
:1011400080BD00BF7803002090B48CB000AF034690
:101150003960FB711346BB71002387F82F300023E1
:1011600087F82E30002387F82D3097F82F305A1C3F
:1011700087F82F2030333B44552203F8242C97F86E
:101180002F305A1C87F82F2030333B444E2203F86F
:10119000242C97F82F305A1C87F82F2030333B44EB
:1011A000452203F8242C97F82F305A1C87F82F205B
:1011B00030333B44522203F8242C97F82F305A1C2A
:1011C00087F82F201946BB790233DAB201F13003D8
:1011D0003B4403F8242C97F82F305A1C87F82F2013
:1011E00030333B443A2203F8242C97F82F305A1C12
:1011F00087F82F2030333B44FA7903F8242C00235E
:1012000087F82D3012E097F82D303A681A4497F895
:101210002F30591C87F82F10127830333B4403F8D5
:10122000242C97F82D30013387F82D3097F82D2096
:10123000BB799A42E7D3002387F82E30002387F842
:101240002D3022E097F82D3030333B4413F8242C16
:1012500097F82E30534087F82E3097F82D101A4B00
:101260001B68D868184B1B685A79541CE4B25C712F
:101270001346034401F130023A4412F8242C1A7048
:1012800097F82D30013387F82D3097F82D2097F8F7
:101290002F309A42D6D30C4B1B68D9680A4B1B6877
:1012A0005A79501CC0B2587113460B4497F82E203F
:1012B0001A70054B1B6897F82F201A7400BF30373F
:1012C000BD4690BC704700BF7803002080B584B055
:1012D00000AF78607B68DB78FB73E2E0764B1B78CD
:1012E000062B00F2D78001A252F823F00913000860
:1012F000311300086513000899130008CD13000886
:10130000F5130008371400087B689A687B681B791E
:10131000591CC8B27968087113441B78552B40F0EA
:10132000BD80654B01221A707B6800229A70B5E07F
:101330007B689A687B681B79591CC8B27968087108
:1013400013441B784E2B03D15B4B02221A70A8E08A
:101350007B681B79013BDAB27B681A71564B00221D
:101360001A709EE07B689A687B681B79591CC8B22A
:101370007968087113441B78452B03D14E4B032227
:101380001A708EE07B681B79013BDAB27B681A71B8
:10139000494B00221A7084E07B689A687B681B794D
:1013A000591CC8B27968087113441B78522B03D1B9
:1013B000414B04221A7074E07B681B79013BDAB25E
:1013C0007B681A713C4B00221A706AE07B681A79BC
:1013D0007B685A707B689A687B681B79591CC8B215
:1013E0007968087113441A78344B1A70324B05220D
:1013F0001A7056E07B689A687B681B79591CC8B2E2
:101400007968087113441B783A2B0AD12A4B0622BB
:101410001A702A4B1B7883F03603DAB27B689A7015
:101420003FE07B681B79013BDAB27B681A71224B83
:1014300000221A7035E0214B1B78012B0FD97B68F5
:101440009A687B681B79591CC8B279680871134483
:101450001A787B689B785340DAB27B689A70174B96
:101460001B78013BDAB2154B1A70144B1B78002B1A
:1014700016D1114B00221A707B689A787B689B68A2
:10148000796809790B441B789A4209D1786800F091
:1014900017F805E0084B00221A7002E000BF00E0D8
:1014A00000BF7B681B79FA7B9A427FF417AF00BFBD
:1014B00000BF1037BD4680BD7403002080030020AC
:1014C00080B58AB000AF7860002387F8263000230B
:1014D00087F827307B689A687B685B78023313440F
:1014E0001B78F03B052B00F2848001A252F823F018
:1014F00009150008251500084115000857150008B2
:10150000C9150008DF15000897F826305A1C87F81F
:10151000262028333B44F02203F8202C022387F8AE
:10152000273074E097F826305A1C87F82620283395
:101530003B44F12203F8202C022387F8273066E091
:1015400097F826305A1C87F8262028333B44F2228D
:1015500003F8202C5BE097F826305A1C87F82620E9
:1015600028333B44F32203F8202C7B689A687B687D
:101570005B78033313441A782E4B1A707B689A6891
:101580007B685B78043313441A782A4B5A707B6863
:101590009A687B685B78053313441A78254B9A70F8
:1015A0007B689A687B685B78063313441A78214B12
:1015B000DA70204BB3F900201F4B1A801D4BB3F992
:1015C00002201E4B1A8022E097F826305A1C87F81A
:1015D000262028333B44F42203F8202C17E0184B34
:1015E0001B6807F1080210469847102387F8273038
:1015F0000DE097F826305A1C87F8262028333B4404
:10160000FF2203F8202C022387F8273000BF7B68D5
:101610009A687B685B78023313441B7897F827201D
:1016200007F108011846FFF78FFD00BF2837BD46B8
:1016300080BD00BF6C0300207003002072030020F7
:101640007C03002080B485B000AF78600B467B80BF
:101650000023FB8116E0FB897A681A440F4B1B6854
:101660009B680E490968C978C9B20B4412781A7090
:101670000A4B1B68DA78D2B20132D2B2DA70FB8937
:101680000133FB81FA897B889A42E4D300BF00BF13
:101690001437BD465DF8047B704700BF7803002017
:1016A00080B483B000AF7860044A7B68136000BFE9
:1016B0000C37BD465DF8047B704700BF7C030020FB
:1016C00080B483B000AF7860044B012283F84020DF
:1016D00000BF0C37BD465DF8047B70477C060020D8
:1016E00080B582B000AF78607B681B680A4A93427D
:1016F00004D10A4A137843F0400313707B681B68D7
:10170000074A934204D108220649074801F008FA23
:1017100000BF0837BD4680BD004801407406002068
:10172000004001407C0600208403002080B500AF0B
:10173000104B1A78104BA3FB0213D9080B469B00E1
:101740000B445B00D31ADBB2002B04D14FF40051E1
:101750000A4802F000FC074B1B78FA2B02D9054B14
:1017600000221A70034B1B780133DAB2014B1A7056
:1017700000BF80BDC0060020CDCCCCCC000802400C
:1017800080B500AF00F0E2FF00F05AF800F0E4FA94
:1017900000F0A4FA0AF0D2FB00F09CF900F07AFA0B
:1017A00000F0B6F800F068F900F050FA00F014FA12
:1017B0001A4806F023F91A4806F020F9194806F0ED
:1017C0001DF9194806F01AF90421144806F0D2F957
:1017D0000021124806F0CEF914480AF003FD144B1C
:1017E00000221A7000211348FFF78EFC1248FFF701
:1017F00057FF0F4B1B7803F04003DBB2002B06D0E2
:10180000FFF794FF0A4A137823F040031370094846
:1018100000F02EFB0948FFF70BFCEAE7400500202B
:1018200018060020D0050020880500204516000875
:101830007406002060060020051F00087C060020BA
:1018400080B594B000AF07F1200330220021184684
:101850000CF033F907F10C0300221A605A609A6009
:10186000DA601A610023BB60274B1B6C264A43F0E9
:1018700080531364244B1B6C03F08053BB60BB6824
:1018800000237B60214B1B68204A43F440431360D4
:101890001E4B1B6803F440437B607B6801233B6263
:1018A0004FF480337B620223BB634FF48003FB63FE
:1018B00019233B64C0237B640223BB640423FB64C1
:1018C00007F12003184605F005FC0346002B01D064
:1018D00000F04EFB0F23FB6002233B6100237B6182
:1018E0004FF48053BB610023FB6107F10C0303211C
:1018F000184605F067FE0346002B01D000F038FBC8
:1019000000BF5037BD4680BD003802400070004027
:1019100080B584B000AF3B4600221A605A609A60DE
:10192000DA60524B524A1A60504B4FF480325A6080
:101930004E4B00229A604D4B01221A614B4B002204
:101940001A764A4B002283F82020484B0022DA62A4
:10195000464B484A9A62454B0022DA60434B0822C4
:10196000DA61424B002283F83020404B01225A6159
:101970003E4800F081FF0346002B01D000F0F8FA4A
:1019800001233B6001237B600323BB603B46194678
:10199000364801F0D7F90346002B01D000F0E8FAF1
:1019A00002233B6002237B603B4619462F4801F02F
:1019B000C9F90346002B01D000F0DAFA03233B609B
:1019C00003237B603B461946284801F0BBF90346D8
:1019D000002B01D000F0CCFA04233B6004237B6091
:1019E0003B461946214801F0ADF90346002B01D0D2
:1019F00000F0BEFA05233B6005237B603B46194699
:101A00001A4801F09FF90346002B01D000F0B0FA0C
:101A100006233B6006237B603B461946134801F0D2
:101A200091F90346002B01D000F0A2FA07233B6096
:101A300007237B603B4619460C4801F083F90346B7
:101A4000002B01D000F094FA08233B6008237B6050
:101A50003B461946054801F075F90346002B01D0B5
:101A600000F086FA00BF1037BD4680BD8403002019
:101A7000002001400100000F80B500AF124B134A57
:101A80001A60114B124A5A600F4B00229A600E4B9B
:101A90000022DA600C4B4FF480421A610A4B00229C
:101AA0005A61094B00229A61074B0022DA61064B0A
:101AB00000221A62044802F069FA0346002B01D0A2
:101AC00000F056FA00BF80BD2C04002000540040F6
:101AD000801A060080B58EB000AF07F128030022FF
:101AE0001A605A609A60DA6007F1200300221A60D7
:101AF0005A603B1D00221A605A609A60DA601A61CF
:101B00005A619A61324B334A1A60314B0F225A6044
:101B10002F4B00229A602E4B4EF65F22DA602C4B40
:101B200000221A612A4B00229A61294805F016FF0B
:101B30000346002B01D000F01BFA4FF48053BB6228
:101B400007F128031946224806F076FA0346002BCF
:101B500001D000F00DFA1E4805F0B2FF0346002B3D
:101B600001D000F005FA00233B6200237B6207F1FD
:101B700020031946164806F021FE0346002B01D02B
:101B800000F0F6F960237B600023BB600023FB605C
:101B900000237B613B1D002219460D4806F08AF99F
:101BA0000346002B01D000F0E3F93B1D0422194647
:101BB000074806F07FF90346002B01D000F0D8F962
:101BC000034800F0E1FB00BF3837BD4680BD00BFD1
:101BD000400500200004004080B584B000AF3B46C3
:101BE00000221A605A609A60DA60164B164A1A6030
:101BF000144B00225A60134B00229A60114B45F699
:101C0000BF52DA600F4B00221A610E4B00229A611C
:101C10000C4805F0A3FE0346002B01D000F0A8F904
:101C20004FF480533B603B461946064806F004FAE1
:101C30000346002B01D000F09BF900BF1037BD46D2
:101C400080BD00BF880500200040014080B500AF86
:101C50000E4B0F4A1A600D4B2F225A600B4B00227D
:101C60009A600A4B42F20F72DA60084B00221A6146
:101C7000064B00229A61054805F070FE0346002BD2
:101C800001D000F075F900BF80BD00BFD005002075
:101C90000044014080B500AF0E4B0F4A1A600D4B57
:101CA0005F225A600B4B00229A600A4B42F20F727D
:101CB000DA60084B00221A61064B00229A6105483F
:101CC00005F04CFE0346002B01D000F051F900BF97
:101CD00080BD00BF180600200048014080B582B0DA
:101CE00000AF00237B601B4B1B6B1A4A43F40013AD
:101CF0001363184B1B6B03F400137B607B6800239A
:101D00003B60144B1B6B134A43F480031363114B6A
:101D10001B6B03F480033B603B68002200210B2017
:101D200001F0A5FB0B2001F0BEFB002200210C20DE
:101D300001F09DFB0C2001F0B6FB002200213820B1
:101D400001F095FB382001F0AEFB00BF0837BD461F
:101D500080BD00BF0038024080B58AB000AF07F1F7
:101D6000140300221A605A609A60DA601A61002334
:101D70003B613B4B1B6B3A4A43F004031363384B04
:101D80001B6B03F004033B613B690023FB60344B96
:101D90001B6B334A43F080031363314B1B6B03F01F
:101DA0008003FB60FB680023BB602D4B1B6B2C4A40
:101DB00043F0010313632A4B1B6B03F00103BB6069
:101DC000BB6800237B60264B1B6B254A43F0020354
:101DD0001363234B1B6B03F002037B607B680022C1
:101DE0004FF400511F4802F09DF800224FF40641C5
:101DF0001D4802F097F8002208211C4802F092F8D2
:101E00004FF400537B610123BB610023FB6100237E
:101E10003B6207F114031946124801F0FFFE4FF42C
:101E200006437B610123BB610023FB6100233B620E
:101E300007F1140319460C4801F0F0FE08237B61FA
:101E40000123BB610023FB6100233B6207F1140304
:101E50001946064801F0E2FE00BF2837BD4680BDA6
:101E60000038024000080240000002400004024026
:101E700080B582B000AF78607B681A797B68DB78C8
:101E8000DBB29A4207D07868FFF720FA7B68DB78EC
:101E9000DAB27B681A717B689A797B685B799A42BF
:101EA0002BD07B685A797B689B799A4208D97B68EA
:101EB0005A797B689B79D31ADAB27B681A7406E088
:101EC0007B689B79C3F10403DAB27B681A747B6880
:101ED000DB687A6892791A447B681B7C1946104645
:101EE0000AF048F90346002B07D17B689A797B6892
:101EF0001B7C1344DAB27B689A7100BF0837BD4679
:101F000080BD000080B485B000AF78600023FB7313
:101F10000023BB731EE0BB7B134A083332F8133037
:101F20001AB2124B1A80FB7B5B001A467B68134483
:101F30000E4A12781A70FB7B5B0001331A467B68ED
:101F400013440A4A52781A70FB7B0133FB73BB7B44
:101F50000133BB73BB7B062BDDD900BF00BF143739
:101F6000BD465DF8047B70477C06002078060020A3
:101F700080B400AF72B600BF00BFFDE780B582B08D
:101F800000AF00237B60134B5B6C124A43F4804329
:101F90005364104B5B6C03F480437B607B680023CD
:101FA0003B600C4B1B6C0B4A43F080531364094B92
:101FB0001B6C03F080533B603B68002200215120E2
:101FC00001F055FA512001F06EFA00BF0837BD4606
:101FD00080BD00BF0038024080B58AB000AF786095
:101FE00007F1140300221A605A609A60DA601A61DD
:101FF0007B681B683F4A934278D100233B613E4B8C
:102000005B6C3D4A43F4807353643B4B5B6C03F45D
:1020100080733B613B690023FB60374B1B6B364A87
:1020200043F001031363344B1B6B03F00103FB60AC
:10203000FB680023BB60304B1B6B2F4A43F002034D
:1020400013632D4B1B6B03F00203BB60BB68FE23C5
:102050007B610323BB610023FB6107F11403194675
:10206000264801F0DBFD01237B610323BB610023D4
:10207000FB6107F114031946214801F0CFFD214B04
:10208000214A1A601F4B00225A601E4B00229A60A0
:102090001C4B0022DA601B4B4FF480621A61194B13
:1020A0004FF400625A61174B4FF400529A61154B7E
:1020B0000022DA61134B00221A62124B00225A628C
:1020C000104801F00BFA0346002B01D0FFF750FF38
:1020D0007B680C4A9A630B4A7B6893630022002159
:1020E000122001F0C4F9122001F0DDF900BF2837F9
:1020F000BD4680BD00200140003802400000024083
:1021000000040240CC0300201064024080B58AB075
:1021100000AF786007F1140300221A605A609A60D9
:10212000DA601A617B681B684F4A934240F09780DF
:1021300000233B614D4B1B6B4C4A43F0020313637E
:102140004A4B1B6B03F002033B613B69C0237B617D
:102150001223BB610023FB6103233B6204237B62E8
:1021600007F114031946424801F058FD0023FB60B3
:102170003E4B1B6C3D4A43F4001313643B4B1B6CFA
:1021800003F40013FB60FB683A4B3B4A1A60394B7F
:1021900000225A60374B40229A60364B0022DA60A8
:1021A000344B4FF480621A61324B00225A61314B3A
:1021B00000229A612F4B0022DA612E4B00221A6214
:1021C0002C4B00225A622B4801F088F90346002B61
:1021D00001D0FFF7CDFE7B68264A5A63254A7B680B
:1021E0009363264B264A1A60244B4FF000725A60C4
:1021F000224B00229A60214B0022DA601F4B4FF4E1
:1022000080621A611D4B00225A611C4B00229A61A8
:102210001A4B0022DA61194B00221A62174B002276
:102220005A62164801F05AF90346002B01D0FFF715
:102230009FFE7B68114A9A63104A7B689363002271
:1022400000211F2001F013F91F2001F02CF90022BA
:102250000021202001F00BF9202001F024F900BF1B
:102260002837BD4680BD00BF005400400038024002
:10227000000402408004002028600240E0040020A6
:102280001060024080B586B000AF78607B681B6844
:10229000384A934216D100237B61374B1B6C364A78
:1022A00043F002031364344B1B6C03F002037B61A5
:1022B0007B69002200211D2001F0D9F81D2001F0CA
:1022C000F2F852E07B681B682C4A934216D1002337
:1022D0003B61294B5B6C284A43F480335364264BA3
:1022E0005B6C03F480333B613B69002200211820C2
:1022F00001F0BDF8182001F0D6F836E07B681B68C5
:102300001F4A934216D10023FB601B4B5B6C1A4A99
:1023100043F400335364184B5B6C03F40033FB60ED
:10232000FB6800220021192001F0A1F8192001F01A
:10233000BAF81AE07B681B68124A934215D1002351
:10234000BB600D4B5B6C0C4A43F4802353640A4B17
:102350005B6C03F48023BB60BB68002200211A2061
:1023600001F085F81A2001F09EF800BF1837BD462D
:1023700080BD00BF00040040003802400040014022
:10238000004401400048014080B588B000AF78604B
:1023900007F10C0300221A605A609A60DA601A6131
:1023A0007B681B68124A93421DD10023BB60114B0E
:1023B0001B6B104A43F0020313630E4B1B6B03F0BD
:1023C0000203BB60BB683023FB6002233B61002338
:1023D0007B610023BB610223FB6107F10C031946FB
:1023E000054801F01BFC00BF2037BD4680BD00BF83
:1023F00000040040003802400004024080B400AFF6
:1024000000BFFDE780B400AF00BFFDE780B400AFC0
:1024100000BFFDE780B400AF00BFFDE780B400AFB0
:1024200000BFFDE780B400AF00BFBD465DF8047B90
:10243000704780B400AF00BFBD465DF8047B7047B5
:1024400080B400AF00BFBD465DF8047B704780B527
:1024500000AF00F0CDF900BF80BD000080B500AF37
:10246000024801F063F900BF80BD00BFE004002016
:1024700080B500AF024801F059F900BF80BD00BF30
:102480008004002080B500AF024800F038FA00BF99
:1024900080BD00BF8403002080B500AF024805F076
:1024A00019FC00BF80BD00BF8805002080B500AFCB
:1024B000024805F00FFC00BF80BD00BFD005002022
:1024C00080B500AF024805F005FC00BF80BD00BF2D
:1024D0001806002080B500AF024805F0FBFB00BFE6
:1024E00080BD00BF4005002080B500AF024801F06C
:1024F000A6FE00BF80BD00BF2C04002080B500AF49
:10250000024802F00DF800BF80BD00BF2C0400207F
:1025100080B500AF024801F009F900BF80BD00BFDF
:10252000CC03002080B500AF024803F0C4FC00BF1C
:1025300080BD00BFB00F002080B400AF00BFBD461B
:102540005DF8047B704780B400AF01231846BD4698
:102550005DF8047B704780B582B000AF7860396069
:102560000BF00EFB034616221A604FF0FF3318469D
:102570000837BD4680BD80B582B000AF78604FF0AF
:10258000FF317868FFF7E7FF00BFFDE780B586B051
:1025900000AFF860B9607A6000237B610AE0AFF3B6
:1025A00000800146BB685A1CBA60CAB21A707B69C7
:1025B00001337B617A697B689A42F0DB7B6818465D
:1025C0001837BD4680BD80B586B000AFF860B960F1
:1025D0007A6000237B6109E0BB685A1CBA601B78F3
:1025E0001846AFF300807B6901337B617A697B68B1
:1025F0009A42F1DB7B6818461837BD4680BD80B42F
:1026000083B000AF78604FF0FF3318460C37BD46FB
:102610005DF8047B704780B483B000AF78603960A8
:102620003B684FF400525A60002318460C37BD46F1
:102630005DF8047B704780B483B000AF78600123FD
:1026400018460C37BD465DF8047B704780B485B0F2
:1026500000AFF860B9607A60002318461437BD46B1
:102660005DF8047B7047000080B586B000AF7860ED
:10267000144A154BD31A7B617B693B61134B1B6872
:10268000002B02D1114B124A1A60104B1A687B685A
:1026900013443A699A4207D20BF072FA03460C22AD
:1026A0001A604FF0FF3309E0084B1B68FB60074BD3
:1026B0001A687B681344054A1360FB68184618378C
:1026C000BD4680BD0000022000040000C4060020BA
:1026D0000018002080B400AF064BD3F88830054ABC
:1026E00043F47003C2F8883000BFBD465DF8047B38
:1026F000704700BF00ED00E0DFF834D0FFF7EAFFDD
:102700000C480D490D4A002302E0D458C45004334C
:10271000C4188C42F9D30A4A0A4C002301E0136022
:102720000432A242FBD30BF031FAFFF729F87047CD
:102730000000022000000020CC020020CC1501087F
:10274000CC02002000180020FEE7000080B500AF9A
:102750000E4B1B680D4A43F4007313600B4B1B6850
:102760000A4A43F480631360084B1B68074A43F42A
:1027700080731360032000F06FFE0F2000F008F854
:10278000FFF7FCFB0023184680BD00BF003C024061
:1027900080B582B000AF7860124B1A68124B1B787C
:1027A00019464FF47A73B3FBF1F3B2FBF3F3184617
:1027B00000F087FE0346002B01D001230EE07B686A
:1027C0000F2B0AD8002279684FF0FF3000F04FFE3F
:1027D000064A7B681360002300E00123184608378F
:1027E000BD4680BD0000002008000020040000203D
:1027F00080B400AF064B1B781A46064B1B68134487
:10280000044A136000BFBD465DF8047B704700BFFB
:1028100008000020C806002080B400AF034B1B68EE
:102820001846BD465DF8047B704700BFC80600200F
:1028300080B584B000AF7860FFF7EEFFB8607B68CA
:10284000FB60FB68B3F1FF3F05D00A4B1B781A46CB
:10285000FB681344FB6000BFFFF7DEFF0246BB6866
:10286000D31AFA689A42F7D800BF00BF1037BD46A6
:1028700080BD00BF0800002080B584B000AF786044
:102880000023FB737B68002B01D1012333E07B68BD
:102890001B6C002B09D17868FFF79EFB7B68002238
:1028A0005A647B68002283F83C207B681B6C03F031
:1028B0001003002B18D17B681B6C23F4885323F082
:1028C000020343F002027B681A64786800F06CFB34
:1028D0007B6800225A647B681B6C23F0030343F07F
:1028E00001027B681A6401E00123FB737B6800220C
:1028F00083F83C20FB7B18461037BD4680BD80B571
:1029000086B000AF786000237B6100233B617B6869
:102910001B681B68FB607B681B685B68BB60FB68AF
:1029200003F002037B61BB6803F020033B617B691A
:10293000002B49D03B69002B46D07B681B6C03F011
:102940001003002B05D17B681B6C43F400727B687D
:102950001A647B681B689B6803F04053002B2BD1E3
:102960007B681B7E002B27D17B681B68DB6A03F426
:102970007003002B06D07B681B689B6803F48063A0
:10298000002B19D17B681B685A687B681B6822F092
:1029900020025A607B681B6C23F480727B681A6487
:1029A0007B681B6C03F48053002B05D17B681B6C88
:1029B00043F001027B681A647868FEF781FE7B6849
:1029C0001B686FF012021A60FB6803F004037B615E
:1029D000BB6803F080033B617B69002B57D03B69E8
:1029E000002B54D07B681B6C03F01003002B05D127
:1029F0007B681B6C43F400527B681A647B681B681D
:102A00009B6803F44013002B39D17B681B689B6BD8
:102A100003F44013002B06D07B681B689B6803F40B
:102A20008063002B2BD17B681B685B6803F4806399
:102A3000002B24D17B681B689B6803F04053002B5C
:102A40001DD17B681B7E002B19D17B681B685A68DF
:102A50007B681B6822F080025A607B681B6C23F441
:102A600080527B681A647B681B6C03F48073002BB4
:102A700005D17B681B6C43F001027B681A6478689F
:102A800000F010FC7B681B686FF00C021A60FB689A
:102A900003F001037B61BB6803F040033B617B698A
:102AA000002B17D03B69002B14D07B681B681B6878
:102AB00003F00103012B0DD17B681B6C43F48032C2
:102AC0007B681A64786800F029F97B681B686FF0EE
:102AD00001021A60FB6803F020037B61BB6803F00E
:102AE00080633B617B69002B15D03B69002B12D0C2
:102AF0007B685B6C43F002027B685A647B681B68EE
:102B00006FF020021A60786800F012F97B681B6889
:102B10006FF020021A6000BF1837BD4680BD00006C
:102B200080B588B000AFF860B9607A6000237B613F
:102B30000023FB77FB6893F83C30012B01D1022383
:102B4000D0E0FB68012283F83C20FB681B689B688F
:102B500003F00103012B18D0FB681B689A68FB681F
:102B60001B6842F001029A60604B1B68604AA2FB3E
:102B700003239A0C13465B0013447B6102E07B69DC
:102B8000013B7B617B69002BF9D1FB681B689B686B
:102B900003F48073B3F5807F07D1FB681B689A68E4
:102BA000FB681B6822F480729A60FB681B689B6854
:102BB00003F00103012B40F08880FB681B6C23F4B9
:102BC000E06323F0010343F48072FB681A64FB683E
:102BD0001B685B6803F48063002B07D0FB681B6CE9
:102BE00023F4405343F48052FB681A64FB681B6C67
:102BF00003F48053B3F5805F06D1FB685B6C23F070
:102C00000602FB685A6402E0FB6800225A64FB6813
:102C1000002283F83C20374BBB61FB689B6B364A34
:102C2000DA63FB689B6B354A1A64FB689B6B344A1A
:102C3000DA64FB681B686FF022021A60FB681B688D
:102C40005A68FB681B6842F080625A60FB681B6828
:102C50009A68FB681B6842F480729A60FB68986B04
:102C6000FB681B684C331946BA687B6800F0E4FCCB
:102C70000346FB77BB695B6803F01F03002B0FD192
:102C8000FB681B689B6803F04053002B29D1FB684D
:102C90001B689A68FB681B6842F080429A6020E0DB
:102CA000FB681B68174A93421BD1FB681B689B6833
:102CB00003F04053002B14D1FB681B689A68FB6833
:102CC0001B6842F080429A600BE0FB681B6C43F08B
:102CD0001002FB681A64FB685B6C43F00102FB683E
:102CE0005A64FB7F18462037BD4680BD0000002097
:102CF00083DE1B4300230140A13100085B32000842
:102D0000773200080020014080B483B000AF7860C3
:102D100000BF0C37BD465DF8047B704780B483B0BC
:102D200000AF786000BF0C37BD465DF8047B70478C
:102D300080B483B000AF786000BF0C37BD465DF84B
:102D4000047B704780B485B000AF786039600023A1
:102D5000BB607B6893F83C30012B01D1022313E167
:102D60007B68012283F83C203B681B68092B25D92E
:102D70007B681B68D9683B681B689BB21A46134680
:102D80005B0013441E3B072202FA03F3DA437B681D
:102D90001B680A40DA607B681B68D9683B689A68E0
:102DA0003B681B689BB2184603465B0003441E3B0E
:102DB0009A407B681B680A43DA6022E07B681B68E4
:102DC00019693B681B689BB21A4613465B001344A3
:102DD000072202FA03F3DA437B681B680A401A6190
:102DE0007B681B6819693B689A683B681B689BB2E3
:102DF000184603465B0003449A407B681B680A43FD
:102E00001A613B685B68062B24D87B681B68596B8A
:102E10003B685A6813469B001344053B1F2202FA85
:102E200003F3DA437B681B680A405A637B681B68BC
:102E3000596B3B681B689BB218463B685A6813463F
:102E40009B001344053B00FA03F27B681B680A43AE
:102E50005A634CE03B685B680C2B24D87B681B688A
:102E6000196B3B685A6813469B001344233B1F228F
:102E700002FA03F3DA437B681B680A401A637B6833
:102E80001B68196B3B681B689BB218463B685A6805
:102E900013469B001344233B00FA03F27B681B6834
:102EA0000A431A6323E07B681B68D96A3B685A6847
:102EB00013469B001344413B1F2202FA03F3DA43FB
:102EC0007B681B680A40DA627B681B68D96A3B68CA
:102ED0001B689BB218463B685A6813469B00134414
:102EE000413B00FA03F27B681B680A43DA62294B14
:102EF000FB607B681B68284A93420FD13B681B68C4
:102F0000122B0BD1FB685B6823F40002FB685A604C
:102F1000FB685B6843F48002FB685A607B681B684F
:102F20001D4A93422BD13B681B681C4A934203D035
:102F30003B681B68112B22D1FB685B6823F480027D
:102F4000FB685A60FB685B6843F40002FB685A60E8
:102F50003B681B68114A934211D1114B1B68114AFF
:102F6000A2FB03239A0C13469B0013445B00BB6037
:102F700002E0BB68013BBB60BB68002BF9D17B68FA
:102F8000002283F83C20002318461437BD465DF824
:102F9000047B704700230140002001401200001014
:102FA0000000002083DE1B4380B485B000AF786052
:102FB000794BFB60FB685B6823F44032FB685A6026
:102FC000FB685A687B685B681A43FB685A607B68D9
:102FD0001B685A687B681B6822F480725A607B68A1
:102FE0001B6859687B681B691A027B681B680A4367
:102FF0005A607B681B685A687B681B6822F04072C5
:103000005A607B681B6859687B689A687B681B6894
:103010000A435A607B681B689A687B681B6822F4C5
:1030200000629A607B681B6899687B68DA687B68D5
:103030001B680A439A607B689B6A584A934222D075
:103040007B681B689A687B681B6822F070629A60D4
:103050007B681B6899687B689A6A7B681B680A436F
:103060009A607B681B689A687B681B6822F04052F4
:103070009A607B681B6899687B68DA6A7B681B6862
:103080000A439A600FE07B681B689A687B681B683C
:1030900022F070629A607B681B689A687B681B6884
:1030A00022F040529A607B681B689A687B681B68B4
:1030B00022F002029A607B681B6899687B681B7E1D
:1030C0005A007B681B680A439A607B6893F820303B
:1030D000002B1BD07B681B685A687B681B6842F416
:1030E00000625A607B681B685A687B681B6822F420
:1030F00060425A607B681B6859687B685B6A013B69
:103100005A037B681B680A435A6007E07B681B68A8
:103110005A687B681B6822F400625A607B681B68EF
:10312000DA6A7B681B6822F47002DA627B681B68CB
:10313000D96A7B68DB69013B1A057B681B680A4317
:10314000DA627B681B689A687B681B6822F40072ED
:103150009A607B681B6899687B6893F830305A02E4
:103160007B681B680A439A607B681B689A687B6867
:103170001B6822F480629A607B681B6899687B6890
:103180005B699A027B681B680A439A6000BF143728
:10319000BD465DF8047B7047002301400100000F2D
:1031A00080B584B000AF78607B689B6BFB60FB6888
:1031B0001B6C03F05003002B3CD1FB681B6C43F4E9
:1031C0000072FB681A64FB681B689B6803F040533D
:1031D000002B2BD1FB681B7E002B27D1FB681B68C3
:1031E000DB6A03F47003002B06D0FB681B689B6846
:1031F00003F48063002B19D1FB681B685A68FB68D5
:103200001B6822F020025A60FB681B6C23F480725A
:10321000FB681A64FB681B6C03F48053002B05D118
:10322000FB681B6C43F00102FB681A64F868FEF748
:1032300047FA0EE0FB681B6C03F01003002B03D071
:10324000F868FFF775FD04E0FB689B6BDB6C786842
:10325000984700BF1037BD4680BD80B584B000AF31
:1032600078607B689B6BFB60F868FFF74DFD00BFE3
:103270001037BD4680BD80B584B000AF78607B68F4
:103280009B6BFB60FB6840221A64FB685B6C43F03D
:103290000402FB685A64F868FFF74AFD00BF103764
:1032A000BD4680BD80B483B000AF786000BF0C37EE
:1032B000BD465DF8047B704780B485B000AF786090
:1032C0007B6803F00703FB600C4BDB68BB60BA68EC
:1032D0004FF6FF031340BB60FB681A02BB68134341
:1032E00043F0BF6343F40033BB60044ABB68D36060
:1032F00000BF1437BD465DF8047B704700ED00E069
:1033000080B400AF044BDB681B0A03F007031846C8
:10331000BD465DF8047B704700ED00E080B483B0EB
:1033200000AF0346FB7197F90730002B0BDBFB79ED
:1033300003F01F02074997F907305B09012000FAE3
:1033400002F241F8232000BF0C37BD465DF8047B34
:10335000704700BF00E100E080B483B000AF0346D7
:103360003960FB7197F90730002B0ADB3B68DAB252
:103370000C4997F907301201D2B20B4483F80023AD
:103380000AE03B68DAB20849FB7903F00F03043B1B
:103390001201D2B20B441A7600BF0C37BD465DF85D
:1033A000047B704700E100E000ED00E080B489B0EC
:1033B00000AFF860B9607A60FB6803F00703FB6157
:1033C000FB69C3F10703042B28BF0423BB61FB691E
:1033D0000433062B02D9FB69033B00E000237B6129
:1033E0004FF0FF32BB6902FA03F3DA43BB681A40BD
:1033F0007B699A404FF0FF317B6901FA03F3D943AF
:103400007B680B40134318462437BD465DF8047BA8
:103410007047000080B582B000AF78607B68013BE8
:10342000B3F1807F01D301230FE00A4A7B68013B9F
:1034300053600F214FF0FF30FFF78EFF054B002246
:103440009A60044B07221A60002318460837BD46CD
:1034500080BD00BF10E000E080B582B000AF7860B2
:103460007868FFF729FF00BF0837BD4680BD80B5EB
:1034700086B000AF0346B9607A60FB7300237B61BE
:10348000FFF73EFF78617A68B9687869FFF78EFFC9
:10349000024697F90F3011461846FFF75DFF00BF4F
:1034A0001837BD4680BD80B582B000AF0346FB71C2
:1034B00097F907301846FFF731FF00BF0837BD46C0
:1034C00080BD80B582B000AF78607868FFF7A2FF5A
:1034D000034618460837BD4680BD000080B586B05B
:1034E00000AF786000237B61FFF796F938617B6855
:1034F000002B01D1012399E07B68022283F835205B
:103500007B68002283F834207B681B681A687B681C
:103510001B6822F001021A600FE0FFF77DF90246F6
:103520003B69D31A052B08D97B6820225A657B6832
:10353000032283F83520032378E07B681B681B682F
:1035400003F00103002BE8D17B681B681B687B61DB
:103550007A69384B13407B617B685A687B689B684B
:103560001A437B68DB681A437B681B691A437B68D4
:103570005B691A437B689B691A437B68DB691A4362
:103580007B681B6A13437A6913437B617B685B6AC0
:10359000042B07D17B68DA6A7B681B6B13437A695B
:1035A00013437B617B681B687A691A607B681B68C0
:1035B0005B697B617B6923F007037B617B685B6AE6
:1035C0007A6913437B617B685B6A042B17D17B6844
:1035D0009B6A7A6913437B617B68DB6A002B0ED0A0
:1035E000786800F09FFA0346002B08D07B684022E1
:1035F0005A657B68012283F83520012316E07B6839
:103600001B687A695A61786800F056FA0346FB60D5
:103610007B68DB6D3F229A40FB689A607B680022E2
:103620005A657B68012283F8352000231846183735
:10363000BD4680BD3F8010F080B586B000AFF86019
:10364000B9607A603B600023FB75FB689B6D3B6152
:10365000FB6893F83430012B01D1022340E0FB6872
:10366000012283F83420FB6893F83530DBB2012B5C
:103670002FD1FB68022283F83520FB6800225A65AF
:103680003B687A68B968F86800F0E8F9FB68DB6DB8
:103690003F229A403B699A60FB681B681A68FB6886
:1036A0001B6842F016021A60FB681B6C002B07D0E7
:1036B000FB681B681A68FB681B6842F008021A6006
:1036C000FB681B681A68FB681B6842F001021A60FD
:1036D00005E0FB68002283F834200223FB75FB7DA4
:1036E00018461837BD4680BD80B483B000AF7860FF
:1036F0007B6893F83530DBB2022B04D07B688022E4
:103700005A6501230CE07B68052283F835207B682D
:103710001B681A687B681B6822F001021A6000238C
:1037200018460C37BD465DF8047B704780B586B0FF
:1037300000AF78600023BB608E4B1B688E4AA2FBF3
:1037400003239B0A7B617B689B6D3B613B691B6824
:10375000FB607B68DB6D08229A40FB681340002BFE
:103760001AD07B681B681B6803F00403002B13D07E
:103770007B681B681A687B681B6822F004021A6069
:103780007B68DB6D08229A403B699A607B685B6DC1
:1037900043F001027B685A657B68DB6D01229A4029
:1037A000FB681340002B12D07B681B685B6903F039
:1037B0008003002B0BD07B68DB6D01229A403B69B4
:1037C0009A607B685B6D43F002027B685A657B6898
:1037D000DB6D04229A40FB681340002B12D07B68FB
:1037E0001B681B6803F00203002B0BD07B68DB6DAA
:1037F00004229A403B699A607B685B6D43F0040247
:103800007B685A657B68DB6D10229A40FB68134029
:10381000002B43D07B681B681B6803F00803002B58
:103820003CD07B68DB6D10229A403B699A607B68D4
:103830001B681B6803F48023002B18D07B681B686F
:103840001B6803F40023002B08D17B681B6C002B42
:1038500024D07B681B6C786898471FE07B689B6C62
:10386000002B1BD07B689B6C7868984716E07B68C0
:103870001B681B6803F48073002B07D17B681B68EF
:103880001A687B681B6822F008021A607B681B6C50
:10389000002B03D07B681B6C786898477B68DB6DD6
:1038A00020229A40FB681340002B00F08F807B6839
:1038B0001B681B6803F01003002B00F087807B68F7
:1038C000DB6D20229A403B699A607B6893F8353023
:1038D000DBB2052B36D17B681B681A687B681B68D6
:1038E00022F016021A607B681B685A697B681B68A5
:1038F00022F080025A617B681B6C002B03D17B682D
:103900009B6C002B07D07B681B681A687B681B6860
:1039100022F008021A607B68DB6D3F229A403B6907
:103920009A607B68012283F835207B68002283F847
:1039300034207B681B6D002B7ED07B681B6D786804
:10394000984779E07B681B681B6803F48023002B91
:103950001DD07B681B681B6803F40023002B0DD16E
:103960007B685B6C002B31D07B685B6C7868984718
:103970002CE000BF00000020B5814E1B7B68DB6B94
:10398000002B23D07B68DB6B786898471EE07B6850
:103990001B681B6803F48073002B0FD17B681B68C6
:1039A0001A687B681B6822F010021A607B6801228B
:1039B00083F835207B68002283F834207B68DB6B3A
:1039C000002B03D07B68DB6B786898477B685B6D66
:1039D000002B32D07B685B6D03F00103002B22D0FB
:1039E0007B68052283F835207B681B681A687B6832
:1039F0001B6822F001021A60BB680133BB607A6960
:103A00009A4207D37B681B681B6803F00103002BF5
:103A1000F2D100E000BF7B68012283F835207B688B
:103A2000002283F834207B68DB6C002B05D07B6898
:103A3000DB6C7868984700E000BF1837BD4680BD52
:103A400080B483B000AF78607B6893F83530DBB228
:103A500018460C37BD465DF8047B704780B485B0CE
:103A600000AFF860B9607A603B60FB681B681A6859
:103A7000FB681B6822F480221A60FB681B683A68A6
:103A80005A60FB689B68402B08D1FB681B687A680A
:103A90009A60FB681B68BA68DA6007E0FB681B681D
:103AA000BA689A60FB681B687A68DA6000BF1437EE
:103AB000BD465DF8047B704780B485B000AF786088
:103AC0007B681B68DBB2103B144AA2FB03231B0973
:103AD000FB60134AFB6813441B781A467B68DA655F
:103AE000FB68032B09D97B681B6823F47F7323F0E1
:103AF00003031A1D7B689A6507E07B681B6823F443
:103B00007F7323F003037A6893657B689B6D184687
:103B10001437BD465DF8047B704700BFABAAAAAA64
:103B20008811010880B485B000AF78600023FB7372
:103B30007B689B6ABB607B689B69002B1FD1BB685D
:103B4000032B56D801A252F823F000BF5D3B0008BA
:103B50006F3B00085D3B0008F33B00087B68DB6AB5
:103B600003F08073002B46D00123FB7343E07B6896
:103B7000DB6AB3F1C07F40D10123FB733DE07B687A
:103B80009B69B3F5005F21D1BB68032B37D801A235
:103B900052F823F0A53B0008AB3B0008A53B00080A
:103BA000BD3B00080123FB7330E07B68DB6A03F058
:103BB0008073002B25D00123FB7322E07B68DB6A36
:103BC000B3F1C07F1FD10123FB731CE0BB68022B44
:103BD00003D9BB68032B03D018E00123FB7315E066
:103BE0007B68DB6A03F08073002B0ED00123FB732C
:103BF0000BE000BF0AE000BF08E000BF06E000BF26
:103C000004E000BF02E000BF00E000BFFB7B1846FD
:103C10001437BD465DF8047B704700BF80B489B09F
:103C200000AF7860396000237B6100233B61002393
:103C3000BB610023FB6159E10122FB6902FA03F336
:103C40007B613B681B687A6913403B613A697B6919
:103C50009A4240F048813B685B6803F00303012B04
:103C600005D03B685B6803F00303022B30D17B680F
:103C70009B68BB61FB695B00032202FA03F3DB4331
:103C8000BA691340BB613B68DA68FB695B0002FA02
:103C900003F3BA691343BB617B68BA699A607B68B6
:103CA0005B68BB610122FB6902FA03F3DB43BA697B
:103CB0001340BB613B685B681B0903F00102FB69B1
:103CC00002FA03F3BA691343BB617B68BA695A60AD
:103CD0003B685B6803F00303032B17D07B68DB684A
:103CE000BB61FB695B00032202FA03F3DB43BA69A1
:103CF0001340BB613B689A68FB695B0002FA03F3FF
:103D0000BA691343BB617B68BA69DA603B685B6878
:103D100003F00303022B23D1FB69DA087B68083226
:103D200053F82230BB61FB6903F007039B000F22AD
:103D300002FA03F3DB43BA691340BB613B681A69BB
:103D4000FB6903F007039B0002FA03F3BA6913430C
:103D5000BB61FB69DA087B680832B96943F8221055
:103D60007B681B68BB61FB695B00032202FA03F3FB
:103D7000DB43BA691340BB613B685B6803F0030235
:103D8000FB695B0002FA03F3BA691343BB617B680A
:103D9000BA691A603B685B6803F44033002B00F09B
:103DA000A2800023FB60574B5B6C564A43F4804370
:103DB0005364544B5B6C03F48043FB60FB68524AD2
:103DC000FB699B08023352F82330BB61FB6903F0A7
:103DD00003039B000F2202FA03F3DB43BA6913408B
:103DE000BB617B68494A934219D07B68484A934239
:103DF00013D07B68474A93420DD07B68464A934272
:103E000007D07B68454A934201D1042308E0072389
:103E100006E0032304E0022302E0012300E0002384
:103E2000FA6902F0030292009340BA691343BB613E
:103E30003549FB699B080233BA6941F82320384BA6
:103E40009B68BB613B69DB43BA691340BB613B685C
:103E50005B6803F48013002B03D0BA693B691343FA
:103E6000BB612F4ABB6993602D4BDB68BB613B692B
:103E7000DB43BA691340BB613B685B6803F4001322
:103E8000002B03D0BA693B691343BB61244ABB6969
:103E9000D360234B5B68BB613B69DB43BA6913406A
:103EA000BB613B685B6803F40033002B03D0BA6945
:103EB0003B691343BB611A4ABB695360184B1B68CB
:103EC000BB613B69DB43BA691340BB613B685B681C
:103ED00003F48033002B03D0BA693B691343BB6101
:103EE0000F4ABB691360FB690133FB61FB690F2B50
:103EF0007FF6A2AE00BF00BF2437BD465DF8047B4D
:103F0000704700BF00380240003801400000024006
:103F10000004024000080240000C02400010024071
:103F2000003C014080B483B000AF78600B467B80DA
:103F300013467B707B78002B03D07A887B689A616C
:103F400003E07B881A047B689A6100BF0C37BD468A
:103F50005DF8047B704780B485B000AF78600B4695
:103F60007B807B685B69FB607A88FB6813401A047E
:103F7000FB68D9437B880B401A437B689A6100BF7A
:103F80001437BD465DF8047B7047000080B584B0EF
:103F900000AF78607B68002B01D101232BE17B68A7
:103FA00093F83D30DBB2002B06D17B68002283F80A
:103FB0003C207868FEF7AAF87B68242283F83D202D
:103FC0007B681B681A687B681B6822F001021A6014
:103FD0007B681B681A687B681B6842F400421A60A1
:103FE0007B681B681A687B681B6822F400421A60B1
:103FF00003F0A0FCF8607B685B68814A934207D8B5
:10400000FB68804A934294BF01230023DBB206E0A1
:10401000FB687D4A934294BF01230023DBB2002B4F
:1040200001D00123E7E0FB68784AA2FB03239B0C45
:10403000BB607B681B685B6823F03F017B681B6883
:10404000BA680A435A607B681B681B6A23F03F0109
:104050007B685B686A4A934202D8BB68013309E017
:10406000BB684FF4967202FB03F3694AA2FB032379
:104070009B0901337A6812680B4313627B681B68E3
:10408000DB6923F44F4222F0FF027B685B685C49E6
:104090008B4219D8FB68591E7B685B685B00B1FBDB
:1040A000F3F3591C40F6FC730B40002B0AD0FB685D
:1040B000591E7B685B685B00B1FBF3F30133C3F30C
:1040C0000B0351E004234FE07B689B68002B11D168
:1040D000FB68581E7B6859680B465B000B44B0FBBD
:1040E000F3F30133C3F30B03002B0CBF01230023B5
:1040F000DBB212E0FB68581E7B6859680B469B00D8
:104100000B4499000B44B0FBF3F30133C3F30B03EF
:10411000002B0CBF01230023DBB2002B01D00123B5
:1041200022E07B689B68002B0ED1FB68581E7B68E1
:1041300059680B465B000B44B0FBF3F30133C3F348
:104140000B0343F400430FE0FB68581E7B6859687B
:104150000B469B000B4499000B44B0FBF3F3013377
:10416000C3F30B0343F44043796809681343CB61FD
:104170007B681B681B6823F0C0017B68DA697B6879
:104180001B6A1A437B681B680A431A607B681B68BA
:104190009B6823F4034323F0FF037A6811697A686C
:1041A000D26811437A6812680B4393607B681B687E
:1041B000DB6823F0FF017B685A697B689B691A43BF
:1041C0007B681B680A43DA607B681B681A687B6837
:1041D0001B6842F001021A607B6800221A647B6847
:1041E000202283F83D207B6800221A637B6800222E
:1041F00083F83E20002318461037BD4680BD00BF1F
:10420000A08601007F841E00FF083D0083DE1B4363
:10421000D34D621080B483B000AF78607B681B68B8
:104220005B6903F08003802B03D17B681B6800224D
:104230001A6100BF0C37BD465DF8047B704780B53E
:1042400088B000AF78600023BB617B681B685B6847
:104250007B617B68DB6A3B617B6893F83E30FB7374
:104260007B6893F83D30BB73FB7B102B03D0FB7B4B
:10427000402B40F0C1807B681B689B69BB617B68F9
:104280001B685B69FB61FB6903F00103002B0DD127
:104290003B69B3F52A0F03D03B69B3F12A4F01D133
:1042A000012300E00023012B00F03281FB6903F0C1
:1042B0000103002B0CD07B695B0A03F00103002B88
:1042C00006D0786801F098FC786800F09BFD92E0D9
:1042D000FB69DB0803F00103002B09D07B695B0A53
:1042E00003F00103002B03D0786800F011FE82E098
:1042F000FB695B0803F00103002B09D07B695B0AB3
:1043000003F00103002B03D0786800F02BFE72E06D
:10431000BB699B0803F00103002B3BD07B681B6843
:104320005B6803F40063B3F5006F00F0F380FB6992
:10433000DB0903F00103002B0FD07B699B0A03F01C
:104340000103002B09D0FB699B0803F00103002B3C
:1043500003D1786800F0F3F94DE0FB699B0803F0A6
:104360000103002B00F0D6807B695B0A03F0010398
:10437000002B00F0CF80BB7B212B03D1786800F0AD
:104380007AFAC7E0FB7B402B40F0C480786800F0ED
:10439000E8FABFE07B681B685B6803F40063B3F571
:1043A000006F00F0B780FB699B0903F00103002B4D
:1043B0000FD07B699B0A03F00103002B09D0FB6936
:1043C0009B0803F00103002B03D1786800F061FB28
:1043D00011E0FB699B0803F00103002B00F09A80B9
:1043E0007B695B0A03F00103002B00F0938078687F
:1043F00000F017FC8EE08DE07B681B6C002B04D076
:104400007B681B685B69FB6107E07B681B689B69D5
:10441000BB617B681B685B69FB61FB695B0803F040
:104420000103002B12D07B695B0A03F00103002B10
:104430000CD07B681B6C002B03D07B681B689B69CE
:10444000BB61B969786800F0DCFF66E0FB691B09B5
:1044500003F00103002B09D07B695B0A03F0010321
:10446000002B03D0786801F017F856E0BB7B212BB6
:1044700002D0BB7B292B25D1FB69DB0903F00103AB
:10448000002B0FD07B699B0A03F00103002B09D09E
:10449000FB699B0803F00103002B03D1786800F04F
:1044A000F2FE39E0FB699B0803F00103002B33D0D7
:1044B0007B695B0A03F00103002B2DD0786800F0C4
:1044C0001FFF29E0FB699B0903F00103002B0FD0BC
:1044D0007B699B0A03F00103002B09D0FB699B0851
:1044E00003F00103002B03D1786800F02AFF14E0E9
:1044F000FB699B0803F00103002B0ED07B695B0A6C
:1045000003F00103002B08D0786800F058FF04E0A6
:1045100000BF02E000BF00E000BF2037BD4680BD05
:1045200080B58AB000AF78607B681B685B693B62CE
:104530007B681B685B68FB6100237B627B6893F888
:104540003E30FB763B6A1B0A03F00103002B0ED0C2
:10455000FB691B0A03F00103002B08D07B6A43F0C0
:1045600001037B627B681B686FF480725A613B6A4F
:104570005B0A03F00103002B0ED0FB691B0A03F05A
:104580000103002B08D07B6A43F002037B627B6847
:104590001B686FF400725A613B6A9B0A03F00103C7
:1045A000002B3FD0FB691B0A03F00103002B39D01D
:1045B000FB7EBB767B685B8D9BB27B617B6893F8EF
:1045C0003D30FB747B681B6BFB60BB7E202B12D1E4
:1045D0007B69002B0FD1FB7C212B08D0FB7C292B86
:1045E00005D0FB7C282B06D1FB68212B03D17868F2
:1045F00001F082F816E07B681B686FF480625A61F4
:104600007B6A43F004037B62FB7E102B02D0FB7EAF
:10461000402B07D17B681B681A687B681B6842F4D3
:1046200000721A603B6ADB0A03F00103002B0ED014
:10463000FB691B0A03F00103002B08D07B6A43F0DF
:1046400008037B627B681B686FF400625A617B6AB7
:10465000002B08D07B681A6C7B6A1A437B681A644B
:10466000786801F0BDF800BF2837BD4680BD80B432
:1046700083B000AF786000BF0C37BD465DF8047BA7
:10468000704780B483B000AF786000BF0C37BD4680
:104690005DF8047B704780B483B000AF786000BFE2
:1046A0000C37BD465DF8047B704780B483B000AF23
:1046B000786000BF0C37BD465DF8047B704780B45E
:1046C00083B000AF78600B46FB7013463B8000BFA1
:1046D0000C37BD465DF8047B704780B483B000AFF3
:1046E000786000BF0C37BD465DF8047B704780B42E
:1046F00083B000AF786000BF0C37BD465DF8047B27
:10470000704780B483B000AF786000BF0C37BD46FF
:104710005DF8047B704780B483B000AF786000BF61
:104720000C37BD465DF8047B704780B483B000AFA2
:10473000786000BF0C37BD465DF8047B704780B5DC
:1047400084B000AF78607B6893F83D30FB737B6882
:1047500093F83E30BB737B68DB6ABB607B681B8D64
:10476000002B50D1FB7B212B4DD1BB68082B1DD0DA
:10477000BB68202B1AD0BB6813F5803F16D07B682E
:104780001B685A687B681B6822F4E0625A607B6889
:1047900011221A637B68002283F83E207B68202266
:1047A00083F83D207868FFF762FF60E07B681B6854
:1047B0005A687B681B6822F4E0625A607B681B6859
:1047C0001A687B681B6842F400721A607B680022DA
:1047D0001A637B68202283F83D207B6893F83E3083
:1047E000DBB2402B07D17B68002283F83E2078683B
:1047F000FFF77DFF3BE07B68002283F83E2078686E
:10480000FFF735FF33E0FB7B212B05D0BB7B402B33
:104810002DD1FB7B222B2AD17B685B8D9BB2002B99
:1048200008D17B681B685A687B681B6822F4806229
:104830005A601CE07B6893F83E30DBB2402B03D11A
:10484000786800F08EF812E07B685B6A1A787B6803
:104850001B681A617B685B6A5A1C7B685A627B68BA
:104860005B8D9BB2013B9AB27B685A85FFE700BF24
:104870001037BD4680BD80B584B000AF78607B68DE
:10488000DB6AFB607B6893F83D30DBB2212B64D19F
:104890007B685B8D9BB2002B12D07B685B6A1A78B9
:1048A0007B681B681A617B685B6A5A1C7B685A626A
:1048B0007B685B8D9BB2013B9AB27B685A854CE06A
:1048C000FB68082B1DD0FB68202B1AD0FB6813F562
:1048D000803F16D07B681B685A687B681B6822F48F
:1048E000E0625A607B6811221A637B68002283F8B9
:1048F0003E207B68202283F83D207868FFF7B7FED2
:104900002BE07B681B685A687B681B6822F4E062B6
:104910005A607B681B681A687B681B6842F40072E7
:104920001A607B6800221A637B68202283F83D208E
:104930007B6893F83E30DBB2402B07D17B680022C6
:1049400083F83E207868FFF7D2FE06E07B680022FD
:1049500083F83E207868FFF78AFE00BF1037BD4617
:1049600080BD80B584B000AF78607B6893F83D303F
:10497000FB737B681B6D002B1DD17B68DB6C012BEF
:104980000BD17B689B6CDAB27B681B681A617B6811
:104990001B6D9A1C7B681A6577E07B689B6C9BB2E9
:1049A0001B12DAB27B681B681A617B681B6D5A1C8C
:1049B0007B681A6569E07B681B6D012B0BD17B68F6
:1049C0009B6CDAB27B681B681A617B681B6D5A1C92
:1049D0007B681A6559E07B681B6D022B52D1FB7B0B
:1049E000222B0DD17B681B681A687B681B6842F418
:1049F00080721A607B681B6D5A1C7B681A6544E0E4
:104A00007B685B8D9BB2002B15D0FB7B212B12D1D9
:104A10007B685B6A1A787B681B681A617B685B6AD3
:104A20005A1C7B685A627B685B8D9BB2013B9AB2D1
:104A30007B685A8529E07B685B8D9BB2002B24D173
:104A4000FB7B212B21D17B681B685A687B681B6824
:104A500022F4E0625A607B681B681A687B681B68F6
:104A600042F400721A607B6800221A637B6820227D
:104A700083F83D207B68002283F83E207868FFF7AA
:104A800036FE02E07868FFF7C5FB00BF1037BD4671
:104A900080BD80B584B000AF78607B6893F83D300E
:104AA000DBB2222B40F0B9807B68DB6AFB607B685D
:104AB0005B8D9BB2BB60BB68032B21D97B681B68F5
:104AC0001A697B685B6AD2B21A707B685B6A5A1C8F
:104AD0007B685A627B685B8D9BB2013B9AB27B68B4
:104AE0005A857B685B8D9BB2032B40F096807B6878
:104AF0001B685A687B681B6822F480625A608CE0ED
:104B00007B68DB6A022B7FD0BB68012B02D0BB68BD
:104B1000002B79D1786801F03DF80346002B4CD189
:104B20007B681B681A687B681B6822F480621A60C5
:104B30007B681B685A687B681B6822F4E0625A60D5
:104B40007B681B681A697B685B6AD2B21A707B68E3
:104B50005B6A5A1C7B685A627B685B8D9BB2013B27
:104B60009AB27B685A857B68202283F83D207B6857
:104B700093F83E30DBB2402B0AD17B68002283F8E9
:104B80003E207B6800221A637868FFF7BAFD44E094
:104B90007B68002283F83E20FB68082B02D0FB686C
:104BA000202B03D17B6800221A6302E07B6812226B
:104BB0001A637868FFF765FD2FE07B681B685A6809
:104BC0007B681B6822F4E0625A607B681B681A6984
:104BD0007B685B6AD2B21A707B685B6A5A1C7B681E
:104BE0005A627B685B8D9BB2013B9AB27B685A85A7
:104BF0007B68202283F83D207B68002283F83E20DA
:104C00007868FFF788FD08E07B681B685A687B6856
:104C10001B6822F480625A60FFE700BF1037BD4670
:104C200080BD80B584B000AF78607B68DB6AFB60D4
:104C30007B685B8D9BB2042B1BD17B681B685A6819
:104C40007B681B6822F480625A607B681B681A6963
:104C50007B685B6AD2B21A707B685B6A5A1C7B689D
:104C60005A627B685B8D9BB2013B9AB27B685A8526
:104C7000C4E07B685B8D9BB2032B29D17B681B68EA
:104C80005A687B681B6822F480625A60FB68042BB8
:104C90000AD0FB68022B07D07B681B681A687B6808
:104CA0001B6822F480621A607B681B681A697B6843
:104CB0005B6AD2B21A707B685B6A5A1C7B685A6264
:104CC0007B685B8D9BB2013B9AB27B685A8595E00D
:104CD0007B685B8D9BB2022B7DD1FB68012B02D0E0
:104CE000FB68102B08D17B681B681A687B681B68FF
:104CF00022F480621A6016E0FB68042B02D0FB6885
:104D0000022B08D17B681B681A687B681B6842F419
:104D100080621A6007E07B681B681A687B681B6802
:104D200042F400721A607B681B681A697B685B6AD0
:104D3000D2B21A707B685B6A5A1C7B685A627B68C5
:104D40005B8D9BB2013B9AB27B685A857B681B687E
:104D50001A697B685B6AD2B21A707B685B6A5A1CFC
:104D60007B685A627B685B8D9BB2013B9AB27B6821
:104D70005A857B681B685A687B681B6822F44072FE
:104D80005A607B68202283F83D207B6893F83E3090
:104D9000DBB2402B0AD17B68002283F83E207B687F
:104DA00000221A637868FFF7ACFC27E07B680022DA
:104DB00083F83E20FB68082B02D0FB68202B03D130
:104DC0007B6800221A6302E07B6812221A6378680B
:104DD000FFF757FC12E07B681B681A697B685B6A07
:104DE000D2B21A707B685B6A5A1C7B685A627B6815
:104DF0005B8D9BB2013B9AB27B685A8500BF10372E
:104E0000BD4680BD80B483B000AF78607B6893F806
:104E10003E30DBB2402B17D17B681B6D002B09D1D4
:104E20007B685B6CDBB21A467B681B6802F0FE0293
:104E30001A6167E07B685B6CDBB243F00103DAB2B6
:104E40007B681B681A615DE07B681B69B3F5804F66
:104E500033D17B6893F83D30DBB2212B09D17B68DD
:104E60005B6CDBB21A467B681B6802F0FE021A61BB
:104E700008E07B685B6CDBB243F00103DAB27B686D
:104E80001B681A617B685B6B002B04D07B685B6BD3
:104E9000DB6B002B08D17B689B6B002B32D07B68CF
:104EA0009B6BDB6B002B2DD07B681B685A687B6883
:104EB0001B6842F400625A6024E07B681B6D002B83
:104EC0000ED17B685B6C9BB2DB11DBB203F0060397
:104ED000DBB263F00F03DAB27B681B681A6111E082
:104EE0007B681B6D012B0DD17B685B6C9BB2DB116A
:104EF000DBB203F00603DBB263F00E03DAB27B68C9
:104F00001B681A6100BF0C37BD465DF8047B704713
:104F100080B483B000AF78607B685B6CDAB27B688A
:104F20001B681A617B685B6B002B04D07B685B6B32
:104F3000DB6B002B08D17B689B6B002B0CD07B6854
:104F40009B6BDB6B002B07D07B681B685A687B6808
:104F50001B6842F400625A6000BF0C37BD465DF822
:104F6000047B704780B491B000AF78607B6893F8A1
:104F70003E3087F83F307B68DB6ABB637B681B6B26
:104F80007B637B6893F83D30DBB2222B40F0698174
:104F90007B681B6D002B0FD197F83F30402B0BD156
:104FA00000233B637B681B685B693B637B681B6812
:104FB0009B693B633B6B60E17B681B6D002B1DD1E4
:104FC0007B681B69B3F5404F18D10023FB627B68F7
:104FD0001B685B69FB627B681B689B69FB62FB6A01
:104FE0007B681B681A687B681B6842F480721A60D1
:104FF0007B681B6D5A1C7B681A653EE17B685B8D84
:105000009BB2002B13D10023BB627B681B685B69DA
:10501000BB627B681B689B69BB62BB6A7B681B6861
:105020001A687B681B6842F400721A6015E17B689D
:105030005B8D9BB2012B40F08A80BB6B13F5803FE8
:1050400037D17B681B681A687B681B6822F4806212
:105050001A607B681B685B6803F40063B3F5006F3C
:1050600013D17B681B681A687B681B6822F4806216
:105070001A6000237B627B681B685B697B627B68CC
:105080001B689B697B627B6AE7E000233B627B686D
:105090001B685B693B627B681B689B693B623B6A80
:1050A0007B681B681A687B681B6842F400721A6090
:1050B000D3E0BB6B082B2ED0BB6B202B2BD07B6B94
:1050C000122B02D1BB6B012B25D1BB6B042B0ED055
:1050D000BB6B022B0BD0BB6B102B08D07B681B6803
:1050E0001A687B681B6822F480621A6007E07B689C
:1050F0001B681A687B681B6842F480621A60002390
:10510000FB617B681B685B69FB617B681B689B6953
:10511000FB61FB69A1E07B681B681A687B681B6800
:1051200022F480621A600023BB617B681B685B69A4
:10513000BB617B681B689B69BB61BB697B681B6843
:105140001A687B681B6842F400721A6085E07B680D
:105150005B8D9BB2022B4DD1BB6B042B16D0BB6B6E
:10516000022B13D0BB6B102B10D07B681B681A6806
:105170007B681B6822F480621A607B681B681A686F
:105180007B681B6842F400621A6007E07B681B685A
:105190001A687B681B6842F480621A607B681B682F
:1051A0005B6803F40063B3F5006F17D1BB6B13F5B5
:1051B000803F0BD0BB6B012B08D0BB6B082B05D0FD
:1051C000BB6B102B02D0BB6B202B07D17B681B68FD
:1051D0005A687B681B6842F480525A6000237B61E6
:1051E0007B681B685B697B617B681B689B697B6173
:1051F0007B6932E07B681B681A687B681B6842F435
:1052000080621A607B681B685B6803F40063B3F517
:10521000006F17D1BB6B13F5803F0BD0BB6B012B1D
:1052200008D0BB6B082B05D0BB6B102B02D0BB6B1F
:10523000202B07D17B681B685A687B681B6842F487
:1052400080525A6000233B617B681B685B693B614D
:105250007B681B689B693B613B697B6800221A6520
:105260000BE00023FB607B681B685B69FB607B686D
:105270001B689B69FB60FB68FFE700BF4437BD46C6
:105280005DF8047B704780B584B000AF78607B68C0
:1052900093F83D30FB737B685B8D9BB2002B2BD06A
:1052A0007B685B6A1A787B681B681A617B685B6A3B
:1052B0005A1C7B685A627B685B8D9BB2013B9AB239
:1052C0007B685A857B685B8D9BB2002B14D1FB7B7E
:1052D000292B11D17B681B685A687B681B6822F4F4
:1052E00080625A607B6821221A637B68282283F8D7
:1052F0003D207868FFF7CFF900BF1037BD4680BD6D
:1053000080B483B000AF78607B685B8D9BB2002B6C
:1053100011D07B685B6A1A787B681B681A617B68AE
:105320005B6A5A1C7B685A627B685B8D9BB2013B4F
:105330009AB27B685A8500BF0C37BD465DF8047B86
:10534000704780B584B000AF78607B6893F83D30DB
:10535000FB737B685B8D9BB2002B2CD07B681B683A
:105360001A697B685B6AD2B21A707B685B6A5A1CE6
:105370007B685A627B685B8D9BB2013B9AB27B680B
:105380005A857B685B8D9BB2002B14D1FB7B2A2B4B
:1053900011D17B681B685A687B681B6822F48062A5
:1053A0005A607B6822221A637B68282283F83D209A
:1053B0007868FFF77AF900BF1037BD4680BD80B42A
:1053C00083B000AF78607B685B8D9BB2002B12D0FE
:1053D0007B681B681A697B685B6AD2B21A707B684B
:1053E0005B6A5A1C7B685A627B685B8D9BB2013B8F
:1053F0009AB27B685A8500BF0C37BD465DF8047BC6
:10540000704780B584B000AF786039600023FB73CB
:105410007B6893F83D30DBB203F02803282B27D1BB
:105420007B681B685A687B681B6822F480625A603C
:105430003B689B0803F00103002B01D10123FB73A0
:105440003B68DB0903F00103002B03D17B68DB68B9
:10545000BB8102E07B689B69BB817B68002283F88B
:105460003C20BA89FB7B19467868FFF728F90EE0E3
:105470000023BB607B681B685B69BB607B681B6843
:105480009B69BB60BB687B68002283F83C2000BF3F
:105490001037BD4680BD000080B584B000AF786095
:1054A0007B6893F83D30FB737B681B685A687B68A8
:1054B0001B6822F4E0625A600023BB607B681B68B3
:1054C0005B69BB607B681B681A687B681B6842F07D
:1054D00001021A60BB687B681B681A687B681B68DE
:1054E00022F480621A607B681B685B6803F40063C7
:1054F000B3F5006F72D1FB7B222B02D0FB7B2A2BF2
:1055000035D17B689B6B1B685B689AB27B685A8558
:105510007B685B8D9BB2002B05D07B681B6C43F0D6
:1055200004027B681A647B681B685A687B681B6886
:1055300022F400625A607B689B6B1846FEF780FA83
:105540000346012B49D07B689B6B694A1A657B68CF
:105550009B6B1846FEF7C8F80346002B3DD07B68CE
:105560009B6B1B6D7A68926B1046984735E07B68A1
:105570005B6B1B685B689AB27B685A857B685B8D46
:105580009BB2002B05D07B681B6C43F004027B6848
:105590001A647B681B685A687B681B6822F4006287
:1055A0005A607B685B6B1846FEF74AFA0346012B8C
:1055B00014D07B685B6B4E4A1A657B685B6B184640
:1055C000FEF792F80346002B08D07B685B6B1B6DDF
:1055D0007A68526B1046984700E000BF7B685B8D8D
:1055E0009BB2002B3ED07B681B685B6903F0040311
:1055F000042B12D17B681B681A697B685B6AD2B284
:105600001A707B685B6A5A1C7B685A627B685B8D88
:105610009BB2013B9AB27B685A857B681B685B69C9
:1056200003F04003402B12D17B681B681A697B682A
:105630005B6AD2B21A707B685B6A5A1C7B685A62DA
:105640007B685B8D9BB2013B9AB27B685A857B6815
:105650005B8D9BB2002B05D07B681B6C43F0040272
:105660007B681A647B681B6C002B03D0786800F0A1
:10567000B7F839E0FB7B2A2B09D17B6800221A633B
:105680007B68282283F83D207868FFF70EF87B6856
:1056900093F83D30DBB2282B11D17B68154ADA62D2
:1056A0007B6800221A637B68202283F83D207B6898
:1056B000002283F83E207868FFF70FF814E07B683B
:1056C0001B6B222B02D0FB7B222B0DD17B6800228F
:1056D0001A637B68202283F83D207B68002283F8D0
:1056E0003E207868FEF7E1FF00BF1037BD4680BD61
:1056F000455A00080000FFFF80B584B000AF786015
:105700007B6893F83D30FB737B68DB6ABB60BB68EA
:10571000082B02D0BB68202B29D1FB7B282B26D15C
:105720007B682E4ADA627B681B685A687B681B6854
:1057300022F4E0625A607B681B686FF480625A61F1
:105740007B681B681A687B681B6822F480621A6099
:105750007B6800221A637B68202283F83D207B68E7
:10576000002283F83E207868FEF7B7FF31E0FB7B2C
:10577000212B29D17B68194ADA627B6821221A63BE
:105780007B68202283F83D207B68002283F83E203E
:105790007B681B685A687B681B6822F4E0625A6069
:1057A0007B681B686FF480625A617B681B681A68AB
:1057B0007B681B6822F480621A607868FEF72AFD15
:1057C0007868FEF768FF04E07B681B686FF480620E
:1057D0005A6100BF1037BD4680BD00BF0000FFFF0B
:1057E00080B584B000AF78607B6893F83D30FB7380
:1057F0007B6893F83E30BB73BB7B102B02D0BB7B26
:10580000402B0AD1FB7B222B07D17B681B681A68CF
:105810007B681B6822F400621A60FB7B03F028039C
:10582000282B07D17B6800221A637B68282283F823
:105830003D2015E07B681B685B6803F40063B3F5EB
:10584000006F0AD0FB7B602B07D07B68202283F897
:105850003D207B68002283F83E207B6800221A638B
:105860007B681B685B6803F40063B3F5006F62D16B
:105870007B681B685A687B681B6822F400625A6068
:105880007B685B6B93F83530DBB2012B20D07B68F3
:105890005B6B6A4A1A657B685B6B1846FDF724FFF1
:1058A0000346002B00F089807B681B681A687B68C0
:1058B0001B6822F001021A607B68202283F83D20D9
:1058C0007B685B6B1B6D7A68526B1046984774E07F
:1058D0007B689B6B594A1A657B689B6B1846FDF782
:1058E00003FF0346002B68D07B681B685B6903F0ED
:1058F0004003402B0BD17B681B681A697B685B6A8D
:10590000D2B21A707B685B6A5A1C7B685A627B68E9
:105910001B681A687B681B6822F001021A607B68AA
:10592000202283F83D207B689B6B1B6D7A68926B0D
:105930001046984741E07B6893F83D30DBB2602B1E
:1059400025D17B68202283F83D207B6800221A64E1
:105950007B681B685B6903F04003402B0BD17B68BD
:105960001B681A697B685B6AD2B21A707B685B6AD3
:105970005A1C7B685A627B681B681A687B681B68C4
:1059800022F001021A607868FEF7CFFE15E07B680E
:105990001B685B6903F04003402B0BD17B681B68DD
:1059A0001A697B685B6AD2B21A707B685B6A5A1CA0
:1059B0007B685A627868FEF7AEFE7B681B6CBB6042
:1059C000BB6803F00103002B0ED1BB6803F0020398
:1059D000002B09D1BB6803F00403002B04D1BB6882
:1059E00003F00803002B07D07B681B685A687B68AC
:1059F0001B6822F4E0625A607B6893F83D30FB73C9
:105A00007B681B6C03F00403042B13D1FB7B282B56
:105A100010D17B680A4ADA627B6800221A637B68CD
:105A2000202283F83D207B68002283F83E2078689E
:105A3000FEF753FE00BF1037BD4680BD455A000833
:105A40000000FFFF80B586B000AF78600023FB60E8
:105A50007B689B6B7B617B6993F83D30FB744B4BA0
:105A60001B68DB084A4AA2FB03231A0A13469B0061
:105A70001344DA00D31AFB60FB68002B06D17B6964
:105A80001B6C43F020027B691A640AE0FB68013B4F
:105A9000FB607B691B681B6803F40073B3F5007F30
:105AA000EAD07B695B6B002B03D07B695B6B0022C8
:105AB000DA637B699B6B002B03D07B699B6B0022B5
:105AC000DA637B691B681A687B691B6822F4806251
:105AD0001A607B6900225A857B695B6B002B03D0BF
