:020000040800F2
:1000000000000220851900081D18000825180008A6
:100010002D180008351800083D18000800000000E1
:10002000000000000000000000000000451800086B
:100030005318000800000000611800086F1800083D
:10004000D5190008D5190008D5190008D5190008D8
:10005000D5190008D5190008D5190008D5190008C8
:10006000D5190008D5190008D51900087D18000811
:1000700091180008D5190008D5190008D5190008ED
:10008000D5190008D5190008A518000800000000BF
:10009000000000000000000000000000D51900086A
:1000A000D5190008D5190008B9180008D519000895
:1000B000D5190008CD180008D5190008D519000871
:1000C000D5190008D5190008D5190008D519000858
:1000D000D5190008D5190008D5190008000000003E
:1000E000D5190008D5190008D5190008000000002E
:1000F000000000000000000000000000D51900080A
:1001000000000000D5190008D5190008D51900080D
:1001100000000000000000000000000000000000DF
:10012000D5190008D5190008D5190008D5190008F7
:10013000D5190008000000000000000000000000C9
:10014000000000000000000000000000E1180008AE
:10015000D5190008D5190008D5190008D5190008C7
:10016000D5190008D51900080000000000000000A3
:10017000000000000000000000000000000000007F
:1001800000000000D5190008000000000000000079
:08019000D5190008D51900087B
:1001A00010B5054C237833B9044B13B10448AFF3B1
:1001B00000800123237010BD5801002000000000C2
:1001C00018B6000808B5034B1BB103490348AFF349
:1001D000008008BD000000005C01002018B6000887
:1001E00001F0FF01102A2BDB10F0070F08D010F8E8
:1001F000013B013A8B422DD010F0070F42B3F6D1EC
:10020000F0B441EA012141EA014122F007047FF004
:1002100000070023F0E80256083C85EA010586EA5B
:10022000010685FA47F5A3FA87F586FA47F6A5FA97
:1002300087F68EB9EED1F0BC01F0FF0102F00702A3
:1002400032B110F8013B013A83EA010313B1F8D14E
:100250000020704701387047002D06BF354603382F
:10026000073815F0010F07D1013015F4807F02BF68
:10027000013015F4C03F0130F0BC0138704700BFB9
:1002800053B94AB9002908BF00281CBF4FF0FF31FD
:100290004FF0FF3000F088B9ADF1080C6DE904CEE5
:1002A00000F006F8DDF804E0DDE9022304B0704751
:1002B0002DE9F047089D8E4604468846002B4AD11A
:1002C0008A42174662D9B2FA82F64EB1C6F12003CD
:1002D00001FA06F820FA03F3B74043EA0808B440ED
:1002E0004FEA174E1FFA87FCB8FBFEF1230C0EFBFA
:1002F000118843EA084301FB0CF29A4209D9FB1822
:1003000001F1FF3080F0EA809A4240F2E780023942
:100310003B449A1AA3B2B2FBFEF00EFB102243EA52
:10032000024300FB0CFC9C4509D9FB1800F1FF328D
:1003300080F0D6809C4540F2D3803B44023840EAAE
:100340000140A3EB0C0300211DB1F3400022C5E9DD
:100350000032BDE8F0878B4205D90DB1C5E9000137
:1003600000210846F5E7B3FA83F1002946D1734529
:1003700002D3824200F20581841A6EEB030201204F
:100380009046002DE5D0C5E90048E2E7002A00F0DC
:100390009080B2FA82F6002E40F0A4808A1A030CF4
:1003A0004FEA174E80B2BCB20121B2FBFEFC0EFB3D
:1003B0001C2243EA024304FB0CF29A4207D9FB18C1
:1003C0000CF1FF3802D29A4200F2E080C4469B1A38
:1003D000B3FBFEF20EFB123340EA034302FB04F4CC
:1003E0009C4207D9FB1802F1FF3002D29C4200F276
:1003F000CA8002461B1B42EA0C40A5E7C1F1200659
:100400008B4022FA06F71F430EFA01F420FA06F396
:100410002EFA06FE4FEA1749234300FA01F81FFAA5
:1004200087FCBEFBF9F01C0C09FB10EE44EA0E44FD
:1004300000FB0CFEA64502FA01F209D93C1900F1B5
:10044000FF3A80F09C80A64540F2998002383C44F7
:10045000A4EB0E041FFA83FEB4FBF9F309FB13446B
:100460004EEA044403FB0CFCA44508D93C1903F1F3
:10047000FF3E80F08280A4457FD9023B3C4443EAA2
:100480000040A4EB0C04A0FB02EC64457346E1467B
:1004900062D35FD05DB1B8EB030264EB090404FAE8
:1004A00006F622FA01F31E43CC40C5E900640021A0
:1004B0004FE7B1FBF2FC010C41EA0E4180B240EA89
:1004C00001423B4638463C46B846BE462026B1FB74
:1004D000F7F1A2EB080241EA0C4166E7014618E792
:1004E00010462CE7C6F120022EFA02F3B740B140C5
:1004F00020FA02F24FEA174E0A43B3FBFEF8BCB2F1
:100500000EFB1833110C41EA034108FB04F9B0401B
:1005100089454FEA104380B23ED9791808F1FF3C73
:1005200001D289451FD8A1EB0901B1FBFEF909FBF6
:1005300004F80EFB191192B242EA0142424529D257
:10054000BA1809F1FF31C4D24245C2D2A9F1020161
:100550003A44BEE7F0459DD2BEEB02036CEB070CBC
:100560000138E14696E7A7EB09094944A8F1020CD6
:10057000B1FBFEF909FB04F8DBE773467FE7504661
:1005800066E70846FDE63B44023A33E7ACF1020C6D
:100590003B441CE749469CE7A1EB0901C446B1FB7B
:1005A000FEF909FB04F8C4E7704700BF80B582B0CC
:1005B00000AF78600B46FB70FB7818460AF084FBAE
:1005C00003461A467B689A60FB7818460AF07CFB63
:1005D00003461A467B68DA60034A7B68136000BFF3
:1005E0000837BD4680BD00BF7C01002090B48CB0B0
:1005F00000AF78600B46FB70002387F82F30002394
:1006000087F82E30002387F82D3097F82F305A1CAA
:1006100087F82F2030333B44552203F8242C97F8D9
:100620002F305A1C87F82F2030333B444E2203F8DA
:10063000242C97F82F305A1C87F82F2030333B4456
:10064000452203F8242C97F82F305A1C87F82F20C6
:1006500030333B44522203F8242C97F82F305A1C95
:1006600087F82F2030333B44FA7803F8242C97F88E
:100670002F305A1C87F82F2030333B443A2203F89E
:10068000242C002387F82D3012E097F82D307A685B
:100690001A4497F82F30591C87F82F1012783033EE
:1006A0003B4403F8242C97F82D30013387F82D3084
:1006B00097F82D20FB78013B9A42E6DB002387F870
:1006C0002E30002387F82D3022E097F82D3030337C
:1006D0003B4413F8242C97F82E30534087F82E30E3
:1006E00097F82D10194B1B68D868184B1B685A795E
:1006F000541CE4B25C711346034401F130023A44E5
:1007000012F8242C1A7097F82D30013387F82D3009
:1007100097F82D2097F82F309A42D6D30B4B1B68B1
:10072000D9680A4B1B685A79501CC0B258711346DD
:100730000B4497F82E201A70044B1B6897F82F2053
:100740001A7400BF3037BD4690BC70477C01002052
:1007500080B584B000AF78607B68DB78FB73E2E043
:10076000764B1B78062B00F2D78001A252F823F0BB
:100770008D070008B5070008E90700081D080008F4
:100780005108000879080008BB0800087B689A68CF
:100790007B681B79591CC8B27968087113441B78AF
:1007A000552B40F0BD80654B01221A707B680022FA
:1007B0009A70B5E07B689A687B681B79591CC8B24F
:1007C0007968087113441B784E2B03D15B4B0222CE
:1007D0001A70A8E07B681B79013BDAB27B681A715A
:1007E000564B00221A709EE07B689A687B681B79E2
:1007F000591CC8B27968087113441B78452B03D182
:100800004E4B03221A708EE07B681B79013BDAB2F3
:100810007B681A71494B00221A7084E07B689A68E1
:100820007B681B79591CC8B27968087113441B781E
:10083000522B03D1414B04221A7074E07B681B7960
:10084000013BDAB27B681A713C4B00221A706AE0F5
:100850007B681A797B685A707B689A687B681B7919
:10086000591CC8B27968087113441A78344B1A704D
:10087000324B05221A7056E07B689A687B681B79B8
:10088000591CC8B27968087113441B783A2B0AD1F5
:100890002A4B06221A702A4B1B7883F03603DAB2F1
:1008A0007B689A703FE07B681B79013BDAB27B681A
:1008B0001A71224B00221A7035E0214B1B78012B54
:1008C0000FD97B689A687B681B79591CC8B2796814
:1008D000087113441A787B689B785340DAB27B68BE
:1008E0009A70174B1B78013BDAB2154B1A70144BF8
:1008F0001B78002B16D1114B00221A707B689A7856
:100900007B689B68796809790B441B789A4209D106
:10091000786800F017F805E0084B00221A7002E032
:1009200000BF00E000BF7B681B79FA7B9A427FF42E
:1009300017AF00BF00BF1037BD4680BD7801002053
:100940008001002080B588B000AF78600023BB77BD
:100950000023FB777B689A687B685B7802331344DB
:100960001B78F22B1FD0F22B46DCF12B10D0F12B91
:1009700042DC002B20D0F02B3ED1BB7F5A1CBA7733
:1009800020333B44F02203F8182C0223FB773EE08F
:10099000BB7F5A1CBA7720333B44F12203F8182C52
:1009A0000223FB7733E0BB7F5A1CBA7720333B44EA
:1009B000F22203F8182C2AE0BB7F5A1CBA772033A6
:1009C0003B44002203F8182C7B689A687B685B78AC
:1009D000033313441A78134B1A707B689A687B6848
:1009E0005B78043313441A780E4B5A700D4BB3F9ED
:1009F00000200D4B1A800AE0BB7F5A1CBA772033C7
:100A00003B44FF2203F8182C0223FB7700BFFA7F38
:100A100007F1080311461846FFF7E8FD00BF20372D
:100A2000BD4680BD740100200000002080B485B068
:100A300000AF78600B467B800023FB8116E0FB89CA
:100A40007A681A440F4B1B689B680E490968C9787D
:100A5000C9B20B4412781A700A4B1B68DA78D2B20A
:100A60000132D2B2DA70FB890133FB81FA897B88CB
:100A70009A42E4D300BF00BF1437BD465DF8047B43
:100A8000704700BF7C01002080B483B000AF786065
:100A90000B467B807B6802229A707B6800221A805A
:100AA0007B687A889A8000BF0C37BD465DF8047B6E
:100AB0007047000080B588B000AF78600023FB77F6
:100AC0000023FB770CE0FA7FFB7F0B4931F81330F2
:100AD00007F10C0009490AF0ADF9FB7F0133FB7700
:100AE000FB7F072BEFD94FF40051054802F0F7F9CF
:100AF00000BF2037BD4680BD8403002030B600080B
:100B00000008024080B582B000AF78607B681B6847
:100B1000044A934201D100F015F800BF0837BD46E2
:100B200080BD00BF0048014080B582B000AF786052
:100B30007B685B6C782B01D100F0A8FC00BF083704
:100B4000BD4680BD80B500AF104B1A78104BA3FB9B
:100B50000213D9080B469B000B445B00D31ADBB28F
:100B6000002B0AD14FF400510A4802F0B8F90120D5
:100B700000F042FC054B00221A70044B1B78013335
:100B8000DAB2024B1A7000BF80BD00BFA60300207E
:100B9000CDCCCCCC0008024080B500AF00F01CFFEB
:100BA00000F056F800F00AFA00F0E0F909F00EFB48
:100BB00000F036F900F0B6F900F0B2F800F002F9F2
:100BC0001A4805F063F81A4805F060F80421174840
:100BD00005F018F90021154805F014F915491648D3
:100BE00000F03EFC00F0FCFA144809F043FC144B02
:100BF00000221A7000211348FFF7D8FC0B4B1B682A
:100C0000DB6A9BB219461048FFF73EFF074B1B6893
:100C1000DB6A9BB219460D48FFF736FF094800F022
:100C200059FA00F08DFB00BFF8E700BFE00200209A
:100C300028030020A1110008691100082D0A0008EE
:100C4000940300207003002098030020A0030020DC
:100C500080B594B000AF07F1200330220021184680
:100C60000AF00AF907F10C0300221A605A609A6030
:100C7000DA601A610023BB60274B1B6C264A43F0E5
:100C800080531364244B1B6C03F08053BB60BB6820
:100C900000237B60214B1B68204A43F440431360D0
:100CA0001E4B1B6803F440437B607B6801233B625F
:100CB0004FF480337B620223BB634FF48003FB63FA
:100CC00019233B64C0237B640223BB640423FB64BD
:100CD00007F12003184604F045FB0346002B01D022
:100CE00000F078FA0F23FB6002233B6100237B6155
:100CF0004FF48053BB610023FB6107F10C03032118
:100D0000184604F0A7FD0346002B01D000F062FA5C
:100D100000BF5037BD4680BD003802400070004023
:100D200080B584B000AF3B4600221A605A609A60DA
:100D3000DA60214B214A1A601F4B4FF480325A600F
:100D40001D4B00229A601C4B00221A611A4B002294
:100D50001A76194B002283F82020174B0022DA6202
:100D6000154B174A9A62144B0022DA60124B01228B
:100D7000DA61114B002283F830200F4B01225A61B7
:100D80000D4800F0BFFE0346002B01D000F022FA10
:100D900001233B6001237B600023BB603B46194677
:100DA000054801F017F80346002B01D000F012FAB5
:100DB00000BF1037BD4680BD8401002000200140E7
:100DC0000100000F80B500AF124B134A1A60114B9F
:100DD000124A5A600F4B00229A600E4B0022DA60D2
:100DE0000C4B4FF480421A610A4B00225A61094BA6
:100DF00000229A61074B0022DA61064B00221A6238
:100E0000044802F087F80346002B01D000F0E2F915
:100E100000BF80BDCC01002000540040801A0600B5
:100E200080B58EB000AF07F1280300221A605A6027
:100E30009A60DA6007F1200300221A605A603B1DB5
:100E400000221A605A609A60DA601A615A619A61E7
:100E5000324B334A1A60314B0F225A602F4B00221B
:100E60009A602E4B4EF65F22DA602C4B00221A61FC
:100E70002A4B00229A61294804F0B8FE0346002B51
:100E800001D000F0A7F94FF48053BB6207F12803AB
:100E90001946224805F018FA0346002B01D000F04D
:100EA00099F91E4804F054FF0346002B01D000F0CE
:100EB00091F900233B6200237B6207F1200319466E
:100EC000164805F0C3FD0346002B01D000F082F95F
:100ED00060237B600023BB600023FB6000237B61F9
:100EE0003B1D002219460D4805F02CF90346002B46
:100EF00001D000F06FF93B1D04221946074805F0A8
:100F000021F90346002B01D000F064F9034800F0FA
:100F10004BFC00BF3837BD4680BD00BFE00200205B
:100F20000004004080B500AF0E4B0F4A1A600D4B15
:100F30005F225A600B4B00229A600A4B42F20F72FA
:100F4000DA60084B00221A61064B00229A610548BC
:100F500004F04CFE0346002B01D000F03BF900BF2B
:100F600080BD00BF280300200048014080B582B04A
:100F700000AF00237B60104B1B6B0F4A43F4001340
:100F800013630D4B1B6B03F400137B607B68002223
:100F900000210B2001F031FA0B2001F04AFA002267
:100FA00000210C2001F029FA0C2001F042FA00BFC8
:100FB0000837BD4680BD00BF0038024080B58AB00A
:100FC00000AF07F1140300221A605A609A60DA60D9
:100FD0001A6100233B613B4B1B6B3A4A43F004030D
:100FE0001363384B1B6B03F004033B613B69002325
:100FF000FB60344B1B6B334A43F080031363314B6C
:101000001B6B03F08003FB60FB680023BB602D4B70
:101010001B6B2C4A43F0010313632A4B1B6B03F039
:101020000103BB60BB6800237B60264B1B6B254A1A
:1010300043F002031363234B1B6B03F002037B603B
:101040007B6800224FF400511F4801F02FFF00225F
:101050004FF406411D4801F029FF002208211C48D9
:1010600001F024FF4FF400537B610123BB61002397
:10107000FB6100233B6207F114031946124801F09B
:1010800091FD4FF406437B610123BB610023FB61AB
:1010900000233B6207F1140319460C4801F082FD5E
:1010A00008237B610123BB610023FB6100233B62BA
:1010B00007F114031946064801F074FD00BF2837F4
:1010C000BD4680BD003802400008024000000240DA
:1010D0000004024080B582B000AF78607B681A7966
:1010E0007B68DB78DBB29A4207D07868FFF730FB89
:1010F0007B68DB78DAB27B681A717B689A797B68E7
:101100005B799A422BD07B685A797B689B799A42AB
:1011100008D97B685A797B689B79D31ADAB27B68E5
:101120001A7406E07B689B79C3F10403DAB27B682A
:101130001A747B68DB687A6892791A447B681B7C36
:101140001946104609F05EF90346002B07D17B686B
:101150009A797B681B7C1344DAB27B689A7100BF72
:101160000837BD4680BD000080B586B002AFBA60CA
:101170001A460346FB810B46BB811346FB80BA89A6
:10118000F989FB880193BB6800930123034802F0AF
:1011900003F9012318461037BD4680BDCC0100205D
:1011A00080B586B002AFB9607B600346FB81134611
:1011B000BB81BA89F9897B6800931346BA680448F1
:1011C00001F0ECFF034618461037BD4680BD00BF56
:1011D000CC01002080B400AF72B600BF00BFFDE7B5
:1011E00080B500AFAE220021782000F01DF920224A
:1011F0000021782000F018F910220021782000F05A
:1012000013F9B0220021782000F00EF9C822002145
:10121000782000F009F900220021782000F004F97C
:1012200010220021782000F0FFF8402200217820D1
:1012300000F0FAF881220021782000F0F5F8FF2272
:101240000021782000F0F0F8A1220021782000F0A1
:10125000EBF8A6220021782000F0E6F8A822002171
:10126000782000F0E1F83F220021782000F0DCF83F
:10127000A4220021782000F0D7F8D3220021782082
:1012800000F0D2F800220021782000F0CDF8D5221D
:101290000021782000F0C8F8F0220021782000F02A
:1012A000C3F8D9220021782000F0BEF822220021C4
:1012B000782000F0B9F8DA220021782000F0B4F8A4
:1012C00012220021782000F0AFF8DB2200217820E4
:1012D00000F0AAF820220021782000F0A5F88D2245
:1012E0000021782000F0A0F814220021782000F0DE
:1012F0009BF8AF220021782000F096F82E220021E2
:10130000782000F091F80C4B00221A800A4B002242
:101310005A80094B01225A71074B00229A71064BE1
:101320000022DA71054B01221A70012000F064F8E6
:1013300000F006F800BF80BDB0070020BC07002009
:1013400098B500AF274B1B78012B48D1264BDB7992
:10135000002B19D0012B34D1244B1C684FF480632F
:10136000234A40217820A0470346012B2DD11E4B54
:101370009B790133DAB21C4B9A711B4B0022DA7154
:10138000184B00221A7020E0174B9B79503BDAB2C1
:10139000154B1A72144B00225A72134B10229A7278
:1013A000124B1C680323134A00217820A0470346F0
:1013B000012B0CD10C4B0122DA710A4B00221A705E
:1013C00005E0094B08229A7102E000BF00E000BF6F
:1013D000054B9B79072B02D9034B00229A7100BF62
:1013E00098BD00BFBC070020B0070020A807002060
:1013F000A8030020B807002080B582B000AF0346E4
:10140000FB71FB79002B01D1002300E0FF234FF497
:1014100080621946034809F02FFD00BF0837BD461A
:1014200080BD00BFA803002090B585B000AF034683
:10143000FB710B46BB7113467B71BB793B737B79A8
:101440007B73064B1C68FB7998B207F10C010A23E9
:101450000222A04700BF1437BD4690BDAC07002054
:1014600080B483B000AF78603960064A7B6813604F
:10147000054A3B68136000BF0C37BD465DF8047B2E
:10148000704700BFA8070020AC07002080B400AF61
:10149000034B01221A7000BFBD465DF8047B704704
:1014A000BC07002080B483B000AF00237B60104BEA
:1014B0005B6C0F4A43F4804353640D4B5B6C03F445
:1014C00080437B607B6800233B60094B1B6C084AB0
:1014D00043F080531364064B1B6C03F080533B6056
:1014E0003B6800BF0C37BD465DF8047B704700BF0A
:1014F0000038024080B58AB000AF786007F114036D
:1015000000221A605A609A60DA601A617B681B6870
:10151000284A934249D100233B61274B5B6C264A02
:1015200043F480735364244B5B6C03F480733B611E
:101530003B690023FB60204B1B6B1F4A43F00103F8
:1015400013631D4B1B6B03F00103FB60FB6800235F
:10155000BB60194B1B6B184A43F002031363164B15
:101560001B6B03F00203BB60BB68FE237B6103239C
:10157000BB610023FB6107F1140319460F4801F01A
:1015800011FB01237B610323BB610023FB6107F196
:10159000140319460A4801F005FB0022002112201D
:1015A00000F02BFF122000F044FF00BF2837BD469B
:1015B00080BD00BF00200140003802400000024012
:1015C0000004024080B58AB000AF786007F11403D0
:1015D00000221A605A609A60DA601A617B681B68A0
:1015E000474A934240F0878000233B61454B1B6B89
:1015F000444A43F002031363424B1B6B03F00203A4
:101600003B613B69C0237B611223BB610023FB610B
:1016100003233B6204237B6207F1140319463A4813
:1016200001F0C0FA0023FB60364B1B6C354A43F4D3
:1016300000131364334B1B6C03F40013FB60FB6853
:10164000324B334A1A60314B00225A602F4B4022F2
:101650009A602E4B0022DA602C4B4FF480621A61A4
:101660002A4B00225A61294B00229A61274B002203
:10167000DA61264B00221A62244B00225A62234868
:1016800000F0F2FE0346002B01D0FFF7A3FD7B68BC
:101690001E4A5A631D4A7B6893631E4B1E4A1A609A
:1016A0001C4B4FF000725A601A4B00229A60194B83
:1016B0000022DA60174B4FF480621A61154B00224A
:1016C0005A61144B00229A61124B0022DA61114BCD
:1016D00000221A620F4B00225A620E4800F0C4FE2C
:1016E0000346002B01D0FFF775FD7B68094A9A631A
:1016F000084A7B68936300BF2837BD4680BD00BFA2
:101700000054004000380240000402402002002043
:1017100028600240800200201060024080B584B042
:1017200000AF78607B681B681C4A934216D1002387
:10173000FB601B4B1B6C1A4A43F002031364184BEB
:101740001B6C03F00203FB60FB68002200211D20DC
:1017500000F053FE1D2000F06CFE1AE07B681B6851
:10176000104A934215D10023BB600D4B5B6C0C4AB1
:1017700043F4802353640A4B5B6C03F48023BB6007
:10178000BB68002200211A2000F037FE1A2000F06A
:1017900050FE00BF1037BD4680BD00BF00040040B2
:1017A000003802400048014080B588B000AF786042
:1017B00007F10C0300221A605A609A60DA601A611D
:1017C0007B681B68124A93421DD10023BB60114BFA
:1017D0001B6B104A43F0020313630E4B1B6B03F0A9
:1017E0000203BB60BB683023FB6002233B61002324
:1017F0007B610023BB610223FB6107F10C031946E7
:10180000054801F0CFF900BF2037BD4680BD00BFBD
:1018100000040040003802400004024080B400AFE1
:1018200000BFFDE780B400AF00BFFDE780B400AFAC
:1018300000BFFDE780B400AF00BFFDE780B400AF9C
:1018400000BFFDE780B400AF00BFBD465DF8047B7C
:10185000704780B400AF00BFBD465DF8047B7047A1
:1018600080B400AF00BFBD465DF8047B704780B513
:1018700000AF00F003F900BF80BD000080B500AFED
:10188000024800F019FF00BF80BD00BF80020020A9
:1018900080B500AF024800F00FFF00BF80BD00BF61
:1018A0002002002080B500AF024800F06EF900BFB2
:1018B00080BD00BF8401002080B500AF024804F065
:1018C00051FB00BF80BD00BF2803002080B500AFE2
:1018D000024804F047FB00BF80BD00BFE0020020CB
:1018E00080B500AF024802F02EFC00BF80BD00BFF3
:1018F000AC10002080B586B000AF7860144A154B5C
:10190000D31A7B617B693B61134B1B68002B02D1AF
:10191000114B124A1A60104B1A687B6813443A69DB
:101920009A4207D209F0C0FA03460C221A604FF01F
:10193000FF3309E0084B1B68FB60074B1A687B68A4
:101940001344054A1360FB6818461837BD4680BD2E
:101950000000022000040000C0070020F81800204A
:1019600080B400AF064BD3F88830054A43F47003C7
:10197000C2F8883000BFBD465DF8047B704700BFE9
:1019800000ED00E0DFF834D0FFF7EAFF0C480D4926
:101990000D4A002302E0D458C4500433C4188C42CA
:1019A000F9D30A4A0A4C002301E013600432A24230
:1019B000FBD309F07FFAFFF7EFF870470000022031
:1019C0000000002058010020ECB60008580100205B
:1019D000F8180020FEE7000080B500AF0E4B1B6832
:1019E0000D4A43F4007313600B4B1B680A4A43F41F
:1019F00080631360084B1B68074A43F480731360CD
:101A0000032000F0EFFC0F2000F008F8FFF74AFD7C
:101A10000023184680BD00BF003C024080B582B064
:101A200000AF7860124B1A68124B1B7819464FF4BE
:101A30007A73B3FBF1F3B2FBF3F3184600F007FD42
:101A40000346002B01D001230EE07B680F2B0AD840
:101A5000002279684FF0FF3000F0CFFC064A7B6827
:101A60001360002300E0012318460837BD4680BDFF
:101A7000040000200C0000200800002080B400AF0B
:101A8000064B1B781A46064B1B681344044A136026
:101A900000BFBD465DF8047B704700BF0C0000200E
:101AA000C407002080B400AF034B1B681846BD4636
:101AB0005DF8047B704700BFC407002080B584B088
:101AC00000AF7860FFF7EEFFB8607B68FB60FB68F3
:101AD000B3F1FF3F05D00A4B1B781A46FB6813444D
:101AE000FB6000BFFFF7DEFF0246BB68D31AFA684F
:101AF0009A42F7D800BF00BF1037BD4680BD00BF77
:101B00000C00002080B584B000AF78600023FB7328
:101B10007B68002B01D1012333E07B681B6C002B19
:101B200009D17868FFF7E6FC7B6800225A647B687D
:101B3000002283F83C207B681B6C03F01003002B11
:101B400018D17B681B6C23F4885323F0020343F005
:101B500002027B681A64786800F06EFA7B680022E3
:101B60005A647B681B6C23F0030343F001027B681B
:101B70001A6401E00123FB737B68002283F83C2098
:101B8000FB7B18461037BD4680BD80B586B000AFE0
:101B9000786000237B6100233B617B681B681B68C6
:101BA000FB607B681B685B68BB60FB6803F002033B
:101BB0007B61BB6803F020033B617B69002B49D04C
:101BC0003B69002B46D07B681B6C03F01003002B95
:101BD00005D17B681B6C43F400727B681A647B68D8
:101BE0001B689B6803F04053002B2BD17B681B7E46
:101BF000002B27D17B681B68DB6A03F47003002B82
:101C000006D07B681B689B6803F48063002B19D1A6
:101C10007B681B685A687B681B6822F020025A6048
:101C20007B681B6C23F480727B681A647B681B6C76
:101C300003F48053002B05D17B681B6C43F0010239
:101C40007B681A647868FEF735FF7B681B686FF065
:101C500012021A60FB6803F004037B61BB6803F0A7
:101C600080033B617B69002B57D03B69002B54D02C
:101C70007B681B6C03F01003002B05D17B681B6C89
:101C800043F400527B681A647B681B689B6803F40A
:101C90004013002B39D17B681B689B6B03F4401306
:101CA000002B06D07B681B689B6803F48063002BC5
:101CB0002BD17B681B685B6803F48063002B24D105
:101CC0007B681B689B6803F04053002B1DD17B6829
:101CD0001B7E002B19D17B681B685A687B681B68C8
:101CE00022F080025A607B681B6C23F480527B6870
:101CF0001A647B681B6C03F48073002B05D17B682E
:101D00001B6C43F001027B681A64786800F090FA5B
:101D10007B681B686FF00C021A60FB6803F001031C
:101D20007B61BB6803F040033B617B69002B17D0EC
:101D30003B69002B14D07B681B681B6803F0010310
:101D4000012B0DD17B681B6C43F480327B681A64D5
:101D5000786800F02AF87B681B686FF001021A604F
:101D6000FB6803F020037B61BB6803F080633B6189
:101D70007B69002B15D03B69002B12D07B685B6C14
:101D800043F002027B685A647B681B686FF0200294
:101D90001A60786800F013F87B681B686FF0200207
:101DA0001A6000BF1837BD4680BD80B483B000AF55
:101DB000786000BF0C37BD465DF8047B704780B487
:101DC00083B000AF786000BF0C37BD465DF8047B80
:101DD0007047000080B485B000AF786039600023A0
:101DE000BB607B6893F83C30012B01D1022313E1E7
:101DF0007B68012283F83C203B681B68092B25D9AE
:101E00007B681B68D9683B681B689BB21A461346FF
:101E10005B0013441E3B072202FA03F3DA437B689C
:101E20001B680A40DA607B681B68D9683B689A685F
:101E30003B681B689BB2184603465B0003441E3B8D
:101E40009A407B681B680A43DA6022E07B681B6863
:101E500019693B681B689BB21A4613465B00134422
:101E6000072202FA03F3DA437B681B680A401A610F
:101E70007B681B6819693B689A683B681B689BB262
:101E8000184603465B0003449A407B681B680A437C
:101E90001A613B685B68062B24D87B681B68596B0A
:101EA0003B685A6813469B001344053B1F2202FA05
:101EB00003F3DA437B681B680A405A637B681B683C
:101EC000596B3B681B689BB218463B685A681346BF
:101ED0009B001344053B00FA03F27B681B680A432E
:101EE0005A634CE03B685B680C2B24D87B681B680A
:101EF000196B3B685A6813469B001344233B1F220F
:101F000002FA03F3DA437B681B680A401A637B68B2
:101F10001B68196B3B681B689BB218463B685A6884
:101F200013469B001344233B00FA03F27B681B68B3
:101F30000A431A6323E07B681B68D96A3B685A68C6
:101F400013469B001344413B1F2202FA03F3DA437A
:101F50007B681B680A40DA627B681B68D96A3B6849
:101F60001B689BB218463B685A6813469B00134493
:101F7000413B00FA03F27B681B680A43DA62294B93
:101F8000FB607B681B68284A93420FD13B681B6843
:101F9000122B0BD1FB685B6823F40002FB685A60CC
:101FA000FB685B6843F48002FB685A607B681B68CF
:101FB0001D4A93422BD13B681B681C4A934203D0B5
:101FC0003B681B68112B22D1FB685B6823F48002FD
:101FD000FB685A60FB685B6843F40002FB685A6068
:101FE0003B681B68114A934211D1114B1B68114A7F
:101FF000A2FB03239A0C13469B0013445B00BB60B7
:1020000002E0BB68013BBB60BB68002BF9D17B6879
:10201000002283F83C20002318461437BD465DF8A3
:10202000047B704700230140002001401200001093
:102030000400002083DE1B4380B485B000AF7860CD
:10204000794BFB60FB685B6823F44032FB685A60A5
:10205000FB685A687B685B681A43FB685A607B6858
:102060001B685A687B681B6822F480725A607B6820
:102070001B6859687B681B691A027B681B680A43E6
:102080005A607B681B685A687B681B6822F0407244
:102090005A607B681B6859687B689A687B681B6814
:1020A0000A435A607B681B689A687B681B6822F445
:1020B00000629A607B681B6899687B68DA687B6855
:1020C0001B680A439A607B689B6A584A934222D0F5
:1020D0007B681B689A687B681B6822F070629A6054
:1020E0007B681B6899687B689A6A7B681B680A43EF
:1020F0009A607B681B689A687B681B6822F0405274
:102100009A607B681B6899687B68DA6A7B681B68E1
:102110000A439A600FE07B681B689A687B681B68BB
:1021200022F070629A607B681B689A687B681B6803
:1021300022F040529A607B681B689A687B681B6833
:1021400022F002029A607B681B6899687B681B7E9C
:102150005A007B681B680A439A607B6893F82030BA
:10216000002B1BD07B681B685A687B681B6842F495
:1021700000625A607B681B685A687B681B6822F49F
:1021800060425A607B681B6859687B685B6A013BE8
:102190005A037B681B680A435A6007E07B681B6828
:1021A0005A687B681B6822F400625A607B681B686F
:1021B000DA6A7B681B6822F47002DA627B681B684B
:1021C000D96A7B68DB69013B1A057B681B680A4397
:1021D000DA627B681B689A687B681B6822F400726D
:1021E0009A607B681B6899687B6893F830305A0264
:1021F0007B681B680A439A607B681B689A687B68E7
:102200001B6822F480629A607B681B6899687B680F
:102210005B699A027B681B680A439A6000BF1437A7
:10222000BD465DF8047B7047002301400100000FAC
:1022300080B483B000AF786000BF0C37BD465DF856
:10224000047B704780B485B000AF78607B6803F092
:102250000703FB600C4BDB68BB60BA684FF6FF03FB
:102260001340BB60FB681A02BB68134343F0BF63B3
:1022700043F40033BB60044ABB68D36000BF14372B
:10228000BD465DF8047B704700ED00E080B400AF10
:10229000044BDB681B0A03F007031846BD465DF8D4
:1022A000047B704700ED00E080B483B000AF0346CC
:1022B000FB7197F90730002B0BDBFB7903F01F0252
:1022C000074997F907305B09012000FA02F241F84B
:1022D000232000BF0C37BD465DF8047B704700BF6C
:1022E00000E100E080B483B000AF03463960FB71C9
:1022F00097F90730002B0ADB3B68DAB20C4997F9F3
:1023000007301201D2B20B4483F800230AE03B6885
:10231000DAB20849FB7903F00F03043B1201D2B291
:102320000B441A7600BF0C37BD465DF8047B70473E
:1023300000E100E000ED00E080B489B000AFF8609B
:10234000B9607A60FB6803F00703FB61FB69C3F1C6
:102350000703042B28BF0423BB61FB690433062B4E
:1023600002D9FB69033B00E000237B614FF0FF32A1
:10237000BB6902FA03F3DA43BB681A407B699A40EF
:102380004FF0FF317B6901FA03F3D9437B680B40BF
:10239000134318462437BD465DF8047B70470000A0
:1023A00080B582B000AF78607B68013BB3F1807F7D
:1023B00001D301230FE00A4A7B68013B53600F21E0
:1023C0004FF0FF30FFF78EFF054B00229A60044B61
:1023D00007221A60002318460837BD4680BD00BF9B
:1023E00010E000E080B582B000AF78607868FFF759
:1023F00029FF00BF0837BD4680BD80B586B000AF5D
:102400000346B9607A60FB7300237B61FFF73EFFF0
:1024100078617A68B9687869FFF78EFF024697F9A4
:102420000F3011461846FFF75DFF00BF1837BD4655
:1024300080BD80B582B000AF0346FB7197F90730CD
:102440001846FFF731FF00BF0837BD4680BD80B595
:1024500082B000AF78607868FFF7A2FF03461846A5
:102460000837BD4680BD000080B586B000AF7860FB
:1024700000237B61FFF716FB38617B68002B01D1DD
:10248000012399E07B68022283F835207B680022D3
:1024900083F834207B681B681A687B681B6822F00D
:1024A00001021A600FE0FFF7FDFA02463B69D31AFA
:1024B000052B08D97B6820225A657B68032283F8A4
:1024C0003520032378E07B681B681B6803F0010359
:1024D000002BE8D17B681B681B687B617A69384BED
:1024E00013407B617B685A687B689B681A437B68F2
:1024F000DB681A437B681B691A437B685B691A4374
:102500007B689B691A437B68DB691A437B681B6A9B
:1025100013437A6913437B617B685B6A042B07D1A1
:102520007B68DA6A7B681B6B13437A6913437B61B0
:102530007B681B687A691A607B681B685B697B61D2
:102540007B6923F007037B617B685B6A7A691343CD
:102550007B617B685B6A042B17D17B689B6A7A6915
:1025600013437B617B68DB6A002B0ED0786800F038
:102570009DFA0346002B08D07B6840225A657B6891
:10258000012283F83520012316E07B681B687A69F5
:102590005A61786800F054FA0346FB607B68DB6D93
:1025A0003F229A40FB689A607B6800225A657B68EC
:1025B000012283F83520002318461837BD4680BD18
:1025C0003F8010F080B586B000AFF860B9607A60E7
:1025D0003B600023FB75FB689B6D3B61FB6893F8D8
:1025E0003430012B01D1022340E0FB68012283F843
:1025F0003420FB6893F83530DBB2012B2FD1FB6818
:10260000022283F83520FB6800225A653B687A680D
:10261000B968F86800F0E6F9FB68DB6D3F229A4084
:102620003B699A60FB681B681A68FB681B6842F08C
:1026300016021A60FB681B6C002B07D0FB681B6836
:102640001A68FB681B6842F008021A60FB681B6886
:102650001A68FB681B6842F001021A6005E0FB681B
:10266000002283F834200223FB75FB7D18461837BF
:10267000BD4680BD80B483B000AF78607B6893F8BE
:102680003530DBB2022B04D07B6880225A650123EF
:102690000CE07B68052283F835207B681B681A688C
:1026A0007B681B6822F001021A60002318460C3771
:1026B000BD465DF8047B704780B586B000AF78609A
:1026C0000023BB608E4B1B688E4AA2FB03239B0A30
:1026D0007B617B689B6D3B613B691B68FB607B6832
:1026E000DB6D08229A40FB681340002B1AD07B68F0
:1026F0001B681B6803F00403002B13D07B681B6866
:102700001A687B681B6822F004021A607B68DB6D24
:1027100008229A403B699A607B685B6D43F0010236
:102720007B685A657B68DB6D01229A40FB68134029
:10273000002B12D07B681B685B6903F08003002BC1
:102740000BD07B68DB6D01229A403B699A607B6805
:102750005B6D43F002027B685A657B68DB6D042287
:102760009A40FB681340002B12D07B681B681B68E3
:1027700003F00203002B0BD07B68DB6D04229A4030
:102780003B699A607B685B6D43F004027B685A6525
:102790007B68DB6D10229A40FB681340002B43D00E
:1027A0007B681B681B6803F00803002B3CD07B6828
:1027B000DB6D10229A403B699A607B681B681B683E
:1027C00003F48023002B18D07B681B681B6803F47C
:1027D0000023002B08D17B681B6C002B24D07B6866
:1027E0001B6C786898471FE07B689B6C002B1BD0A4
:1027F0007B689B6C7868984716E07B681B681B6851
:1028000003F48073002B07D17B681B681A687B6810
:102810001B6822F008021A607B681B6C002B03D037
:102820007B681B6C786898477B68DB6D20229A4038
:10283000FB681340002B00F08F807B681B681B68CF
:1028400003F01003002B00F087807B68DB6D2022F3
:102850009A403B699A607B6893F83530DBB2052B70
:1028600036D17B681B681A687B681B6822F01602E9
:102870001A607B681B685A697B681B6822F08002BB
:102880005A617B681B6C002B03D17B689B6C002B0F
:1028900007D07B681B681A687B681B6822F00802F7
:1028A0001A607B68DB6D3F229A403B699A607B68C7
:1028B000012283F835207B68002283F834207B686E
:1028C0001B6D002B7ED07B681B6D7868984779E084
:1028D0007B681B681B6803F48023002B1DD07B687A
:1028E0001B681B6803F40023002B0DD17B685B6C15
:1028F000002B31D07B685B6C786898472CE000BF78
:1029000004000020B5814E1B7B68DB6B002B23D0BD
:102910007B68DB6B786898471EE07B681B681B68E8
:1029200003F48073002B0FD17B681B681A687B68E7
:102930001B6822F010021A607B68012283F83520A0
:102940007B68002283F834207B68DB6B002B03D08C
:102950007B68DB6B786898477B685B6D002B32D0B7
:102960007B685B6D03F00103002B22D07B6805229E
:1029700083F835207B681B681A687B681B6822F027
:1029800001021A60BB680133BB607A699A4207D3BF
:102990007B681B681B6803F00103002BF2D100E089
:1029A00000BF7B68012283F835207B68002283F812
:1029B00034207B68DB6C002B05D07B68DB6C78688F
:1029C000984700E000BF1837BD4680BD80B483B093
:1029D00000AF78607B685B6D18460C37BD465DF8CC
:1029E000047B704780B485B000AFF860B9607A604E
:1029F0003B60FB681B681A68FB681B6822F4802236
:102A00001A60FB681B683A685A60FB689B68402B39
:102A100008D1FB681B687A689A60FB681B68BA6813
:102A2000DA6007E0FB681B68BA689A60FB681B689D
:102A30007A68DA6000BF1437BD465DF8047B7047E2
:102A400080B485B000AF78607B681B68DBB2103B58
:102A5000144AA2FB03231B09FB60134AFB681344BF
:102A60001B781A467B68DA65FB68032B09D97B68FB
:102A70001B6823F47F7323F003031A1D7B689A6598
:102A800007E07B681B6823F47F7323F003037A68F5
:102A900093657B689B6D18461437BD465DF8047BD3
:102AA000704700BFABAAAAAAA0B6000880B485B040
:102AB00000AF78600023FB737B689B6ABB607B6818
:102AC0009B69002B1FD1BB68032B56D801A252F87B
:102AD00023F000BFE52A0008F72A0008E52A0008CD
:102AE0007B2B00087B68DB6A03F08073002B46D0E9
:102AF0000123FB7343E07B68DB6AB3F1C07F40D105
:102B00000123FB733DE07B689B69B3F5005F21D136
:102B1000BB68032B37D801A252F823F02D2B0008F5
:102B2000332B00082D2B0008452B00080123FB73D5
:102B300030E07B68DB6A03F08073002B25D0012333
:102B4000FB7322E07B68DB6AB3F1C07F1FD10123F6
:102B5000FB731CE0BB68022B03D9BB68032B03D0BB
:102B600018E00123FB7315E07B68DB6A03F08073D8
:102B7000002B0ED00123FB730BE000BF0AE000BF67
:102B800008E000BF06E000BF04E000BF02E000BFB5
:102B900000E000BFFB7B18461437BD465DF8047BA0
:102BA000704700BF80B489B000AF786039600023FF
:102BB0007B6100233B610023BB610023FB6159E182
:102BC0000122FB6902FA03F37B613B681B687A69A7
:102BD00013403B613A697B699A4240F048813B6807
:102BE0005B6803F00303012B05D03B685B6803F0CF
:102BF0000303022B30D17B689B68BB61FB695B00E0
:102C0000032202FA03F3DB43BA691340BB613B685A
:102C1000DA68FB695B0002FA03F3BA691343BB612C
:102C20007B68BA699A607B685B68BB610122FB695B
:102C300002FA03F3DB43BA691340BB613B685B688C
:102C40001B0903F00102FB6902FA03F3BA6913439B
:102C5000BB617B68BA695A603B685B6803F0030339
:102C6000032B17D07B68DB68BB61FB695B00032229
:102C700002FA03F3DB43BA691340BB613B689A680D
:102C8000FB695B0002FA03F3BA691343BB617B681B
:102C9000BA69DA603B685B6803F00303022B23D157
:102CA000FB69DA087B68083253F82230BB61FB69A4
:102CB00003F007039B000F2202FA03F3DB43BA6918
:102CC0001340BB613B681A69FB6903F007039B0073
:102CD00002FA03F3BA691343BB61FB69DA087B6844
:102CE0000832B96943F822107B681B68BB61FB6935
:102CF0005B00032202FA03F3DB43BA691340BB61B2
:102D00003B685B6803F00302FB695B0002FA03F3B4
:102D1000BA691343BB617B68BA691A603B685B6838
:102D200003F44033002B00F0A2800023FB60574BDC
:102D30005B6C564A43F480435364544B5B6C03F41E
:102D40008043FB60FB68524AFB699B08023352F8E0
:102D50002330BB61FB6903F003039B000F2202FADF
:102D600003F3DB43BA691340BB617B68494A934272
:102D700019D07B68484A934213D07B68474A9342F4
:102D80000DD07B68464A934207D07B68454A934200
:102D900001D1042308E0072306E0032304E0022313
:102DA00002E0012300E00023FA6902F0030292002E
:102DB0009340BA691343BB613549FB699B080233F1
:102DC000BA6941F82320384B9B68BB613B69DB4300
:102DD000BA691340BB613B685B6803F48013002B46
:102DE00003D0BA693B691343BB612F4ABB69936047
:102DF0002D4BDB68BB613B69DB43BA691340BB61A8
:102E00003B685B6803F40013002B03D0BA693B698D
:102E10001343BB61244ABB69D360234B5B68BB612E
:102E20003B69DB43BA691340BB613B685B6803F4F1
:102E30000033002B03D0BA693B691343BB611A4AC4
:102E4000BB695360184B1B68BB613B69DB43BA69C4
:102E50001340BB613B685B6803F48033002B03D0F5
:102E6000BA693B691343BB610F4ABB691360FB69D5
:102E70000133FB61FB690F2B7FF6A2AE00BF00BFE1
:102E80002437BD465DF8047B704700BF0038024020
:102E900000380140000002400004024000080240E7
:102EA000000C024000100240003C014080B483B09E
:102EB00000AF78600B467B8013467B707B78002BDD
:102EC00003D07A887B689A6103E07B881A047B6868
:102ED0009A6100BF0C37BD465DF8047B704780B433
:102EE00085B000AF78600B467B807B685B69FB60D8
:102EF0007A88FB6813401A04FB68D9437B880B402F
:102F00001A437B689A6100BF1437BD465DF8047BA5
:102F10007047000080B584B000AF78607B68002BFC
:102F200001D101232BE17B6893F83D30DBB2002B0C
:102F300006D17B68002283F83C207868FEF742FBCC
:102F40007B68242283F83D207B681B681A687B68B5
:102F50001B6822F001021A607B681B681A687B6894
:102F60001B6842F400421A607B681B681A687B6821
:102F70001B6822F400421A6002F024FEF8607B68AD
:102F80005B68814A934207D8FB68804A934294BFAA
:102F900001230023DBB206E0FB687D4A934294BF25
:102FA00001230023DBB2002B01D00123E7E0FB6803
:102FB000784AA2FB03239B0CBB607B681B685B68A1
:102FC00023F03F017B681B68BA680A435A607B683C
:102FD0001B681B6A23F03F017B685B686A4A934267
:102FE00002D8BB68013309E0BB684FF4967202FB5C
:102FF00003F3694AA2FB03239B0901337A68126831
:103000000B4313627B681B68DB6923F44F4222F099
:10301000FF027B685B685C498B4219D8FB68591ECC
:103020007B685B685B00B1FBF3F3591C40F6FC73F3
:103030000B40002B0AD0FB68591E7B685B685B0065
:10304000B1FBF3F30133C3F30B0351E004234FE06F
:103050007B689B68002B11D1FB68581E7B68596800
:103060000B465B000B44B0FBF3F30133C3F30B03DC
:10307000002B0CBF01230023DBB212E0FB68581EBB
:103080007B6859680B469B000B4499000B44B0FBCE
:10309000F3F30133C3F30B03002B0CBF0123002315
:1030A000DBB2002B01D0012322E07B689B68002B60
:1030B0000ED1FB68581E7B6859680B465B000B44B9
:1030C000B0FBF3F30133C3F30B0343F400430FE00E
:1030D000FB68581E7B6859680B469B000B4499009F
:1030E0000B44B0FBF3F30133C3F30B0343F440434E
:1030F000796809681343CB617B681B681B6823F000
:10310000C0017B68DA697B681B6A1A437B681B68AD
:103110000A431A607B681B689B6823F4034323F00F
:10312000FF037A6811697A68D26811437A68126875
:103130000B4393607B681B68DB6823F0FF017B68AF
:103140005A697B689B691A437B681B680A43DA608B
:103150007B681B681A687B681B6842F001021A6072
:103160007B6800221A647B68202283F83D207B68FC
:1031700000221A637B68002283F83E200023184651
:103180001037BD4680BD00BFA08601007F841E00B1
:10319000FF083D0083DE1B43D34D621080B588B02D
:1031A00002AFF8607A601A460B467B8113463B817A
:1031B000FEF778FC7861FB6893F83D30DBB2202B9A
:1031C00040F0E0807B690093192301227049F86880
:1031D00000F09CFC0346002B01D00223D3E0FB68E7
:1031E00093F83C30012B01D10223CCE0FB68012293
:1031F00083F83C20FB681B681B6803F00103012B6C
:1032000007D0FB681B681A68FB681B6842F0010264
:103210001A60FB681B681A68FB681B6822F400626E
:103220001A60FB68212283F83D20FB68102283F896
:103230003E20FB6800221A64FB687A685A62FB68C9
:103240003A895A85FB685B8D9AB2FB681A85FB68E0
:10325000504ADA6279897B693A6AF86800F022FAA2
:103260000346002B01D001238DE000233B61FB6866
:103270001B685B693B61FB681B689B693B613B6941
:1032800066E07A69396AF86800F05AFD0346002B57
:103290000DD0FB681B6C042B07D1FB681B681A68F8
:1032A000FB681B6842F400721A6001236BE0FB6844
:1032B0005B6A1A78FB681B681A61FB685B6A5A1CB8
:1032C000FB685A62FB685B8D9BB2013B9AB2FB685C
:1032D0005A85FB681B8D013B9AB2FB681A85FB6817
:1032E0001B685B6903F00403042B1BD1FB681B8D77
:1032F000002B17D0FB685B6A1A78FB681B681A61A1
:10330000FB685B6A5A1CFB685A62FB685B8D9BB268
:10331000013B9AB2FB685A85FB681B8D013B9AB250
:10332000FB681A857A69396AF86800F051FD03462E
:10333000002B0DD0FB681B6C042B07D1FB681B68AE
:103340001A68FB681B6842F400721A6001231AE0D5
:10335000FB681B8D002B94D1FB681B681A68FB6807
:103360001B6842F400721A60FB68202283F83D203B
:10337000FB68002283F83E20FB68002283F83C2093
:10338000002300E0022318461837BD4680BD00BF69
:10339000020010000000FFFF80B58AB002AFF860A5
:1033A000084611461A4603467B810B463B8113466D
:1033B000FB8000237B61FEF775FBF861FB6893F8E7
:1033C0003D30DBB2202B40F036819D4B1B68DB0883
:1033D0009C4AA2FB03231A0A13469B0013449A003B
:1033E00013447B617B69013B7B617B69002B12D1BC
:1033F000FB6800221A63FB68202283F83D20FB68EB
:10340000002283F83E20FB681B6C43F02002FB681F
:103410001A64022310E1FB681B689B6903F0020336
:10342000022BDFD0FB6893F83C30012B01D1022343
:1034300002E1FB68012283F83C20FB681B681B68E3
:1034400003F00103012B07D0FB681B681A68FB68B7
:103450001B6842F001021A60FB681B681A68FB686F
:103460001B6822F400621A60FB68212283F83D2069
:10347000FB68402283F83E20FB6800221A64FB6848
:10348000BA6A5A62FB68BA8D5A85FB685B8D9AB23C
:10349000FB681A85FB686C4ADA627A89FB685A64B1
:1034A0003A89FB689A64FA88FB68DA64FB68002250
:1034B0001A65FB681B8D002B00F0A980FB685B6B15
:1034C000002B2AD0FB685B6B604ADA63FB685B6B9E
:1034D0005F4ADA64FB685B6B00221A64FB685B6B13
:1034E00000225A64FB685B6B00229A64FB685B6B8A
:1034F00000221A65FB68586BFB685B6A1946FB681B
:103500001B6810331A46FB681B8DFFF75BF80346F8
:10351000FB76FB7E002B66D113E0FB68202283F84C
:103520003D20FB68002283F83E20FB681B6C43F0C3
:103530008002FB681A64FB68002283F83C200123A8
:103540007AE0F8883A897989FB690193232300930B
:103550000346F86800F028F90346002B22D0FB68E8
:103560005B6B1846FFF786F80346FB76FB685B6BE0
:103570000022DA63FB681B681A68FB681B6822F488
:1035800080621A60FB6800221A85FB6800225A8557
:10359000FB681B681A68FB681B6822F001021A604E
:1035A000012349E000233B61FB681B685B693B61C9
:1035B000FB681B689B693B613B69FB68002283F8E1
:1035C0003C20FB681B685A68FB681B6842F48072E9
:1035D0005A60FB681B685A68FB681B6842F400620B
:1035E0005A60002328E0FB68202283F83D20FB6816
:1035F000002283F83E20FB681B6C43F01002FB683E
:103600001A64FB68002283F83C20012314E0FB6865
:10361000202283F83D20FB68002283F83E20FB68CF
:103620001B6C43F04002FB681A64FB68002283F8BD
:103630003C20012300E0022318462037BD4680BD10
:103640000400002089B5F8140000FFFFD5380008F9
:10365000933A000880B483B000AF786000BF0C37A5
:10366000BD465DF8047B704780B483B000AF7860DE
:1036700000BF0C37BD465DF8047B704780B483B053
:1036800000AF786000BF0C37BD465DF8047B704723
:1036900080B483B000AF786000BF0C37BD465DF8E2
:1036A000047B704780B588B002AFF8607A603B60F9
:1036B0000B467B81FB68DB6A7B617B69082B06D04C
:1036C0007B69012B03D07B6913F5803F08D1FB6830
:1036D0001B681A68FB681B6842F480721A600BE072
:1036E000FB681B6B122B07D1FB681B681A68FB6811
:1036F0001B6842F480721A603B6800937B6800226A
:103700004FF00111F86800F001FA0346002B0DD0CC
:10371000FB681B681B6803F48073B3F5807F03D1DB
:10372000FB684FF400721A64032335E0FB681B69E1
:10373000B3F5804F08D17B89DBB21A46FB681B6862
:1037400002F0FE021A611BE07B89DB11DBB203F0A1
:103750000603DBB263F00F03DAB2FB681B681A6181
:103760003B687A680E49F86800F04AFA0346002B75
:1037700001D0012310E07B89DAB2FB681B681A6173
:103780003B687A680749F86800F03AFA0346002B6C
:1037900001D0012300E0002318461837BD4680BD44
:1037A000080001000200010080B588B002AFF86097
:1037B000084611461A4603467B810B463B81134659
:1037C000FB80FB681B681A68FB681B6842F4807208
:1037D0001A607B6A00933B6A00224FF00111F8687F
:1037E00000F094F90346002B0DD0FB681B681B68A2
:1037F00003F48073B3F5807F03D1FB684FF400724C
:103800001A6403235FE07B89DBB21A46FB681B68FE
:1038100002F0FE021A617B6A3A6A2D49F86800F0EC
:10382000EFF90346002B01D001234CE000237B611C
:10383000FB681B685B697B61FB681B689B697B613C
:103840007B697A6A396AF86800F07AFA0346002BD5
:103850000DD0FB681B6C042B07D1FB681B681A6832
:10386000FB681B6842F400721A6001232BE0FB889E
:10387000012B05D13B89DAB2FB681B681A6121E094
:103880003B891B0A9BB2DAB2FB681B681A617A6A31
:10389000396AF86800F054FA0346002B0DD0FB6833
:1038A0001B6C042B07D1FB681B681A68FB681B683C
:1038B00042F400721A60012305E03B89DAB2FB682A
:1038C0001B681A61002318461837BD4680BD00BF2B
:1038D0000200010080B586B000AF78607B689B6B0A
:1038E0007B617B6993F83D30FB747B6993F83E30D4
:1038F000BB747B69DB6AFB607B691B685A687B6908
:103900001B6822F440725A607B695B6B002B03D00A
:103910007B695B6B0022DA637B699B6B002B03D0B6
:103920007B699B6B0022DA63FB7C03F02103212B74
:1039300007D0FB7C03F02203222B31D1BB7C202B50
:103940002ED17B691B685A687B691B6822F4006270
:103950005A607B6900225A85FB7C292B0AD17B693E
:1039600021221A637B69282283F83D207869FFF7BA
:103970007BFE0CE0FB7C2A2B09D17B6922221A6397
:103980007B69282283F83D207869FFF777FE7B6901
:103990001B685A687B691B6842F440725A6074E085
:1039A0007B6993F83E30DBB2002B6ED07B695B8D78
:1039B0009BB2012B07D17B691B681A687B691B6866
:1039C00022F480621A607B691B685A687B691B68F5
:1039D00022F440725A60FB6813F5803F09D0FB68FF
:1039E000082B06D0FB68B3F12A4F02D0FB68202BCE
:1039F00007D17B691B681A687B691B6842F40072F7
:103A00001A607B691B685A687B691B6822F48052C4
:103A10005A607B691B685A687B691B6822F40062E4
:103A20005A607B6900225A857B691B6C002B03D08E
:103A30007869FFF72DFE28E07B69202283F83D207E
:103A40007B6993F83E30DBB2402B0AD17B690022C0
:103A500083F83E207B6900221A637869FDF764F8D9
:103A600013E07B69002283F83E20FB68082B02D01C
:103A7000FB68202B03D17B6900221A6302E07B697B
:103A800012221A637869FFF7E5FD00BF1837BD46BB
:103A900080BD80B584B000AF78607B689B6BFB60B5
:103AA000FB685B6B002B03D0FB685B6B0022DA6367
:103AB000FB689B6B002B03D0FB689B6B0022DA63D7
:103AC0007868FEF783FF0346022B1BD0FB681B6858
:103AD0001A68FB681B6822F480621A60FB68002287
:103AE0005A85FB68202283F83D20FB68002283F87A
:103AF0003E20FB681B6C43F01002FB681A64F868F8
:103B0000FFF7C6FD00BF1037BD4680BD80B584B04D
:103B100000AFF860B9603B601346FB7148E03B685A
:103B2000B3F1FF3F44D0FDF7BDFF0246BB69D31A96
:103B30003A689A4202D33B68002B39D1BB681B0C10
:103B4000DBB2012B0DD1FB681B685B69DA43BB68F4
:103B500013409BB2002B0CBF01230023DBB21A469B
:103B60000CE0FB681B689B69DA43BB6813409BB29F
:103B7000002B0CBF01230023DBB21A46FB799A42CB
:103B800016D1FB6800221A63FB68202283F83D20CF
:103B9000FB68002283F83E20FB681B6C43F0200288
:103BA000FB681A64FB68002283F83C20012323E0B1
:103BB000BB681B0CDBB2012B0DD1FB681B685B697A
:103BC000DA43BB6813409BB2002B0CBF01230023D8
:103BD000DBB21A460CE0FB681B689B69DA43BB68E2
:103BE00013409BB2002B0CBF01230023DBB21A460B
:103BF000FB799A4293D0002318461037BD4680BD0A
:103C000080B584B000AFF860B9607A603B6071E065
:103C1000FB681B685B6903F48063B3F5806F23D195
:103C2000FB681B681A68FB681B6842F400721A6024
:103C3000FB681B686FF480625A61FB6800221A639C
:103C4000FB68202283F83D20FB68002283F83E2099
:103C5000FB681B6C43F00402FB681A64FB680022DB
:103C600083F83C20012367E07B68B3F1FF3F41D03C
:103C7000FDF718FF02463B68D31A7A689A4202D3CE
:103C80007B68002B36D1BB681B0CDBB2012B0CD13F
:103C9000FB681B685B69DA43BB6813409BB2002B6F
:103CA00014BF01230023DBB20BE0FB681B689B6998
:103CB000DA43BB6813409BB2002B14BF01230023DF
:103CC000DBB2002B16D0FB6800221A63FB682022AF
:103CD00083F83D20FB68002283F83E20FB681B6CC4
:103CE00043F02002FB681A64FB68002283F83C2042
:103CF000012321E0BB681B0CDBB2012B0CD1FB685C
:103D00001B685B69DA43BB6813409BB2002B14BF8E
:103D100001230023DBB20BE0FB681B689B69DA43DD
:103D2000BB6813409BB2002B14BF01230023DBB2FE
:103D3000002B7FF46DAF002318461037BD4680BDC1
:103D400080B584B000AFF860B9607A6034E0F8689C
:103D500000F086F80346002B01D0012334E0BB6855
:103D6000B3F1FF3F28D0FDF79DFE02467B68D31AD2
:103D7000BA689A4202D3BB68002B1DD1FB681B684E
:103D80005B6903F08003802B16D0FB6800221A6366
:103D9000FB68202283F83D20FB68002283F83E2048
:103DA000FB681B6C43F02002FB681A64FB6800226E
:103DB00083F83C20012307E0FB681B685B6903F084
:103DC0008003802BC3D1002318461037BD4680BD29
:103DD00080B584B000AFF860B9607A6034E0F8680C
:103DE00000F03EF80346002B01D0012334E0BB680D
:103DF000B3F1FF3F28D0FDF755FE02467B68D31A8A
:103E0000BA689A4202D3BB68002B1DD1FB681B68BD
:103E10005B6903F00403042B16D0FB6800221A63CD
:103E2000FB68202283F83D20FB68002283F83E20B7
:103E3000FB681B6C43F02002FB681A64FB680022DD
:103E400083F83C20012307E0FB681B685B6903F0F3
:103E50000403042BC3D1002318461037BD4680BD90
:103E600080B483B000AF78607B681B685B6903F443
:103E70008063B3F5806F1BD17B681B686FF4806231
:103E80005A617B6800221A637B68202283F83D20F8
:103E90007B68002283F83E207B681B6C43F00402A1
:103EA0007B681A647B68002283F83C20012300E0D1
:103EB000002318460C37BD465DF8047B704780B57B
:103EC00086B002AF78607B68002B01D1012301E14D
:103ED0007B681B68BB607B6893F89534DBB2002B72
:103EE00006D17B68002283F89424786806F0E2FB10
:103EF0007B68032283F89524BB68B3F1A04F02D1FD
:103F00007B6800229A717B681B68184602F037FFB5
:103F10007B6818687B681A7C8DF8002004330ECB10
:103F200002F016FE0346002B05D07B68022283F8C0
:103F300095240123CEE07B681B680021184602F01F
:103F40002FFF0346002B05D07B68022283F89524BF
:103F50000123BFE00023FB734AE0FA7B7968134634
:103F6000DB0013449B000B44153301221A70FA7BCB
:103F700079681346DB0013449B000B441433FA7B2F
:103F80001A70FA7BFB7B98B279681346DB00134406
:103F90009B000B442E3302461A80FA7B7968134645
:103FA000DB0013449B000B44183300221A70FA7B89
:103FB00079681346DB0013449B000B441C3300223A
:103FC0001A60FA7B79681346DB0013449B000B44AC
:103FD000203300221A60FA7B79681346DB00134411
:103FE0009B000B44243300221A60FB7B0133FB73DC
:103FF0007B681B79FA7B9A42AFD30023FB7344E0C2
:10400000FA7B79681346DB0013449B000B4403F2F0
:10401000552300221A70FA7B79681346DB0013449B
:104020009B000B4403F51573FA7B1A70FA7B7968D1
:104030001346DB0013449B000B4403F51673002268
:104040001A70FA7B79681346DB0013449B000B441B
:1040500003F5177300221A60FA7B79681346DB00B8
:1040600013449B000B4403F5187300221A60FA7B7B
:1040700079681346DB0013449B000B4403F5197366
:1040800000221A60FB7B0133FB737B681B79FA7B90
:104090009A42B5D37B6818687B681A7C8DF800203B
:1040A00004330ECB02F0C8FE0346002B05D07B681C
:1040B000022283F8952401230CE07B6800225A74C5
:1040C0007B68012283F895247B681B68184603F0FF
:1040D00012FF002318461037BD4680BD80B584B05E
:1040E00000AF78607B681B68FB607B6893F8943452
:1040F000012B01D1022322E07B68012283F8942462
:10410000FB68DB6803F04003002B09D07B685B7B16
:10411000012B05D1FB689B6B43F48032FB689A63EB
:104120007B681B68184602F019FE7B681B681846FE
:1041300003F0C0FE7B68002283F894240023184615
:104140001037BD4680BD90B58DB000AF78607B68FC
:104150001B683B623B6AFB617B681B68184603F087
:104160007EFF0346002B40F08C847B681B6818465A
:1041700003F0E2FE0346002B00F08284FB6903F5A6
:1041800000639B681B0AC3F30D027B68C3F8D42449
:104190007B681B68184603F0CFFE034603F002035A
:1041A000022B07D17B681B685A697B681B6802F089
:1041B00002025A617B681B68184603F0BDFE034685
:1041C00003F01003102B61D17B681B689A697B6830
:1041D0001B6822F010029A613B6A1B6ABB61BB69D3
:1041E00003F00F021346DB0013449B0003F5147326
:1041F0007A68134404337B61BB6903F4F013B3F5AD
:10420000802F24D1BA6947F6F0731340002B35D0C4
:104210007B69D968BB691B099BB2C3F30A039BB2D4
:104220001A46386A03F0F4FC7B69DA68BB691B093B
:10423000C3F30A031A447B69DA607B695A69BB6974
:104240001B09C3F30A031A447B695A6116E0BB6970
:1042500003F4F013B3F5402F10D17B6803F29C43B5
:1042600008221946386A03F0D3FC7B695A69BB6996
:104270001B09C3F30A031A447B695A617B681B68F4
:104280009A697B681B6842F010029A617B681B6820
:10429000184603F051FE034603F40023B3F5002F44
:1042A00040F0A78000237B627B681B68184603F000
:1042B00056FEB86299E0BB6A03F00103002B00F0E0
:1042C0008E807B681B687A6AD2B21146184603F06A
:1042D0007AFE38613B6903F00103002B0CD07B6A46
:1042E0005A01FB69134403F530631A4601239360B6
:1042F000796A786800F0A4FE3B6903F00803002B9C
:104300000CD07B6A5A01FB69134403F530631A46EB
:1043100008239360796A786800F07AFF3B6903F0BC
:104320001003002B08D07B6A5A01FB69134403F584
:1043300030631A46102393603B6903F00203002B9D
:1043400030D03B6A5B6903F08003802B09D1FB69A5
:1043500003F500635B68FA6902F5006243F4806369
:1043600053607A6A1346DB0013449B0003F5147311
:104370007A68134404337B617B69DB78012B08D1B5
:104380007B690022DA707B6ADBB21946786806F036
:104390008DFA7B6A5A01FB69134403F530631A46B0
:1043A000022393603B6903F02003002B08D07B6A53
:1043B0005A01FB69134403F530631A4620239360C6
:1043C0003B6903F40053002B09D07B6A5A01FB6957
:1043D000134403F530631A464FF4005393607B6A2D
:1043E00001337B62BB6A5B08BB62BB6A002B7FF454
:1043F00062AF7B681B68184603F09EFD034603F41A
:104400008023B3F5802F40F0DB807B681B68184663
:1044100003F0BFFDB86200237B62CDE0BB6A03F00E
:104420000103002B00F0C2807B681B687A6AD2B25D
:104430001146184603F0E5FD38613B6903F00103BE
:10444000002B57D07B6A03F00F03012202FA03F31B
:10445000FB60FB6903F500635A6BFB68DB43F9699A
:1044600001F5006113404B637B6A5A01FB691344F9
:1044700003F510631A46012393607B689B79012B37
:1044800032D179687A6A1346DB0013449B000B44EF
:104490002033196878687A6A1346DB0013449B005E
:1044A00003441C331B68194478687A6A1346DB009E
:1044B00013449B000344203319607B6A002B13D103
:1044C00079687A6A1346DB0013449B000B4424335B
:1044D0001B68002B08D17B6818687B6803F29C433B
:1044E0001A46012103F0ECFD7B6ADBB219467868BD
:1044F00006F061F93B6903F00803002B08D07B6AE2
:104500005A01FB69134403F510631A4608239360AC
:104510003B6903F01003002B08D07B6A5A01FB694A
:10452000134403F510631A46102393603B6903F0AC
:104530004003002B08D07B6A5A01FB69134403F542
:1045400010631A46402393603B6903F00203002B7B
:1045500023D0796A386A02F0D3FD7A6A1346DB0009
:1045600013449B0010337A68134404337B617B69E6
:10457000DB78012B08D17B690022DA707B6ADBB221
:104580001946786806F0A4F97B6A5A01FB6913445E
:1045900003F510631A46022393603B6903F080031E
:1045A000002B03D0796A786800F0BDFC7B6A013388
:1045B0007B62BB6A5B08BB62BB6A002B7FF42EAFD9
:1045C0007B681B68184603F0B7FC034603F0004302
:1045D000B3F1004F22D1FB6903F500635B68FA6910
:1045E00002F5006223F0010353607B6893F8CC343A
:1045F000012B08D17B68002283F8CC240021786845
:1046000000F0A4FE02E0786806F042F97B681B68BF
:104610005A697B681B6802F000425A617B681B681C
:10462000184603F089FC034603F40063B3F5006FFA
:1046300012D1FB6903F500639B6803F00103012BB2
:1046400002D1786806F0FEF87B681B685A697B68BF
:104650001B6802F400625A617B681B68184603F00D
:104660006BFC034603F48053B3F5805F40F0B780E2
:10467000FB6903F500635B68FA6902F5006223F0E9
:10468000010353607B681B681021184602F038FD57
:104690000023FB6246E0FB6A5A01FB69134403F501
:1046A00010631A464FF67F339360FB6A5A01FB6929
:1046B000134403F510631B68FA6A5101FA690A444E
:1046C00002F5106223F400131360FB6A5A01FB69C0
:1046D000134403F530631A464FF67F339360FB6A49
:1046E0005A01FB69134403F530631B68FA6A5101F0
:1046F000FA690A4402F5306223F400131360FB6A7E
:104700005A01FB69134403F530631B68FA6A5101CF
:10471000FA690A4402F5306243F000631360FB6AF1
:104720000133FB627B681B791A46FB6A9342B2D362
:10473000FB6903F50063DB69FA6902F5006243F087
:104740000113D3617B68DB7B002B16D0FB6903F57B
:104750000063D3F88430FA6902F5006243F00B037A
:10476000C2F88430FB6903F500635B6CFA6902F5FB
:10477000006243F00B03536415E0FB6903F500632B
:104780005B69FA6902F5006243F4005343F02B03BE
:104790005361FB6903F500631B69FA6902F5006266
:1047A00043F00B031361FB6903F500631B68FA69AF
:1047B00002F5006223F4FE6313607B6818687B686F
:1047C00099797B6803F29C431A4603F079FC7B6875
:1047D0001B685A697B681B6802F480525A617B68C7
:1047E0001B68184603F0A8FB034603F40053B3F517
:1047F000005F23D17B681B68184603F03EFC7B6892
:104800001B68184602F0F5FC03461A467B68DA710D
:104810007B681C6801F0CAF901467B68DB791A469F
:10482000204602F0F9F9786805F0EDFF7B681B6817
:104830005A697B681B6802F400525A617B681B68E6
:10484000184603F079FB034603F00803082B0AD14E
:10485000786805F0CAFF7B681B685A697B681B682B
:1048600002F008025A617B681B68184603F064FB7B
:10487000034603F08003802B23D13B6A9B6923F01E
:1048800080023B6A9A6101237B6214E079687A6A4C
:104890001346DB0013449B000B4403F257231B78A1
:1048A000012B05D17B6ADBB21946786800F00AFB60
:1048B0007B6A01337B627B681B791A467B6A934271
:1048C000E4D37B681B68184603F036FB034603F409
:1048D0008013B3F5801F3CD101237B622BE07B6A00
:1048E0005A01FB69134403F510631B68BB617968C7
:1048F0007A6A1346DB0013449B000B4418331B7881
:10490000012B15D1BB69002B12DA79687A6A13463C
:10491000DB0013449B000B44173301221A707B6A9F
:10492000DBB263F07F03DBB21946786800F0CAFAA5
:104930007B6A01337B627B681B791A467B6A9342F0
:10494000CDD37B681B685A697B681B6802F48012B0
:104950005A617B681B68184603F0EEFA034603F4BD
:104960000013B3F5001F56D101237B6245E07B6A3B
:104970005A01FB69134403F530631B68BB61796816
:104980007A6A1346DB0013449B000B4403F516734D
:104990001B78012B2ED1BB69002B2BDABB691A0CBB
:1049A0007B68D3F8D434534003F00103002B21D1AA
:1049B00079687A6A1346DB0013449B000B4403F2C8
:1049C000572301221A703B6A9B6943F080023B6ABD
:1049D0009A613B6A5B6903F08003002B0AD1FB6993
:1049E00003F500635B68FA6902F5006243F4007343
:1049F000536008E07B6A01337B627B681B791A464F
:104A00007B6A9342B3D37B681B685A697B681B68D7
:104A100002F400125A617B681B68184603F08CFA96
:104A2000034603F08043B3F1804F0AD1786805F064
:104A300061FF7B681B685A697B681B6802F08042D3
:104A40005A617B681B68184603F076FA034603F048
:104A50000403042B15D17B681B685B68BB61BB69D1
:104A600003F00403002B02D0786805F051FF7B6847
:104A70001B6859687B681B68BA690A435A6000E082
:104A800000BF3437BD4690BD80B582B000AF7860BE
:104A90000B46FB707B6893F89434012B01D1022301
:104AA00012E07B68012283F894247B68FA785A74B8
:104AB0007B681B68FA781146184603F0D5F97B68C5
:104AC000002283F89424002318460837BD4680BD91
:104AD00080B584B000AF7860084611461A46034698
:104AE000FB700B463B801346BB700023FB7297F9AB
:104AF0000330002B0FDAFB7803F00F021346DB00C4
:104B000013449B0010337A6813440433FB60FB6842
:104B100001225A700FE0FB7803F00F021346DB000E
:104B200013449B0003F514737A6813440433FB6049
:104B3000FB6800225A70FB7803F00F03DAB2FB68BF
:104B40001A703B88C3F30A02FB689A60FB68BA7864
:104B50001A71FB685B78002B04D0FB681B781A463F
:104B6000FB685A83BB78022B02D1FB6800225A7182
:104B70007B6893F89434012B01D102230EE07B680B
:104B8000012283F894247B681B68F968184602F0B8
:104B900055FB7B68002283F89424FB7A1846103773
:104BA000BD4680BD80B584B000AF78600B46FB7019
:104BB00097F90330002B0FDAFB7803F00F0213464E
:104BC000DB0013449B0010337A6813440433FB600A
:104BD000FB6801225A700FE0FB7803F00F021346C6
:104BE000DB0013449B0003F514737A681344043309
:104BF000FB60FB6800225A70FB7803F00F03DAB207
:104C0000FB681A707B6893F89434012B01D102235E
:104C10000EE07B68012283F894247B681B68F968A6
:104C2000184602F093FB7B68002283F8942400234B
:104C300018461037BD4680BD80B586B000AFF8601D
:104C40007A603B600B46FB72FB7A03F00F0213465F
:104C5000DB0013449B0003F51473FA681344043318
:104C60007B617B697A68DA607B693A681A617B6983
:104C700000225A617B6900225A70FB7A03F00F030D
:104C8000DAB27B691A70FB689B79012B02D17A68D2
:104C90007B69DA61FB681868FB689B791A46796959
:104CA00002F030FC002318461837BD4680BD80B4A2
:104CB00083B000AF78600B46FB70FB7803F00F0207
:104CC00079681346DB0013449B000B4403F51A7309
:104CD0001B6818460C37BD465DF8047B704780B5ED
:104CE00086B000AFF8607A603B600B46FB72FB7ADF
:104CF00003F00F021346DB0013449B001033FA68E5
:104D0000134404337B617B697A68DA607B693A68B3
:104D10001A617B6900225A617B6901225A70FB7A11
:104D200003F00F03DAB27B691A70FB689B79012BE1
:104D300002D17A687B69DA61FB681868FB689B7945
:104D40001A46796902F0DEFB002318461837BD4683
:104D500080BD80B584B000AF78600B46FB70FB78F7
:104D600003F00F037A681279934201D901234FE0CF
:104D700097F90330002B0FDAFB7803F00F0213468C
:104D8000DB0013449B0010337A6813440433FB6048
:104D9000FB6801225A700DE0FA781346DB001344D9
:104DA0009B0003F514737A6813440433FB60FB68BB
:104DB00000225A70FB6801229A70FB7803F00F03FF
:104DC000DAB2FB681A707B6893F89434012B01D136
:104DD00002231DE07B68012283F894247B681B6812
:104DE000F968184602F06CFFFB7803F00F03002B04
:104DF00009D17B6818687B6899797B6803F29C43CA
:104E00001A4603F05DF97B68002283F8942400239E
:104E100018461037BD4680BD80B584B000AF7860BD
:104E20000B46FB70FB7803F00F037A68127993420C
:104E300001D9012342E097F90330002B0FDAFB7808
:104E400003F00F021346DB0013449B0010337A6813
:104E500013440433FB60FB6801225A700FE0FB78B7
:104E600003F00F021346DB0013449B0003F5147399
:104E70007A6813440433FB60FB6800225A70FB68B5
:104E800000229A70FB7803F00F03DAB2FB681A7005
:104E90007B6893F89434012B01D102230EE07B68E8
:104EA000012283F894247B681B68F968184602F095
:104EB00075FF7B68002283F894240023184610377E
:104EC000BD4680BD80B584B000AF78600B46FB70F6
:104ED00097F90330002B0CDAFB7803F00F0213462E
:104EE000DB0013449B0010337A6813440433FB60E7
:104EF0000CE0FB7803F00F021346DB0013449B0029
:104F000003F514737A6813440433FB607B681B68F1
:104F1000F968184602F094FD0346FB72FB7A1846C6
:104F20001037BD4680BD80B58AB002AF7860396069
:104F30007B681B687B617B693B613A681346DB00D9
:104F400013449B0010337A6813440433FB60FB68FE
:104F50005A69FB681B699A4201D901236BE0FB681F
:104F60001A69FB685B69D31AFB61FB689B68FA6985
:104F70009A4202D9FB689B68FB61FB6903339B087B
:104F8000BB612AE0FB681A69FB685B69D31AFB61A5
:104F9000FB689B68FA699A4202D9FB689B68FB61CF
:104FA000FB6903339B08BB61FB68D9683B68DAB2D5
:104FB000FB6998B27B689B7900930346786902F09D
:104FC000E9FDFB68DA68FB691A44FB68DA60FB6894
:104FD0005A69FB691A44FB685A613B685A013B698C
:104FE000134403F510639B699BB2BA699A4209D8CE
:104FF000FB685A69FB681B699A4203D2FB681B690C
:10500000002BBFD1FB681A69FB685B699A4211D813
:105010003B6803F00F03012202FA03F3BB603B6914
:1050200003F500635A6BBB68DB43396901F5006126
:1050300013404B63002318462037BD4680BD000057
:1050400080B588B000AF786039607B681B68FB6111
:10505000FB69BB61FB693C3304331B687B613B68C4
:105060005A01BB69134403F530639B683B617B685D
:105070009B79012B7BD13B6903F00803002B15D0F2
:105080007B69614A934240F2B9803B6903F4004373
:10509000002B00F0B3803B685A01BB69134403F551
:1050A00030631A464FF400439360A7E03B6903F076
:1050B0002003002B09D03B685A01BB69134403F558
:1050C00030631A462023936098E03B6903F028037D
:1050D000002B40F093807B694B4A93420FD93B6988
:1050E00003F40043002B0AD03B685A01BB69134408
:1050F00003F530631A464FF4004393607EE03A684C
:105100001346DB0013449B0003F514737A681344C1
:105110000433FB60FB681A6A3B685901BB690B44A6
:1051200003F530631B69C3F31203D21AFB685A619B
:105130003B68002B14D1FB681B69002B09D17B68ED
:1051400018687B6803F29C431A46012102F0B8FFFD
:1051500006E0FB68DA68FB685B691A44FB68DA60A2
:105160003B68DBB21946786805F00AFB46E07B69CC
:10517000264A934224D13B6903F40043002B0AD012
:105180003B685A01BB69134403F530631A464FF478
:105190000043936032E03B6903F02003002B08D00A
:1051A0003B685A01BB69134403F530631A46202358
:1051B00093603B68DBB21946786805F0E1FA1DE0C0
:1051C0003B68002B14D179683A681346DB0013441E
:1051D0009B000B4403F519731B68002B08D17B68F7
:1051E00018687B6803F29C431A46002102F068FFAE
:1051F0003B68DBB21946786805F0C2FA002318460E
:105200002037BD4680BD00BF0A30544F0A31544F8D
:1052100080B586B000AF786039607B681B687B61C1
:105220007B693B617B693C3304331B68FB603B68F3
:105230005A013B69134403F530639B68BB60FB680C
:10524000154A93420ED9BB6803F40043002B09D0E2
:105250003B685A013B69134403F530631A464FF427
:1052600000439360786805F079FAFB680A4A934234
:105270000CD97B689B79012B08D17B6818687B6807
:1052800003F29C431A46012102F01AFF002318463C
:105290001837BD4680BD00BF0A30544F80B485B07A
:1052A00000AF78600B46FB7013463B807B681B6841
:1052B0005B6ABB60FB78002B07D13B8819047B68D5
:1052C0001B68BA680A439A6228E07B681B689B6A7D
:1052D0001B0CBA681344BB600023FB730DE07B68B2
:1052E0001A68FB7B40339B0013445B681B0CBA6855
:1052F0001344BB60FB7B0133FB73FA7BFB78013B00
:105300009A42ECD33B8818047B681968FB78013B10
:10531000BA68024340339B000B445A60002318468E
:105320001437BD465DF8047B704780B483B000AF8E
:1053300078600B467B807B681B687A885A62002302
:1053400018460C37BD465DF8047B704780B483B0C7
:1053500000AF78600B46FB7000BF0C37BD465DF8B0
:10536000047B704780B586B000AF78607B68002B07
:1053700001D1012367E27B681B6803F00103002B66
:1053800075D0884B9B6803F00C03042B0CD0854B25
:105390009B6803F00C03082B12D1824B5B6803F46B
:1053A0008003B3F5800F0BD17E4B1B6803F40033F1
:1053B000002B5BD07B685B68002B57D1012342E256
:1053C0007B685B68B3F5803F06D1764B1B68754AF6
:1053D00043F4803313601DE07B685B68B3F5A02F56
:1053E0000CD1704B1B686F4A43F4802313606D4BE4
:1053F0001B686C4A43F4803313600BE0694B1B68F5
:10540000684A23F480331360664B1B68654A23F4B3
:10541000802313607B685B68002B13D0FCF742FB92
:10542000386108E0FCF73EFB02463B69D31A642B67
:1054300001D9032307E25B4B1B6803F40033002B05
:10544000F0D014E0FCF72EFB386108E0FCF72AFBF3
:1054500002463B69D31A642B01D90323F3E1514B74
:105460001B6803F40033002BF0D100E000BF7B6821
:105470001B6803F00203002B63D04A4B9B6803F0C8
:105480000C03002B0BD0474B9B6803F00C03082B3D
:105490001CD1444B5B6803F48003002B16D1414BB5
:1054A0001B6803F00203002B05D07B68DB68012B2F
:1054B00001D00123C7E13B4B1B6823F0F8027B6856
:1054C0001B69DB00374913430B603AE07B68DB68FC
:1054D000002B20D0344B01221A60FCF7E3FA38612C
:1054E00008E0FCF7DFFA02463B69D31A022B01D928
:1054F0000323A8E12B4B1B6803F00203002BF0D021
:10550000284B1B6823F0F8027B681B69DB002549E8
:1055100013430B6015E0244B00221A60FCF7C2FA1B
:10552000386108E0FCF7BEFA02463B69D31A022B49
:1055300001D9032387E11B4B1B6803F00203002BF7
:10554000F0D17B681B6803F00803002B36D07B6822
:105550005B69002B16D0154B01221A60FCF7A2FAEA
:10556000386108E0FCF79EFA02463B69D31A022B29
:1055700001D9032367E10B4B5B6F03F00203002BA0
:10558000F0D01BE0094B00221A60FCF78BFA38615F
:105590000EE0FCF787FA02463B69D31A022B07D9C3
:1055A000032350E10038024000004742800E47428A
:1055B000884B5B6F03F00203002BEAD17B681B680A
:1055C00003F00403002B00F097800023FB75814B50
:1055D0001B6C03F08053002B0FD10023BB607D4B6D
:1055E0001B6C7C4A43F0805313647A4B1B6C03F0B2
:1055F0008053BB60BB680123FB75774B1B6803F4CA
:105600008073002B18D1744B1B68734A43F480736A
:105610001360FCF747FA386108E0FCF743FA0246EA
:105620003B69D31A022B01D903230CE16A4B1B6897
:1056300003F48073002BF0D07B689B68012B06D1AC
:10564000644B1B6F634A43F0010313671CE07B68E4
:105650009B68052B0CD15F4B1B6F5E4A43F0040324
:1056600013675C4B1B6F5B4A43F0010313670BE04E
:10567000584B1B6F574A23F001031367554B1B6FA1
:10568000544A23F0040313677B689B68002B15D0F2
:10569000FCF708FA38610AE0FCF704FA02463B69B5
:1056A000D31A41F28832934201D90323CBE0494B0C
:1056B0001B6F03F00203002BEED014E0FCF7F2F9AD
:1056C00038610AE0FCF7EEF902463B69D31A41F271
:1056D0008832934201D90323B5E03E4B1B6F03F0A0
:1056E0000203002BEED1FB7D012B05D1394B1B6C46
:1056F000384A23F0805313647B689B69002B00F0C9
:10570000A180344B9B6803F00C03082B5CD07B68B2
:105710009B69022B41D1314B00221A60FCF7C2F980
:10572000386108E0FCF7BEF902463B69D31A022B48
:1057300001D9032387E0274B1B6803F00073002B7C
:10574000F0D17B68DA697B681B6A1A437B685B6A05
:105750009B011A437B689B6A5B08013B1B041A434D
:105760007B68DB6A1B061B4913434B601B4B012202
:105770001A60FCF797F9386108E0FCF793F90246E4
:105780003B69D31A022B01D903235CE0114B1B6840
:1057900003F00073002BF0D054E0104B00221A608D
:1057A000FCF780F9386108E0FCF77CF902463B69B8
:1057B000D31A022B01D9032345E0064B1B6803F0E3
:1057C0000073002BF0D13DE07B689B69012B07D172
:1057D000012338E00038024000700040600047427A
:1057E0001B4B5B68FB607B689B69012B28D0FB68C7
:1057F00003F480027B68DB699A4221D1FB6803F0E5
:105800003F027B681B6A9A421AD1FA6847F6C07356
:1058100013407A68526A9201934211D1FB6803F4F3
:1058200040327B689B6A5B08013B1B049A4207D1AC
:10583000FB6803F070627B68DB6A1B069A4201D04A
:10584000012300E0002318461837BD4680BD00BF85
:105850000038024080B584B000AF786039607B6862
:10586000002B01D10123CCE0684B1B6803F0070338
:105870003A689A420CD9654B3A68D2B21A70634BB7
:105880001B6803F007033A689A4201D00123B8E08D
:105890007B681B6803F00203002B20D07B681B6829
:1058A00003F00403002B05D0594B9B68584A43F47E
:1058B000E05393607B681B6803F00803002B05D05E
:1058C000534B9B68524A43F460439360504B9B6830
:1058D00023F0F0027B689B684D4913438B607B6823
:1058E0001B6803F00103002B44D07B685B68012B2D
:1058F00007D1474B1B6803F40033002B19D1012358
:105900007FE07B685B68022B03D07B685B68032BBE
:1059100007D13F4B1B6803F00073002B09D1012313
:105920006FE03B4B1B6803F00203002B01D1012306
:1059300067E0374B9B6823F003027B685B68344960
:1059400013438B60FCF7AEF8F8600AE0FCF7AAF8A6
:105950000246FB68D31A41F28832934201D90323ED
:105960004FE02B4B9B6803F00C027B685B689B004D
:105970009A42EBD1254B1B6803F007033A689A4221
:105980000CD2224B3A68D2B21A70204B1B6803F03B
:1059900007033A689A4201D0012332E07B681B6812
:1059A00003F00403002B08D0194B9B6823F4E0524A
:1059B0007B68DB68164913438B607B681B6803F0C8
:1059C0000803002B09D0124B9B6823F460427B68CC
:1059D0001B69DB000E4913438B6000F021F802467F
:1059E0000B4B9B681B0903F00F030A49CB5C22FA9F
:1059F00003F3094A1360094B1B681846FCF70EF8BD
:105A0000002318461037BD4680BD00BF003C024051
:105A10000038024088B6000804000020080000207A
:105A20002DE9B04F90B000AF00237B630023FB63F0
:105A300000233B630023BB63594B9B6803F00C03BB
:105A4000082B0DD0082B00F2A180002B02D0042BD4
:105A500003D09BE0534BBB639BE0534BBB6398E08D
:105A60004F4B5B6803F03F037B634D4B5B6803F474
:105A70008003002B28D04A4B5B689B0900223B62C5
:105A80007A623B6AC3F308000021474B03FB01F233
:105A9000002300FB03F31344434AA0FB0212FA6203
:105AA0000A46BA62FA6A1344FB627B6B0022BB614E
:105AB000FA61D7E90623D7E90A01FAF7E1FB0246C2
:105AC0000B461346FB6353E0354B5B689B09002292
:105AD0003B617A613B69C3F3080A4FF0000B524601
