S013000043696E74615F46696E616C2E73726563D9
S11300000C943B000C9458000C9458000C94580029
S11300100C9458000C9458000C9458000C945800FC
S11300200C9458000C9458000C9436010C94E20083
S11300300C9401010C9458000C9458000C94580032
S11300400C947D010C9458000C94A1010C9458005C
S11300500C9458000C9458000C9458000C945800BC
S11300600C9458000C9458004D035B0373038803ED
S11300709D03AB03D00311241FBECFEFD8E0DEBF36
S1130080CDBF11E0A0E0B1E0E6E3F0E102C00590ED
S11300900D92AA30B107D9F723E0AAE0B1E001C07C
S11300A01D92A938B207E1F70E94BF050C94190804
S11300B00C940000CF92DF92EF92FF92CF93DF93E4
S11300C0EC016A017B018FE090E00E94F806FC01DC
S11300D090930B0180930A01D183C083C286D38697
S11300E0E486F58616861186108615821482178298
S11300F0168280E0FE01099580910A0190910B011E
S1130100DF91CF91FF90EF90DF90CF90089590937F
S11301100B0180930A01DC01ED91FC9181E00995CA
S1130120089590930B0180930A01DC01ED91FC91F9
S113013080E00995089590930B0180930A01FC01D6
S11301407583648316860895FC0190930B01809354
S11301500A01778366838685816086870895E091A6
S11301600A01F0910B01309711F1868580FF1FC0C1
S1130170168624813581868197812817390728F4CA
S1130180821B930B9187808705C0821B930B019779
S11301909187808780859185853F9D4220F08FEFF0
S11301A09FEF91878087808591850E943F04089501
S11301B0882321F085B1826085B9089585B18D7F4A
S11301C085B908951F920F920FB60F9211248F9341
S11301D09F93EF93FF93809147028160809347023E
S11301E0E8E8F0E080819181815E914B9183808386
S11301F0FF91EF919F918F910F900FBE0F901F90E1
S113020018951F920F920FB60F9211242F933F93BC
S11302104F935F936F937F938F939F93AF93BF930A
S1130220EF93FF9380912501909126010E94910004
S113023086B3806286BBE1E8F0E080EC8083808155
S11302408260808382E280936F00FF91EF91BF917F
S1130250AF919F918F917F916F915F914F913F915A
S11302602F910F900FBE0F901F9018951F920F9211
S11302700FB60F9211242F933F934F935F936F9375
S11302807F938F939F93AF93BF93EF93FF9380914B
S1130290810086FF10C082E880938100609186000F
S11302A0709187007695679580912501909126013C
S11302B00E949B0011C0EFE6F0E080818F7D808377
S11302C060918600709187007695679580912501ED
S11302D0909126010E94A400FF91EF91BF91AF91EC
S11302E09F918F917F916F915F914F913F912F914A
S11302F00F900FBE0F901F9018951F920F920FB67C
S11303000F9211242F933F934F935F936F937F9397
S11303108F939F93AF93BF93EF93FF930E948606AF
S1130320FF91EF91BF91AF919F918F917F916F91C9
S11303305F914F913F912F910F900FBE0F901F909F
S113034018951F920F920FB60F9211248F939F93BB
S1130350AF93BF93EF93FF93E6E3F2E0A081B18103
S1130360838191E0980F9383A80FB11D8091C600FB
S11303708C938581938189238383FF91EF91BF912E
S1130380AF919F918F910F900FBE0F901F90189572
S11303908AE384B980E88AB984B18E7F84B98AB14A
S11303A0837C8AB981E085B98CE38BB90895109276
S11303B0800082EC8093810010928500109284006A
S11303C082E080936F008FE19EE490938900809394
S11303D0880086B386BB089514BC16BC87E085BB31
S11303E081E080936E0082E085BD08951092C5007F
S11303F08093C4008EEF8093C00088E98093C1008D
S113040086E08093C2000895AC0120E030E00DC086
S1130410F901EE0FFF1FEE0FFF1FE40FF51F93E02E
S11304209083128211822F5F3F4F2430310584F371
S11304300895FC018081813089F028F08230B1F088
S1130440833001F126C0613031F48281813019F4A6
S11304508083818320C083E080831DC0611103C039
S113046082E0808318C081E0808315C0611107C0D9
S11304708281811104C083E0808311820CC081E0F9
S1130480808309C0613011F4108205C083E0808349
S113049002C081E0808362830895FC018181089514
S11304A0FC011582A081B181838191E0980F93832F
S11304B0A80FB11D85E58C93848193819823A08135
S11304C0B18181E0890F8383A90FB11D8EE48C93E0
S11304D0848193819823A081B18181E0890F8383F2
S11304E0A90FB11D85E48C93848193819823A08105
S11304F0B18181E0890F8383A90FB11D82E58C93BB
S1130500848193819823A081B18181E0890F8383C1
S1130510A90FB11D4F5F4C93848193819823A081CF
S1130520B18181E0890F8383A90FB11D8AE38C9384
S1130530848193819823A081B18181E0890F838391
S1130540A90FB11D6C939481838198239383958122
S11305504927642786E3862785830895FC01A081C3
S1130560B181838191E0980F9383A80FB11D6C939F
S11305709481838198239383858186278583089535
S11305800F931F93CF93DF93EB01DC01ED91FC916B
S1130590119714968C91E80FF11D6081603F39F03A
S11305A0613F09F462C0653A09F053C00EC042E0ED
S11305B060EFCE010E9450026DE0CE010E94AE02B7
S11305C06D81CE010E94AE0250C003E512E080911D
S11305D00F0190911001F8019183808348E065EA4E
S11305E0CE010E945002D8016C91CE010E94AE024D
S11305F0F8016181CE010E94AE0260912901CE0111
S11306000E94AE0287E592E00E944D0290E0682FBE
S1130610D8018D939C93CE010E94AE02F8016181B2
S1130620CE010E94AE028091110190911201682FB7
S1130630D8018C9311969C93CE010E94AE02F801CE
S11306406181CE010E94AE026D81CE010E94AE0294
S11306500CC042E0CE010E9450026FEFCE010E9416
S1130660AE026D81CE010E94AE02DF91CF911F9147
S11306700F910895DC0113962C911397C9C0189615
S1130680EC9118974E2F50E04730510508F0B2C056
S1130690FA01EC5CFF4F0C94E306ED91FC91119789
S11306A0E80FF11D8081853509F0A7C081E0189617
S11306B08C931897A2C0ED91FC911197E80FF11D4E
S11306C090819E3429F482E018968C93189795C0F3
S11306D0953509F492C018961C9218978150129679
S11306E08C9312978AC0ED91FC911197E80FF11D3C
S11306F09081953429F483E018968C9318977DC0E3
S113070018961C921897815012968C93129775C064
S1130710ED91FC911197E80FF11D9081923529F428
S113072084E018968C93189768C018961C921897B2
S1130730815012968C93129760C0ED91FC911197A1
S1130740E80FF11D808117968C93179785E0189612
S11307508C93189752C0ED91FC911197E80FF11DFD
S113076090819A33A9F496E018969C9318978F5F1A
S113077015969C911597892314968C931497179624
S11307809C91179786E3892716968C93169735C004
S113079018961C921897815012968C9312972DC01C
S11307A017969C911797915017969C931797992396
S11307B071F0ED91FC911197E80FF11D808116966F
S11307C09C911697892716968C93169716C018969F
S11307D01C921897ED91FC911197E80FF11D9081EF
S11307E016968C911697981308C081E01A968C93EC
S11307F01A9703C018961C92189712968C91129708
S11308008F5F15969C911597892312968C93129756
S113081012968C911297281332CF08950F931F9339
S1130820CF93DF938C01EB01FC018285882321F0B7
S11308301286C8010E94C002F80192818381981730
S113084019F0C8010E943A038A819B81891791F0AB
S11308509091C00095FF0EC0E881F98191E0980F56
S11308609A83E80FF11D80818093C6008C819A8160
S113087089238A83DF91CF911F910F9108959093DB
S1130880100180930F01089580910F019091100140
S1130890833F22E0920778F0E0911101F091120178
S11308A0EE0FFF1FE959FC4F118281E0808384E041
S11308B0809329012DC0209130023091310282179A
S11308C09307A8F020912E0230912F0282179307EC
S11308D070F4E0911101F0911201EE0FFF1FE9593C
S11308E0FC4F118282E080838093290111C08E37EE
S11308F0924070F4E0911101F0911201EE0FFF1F8C
S1130900E959FC4F118283E0808381E080932901BF
S1130910809111019091120101969093120180939C
S113092011010F9720F010921201109211010895F5
S11309308C349440F0F487E592E00E944D028111DA
S11309400DC08091470281FD09C0826080934702F7
S11309500E94440495B180E2892785B987E592E035
S11309600E944D02813029F4809147028D7F80934B
S1130970470208958BE592E00E944D02811119C04F
S113098090915E02E0910E01F0E0EE0FFF1FE95935
S1130990FC4F808198130DC060E080E00E945806EF
S11309A0E0910E01F0E0EE0FFF1FE959FC4F82E0E9
S11309B081838FE592E00E944D0281111EC09091C7
S11309C06202E0910D01F0E0EE0FFF1FE959FC4FC8
S11309D0808198130DC060E081E00E945806E09188
S11309E00D01F0E0EE0FFF1FE959FC4F82E0818317
S11309F080910D018F5F80930D0183E692E00E9448
S1130A004D0281111EC090916602E0910C01F0E04C
S1130A10EE0FFF1FE959FC4F808198130DC060E071
S1130A2082E00E945806E0910C01F0E0EE0FFF1FF7
S1130A30E959FC4F82E0818380910C018F5F8093A0
S1130A400C0180910E018F3010F010920E018091F4
S1130A500D018F3010F010920D0180910C018F3038
S1130A6010F010920C0108956AE580E00E94580687
S1130A706AE581E00E9458066AE582E00E94580611
S1130A800895CF93DF938091080181111FC0809155
S1130A9084009091850044969093140180931301EF
S1130AA090938B0080938A0086E086BB84E08093D9
S1130AB06F0080912501909126010E9487008AE0B1
S1130AC08093080195B180E2892785B98091070157
S1130AD0882381F01FC0FE01E85BFD4FCE01880F23
S1130AE0991F880F991F6081895A9D4F0E9419028E
S1130AF0219602C0C0E0D0E0C430D10564F384E0A4
S1130B008093070180910F01909110010E94980435
S1130B100E94BA0480910601811105C00E94340527
S1130B208CE38093060189B182FB882780F9E8E48D
S1130B30F2E0808389B183FB882780F9818389B1BE
S1130B4082958170828389B185FB882780F98383AC
S1130B50809147028E7F80934702809108018150E3
S1130B60809308018091070181508093070180914F
S1130B700601815080930601DF91CF910895F89486
S1130B80109247020E94C8010E94D7010E94EC0102
S1130B9080E10E94F60187E592E00E94040267E08A
S1130BA08BE290E00E94440664E085E290E00E94BB
S1130BB0440663E085E290E00E9444066AE580E032
S1130BC00E9458066AE581E00E9458066AE582E0C0
S1130BD00E94580640E150E060E070E088ED90E04B
S1130BE00E945A00A0E0B0E0809325019093260172
S1130BF0A0932701B09328018FEF90E09093120106
S1130C0080931101E6E3F2E08AE291E0918380832C
S1130C101282138210868FEF8583E1E4F2E027E6E7
S1130C2032E031832083128213828483EAE2F2E089
S1130C3086E693E09183808382EF92E093838283BC
S1130C40958384838EE792E0978386839187808758
S1130C508AE092E093878287E7E5F2E081E0878388
S1130C6082E0838783E0878778940E94AF0061E401
S1130C7072E086E392E00E940E048091470280FFB6
S1130C80F4CF0E944105F1CF20911501E22FF0E04D
S1130C90AF01440F551F440F551FE40FF51FEA5EC3
S1130CA0FE4F6283918380832F5F20931501089503
S1130CB0482F85E7689F900111242E5C364DA3E8E8
S1130CC0BDE20E94E90696958795929582958F706C
S1130CD089279F7089279C012B5F3F4FADECBCECAB
S1130CE00E94E9069695879596958795969587959A
S1130CF0242F30E0F901EE0FFF1FEE0FFF1F2E0F20
S1130D003F1FF901EA5EFE4F848308958091090133
S1130D1081508093090120E02AC0822F90E0FC01D9
S1130D20EE0FFF1FEE0FFF1FE80FF91FEA5EFE4FE5
S1130D303381315033833381311118C0FC01EE0FFC
S1130D40FF1FEE0FFF1F8E0F9F1FFC01EA5EFE4F79
S1130D50A081B1813C9181E090E0028002C0880FC3
S1130D60991F0A94E2F7809583238C932F5F8091D7
S1130D701501281790F2909109019923E9F008953B
S1130D80E92FF0E09F01220F331F220F331FE20FE0
S1130D90F31FEA5EFE4F24812383A081B1814C912D
S1130DA021E030E0028002C0220F331F0A94E2F7F0
S1130DB0242B2C939F5F01C090E0981708F38CE9D3
S1130DC0809309010895EE0FFF1F0590F491E02D23
S1130DD00994A29FB001B39FC001A39F700D811D10
S1130DE01124911DB29F700D811D1124911D089530
S1130DF00F931F93CF93DF938230910510F482E019
S1130E0090E0E0918703F091880320E030E0A0E0D7
S1130E10B0E0309719F14081518102811381481764
S1130E205907C8F08417950769F4109731F01296A2
S1130E300C93129713961C9327C000938703109367
S1130E40880322C02115310519F04217530718F4FD
S1130E509A01BD01EF01DF01F801DBCF2115310556
S1130E60F9F0281B390B2430310580F48A819B81E9
S1130E706115710521F0FB019383828304C0909373
S1130E80880380938703FE01329644C0FE01E20F7B
S1130E90F31F8193919322503109398328833AC0F7
S1130EA02091850330918603232B41F42091020184
S1130EB03091030130938603209385032091000130
S1130EC0309101012115310541F42DB73EB7409110
S1130ED0040150910501241B350BE0918503F09129
S1130EE08603E217F307A0F42E1B3F0B28173907DC
S1130EF078F0AC014E5F5F4F2417350748F04E0F72
S1130F005F1F50938603409385038193919302C09E
S1130F10E0E0F0E0CF01DF91CF911F910F910895B0
S1130F20CF93DF93009709F481C0FC0132971382B9
S1130F301282A0918703B0918803109781F42081D5
S1130F403181820F931F20918503309186032817E6
S1130F50390751F5F0938603E093850367C0ED01EB
S1130F6020E030E0CE17DF0740F44A815B819E0128
S1130F7041155105F1F0EA01F5CFD383C2834081D5
S1130F805181840F951FC817D90759F48881998115
S1130F90840F951F0296918380838A819B8193831A
S1130FA082832115310529F4F0938803E0938703A4
S1130FB03DC0E901FB83EA8349915991C40FD51FD0
S1130FC0EC17FD0761F480819181840F951F0296CF
S1130FD0E90199838883828193819B838A83E0E0FA
S1130FE0F0E012968D919C911397009719F0FD01F2
S1130FF0DC01F7CF8D919C9111979D012E5F3F4F9E
S1131000820F931F20918503309186032817390797
S113101069F4309729F4109288031092870302C070
S113102013821282B0938603A0938503DF91CF913C
S10910300895F894FFCFBF
S10D10360000890320004B040A9C0B
S9030000FC
