:020000020000FC
:040000000C94570005
:040040000C943400E8
:100068002FB62F920F93009102010A950093020177
:1000780021F4F59A02E3009302010F912F902FBE0D
:10008800189502E004BD002706BD05BB02E00093F9
:100098006E0004E005BD0CE707BD089500E204B951
:1000A80000E105B90895F8940FEF0DBF08E00EBF01
:1000B8000E9452000E94450000270EBB02E30093F5
:1000C800020104E60093000100E00093010104E846
:1000D8000093030113E01093040100270093050126
:1000E800009306012D9A78940EB310E201230117AC
:1000F80041F00C94780005B110E2012705B90C9481
:100108007800F598809105019091060104E6002495
:10011800800F901D809305019093060100910001C6
:10012800109101018017910731F30091030110919B
:1001380004018017910711F00C94780000270093B0
:08014800050100930601D7CF69
:00000001FF
