:100000000C943B000C9458000C9458000C9458002D
:100010000C9458000C9458000C9458000C94580000
:100020000C9458000C9458000C9436010C94E20087
:100030000C9401010C9458000C9458000C94580036
:100040000C947D010C9458000C94A1010C94580060
:100050000C9458000C9458000C9458000C945800C0
:100060000C9458000C945800750383039B03B00351
:10007000C503D303F80311241FBECFEFD8E0DEBFC2
:10008000CDBF11E0A0E0B1E0ECEDFDE002C00590D5
:100090000D92AA30B107D9F723E0AAE0B1E001C080
:1000A0001D92AB37B207E1F70E94E9040C94EC060D
:1000B0000C940000CF92DF92EF92FF92CF93DF93E8
:1000C000EC016A017B018FE090E00E94CB05FC010E
:1000D00090930B0180930A01D183C083C286D3869B
:1000E000E486F5861686118610861582148217829C
:1000F000168280E0FE01099580910A0190910B0122
:10010000DF91CF91FF90EF90DF90CF900895909383
:100110000B0180930A01DC01ED91FC9181E00995CE
:10012000089590930B0180930A01DC01ED91FC91FD
:1001300080E00995089590930B0180930A01FC01DA
:100140007583648316860895FC0190930B01809358
:100150000A01778366838685816086870895E091AA
:100160000A01F0910B01309711F1868580FF1FC0C5
:10017000168624813581868197812817390728F4CE
:10018000821B930B9187808705C0821B930B01977D
:100190009187808780859185853F9D4220F08FEFF4
:1001A0009FEF91878087808591850E9467040895DD
:1001B000882321F085B1826085B9089585B18D7F4E
:1001C00085B908951F920F920FB60F9211248F9345
:1001D0009F93EF93FF93809143028160809343024A
:1001E000E8E8F0E080819181815E914B918380838A
:1001F000FF91EF919F918F910F900FBE0F901F90E5
:1002000018951F920F920FB60F9211242F933F93C0
:100210004F935F936F937F938F939F93AF93BF930E
:10022000EF93FF9380912001909121010E94910012
:1002300086B3806286BBE1E8F0E080EC8083808159
:100240008260808382E280936F00FF91EF91BF9183
:10025000AF919F918F917F916F915F914F913F915E
:100260002F910F900FBE0F901F9018951F920F9215
:100270000FB60F9211242F933F934F935F936F9379
:100280007F938F939F93AF93BF93EF93FF9380914F
:10029000810086FF10C082E8809381006091860013
:1002A000709187007695679580912001909121014A
:1002B0000E949B0011C0EFE6F0E080818F7D80837B
:1002C00060918600709187007695679580912001F6
:1002D000909121010E94A400FF91EF91BF91AF91F5
:1002E0009F918F917F916F915F914F913F912F914E
:1002F0000F900FBE0F901F9018951F920F920FB680
:100300000F9211242F933F934F935F936F937F939B
:100310008F939F93AF93BF93EF93FF930E946805D2
:10032000FF91EF91BF91AF919F918F917F916F91CD
:100330005F914F913F912F910F900FBE0F901F90A3
:1003400018951F920F920FB60F9211248F939F93BF
:10035000AF93BF93EF93FF93E2E3F2E0A081B1810B
:10036000838191E0980F9383A80FB11D8091C600FF
:100370008C938581938189238383FF91EF91BF9132
:10038000AF919F918F910F900FBE0F901F90189576
:100390008AE384B980E88AB984B18E7F84B98AB14E
:1003A000837C8AB981E085B98CE38BB9089510927A
:1003B000800082EC8093810010928500109284006E
:1003C00082E080936F008FE19EE490938900809398
:1003D000880086B386BB089514BC16BC87E085BB35
:1003E00081E080936E0082E085BD08951092C50083
:1003F0008093C4008EEF8093C00088E98093C10091
:1004000086E08093C2000895AC0120E030E00DC08A
:10041000F901EE0FFF1FE20FF31FE40FF51F91E04C
:100420009083928311822F5F3F4F2430310584F3F4
:100430000895FC018081813089F028F08230B1F08C
:10044000833001F126C0613031F48281813019F4AA
:100450008083818320C083E080831DC0611103C03D
:1004600082E0808318C081E0808315C0611107C0DD
:100470008281811104C083E0808311820CC081E0FD
:10048000808309C0613011F4108205C083E080834D
:1004900002C081E0808362830895FC018181089518
:1004A000FC011582A081B181838191E0980F938333
:1004B000A80FB11D85E58C93848193819823A08139
:1004C000B18181E0890F8383A90FB11D8EE48C93E4
:1004D000848193819823A081B18181E0890F8383F6
:1004E000A90FB11D85E48C93848193819823A08109
:1004F000B18181E0890F8383A90FB11D82E58C93BF
:10050000848193819823A081B18181E0890F8383C5
:10051000A90FB11D4F5F4C93848193819823A081D3
:10052000B18181E0890F8383A90FB11D8AE38C9388
:10053000848193819823A081B18181E0890F838395
:10054000A90FB11D6C939481838198239383958126
:100550004927642786E3862785830895FC01A081C7
:10056000B181838191E0980F9383A80FB11D6C93A3
:100570009481838198239383858186278583089539
:100580000F931F93CF93DF93EB01DC01ED91FC916F
:10059000119714968C91E80FF11D6081683A78F4F8
:1005A000643A08F08AC0633A08F041C0603A08F043
:1005B00084C0603101F1623109F073C07EC06E3DCC
:1005C00009F47BC020F46A3A09F447C06AC0603F6E
:1005D00021F0613F09F065C070C042E060EFCE01DC
:1005E0000E9450026DE0CE010E94AE026D81CE01EC
:1005F0000E94AE0262C009E412E08091480290E0DD
:10060000F8019183808343E060E1CE010E945002B3
:10061000D8016C91CE010E94AE02F8016181CE0139
:100620000E94AE026D81CE010E94AE0246C043E040
:1006300063EACE010E94500209E412E0D8016C91F5
:10064000CE010E94AE02F8016181CE010E94AE028D
:100650006D81CE010E94AE0230C0E0912401F09184
:100660002501EE0FFF1FE75AFC4F808109E412E0DD
:1006700090E0D8018D939C9343E06AEACE010E94FA
:100680005002F8016081CE010E94AE02D80111969D
:100690006C91CE010E94AE026D81CE010E94AE022D
:1006A0000CC042E0CE010E9450026FEFCE010E94CA
:1006B000AE026D81CE010E94AE02DF91CF911F91FB
:1006C0000F910895DC0113962C911397C9C01896C9
:1006D000EC9118974E2F50E04730510508F0B2C00A
:1006E000FA01EC5CFF4F0C94C505ED91FC9111975C
:1006F000E80FF11D8081853509F0A7C081E01896CB
:100700008C931897A2C0ED91FC911197E80FF11D01
:1007100090819E3429F482E018968C93189795C0A6
:10072000953509F492C018961C921897815012962C
:100730008C9312978AC0ED91FC911197E80FF11DEF
:100740009081953429F483E018968C9318977DC096
:1007500018961C921897815012968C93129775C018
:10076000ED91FC911197E80FF11D9081923529F4DC
:1007700084E018968C93189768C018961C92189766
:10078000815012968C93129760C0ED91FC91119755
:10079000E80FF11D808117968C93179785E01896C6
:1007A0008C93189752C0ED91FC911197E80FF11DB1
:1007B00090819A33A9F496E018969C9318978F5FCE
:1007C00015969C911597892314968C9314971796D8
:1007D0009C91179786E3892716968C93169735C0B8
:1007E00018961C921897815012968C9312972DC0D0
:1007F00017969C911797915017969C93179799234A
:1008000071F0ED91FC911197E80FF11D8081169622
:100810009C911697892716968C93169716C0189652
:100820001C921897ED91FC911197E80FF11D9081A2
:1008300016968C911697981308C081E01A968C939F
:100840001A9703C018961C92189712968C911297BB
:100850008F5F15969C911597892312968C9312970A
:1008600012968C911297281332CF08950F931F93ED
:10087000CF93DF938C01EB01FC018285882321F06B
:100880001286C8010E94C002F801928183819817E4
:1008900019F0C8010E9462038A819B81891791F037
:1008A0009091C00095FF0EC0E881F98191E0980F0A
:1008B0009A83E80FF11D80818093C6008C819A8114
:1008C00089238A83DF91CF911F910F91089590938F
:1008D0000D0180930C010895CF93DF93EC018DE41B
:1008E00092E00E944D02813039F4629728F48091A1
:1008F0004302826080934302DF91CF910895CF93AA
:10090000DF938091070181111BC080918400909139
:100910008500449690930F0180930E0190938B0075
:1009200080938A0086E086BB84E080936F0080918C
:100930002001909121010E9487008AE080930701A5
:1009400080910601882381F01DC0FE01EC5BFD4F04
:10095000CE01880F991F8C0F9D1F6081835B9D4F77
:100960000E941902219602C0C0E0D0E0C430D10537
:1009700064F384E08093060180910C0190910D0155
:100980000E946C0489B182FB882780F9E4E4F2E0DC
:10099000808389B183FB882780F9818389B182951F
:1009A0008170828389B185FB882780F98383809158
:1009B00043028E7F80934302809107018150809390
:1009C000070180910601815080930601DF91CF914C
:1009D0000895F894109243020E94C8010E94D70122
:1009E0000E94EC0180E10E94F6018DE492E00E94F9
:1009F000040267E08BE290E00E94540564E085E227
:100A000090E00E94540563E085E290E00E94540566
:100A100040E150E060E070E088ED90E00E945A0014
:100A2000A0E0B0E08093200190932101A0932201E7
:100A3000B0932301E2E3F2E086E291E091838083C8
:100A40001282138210868FEF8583EDE3F2E029E5B1
:100A500032E031832083128213828483E6E2F2E063
:100A600086E693E09183808382EF92E09383828392
:100A7000958384838EE792E097838683918780872E
:100A80008AE092E09387828778940E94AF006DE3BA
:100A900072E082E392E00E9436048091430280FF7C
:100AA000F4CF0E947F04F1CF20911001E22FF0E0FB
:100AB000AF01440F551F440F551FE40FF51FEF5EA4
:100AC000FE4F6283918380832F5F209310010895EE
:100AD0008091080181508093080120E02AC0822F74
:100AE00090E0FC01EE0FFF1FEE0FFF1FE80FF91F54
:100AF000EF5EFE4F3381315033833381311118C0A3
:100B0000FC01EE0FFF1FEE0FFF1F8E0F9F1FFC015A
:100B1000EF5EFE4FA081B1813C9181E090E00280C8
:100B200002C0880F991F0A94E2F7809583238C9363
:100B30002F5F80911001281790F29091080199235E
:100B4000E9F00895E92FF0E09F01220F331F220FF3
:100B5000331FE20FF31FEF5EFE4F24812383A0813A
:100B6000B1814C9121E030E0028002C0220F331F9E
:100B70000A94E2F7242B2C939F5F01C090E0981712
:100B800008F38CE9809308010895EE0FFF1F05908C
:100B9000F491E02D09940F931F93CF93DF9382304C
:100BA000910510F482E090E0E0917903F0917A03EE
:100BB00020E030E0A0E0B0E0309719F140815181B1
:100BC0000281138148175907C8F08417950769F403
:100BD000109731F012960C93129713961C9327C01E
:100BE0000093790310937A0322C02115310519F07F
:100BF0004217530718F49A01BD01EF01DF01F80114
:100C0000DBCF21153105F9F0281B390B24303105D4
:100C100080F48A819B816115710521F0FB0193832A
:100C2000828304C090937A0380937903FE01329605
:100C300044C0FE01E20FF31F8193919322503109CA
:100C4000398328833AC02091770330917803232B8E
:100C500041F42091020130910301309378032093F5
:100C6000770320910001309101012115310541F4F4
:100C70002DB73EB74091040150910501241B350B5F
:100C8000E0917703F0917803E217F307A0F42E1BAD
:100C90003F0B2817390778F0AC014E5F5F4F2417E0
:100CA000350748F04E0F5F1F50937803409377034A
:100CB0008193919302C0E0E0F0E0CF01DF91CF910A
:100CC0001F910F910895CF93DF93009709F481C08E
:100CD000FC01329713821282A0917903B0917A03BA
:100CE000109781F420813181820F931F2091770327
:100CF000309178032817390751F5F0937803E09382
:100D0000770367C0ED0120E030E0CE17DF0740F445
:100D10004A815B819E0141155105F1F0EA01F5CF51
:100D2000D383C28340815181840F951FC817D9078F
:100D300059F488819981840F951F0296918380834D
:100D40008A819B81938382832115310529F4F09355
:100D50007A03E09379033DC0E901FB83EA8349917B
:100D60005991C40FD51FEC17FD0761F48081918163
:100D7000840F951F0296E90199838883828193816C
:100D80009B838A83E0E0F0E012968D919C9113970B
:100D9000009719F0FD01DC01F7CF8D919C9111971F
:100DA0009D012E5F3F4F820F931F2091770330915B
:100DB00078032817390769F4309729F410927A03D9
:100DC0001092790302C013821282B0937803A09329
:0C0DD0007703DF91CF910895F894FFCFD6
:0A0DDC0000007B032000040A9C00C5
:00000001FF
