S013000043696E74615F46696E616C2E73726563D9
S11300000C943B000C9458000C9458000C94580029
S11300100C9458000C9458000C9458000C945800FC
S11300200C9458000C9458000C9436010C94E20083
S11300300C9401010C9458000C9458000C94580032
S11300400C947D010C9458000C94A1010C9458005C
S11300500C9458000C9458000C9458000C945800BC
S11300600C9458000C945800A203B003C803DD0399
S1130070F2030004250411241FBECFEFD8E0DEBF35
S1130080CDBF11E0A0E0B1E0E2E2F0E102C00590F2
S11300900D92AA30B107D9F723E0AAE0B1E001C07C
S11300A01D92A338B207E1F70E94B7050C940F081C
S11300B00C940000CF92DF92EF92FF92CF93DF93E4
S11300C0EC016A017B018FE090E00E94EE06FC01E6
S11300D090930B0180930A01D183C083C286D38697
S11300E0E486F58616861186108615821482178298
S11300F0168280E0FE01099580910A0190910B011E
S1130100DF91CF91FF90EF90DF90CF90089590937F
S11301100B0180930A01DC01ED91FC9181E00995CA
S1130120089590930B0180930A01DC01ED91FC91F9
S113013080E00995089590930B0180930A01FC01D6
S11301407583648316860895FC0190930B01809354
S11301500A01778366838685816086870895E091A6
S11301600A01F0910B01309711F1868580FF1FC0C1
S1130170168624813581868197812817390728F4CA
S1130180821B930B9187808705C0821B930B019779
S11301909187808780859185853F9D4220F08FEFF0
S11301A09FEF91878087808591850E9494040895AC
S11301B0882321F085B1826085B9089585B18D7F4A
S11301C085B908951F920F920FB60F9211248F9341
S11301D09F93EF93FF93809147028160809347023E
S11301E0E8E8F0E080819181815E914B9183808386
S11301F0FF91EF919F918F910F900FBE0F901F90E1
S113020018951F920F920FB60F9211242F933F93BC
S11302104F935F936F937F938F939F93AF93BF930A
S1130220EF93FF9380912301909124010E94910008
S113023086B3806286BBE1E8F0E080EC8083808155
S11302408260808382E280936F00FF91EF91BF917F
S1130250AF919F918F917F916F915F914F913F915A
S11302602F910F900FBE0F901F9018951F920F9211
S11302700FB60F9211242F933F934F935F936F9375
S11302807F938F939F93AF93BF93EF93FF9380914B
S1130290810086FF10C082E880938100609186000F
S11302A07091870076956795809123019091240140
S11302B00E949B0011C0EFE6F0E080818F7D808377
S11302C060918600709187007695679580912301EF
S11302D0909124010E94A400FF91EF91BF91AF91EE
S11302E09F918F917F916F915F914F913F912F914A
S11302F00F900FBE0F901F9018951F920F920FB67C
S11303000F9211242F933F934F935F936F937F9397
S11303108F939F93AF93BF93EF93FF930E947C06B9
S1130320FF91EF91BF91AF919F918F917F916F91C9
S11303305F914F913F912F910F900FBE0F901F909F
S113034018951F920F920FB60F9211248F939F93BB
S1130350AF93BF93EF93FF93E6E3F2E0A081B18103
S1130360838191E0980F9383A80FB11D8091C600FB
S11303708C938581938189238383FF91EF91BF912E
S1130380AF919F918F910F900FBE0F901F90189572
S11303908AE384B980E88AB984B18E7F84B98AB14A
S11303A0837C8AB981E085B98CE38BB90895109276
S11303B0800082EC8093810010928500109284006A
S11303C082E080936F008FE19EE490938900809394
S11303D0880086B386BB089514BC16BC87E085BB31
S11303E081E080936E0082E085BD08951092C5007F
S11303F08093C4008EEF8093C00088E98093C1008D
S113040086E08093C200089520E030E00CC0F9013A
S1130410EE0FFF1FEE0FFF1FE80FF91F108212826D
S113042011822F5F3F4F243031058CF30895FC0176
S11304308081813089F028F08230B1F0833001F17D
S113044026C0613031F48281813019F48083818344
S113045020C083E080831DC0611103C082E08083DB
S113046018C081E0808315C0611107C082818111A9
S113047004C083E0808311820CC081E0808309C0C2
S1130480613011F4108205C083E0808302C081E0F2
S1130490808362830895FC0181810895FC011582A3
S11304A0A081B181838191E0980F9383A80FB11D3E
S11304B085E58C93848193819823A081B18181E027
S11304C0890F8383A90FB11D8EE48C93848193815A
S11304D09823A081B18181E0890F8383A90FB11D85
S11304E085E48C93848193819823A081B18181E0F8
S11304F0890F8383A90FB11D82E58C938481938135
S11305009823A081B18181E0890F8383A90FB11D54
S11305104F5F4C93848193819823A081B18181E0C2
S1130520890F8383A90FB11D8AE38C9384819381FE
S11305309823A081B18181E0890F8383A90FB11D24
S11305406C939481838198239383958149276427AD
S113055086E3862785830895FC01A081B181838188
S113056091E0980F9383A80FB11D6C9394818381BC
S11305709823938385818627858308950F931F93FA
S1130580CF93DF93EB01DC01ED91FC91119714966D
S11305908C91E80FF11D6081683A78F4643A08F0B0
S11305A0B9C0633A08F043C0603A08F0B3C06031A0
S11305B001F1623109F0A2C0ADC06E3D09F4AAC0D8
S11305C020F46A3A09F451C099C0603F21F0613FB8
S11305D009F094C09FC042E060EFCE010E944E0239
S11305E06DE0CE010E94AC026D81CE010E94AC028E
S11305F091C081E592E00E944B020DE412E090E08C
S1130600F8019183808343E060E1CE010E944E02B1
S1130610D8016C91CE010E94AC02F8016181CE0137
S11306200E94AC026D81CE010E94AC0273C00DE445
S113063012E080910F0190911001D8018D939C9349
S113064043E063EACE010E944E02F8016081CE01CC
S11306500E94AC02D80111966C91CE010E94AC02AA
S11306606D81CE010E94AC0255C00DE412E0809170
S11306702701F801808348E06AEACE010E944E0215
S1130680D8016C91CE010E94AC0280910F0190912F
S11306901001682FF80180839183CE010E94AC027F
S11306A0D80111966C91CE010E94AC0281E592E0D2
S11306B00E944B0290E0682FF80191838083CE0161
S11306C00E94AC02D80111966C91CE010E94AC023A
S11306D08091280190912901682FF80180839183EA
S11306E0CE010E94AC02D80111966C91CE010E94F9
S11306F0AC026D81CE010E94AC020CC042E0CE017E
S11307000E944E026FEFCE010E94AC026D81CE01B9
S11307100E94AC02DF91CF911F910F910895DC01EB
S113072013962C911397C9C01896EC9118974E2FD5
S113073050E04730510508F0B2C0FA01EC5CFF4FBD
S11307400C94D906ED91FC911197E80FF11D80816D
S1130750853509F0A7C081E018968C931897A2C03C
S1130760ED91FC911197E80FF11D90819E3429F4CD
S113077082E018968C93189795C0953509F492C029
S113078018961C921897815012968C9312978AC0CF
S1130790ED91FC911197E80FF11D9081953429F4A6
S11307A083E018968C9318977DC018961C9218971E
S11307B0815012968C93129775C0ED91FC9111970C
S11307C0E80FF11D9081923529F484E018968C93FA
S11307D0189768C018961C921897815012968C939B
S11307E0129760C0ED91FC911197E80FF11D808183
S11307F017968C93179785E018968C93189752C088
S1130800ED91FC911197E80FF11D90819A33A9F4B1
S113081096E018969C9318978F5F15969C91159760
S1130820892314968C93149717969C91179786E3B3
S1130830892716968C93169735C018961C9218978C
S1130840815012968C9312972DC017969C911797EE
S1130850915017969C931797992371F0ED91FC9101
S11308601197E80FF11D808116969C9116978927A0
S113087016968C93169716C018961C921897ED919D
S1130880FC911197E80FF11D908116968C911697A3
S1130890981308C081E01A968C931A9703C018968F
S11308A01C92189712968C9112978F5F15969C91B3
S11308B01597892312968C93129712968C911297FE
S11308C0281332CF08950F931F93CF93DF938C0196
S11308D0EB01FC018285882321F01286C8010E9465
S11308E0BE02F80192818381981719F0C8010E9411
S11308F08F038A819B81891791F09091C00095FFA5
S11309000EC0E881F98191E0980F9A83E80FF11DF8
S113091080818093C6008C819A8189238A83DF91A8
S1130920CF911F910F9108959093100180930F011F
S11309300895CF93DF93C0910E01D0E0FE01EE0F36
S1130940FF1FEF59FC4F81E08083E0910D01F0E03F
S1130950EE0FFF1FEF59FC4F82E08083E0910C0102
S1130960F0E0EE0FFF1FEF59FC4F83E0808385E535
S113097092E00E944B0281111FC090915802CC0F4B
S1130980DD1FCF59DC4F8881981311C06AE580E0E0
S11309900E944E06E0910E01F0E0EE0FFF1FEF59AA
S11309A0FC4F82E0818395B180E2892785B98091EB
S11309B00E018F5F80930E0189E592E00E944B0245
S11309C081111EC090915C02E0910D01F0E0EE0FE8
S11309D0FF1FEF59FC4F808198130DC06AE581E039
S11309E00E944E06E0910D01F0E0EE0FFF1FEF595B
S11309F0FC4F82E0818380910D018F5F80930D0114
S1130A008DE592E00E944B0281111EC0909160021C
S1130A10E0910C01F0E0EE0FFF1FEF59FC4F8081D5
S1130A2098130DC06AE582E00E944E06E0910C0125
S1130A30F0E0EE0FFF1FEF59FC4F82E081838091BD
S1130A400C018F5F80930C0180910E018F3010F0A8
S1130A5010920E0180910D018F3010F010920D0153
S1130A6080910C018F3010F010920C01DF91CF9126
S1130A70089560E080E00E944E0660E081E00E94FC
S1130A804E0660E082E00E944E060895CF93DF9305
S1130A908091080181111BC0809184009091850090
S1130AA04496909312018093110190938B0080934C
S1130AB08A0086E086BB84E080936F0080912301E6
S1130AC0909124010E9487008AE08093080180911C
S1130AD00701882381F019C0FE01E85BFD4FCE01B8
S1130AE0880F991F880F991F60818F5A9D4F0E940C
S1130AF01702219602C0C0E0D0E0C430D10564F3EF
S1130B0084E0809307010E94990480910601811179
S1130B1002C00E94390589B182FB882780F9E8E484
S1130B20F2E0808389B183FB882780F9818389B1CE
S1130B3082958170828389B185FB882780F98383BC
S1130B40809147028E7F80934702809108018150F3
S1130B50809308018091070181508093070180915F
S1130B600601815080930601DF91CF910895F89496
S1130B70109247020E94C8010E94D7010E94EC0112
S1130B8080E10E94F60181E592E00E94040267E0A0
S1130B908BE290E00E943A0664E085E290E00E94D5
S1130BA03A0663E085E290E00E943A0660E080E065
S1130BB00E944E0660E081E00E944E0660E082E002
S1130BC00E944E0640E150E060E070E088ED90E065
S1130BD00E945A00A0E0B0E0809323019093240186
S1130BE0A0932501B09326011092290110922801A7
S1130BF0E6E3F2E08AE291E0918380831282138239
S1130C0010868FEF8583E1E4F2E021E632E0318360
S1130C102083128213828483EAE2F2E086E693E080
S1130C209183808382EF92E093838283958384838C
S1130C308EE792E097838683918780878AE092E0AB
S1130C4093878287E1E5F2E081E0878382E083870E
S1130C5083E0878778940E94AF0061E472E086E3C2
S1130C6092E00E9463048091470280FFF4CF0E94C7
S1130C704605F1CF20911301E22FF0E0AF01440FBC
S1130C80551F440F551FE40FF51FEC5EFE4F6283A2
S1130C90918380832F5F209313010895482F85E764
S1130CA0689F900111242E5C364DA3E8BDE20E949A
S1130CB0DF0696958795929582958F7089279F7008
S1130CC089279C012B5F3F4FADECBCEC0E94DF06F3
S1130CD0969587959695879596958795242F30E0D8
S1130CE0F901EE0FFF1FEE0FFF1F2E0F3F1FF9013B
S1130CF0EC5EFE4F848308958091090181508093B6
S1130D00090120E02AC0822F90E0FC01EE0FFF1FB2
S1130D10EE0FFF1FE80FF91FEC5EFE4F33813150D9
S1130D2033833381311118C0FC01EE0FFF1FEE0F26
S1130D30FF1F8E0F9F1FFC01EC5EFE4FA081B1814F
S1130D403C9181E090E0028002C0880F991F0A94D0
S1130D50E2F7809583238C932F5F809113012817EA
S1130D6090F2909109019923E9F00895E92FF0E0B8
S1130D709F01220F331F220F331FE20FF31FEC5E7C
S1130D80FE4F24812383A081B1814C9121E030E086
S1130D90028002C0220F331F0A94E2F7242B2C9303
S1130DA09F5F01C090E0981708F38CE980930901D4
S1130DB00895EE0FFF1F0590F491E02D0994A29F72
S1130DC0B001B39FC001A39F700D811D1124911D1B
S1130DD0B29F700D811D1124911D08950F931F93CF
S1130DE0CF93DF938230910510F482E090E0E0919C
S1130DF08103F091820320E030E0A0E0B0E030977E
S1130E0019F1408151810281138148175907C8F0B3
S1130E108417950769F4109731F012960C93129782
S1130E2013961C9327C0009381031093820322C05E
S1130E302115310519F04217530718F49A01BD0121
S1130E40EF01DF01F801DBCF21153105F9F0281B93
S1130E50390B2430310580F48A819B816115710539
S1130E6021F0FB019383828304C0909382038093D7
S1130E708103FE01329644C0FE01E20FF31F819309
S1130E80919322503109398328833AC020917F03FA
S1130E9030918003232B41F420910201309103010E
S1130EA03093800320937F0320910001309101014E
S1130EB02115310541F42DB73EB7409104015091FD
S1130EC00501241B350BE0917F03F0918003E217A9
S1130ED0F307A0F42E1B3F0B2817390778F0AC0159
S1130EE04E5F5F4F2417350748F04E0F5F1F509336
S1130EF0800340937F038193919302C0E0E0F0E08C
S1130F00CF01DF91CF911F910F910895CF93DF937C
S1130F10009709F481C0FC01329713821282A091D8
S1130F208103B0918203109781F420813181820F73
S1130F30931F20917F03309180032817390751F5BF
S1130F40F0938003E0937F0367C0ED0120E030E07D
S1130F50CE17DF0740F44A815B819E01411551059C
S1130F60F1F0EA01F5CFD383C28340815181840F2C
S1130F70951FC817D90759F488819981840F951F43
S1130F800296918380838A819B8193838283211536
S1130F90310529F4F0938203E09381033DC0E90114
S1130FA0FB83EA8349915991C40FD51FEC17FD07C0
S1130FB061F480819181840F951F0296E9019983E0
S1130FC08883828193819B838A83E0E0F0E0129698
S1130FD08D919C911397009719F0FD01DC01F7CFD7
S1130FE08D919C9111979D012E5F3F4F820F931F0E
S1130FF020917F03309180032817390769F43097D3
S113100029F4109282031092810302C01382128287
S1131010B0938003A0937F03DF91CF910895F89458
S1051020FFCFFC
S10D102200008303200014040A9C5C
S9030000FC
