:100000000C943B000C9458000C9458000C9458002D
:100010000C9458000C9458000C9458000C94580000
:100020000C9458000C9458000C9436010C94E20087
:100030000C9401010C9458000C9458000C94580036
:100040000C947D010C9458000C94A1010C94580060
:100050000C9458000C9458000C9458000C945800C0
:100060000C9458000C9458006F037D039503AA0369
:10007000BF03CD03F20311241FBECFEFD8E0DEBFD4
:10008000CDBF11E0A0E0B1E0ECE6F0E102C00590E8
:100090000D92AA30B107D9F723E0AAE0B1E001C080
:1000A0001D92A138B207E1F70E94EA050C943408CA
:1000B0000C940000CF92DF92EF92FF92CF93DF93E8
:1000C000EC016A017B018FE090E00E941307FC01C4
:1000D00090930B0180930A01D183C083C286D3869B
:1000E000E486F5861686118610861582148217829C
:1000F000168280E0FE01099580910A0190910B0122
:10010000DF91CF91FF90EF90DF90CF900895909383
:100110000B0180930A01DC01ED91FC9181E00995CE
:10012000089590930B0180930A01DC01ED91FC91FD
:1001300080E00995089590930B0180930A01FC01DA
:100140007583648316860895FC0190930B01809358
:100150000A01778366838685816086870895E091AA
:100160000A01F0910B01309711F1868580FF1FC0C5
:10017000168624813581868197812817390728F4CE
:10018000821B930B9187808705C0821B930B01977D
:100190009187808780859185853F9D4220F08FEFF4
:1001A0009FEF91878087808591850E9461040895E3
:1001B000882321F085B1826085B9089585B18D7F4E
:1001C00085B908951F920F920FB60F9211248F9345
:1001D0009F93EF93FF938091460281608093460244
:1001E000E8E8F0E080819181815E914B918380838A
:1001F000FF91EF919F918F910F900FBE0F901F90E5
:1002000018951F920F920FB60F9211242F933F93C0
:100210004F935F936F937F938F939F93AF93BF930E
:10022000EF93FF9380912301909124010E9491000C
:1002300086B3806286BBE1E8F0E080EC8083808159
:100240008260808382E280936F00FF91EF91BF9183
:10025000AF919F918F917F916F915F914F913F915E
:100260002F910F900FBE0F901F9018951F920F9215
:100270000FB60F9211242F933F934F935F936F9379
:100280007F938F939F93AF93BF93EF93FF9380914F
:10029000810086FF10C082E8809381006091860013
:1002A0007091870076956795809123019091240144
:1002B0000E949B0011C0EFE6F0E080818F7D80837B
:1002C00060918600709187007695679580912301F3
:1002D000909124010E94A400FF91EF91BF91AF91F2
:1002E0009F918F917F916F915F914F913F912F914E
:1002F0000F900FBE0F901F9018951F920F920FB680
:100300000F9211242F933F934F935F936F937F939B
:100310008F939F93AF93BF93EF93FF930E94A10698
:10032000FF91EF91BF91AF919F918F917F916F91CD
:100330005F914F913F912F910F900FBE0F901F90A3
:1003400018951F920F920FB60F9211248F939F93BF
:10035000AF93BF93EF93FF93E5E3F2E0A081B18108
:10036000838191E0980F9383A80FB11D8091C600FF
:100370008C938581938189238383FF91EF91BF9132
:10038000AF919F918F910F900FBE0F901F90189576
:100390008EE384B980EC8AB984B18E7F84B98AB146
:1003A000837C8AB981E085B98CE38BB9089510927A
:1003B000800082EC8093810010928500109284006E
:1003C00082E080936F008FE19EE490938900809398
:1003D000880086B386BB089514BC16BC87E085BB35
:1003E00081E080936E0082E085BD08951092C50083
:1003F0008093C4008EEF8093C00088E98093C10091
:1004000086E08093C2000895AC0120E030E00DC08A
:10041000F901EE0FFF1FEE0FFF1FE40FF51F91E034
:100420009083928311822F5F3F4F2430310584F3F4
:100430000895FC018081813089F028F08230B1F08C
:10044000833001F126C0613031F48281813019F4AA
:100450008083818320C083E080831DC0611103C03D
:1004600082E0808318C081E0808315C0611107C0DD
:100470008281811104C083E0808311820CC081E0FD
:10048000808309C0613011F4108205C083E080834D
:1004900002C081E0808362830895FC018181089518
:1004A000FC011582A081B181838191E0980F938333
:1004B000A80FB11D85E58C93848193819823A08139
:1004C000B18181E0890F8383A90FB11D8EE48C93E4
:1004D000848193819823A081B18181E0890F8383F6
:1004E000A90FB11D85E48C93848193819823A08109
:1004F000B18181E0890F8383A90FB11D82E58C93BF
:10050000848193819823A081B18181E0890F8383C5
:10051000A90FB11D4F5F4C93848193819823A081D3
:10052000B18181E0890F8383A90FB11D8AE38C9388
:10053000848193819823A081B18181E0890F838395
:10054000A90FB11D6C939481838198239383958126
:100550004927642786E3862785830895FC01A081C7
:10056000B181838191E0980F9383A80FB11D6C93A3
:100570009481838198239383858186278583089539
:100580000F931F93CF93DF93EB01DC01ED91FC916F
:10059000119714968C91E80FF11D6081683A70F400
:1005A000643A08F084C0633AE0F5603A08F07FC02E
:1005B000603101F1623109F06EC079C06E3D09F41D
:1005C00076C020F46A3A09F443C065C0603F21F068
:1005D000613F09F060C06BC042E060EFCE010E9455
:1005E00050026DE0CE010E94AE026D81CE010E94EC
:1005F000AE025DC043E060E1CE010E9450020BE418
:1006000012E0F8016081CE010E94AE02D80111967D
:100610006C91CE010E94AE026D81CE010E94AE02AD
:1006200046C043E063EACE010E9450020BE412E0B0
:10063000F8016081CE010E94AE02D80111966C9142
:10064000CE010E94AE026D81CE010E94AE022FC08B
:10065000E0912701F0912801EE0FFF1FE15AFC4FB6
:1006600080810BE412E090E0F8019183808343E005
:100670006AEACE010E945002D8016C91CE010E941C
:10068000AE02F8016181CE010E94AE026D81CE0101
:100690000E94AE020CC042E0CE010E9450026FEFF9
:1006A000CE010E94AE026D81CE010E94AE02DF91AA
:1006B000CF911F910F910895DC0113962C91139700
:1006C000C9C01896EC9118974E2F50E0473051054D
:1006D00008F0B2C0FA01EC5CFF4F0C94FE06ED91FD
:1006E000FC911197E80FF11D8081853509F0A7C0B5
:1006F00081E018968C931897A2C0ED91FC91119708
:10070000E80FF11D90819E3429F482E018968C93B5
:10071000189795C0953509F492C018961C921897B1
:10072000815012968C9312978AC0ED91FC9111978B
:10073000E80FF11D9081953429F483E018968C938D
:1007400018977DC018961C921897815012968C931A
:10075000129775C0ED91FC911197E80FF11D9081F2
:10076000923529F484E018968C93189768C01896EF
:100770001C921897815012968C93129760C0ED913D
:10078000FC911197E80FF11D808117968C931797B4
:1007900085E018968C93189752C0ED91FC911197B3
:1007A000E80FF11D90819A33A9F496E018969C9376
:1007B00018978F5F15969C911597892314968C93A3
:1007C000149717969C91179786E3892716968C9312
:1007D000169735C018961C921897815012968C93D4
:1007E00012972DC017969C911797915017969C932E
:1007F0001797992371F0ED91FC911197E80FF11D76
:10080000808116969C911697892716968C93169739
:1008100016C018961C921897ED91FC911197E80F4D
:10082000F11D908116968C911697981308C081E05F
:100830001A968C931A9703C018961C9218971296C2
:100840008C9112978F5F15969C911597892312961C
:100850008C93129712968C911297281332CF089589
:100860000F931F93CF93DF938C01EB01FC018285E3
:10087000882321F01286C8010E94C002F8019281EB
:100880008381981719F0C8010E945C038A819B81BB
:10089000891791F09091C00095FF0EC0E881F98111
:1008A00091E0980F9A83E80FF11D80818093C60034
:1008B0008C819A8189238A83DF91CF911F910F9137
:1008C00008959093100180930F01089520912B02B9
:1008D00030912C0228173907B0F420912902309169
:1008E0002A028217930778F4E0912701F0912801FA
:1008F000EE0FFF1FE15AFC4F118221E0208335B13A
:1009000024E0232725B920912F02309130022817A7
:100910003907B0F420912D0230912E0282179307EF
:1009200078F4E0912701F0912801EE0FFF1FE15AC2
:10093000FC4F118222E0208335B120E2232725B924
:10094000209133023091340228173907B8F42091EE
:100950003102309132028217930780F4E09127012F
:10096000F0912801EE0FFF1FE15AFC4F118283E046
:10097000808395B180E4892785B903C084E08093A2
:100980005F0380912701909128010196909328019F
:10099000809327010F9720F01092280110922701D1
:1009A0008FE492E00E944D02813029F4809146024A
:1009B0008D7F809346020895CF93DF93EC018FE4FF
:1009C00092E00E944D02811114C08091460281FD87
:1009D00010C0CC3484E0D80760F480914602826075
:1009E00080934602CE010E94660495B180E2892779
:1009F00085B9DF91CF9108951F93CF93DF9311E0D5
:100A000076C0C12FD0E0CE01880F991F880F991FA3
:100A1000815B9D4F0E944D02811168C0FE01EE0F67
:100A2000FF1FEE0FFF1FE15BFD4F9381E0910E0171
:100A3000F0E0EE0FFF1FE15AFC4F8081981311C0C8
:100A40006AE580E00E94730680910E01E82FF0E0D5
:100A5000EE0FFF1FE15AFC4F92E091838F5F80936E
:100A60000E01FE01EE0FFF1FEE0FFF1FE15BFD4FBA
:100A70009381E0910D01F0E0EE0FFF1FE15AFC4F72
:100A80008081981311C06AE581E00E94730680910D
:100A90000D01E82FF0E0EE0FFF1FE15AFC4F92E04E
:100AA00091838F5F80930D01CC0FDD1FCC0FDD1F75
:100AB000C15BDD4F9B81E0910E01F0E0EE0FFF1F67
:100AC000E15AFC4F8081981311C06AE582E00E94D0
:100AD000730680910C01E82FF0E0EE0FFF1FE15A42
:100AE000FC4F92E091838F5F80930C011F5F143065
:100AF00008F487CFDF91CF911F910895CF93DF93B3
:100B00008091070181111BC0809184009091850024
:100B10004496909312018093110190938B008093DF
:100B20008A0086E086BB84E080936F008091230179
:100B3000909124010E9487008AE0809307018091B0
:100B40000601882381F01FC0FE01E95BFD4FCE0145
:100B5000880F991F880F991F6081815B9D4F0E94AC
:100B60001902219602C0C0E0D0E0C430D10564F380
:100B700084E08093060180910F01909110010E9402
:100B8000DC040E94FC0489B182FB882780F9E7E439
:100B9000F2E0808389B183FB882780F9818389B162
:100BA00082958170828389B185FB882780F9838350
:100BB000809146028E7F809346028091070181508A
:100BC0008093070180910601815080930601DF9197
:100BD000CF910895F894109246020E94C8010E9495
:100BE000D7010E94EC0180E10E94F6018FE492E0BF
:100BF0000E94040267E08BE290E00E945F0664E0DE
:100C000085E290E00E945F0663E085E290E00E944A
:100C10005F0640E150E060E070E088ED90E00E9407
:100C20005A00A0E0B0E08093230190932401A093A8
:100C30002501B0932601E5E3F2E089E291E091839A
:100C400080831282138210868FEF8583E0E4F2E0C6
:100C50002FE532E031832083128213828483E9E21C
:100C6000F2E086E693E09183808382EF92E09383C3
:100C70008283958384838EE792E09783868391872E
:100C800080878AE092E093878287EFE4F2E081E058
:100C9000878392E0938793E0978780935F037894AC
:100CA0000E94AF0060E472E085E392E00E943004AD
:100CB0008091460280FFF4CF0E947E05F1CF209103
:100CC0001301E22FF0E0AF01440F551F440F551FF1
:100CD000E40FF51FEC5EFE4F6283918380832F5FEC
:100CE000209313010895482F85E7689F90011124F0
:100CF0002E5C364DA3E8BDE20E94040796958795C9
:100D0000929582958F7089279F7089279C012B5F10
:100D10003F4FADECBCEC0E940407969587959695E5
:100D2000879596958795242F30E0F901EE0FFF1FE8
:100D3000EE0FFF1F2E0F3F1FF901EC5EFE4F848365
:100D400008958091080181508093080120E02AC015
:100D5000822F90E0FC01EE0FFF1FEE0FFF1FE80F48
:100D6000F91FEC5EFE4F33813150338333813111F3
:100D700018C0FC01EE0FFF1FEE0FFF1F8E0F9F1F0D
:100D8000FC01EC5EFE4FA081B1813C9181E090E0DE
:100D9000028002C0880F991F0A94E2F7809583238E
:100DA0008C932F5F80911301281790F29091080186
:100DB0009923E9F00895E92FF0E09F01220F331FF6
:100DC000220F331FE20FF31FEC5EFE4F24812383BB
:100DD000A081B1814C9121E030E0028002C0220F5D
:100DE000331F0A94E2F7242B2C939F5F01C090E0FD
:100DF000981708F38CE9809308010895EE0FFF1F00
:100E00000590F491E02D0994A29FB001B39FC00119
:100E1000A39F700D811D1124911DB29F700D811D26
:100E20001124911D08950F931F93CF93DF93823068
:100E3000910510F482E090E0E0917F03F09180034F
:100E400020E030E0A0E0B0E0309719F1408151811E
:100E50000281138148175907C8F08417950769F470
:100E6000109731F012960C93129713961C9327C08B
:100E700000937F031093800322C02115310519F0E0
:100E80004217530718F49A01BD01EF01DF01F80181
:100E9000DBCF21153105F9F0281B390B2430310542
:100EA00080F48A819B816115710521F0FB01938398
:100EB000828304C09093800380937F03FE01329667
:100EC00044C0FE01E20FF31F819391932250310938
:100ED000398328833AC020917D0330917E03232BF0
:100EE00041F4209102013091030130937E0320935D
:100EF0007D0320910001309101012115310541F45C
:100F00002DB73EB74091040150910501241B350BCC
:100F1000E0917D03F0917E03E217F307A0F42E1B0E
:100F20003F0B2817390778F0AC014E5F5F4F24174D
:100F3000350748F04E0F5F1F50937E0340937D03AB
:100F40008193919302C0E0E0F0E0CF01DF91CF9177
:100F50001F910F910895CF93DF93009709F481C0FB
:100F6000FC01329713821282A0917F03B09180031B
:100F7000109781F420813181820F931F20917D038E
:100F800030917E032817390751F5F0937E03E093E3
:100F90007D0367C0ED0120E030E0CE17DF0740F4AD
:100FA0004A815B819E0141155105F1F0EA01F5CFBF
:100FB000D383C28340815181840F951FC817D907FD
:100FC00059F488819981840F951F029691838083BB
:100FD0008A819B81938382832115310529F4F093C3
:100FE0008003E0937F033DC0E901FB83EA834991DD
:100FF0005991C40FD51FEC17FD0761F480819181D1
:10100000840F951F0296E9019983888382819381D9
:101010009B838A83E0E0F0E012968D919C91139778
:10102000009719F0FD01DC01F7CF8D919C9111978C
:101030009D012E5F3F4F820F931F20917D033091C2
:101040007E032817390769F4309729F4109280033A
:1010500010927F0302C013821282B0937E03A0938A
:0C1060007D03DF91CF910895F894FFCF3D
:0A106C00000081032000040A9C002C
:00000001FF
