:020000020000FC
:040000000C94270233
:040040000C9481009B
:040048000C94920082
:1000680032303235303331345F30316230310A006A
:10007800544553540A0053544154452049444C456F
:100088000A00535441544520554E4F0A000053541A
:1000980041544520444F530A0000535441544520CD
:1000A800545245530A005354415445204355415432
:1000B800524F53544154452043494E434F0A5354D9
:1000C80041544520534549530A005354415445204F
:1000D80053494554450A5354415445204F43484FCA
:1000E8000A005354415445204E554556450A535429
:1000F800415445204449455A0A002FB62F920F9380
:1001080000915F010A9500935F0121F4F59A05E0DB
:1001180000935F010F912F902FBE18952FB62F9245
:100128000F931F93AF93BF93ABE1B1E000913B01F5
:100138001127A00FB11F1091C6001C9303950F71D2
:1001480000933B01BF91AF911F910F912F902FBE4C
:10015800189500000000BEBADEFA0000008000001A
:10016800004000E204B900E105B9089502E004BDC9
:10017800002706BD05BB02E000936E0004E005BD44
:100188000CE707BD08950EEF0093C00008E900933F
:10019800C10006E00093C20000E10093C400009390
:1001A800C40000E00093C50008950F931F93AF9318
:1001B800BF9300915D01B1E0ADE3A00F08F4BF5F0C
:1001C80003950F711591103011F01C93A1F70A9542
:1001D8000F7100935D01BF91AF911F910F91089529
:1001E80000913C01ABE1B1E01127A00FB11F0395CD
:1001F8000F7100933C010C91063509F005C0E8E643
:10020800F0E00E94D9000895043509F005C0E8E738
:10021800F0E00E94D9000895033509F0089500918F
:1002280066010A3A49F4EEE7F0E00E94D90000E0DE
:1002380010E020E030E8C8C0EAE8F0E00E94D90009
:1002480000916901039500936901013091F0023032
:10025800A9F00330C1F00430D9F00530F1F00630D0
:1002680009F1073021F1083039F1093051F10A302C
:1002780069F100E010E020E031EFA6C000E010E0F6
:1002880020E131EFA1C000E010E021E131EF9CC096
:1002980000E010E121E131EF97C000E011E121E138
:1002A80031EF92C000E010E020E431EF8DC000E0B3
:1002B80010E820E431EF88C000E010EA20E431EFD4
:1002C80083C000E018EA20E431EF7EC000E01AEABB
:1002D80020E431EF90E09093690176C000916A01C3
:1002E800F09904C01C9B06C0F09A03C01C9902C078
:1002F800F09806E0002319F00A9509F4F79A00939C
:100308006A010895F798F0990895009166010A3AEC
:1003180049F4EEE7F0E00E94D90000E010E020E0A8
:1003280030E852C0EAE8F0E00E94D9000091690183
:10033800039500936901013091F00230A9F0033070
:10034800C1F00430D9F00530F1F0063009F107307A
:1003580021F1083039F1093051F10A3069F100E032
:1003680010E020E031EF30C000E010E020E131EF94
:100378002BC000E010E021E131EF26C000E010E1E1
:1003880021E131EF21C000E011E121E131EF1CC092
:1003980000E010E020E431EF17C000E010E820E4AE
:1003A80031EF12C000E010EA20E431EF0DC000E0A8
:1003B80018EA20E431EF08C000E01AEA20E431EF3F
:1003C80090E09093690100C0009365011093660165
:1003D80020936701309368010895009160010A95A0
:1003E8000093600109F008950AE000936001C0904D
:1003F8006101D0906201E0906301F0906401809007
:10040800650190906601A0906701B09068018C200A
:100418009D20AE20BF208928AB288A2811F02D9A6C
:1004280001C02D988894F794E794D794C79410F452
:1004380000E8F02EC0926101D0926201E09263015F
:10044800F09264010895F8940FEF0DBF08E00EBF15
:100458000E94B5000E94BA000E94C70000270EBB88
:1004680000933B0100933C0100935D0100935E0102
:100478000093610100936201009363010093690195
:1004880000E80093640100E0009365010AEA009324
:10049800660100E40093670101EF0093680105E03D
:1004A80000935F010AE0009360017894F59B08C00F
:1004B800F5980E94F1010E947201F7990E94860145
:1004C80010913B0100913C01011711F00E94F400CA
:1004D80010915D0100915E01011709F40C945A0214
:1004E8001091C00015FF0C945A02ADE3B1E011273A
:1004F800A00FB11F03950F7100935E0102E40093F2
:0C050800C0000C910093C6000C945A0235
:00000001FF
