S01D000043696E74615472616E73706F727461646F72615F312E73726563B4
S11300000C943B000C9458000C9458000C94580029
S11300100C9458000C9458000C9458000C945800FC
S11300200C9458000C9458000C94B0050C943E05A4
S11300300C947B050C9458000C9458000C945800B4
S11300400C94F7050C9458000C941B050C94580060
S11300500C9458000C9458000C9458000C945800BC
S11300600C9458000C9458001401230134014501E8
S1130070560164017A0111241FBECFEFD8E0DEBF20
S1130080CDBF11E0A0E0B1E0E0E1F3E102C00590F2
S11300900D92AA30B107D9F723E0AAE0B1E001C07C
S11300A01D92AB3DB207E1F70E9413070C94860939
S11300B00C94000010924801E6E3F1E083E08083B1
S11300C01182138212828DE184878CE591E09583FD
S11300D0848380ED91E09783868384E492E0918722
S11300E08087109243011092460109C0E82FF0E086
S11300F0EA5DFE4F9FEF90838F5F8093460180916E
S11301004601803198F30895E6E3F1E04481558196
S1130110248530E0BA01621B730B8617970768F0D9
S1130120420F531F4817590740F0E0914801F0E08F
S1130130EA5DFE4F81E0808335C040913C015091DF
S11301403D01BA01621B730B8617970768F0420FD3
S1130150531F4817590740F0E0914801F0E0EA5D69
S1130160FE4F82E080831EC040913E0150913F01CA
S1130170BA01621B730B8617970768F0240F351FAB
S11301802817390740F0E0914801F0E0EA5DFE4F9E
S113019083E0808307C0E0914801F0E0EA5DFE4F10
S11301A08DED808380914801809347018F5F8F702C
S11301B0809348010895E82FF0E0EA5DFE4F8081C6
S11301C00895E82FF0E0EA5DFE4F60830895FC0196
S11301D07093C5006093C4008EEF8093C00088E9DB
S11301E08093C10086E08093C20010821182128243
S11301F0158216821382148250934A014093490156
S113020008951F93CF93DF93EC011B819BC0E09172
S11302104B018E2F90E08730910508F091C0FC01CE
S1130220EC5CFF4F0C94500881E0820F8C83FE013C
S1130230E20FF11D8781853509F084C081E0809348
S11302404B011A827FC081E0820F8C83FE01E20F92
S1130250F11D87818E3421F482E080934B0172C0BA
S11302602C8310924B016EC081E0820F8C83FE01BF
S1130270E20FF11D8781853421F483E080934B01E3
S113028061C02C8310924B015DC081E0820F8C838E
S1130290FE01E20FF11D8781823521F484E0809311
S11302A04B0150C02C8310924B014CC0298381E038
S11302B0820F8C83FE01E20FF11D878180930A0176
S11302C085E080934B013EC081E0820F8C83FE0168
S11302D0E20FF11D87818A3349F486E080934B0154
S11302E090910A0186E389278A832CC02C8310927B
S11302F04B0128C080910A01823050F091E0920FA6
S11303009C83FE01E20FF11D97812A8192279A8333
S1130310815080930A01811115C010924B019A817A
S11303208C81FE01E80FF11D878198130BC0E091C9
S11303304901F0914A01309729F0CE01099502C094
S113034010924B012C81121362CFDF91CF911F9138
S11303500895CF93DF93EC019C818B81981719F05A
S1130360CE010E9401018E819D81891779F09091BF
S1130370C00095FF0BC0FE01E80FF11DE95FFE4FC1
S113038080818093C6008E818F5F8E83DF91CF91B1
S11303900895FC012181213031F060F02230F1F028
S11303A0233079F029C0FC012081211127C022E0EB
S11303B021830895FC012081213001F523E021836C
S11303C008958081813041F4818382830680F7819E
S11303D0E02D83E0099508951182089580818111AB
S11303E008C0118212820680F781E02D82E009950F
S11303F0089581E08183089581E0818308951092B6
S11304004C0112C0E82FF0E0EE0FFF1FEE0FFF1FAC
S1130410EE0FFF1FE35BFE4F1482138215821782D7
S113042016828F5F80934C0180914C01843050F38D
S113043010924C0108959C0180914C018430A0F4E9
S1130440E82FF0E0EE0FFF1FEE0FFF1FEE0FFF1F70
S1130450E35BFE4F3483238365835783468391E0B4
S1130460980F90934C01089580E0089510924601EE
S11304703BC090E0FC01EE0FFF1FEE0FFF1FEE0FDD
S1130480FF1FE35BFE4FA381B4812C9130E0058014
S113049002C0359527950A94E2F720FF0CC0FC01B1
S11304A0EE0FFF1FEE0FFF1FEE0FFF1FE35BFE4F6C
S11304B021E020830AC0FC01EE0FFF1FEE0FFF1F97
S11304C0EE0FFF1FE35BFE4F1082880F991F880F0A
S11304D0991F880F991F835B9E4F0E94C9018091C9
S11304E046018F5F8093460180914601843008F273
S11304F00895E82FF0E0EE0FFF1FEE0FFF1FEE0F41
S1130500FF1FE35BFE4F8281089580910B01909160
S11305100C01019690930C0180930B010895CF92E6
S1130520DF92EF92FF92CF93DF93EC016A017B019C
S113053082E190E00E946508FC0190930E01809393
S11305400D01892B39F1D183C083C186D286E3861C
S1130550F486168210861782138212821582148200
S11305601686158617868091110190911201918B40
S1130570808B892B21F4F0931001E0930F0180E02C
S1130580FE01099580910D0190910E019093120145
S11305908093110180910D0190910E01DF91CF9113
S11305A0FF90EF90DF90CF90089590930E01809389
S11305B00D01009721F0FC0187819085089580E06A
S11305C090E0089590930E0180930D01009771F0CF
S11305D0FC010190F081E02D81E00995E0910D018D
S11305E0F0910E0182E0878780E0089581E008950C
S11305F090930E0180930D01009731F0FC0101905E
S1130600F081E02D80E00995089590930E01809388
S11306100D01009721F0FC01738362831682089513
S1130620FC0190930E0180930D01892B29F07583B1
S113063064838681886086830895E0910F01F09138
S11306401001309709F445C0868183FF2EC01682BD
S113065022813381848195812817390728F4821BEC
S1130660930B9087878305C0821B930B0197908718
S113067087838781908581359D4220F08FEF9FEF9E
S1130680908787830584F685E02D309749F0A09103
S11306900D01B0910E0117968D919C9118970995B3
S11306A0E0910F01F09110011786E0910D01F09196
S11306B00E01808991899093100180930F01892BF9
S11306C041F4809111019091120190931001809353
S11306D00F01089590930E0180930D01009719F076
S11306E0FC01768765870895882321F085B18260AF
S11306F085B9089585B18D7F85B908950895CF9200
S1130700DF92EF92FF920F931F93CF93DF93EC014D
S1130710E3E7F1E085E580838EE4818385E48283E9
S113072082E58383148286E0809313018AE38583C0
S1130730E981F0E03296EC0FFD1F87818E3D09F4CC
S1130740ADC030F4803A09F43FC0833AA9F0D3C075
S1130750813F09F4E5C0833F09F4B7C0803F09F045
S1130760CAC0E3E7F1E0868388E0809313018DE05B
S1130770878383E08483D4C087E08093130103E7F5
S113078011E083EAD80116968C9380916D019091C3
S11307906E010E94D5022CEA33E0F9018083918333
S11307A0A0911301E1E0EA0FB0E0AD58BE4F8C9385
S11307B081E08E0F80931301F0E0ED58FE4F90839B
S11307C084E0F8018483ACC087E0809313010F2E8A
S11307D0F3E7EF2EF1E0FF2EF02D80EAD701169615
S11307E08C938091B0030E9479020CEA13E090E0AC
S11307F0F80191838083A0911301E1E0EA0FB0E056
S1130800AD58BE4F8C9381E08E0F80931301F0E0BE
S1130810D80111968C91ED58FE4F80830F2EF1EB89
S1130820CF2EF3E0DF2EF02DF60180810E947902B5
S113083090E0D8018D939C93A0911301E1E0EA0F1D
S1130840B0E0AD58BE4F8C9381E08E0F80931301BE
S1130850F0E0D80111968C91ED58FE4F8083F6019B
S113086084850E94790290E0D8018D939C93A09195
S11308701301E1E0EA0FB0E0AD58BE4F8C9381E084
S11308808E0F80931301F0E0D80111968C91ED58EE
S1130890FE4F808388E0F701848342C0E3E7F1E000
S11308A08EED8683A1EBB3E014968C911497878325
S11308B050968C91509780878AE0809313015C96C0
S11308C08C91818785E084832BC003E711E083EF5B
S11308D0D80116968C9388E0809313018091470188
S11308E091E0980F909347010E94DB00F801878301
S11308F083E0848315C0A3E7B1E08DED16968C9355
S1130900169788E080931301E981F0E03296EC0FAA
S1130910FD1F878117968C93179783E014968C9309
S1130920109271011092460118C0E82FF0E0ED58C2
S1130930FE4F9081209171019227909371019D81C6
S113094021E0290F2D832081FE01E90FF11DE95FCC
S1130950FE4F20838F5F80934601809146019091E2
S11309601301891710F38D8191E0980F9D83C80FAF
S1130970D11DC95FDE4F809171018883DF91CF91D2
S11309801F910F91FF90EF90DF90CF900895CF9338
S1130990DF93EC018091B0030E94790281113DC084
S11309A08091430180FD39C0E6E3F1E091819F5FCE
S11309B09183C83884E0D807D8F528E834E02C1BA4
S11309C03D0B42815381240F351F33832283608181
S11309D0961718F1EF01118270E0C9010E943C08DA
S11309E0CB017B836A830E9484001B821A82A5EA5E
S11309F0B1E013968C911397E82FF0E0E955FE4F80
S1130A0093EF978311968C931197CD010E947F03E6
S1130A10809143018160809343018091B0030E94DF
S1130A207902813029F4809143018E7F80934301C0
S1130A30DF91CF9108951F920F920FB60F92112458
S1130A408F93AF93BF93EF93FF93A5EAB1E013960F
S1130A50EC91139781E08E0F13968C93F0E08091C4
S1130A60C600EB55FE4F8783FF91EF91BF91AF9185
S1130A708F910F900FBE0F901F9018951F920F9299
S1130A800FB60F9211242F933F934F935F936F935D
S1130A907F938F939F93AF93BF93EF93FF93E8E874
S1130AA0F0E0808191818053984F9183808380917D
S1130AB0080181508093080180910801811108C0C8
S1130AC0809172018160809372018AE080930801B1
S1130AD00E948502FF91EF91BF91AF919F918F91F9
S1130AE07F916F915F914F913F912F910F900FBE26
S1130AF00F901F9018951F920F920FB60F9211240A
S1130B002F933F934F935F936F937F938F939F9311
S1130B10AF93BF93EF93FF9380916D0190916E011A
S1130B200E94F80286B3806286BBE1E8F0E080ECC4
S1130B30808380818260808382E280936F00FF9152
S1130B40EF91BF91AF919F918F917F916F915F9141
S1130B504F913F912F910F900FBE0F901F901895BA
S1130B601F920F920FB60F9211242F933F934F931E
S1130B705F936F937F938F939F93AF93BF93EF9301
S1130B80FF938091810086FF10C082E880938100EA
S1130B9060918600709187007695679580916D01CC
S1130BA090916E010E94050311C0EFE6F0E0808190
S1130BB08F7D80836091860070918700769567951C
S1130BC080916D0190916E010E941003FF91EF914D
S1130BD0BF91AF919F918F917F916F915F914F9151
S1130BE03F912F910F900FBE0F901F9018951F9259
S1130BF00F920FB60F9211242F933F934F935F934D
S1130C006F937F938F939F93AF93BF93EF93FF93D0
S1130C100E94D607FF91EF91BF91AF919F918F9161
S1130C207F916F915F914F913F912F910F900FBEE4
S1130C300F901F90189582E284B984B18E7E84B996
S1130C4081E185B980EE8AB98AB1837E8AB98BB194
S1130C508C618BB90895109280008FE19EE490938B
S1130C6089008093880086B386BB82E080936F00FE
S1130C7082E880938100089514BC16BC87E085BB8C
S1130C8081E080936E0082E085BD0895CF93DF9369
S1130C9065E08BE290E00E94B907C1EBD3E0898361
S1130CA066E08BE290E00E94B9078D8767E08BE2F3
S1130CB090E00E94B907898F4EE753E064E083E235
S1130CC090E00E941B028093B0034AEC56E062E07D
S1130CD089E290E00E941B02888340ED56E063E0C5
S1130CE089E290E00E941B028C8746ED56E064E0A6
S1130CF089E290E00E941B02888F81E08A831C8233
S1130D001B8284E68B8792E09E87188A1F868F8BCE
S1130D1093E09A8F1C8E1B8E8BA3DF91CF91089545
S1130D20CF93DF93EC01633019F504C08B818F5F9F
S1130D308F708B838B8190914801891721F00E94D9
S1130D40DB008F3F99F38B810E94DB009A8189132A
S1130D5003C081E08C8307C08B819091480189177F
S1130D6011F08F5F8B8364EB89810E945D070FC054
S1130D708C81813061F48B8191E0980F9B836FEFBC
S1130D800E94E10060E089810E945D071C82DF917E
S1130D90CF910895682F81EB93E00E949006089507
S1130DA0682F8DEB93E00E9490060895682F89ECDC
S1130DB093E00E94900608958091070181111AC062
S1130DC080918400909185000F96909315018093F3
S1130DD0140190938B0080938A0086E086BB8093F5
S1130DE06F0080916D0190916E010E94E2028AE091
S1130DF080930701809107018150809307018091BE
S1130E000601811105C00E94360284E08093060128
S1130E1080910601815080930601809172018E7F3A
S1130E20809372010895F894109272010E941B0637
S1130E300E942B060E943C064FE753E060E170E0FD
S1130E4085EA91E00E94E7000E94FF010E945A0097
S1130E500E94460640E150E060E070E084E793E0E1
S1130E600E948F02AC0160E070E040936D015093EA
S1130E706E0160936F017093700167EC74E00E94DF
S1130E806A037894C1EBD3E06AE589810E945D0727
S1130E906AE58D850E945D076AE5898D0E945D077C
S1130EA085EA91E00E94A9010E941D0380917201CC
S1130EB080FFF6CF0E94DC06F3CF482F8091160105
S1130EC0481708F055C0653B08F052C085E7689F95
S1130ED0B00111247093D6036093D5038091D50398
S1130EE09091D6038E5C964D9093D6038093D50350
S1130EF02091D5033091D603A3E8BDE20E945608A1
S1130F0096958795929582958F7089279F708927EA
S1130F109093D6038093D5038091D5039091D60303
S1130F2005969093D6038093D5032091D5033091F1
S1130F30D603ADECBCEC0E94560896958795969521
S1130F408795969587959093D6038093D503842FA0
S1130F5090E02091D5033091D603FC01EE0FFF1FE2
S1130F60EE0FFF1F8E0F9F1FFC01E95EFE4F2483CF
S1130F7008959C01809116018330B0F4E82FF0E0CD
S1130F80AF01440F551F440F551FE40FF51FE95ED1
S1130F90FE4F9CE09383948331832083628391E0AA
S1130FA0980F9093160108958FEF08958091090189
S1130FB0815080930901109246012DC090E0FC01FC
S1130FC0EE0FFF1FEE0FFF1FE80FF91FE95EFE4F44
S1130FD02381215023832381211118C0FC01EE0FAA
S1130FE0FF1FEE0FFF1F8E0F9F1FFC01E95EFE4FD8
S1130FF0A081B1812C9181E090E0028002C0880F31
S1131000991F0A94E2F7809582238C93809146017C
S11310108F5F8093460180914601833078F28091FE
S11310200901811128C0109246011EC0F0E0CF01D1
S1131030880F991F880F991FE80FF91FE95EFE4F6B
S113104084818383A081B1812C9181E090E002802E
S113105002C0880F991F0A94E2F7822B8C93809127
S113106046018F5F80934601E0914601E330F0F240
S11310708CE9809309010895AA1BBB1B51E107C0A9
S1131080AA1FBB1FA617B70710F0A61BB70B881F14
S1131090991F5A95A9F780959095BC01CD010895A3
S11310A0EE0FFF1F0590F491E02D0994A29FB0016B
S11310B0B39FC001A39F700D811D1124911DB29F88
S11310C0700D811D1124911D08950F931F93CF93CB
S11310D0DF938230910510F482E090E0E091D9032F
S11310E0F091DA0320E030E0A0E0B0E0309719F1AD
S11310F0408151810281138148175907C8F0841730
S1131100950769F4109731F012960C931297139681
S11311101C9327C00093D9031093DA0322C021152E
S1131120310519F04217530718F49A01BD01EF0174
S1131130DF01F801DBCF21153105F9F0281B390B4C
S11311402430310580F48A819B816115710521F079
S1131150FB019383828304C09093DA038093D903C1
S1131160FE01329644C0FE01E20FF31F8193919376
S113117022503109398328833AC02091D703309112
S1131180D803232B41F420910201309103013093C1
S1131190D8032093D7032091000130910101211538
S11311A0310541F42DB73EB740910401509105013A
S11311B0241B350BE091D703F091D803E217F30712
S11311C0A0F42E1B3F0B2817390778F0AC014E5FB3
S11311D05F4F2417350748F04E0F5F1F5093D80315
S11311E04093D7038193919302C0E0E0F0E0CF01F4
S11311F0DF91CF911F910F910895CF93DF930097C3
S113120009F481C0FC01329713821282A091D903A0
S1131210B091DA03109781F420813181820F931FFA
S11312202091D7033091D8032817390751F5F0934B
S1131230D803E093D70367C0ED0120E030E0CE1778
S1131240DF0740F44A815B819E0141155105F1F0AD
S1131250EA01F5CFD383C28340815181840F951F66
S1131260C817D90759F488819981840F951F02966C
S1131270918380838A819B819383828321153105A5
S113128029F4F093DA03E093D9033DC0E901FB8329
S1131290EA8349915991C40FD51FEC17FD0761F4F6
S11312A080819181840F951F0296E9019983888337
S11312B0828193819B838A83E0E0F0E012968D9192
S11312C09C911397009719F0FD01DC01F7CF8D91E4
S11312D09C9111979D012E5F3F4F820F931F209188
S11312E0D7033091D8032817390769F4309729F4C4
S11312F01092DA031092D90302C013821282B093BF
S1131300D803A093D703DF91CF910895F894FFCF2A
S10D13100000DB03200004060A9C21
S9030000FC
